:020000040000FA
:100000009CEF2BF0C69A1200BBEF24F084EC08F0B2
:10001000E8EC19F0FDD71200EDEF28F0D9CFE5FF9D
:10002000E1CFD9FF00C0E5FF01C0E5FF02C0E5FF59
:1000300003C0E5FF04C0E5FF05C0E5FF06C0E5FF1E
:1000400007C0E5FF08C0E5FF09C0E5FF0AC0E5FFFE
:100050000BC0E5FF0CC0E5FF0DC0E5FF0EC0E5FFDE
:100060000FC0E5FF10C0E5FF11C0E5FF12C0E5FFBE
:1000700013C0E5FF14C0E5FF15C0E5FF16C0E5FF9E
:1000800017C0E5FF18C0E5FF19C0E5FF1AC0E5FF7E
:100090001BC0E5FF1CC0E5FF1DC0E5FF1EC0E5FF5E
:1000A000020EDBCF00F0030EDBCF01F0040EDBCF3E
:1000B00002F0050EDBCF03F0060EDBCF04F0070ED7
:1000C000DBCF05F0080EDBCF06F0090EDBCF07F023
:1000D0000A0EDBCF08F0096A0A6A02C00DF00D5063
:1000E000800A0DE102500501656F0150646F0050F8
:1000F000636F050E016E630E006E800E026E03C00C
:10010000E9FF04C0F3FF0550E6EC2BF00B6E0B503B
:10011000D8B4C4EF03F00B50250A02E0ABEF03F0B4
:100120000C6A0D6A0E6A0F6A106A0A0E116E126A64
:10013000136A146A200E156E1668176A2B0E186E55
:10014000032A02E3044A052A03C0E9FF04C0F3FFBF
:100150000550E6EC2BF0196E250A13E11950E56EF7
:100160000250E56E0150E56E0050E56E50EC15F062
:10017000040EE126094A0A2A032A02E3044A052A50
:10018000BED71950300A06E1300E156E032A02E37D
:10019000044A052A03C0E9FF04C0F3FF0550E6EC5A
:1001A0002BF02D0A06E1010E146E032A02E3044A25
:1001B000052A03C0E9FF04C0F3FF0550E6EC2BF06D
:1001C000200A08E1010E176E200E186E032A02E3C2
:1001D000044A052A03C0E9FF04C0F3FF0550E6EC1A
:1001E0002BF02B0A06E1010E176E032A02E3044AE4
:1001F000052A03C0E9FF04C0F3FF0550E6EC2BF02D
:10020000196E310E195C2BE33A0E195C28E203C01B
:1002100019F004C01AF005C01BF019C0E9FF1AC09C
:10022000F3FF1B50E6EC2BF01C6E300E1C5C11E350
:100230003A0E1C5C0EE213500A0DF3CF1DF01C5059
:100240001D26D00E1D24136E192A02E31A4A1B2AFA
:10025000E4D719C003F01AC004F01BC005F003C0B6
:10026000E9FF04C0F3FF0550E6EC2BF02E0A2DE168
:10027000032A02E3044A052A166A03C019F004C0DF
:100280001AF005C01BF019C0E9FF1AC0F3FF1B509C
:10029000E6EC2BF01C6E300E1C5C11E33A0E1C5C7D
:1002A0000EE216500A0DF3CF1DF01C501D26D00E85
:1002B0001D24166E192A02E31A4A1B2AE4D719C014
:1002C00003F01AC004F01BC005F003C0E9FF04C02E
:1002D000F3FF0550E6EC2BF0196E6C0A07E1010EF6
:1002E0000C6E032A02E3044A052A09D01950680A51
:1002F00006E1010E0E6E032A02E3044A052A03C03A
:10030000E9FF04C0F3FF0550E6EC2BF0750A06E1A7
:10031000010E106E032A02E3044A052A03C0E9FF16
:1003200004C0F3FF0550E6EC2BF0196E730A05E1EB
:10033000010E0D6E200E156E3FD01950780A03E1A4
:10034000100E116E39D01950580A05E1100E116EB9
:10035000010E126E31D01950630A02E1116A2CD0DD
:1003600019506F0A03E1080E116E26D01950660A63
:1003700003E1010E0F6E20D01950640A1DE01950E0
:10038000690A1AE0105005E0FF0E03260422052238
:1003900013D01950E56E0250E56E0150E56E005025
:1003A000E56E50EC15F0040EE126094A0A2A032AEC
:1003B00002E3044A052AA3D60D5021E00650030F9C
:1003C0000D6E000E0720196E000E08201A6E0DC06B
:1003D00006F019C007F01AC008F0FD0E0D26FF0E3A
:1003E00019221A220DC0E9FF19C0F3FF1A5083EC3D
:1003F0002AF00D6EF3CF19F0F4CF1AF0FDD00F50A4
:100400000DE0000E1A6E080E196E100E0D6E040E21
:100410000626000E072208221668EED016680C5039
:1004200023E00650040F0C6E000E07200F6E000E26
:1004300008201B6E0CC006F00FC007F01BC008F0B0
:10044000FC0E0C26FF0E0F221B220CC0E9FF0FC072
:10045000F3FF1B5036EC29F00C6EF3CF0FF0F4CF06
:100460001BF0E9CF1CF067D00E502FE00650020FB2
:100470000E6E000E07201D6E000E08201E6E0EC0B0
:1004800006F01DC007F01EC008F0FE0E0E26FF0E7F
:100490001D221E220EC0E9FF1DC0F3FF1E5070EC8E
:1004A0002BF00E6E0EC00CF00F6A1B6A1C6A115006
:1004B0000A0A03E11050D8B43ED00C500E6E0EC0A4
:1004C0000CF00F6A1B6A1C6A36D00650020F0E6EC3
:1004D000000E07201D6E000E08201E6E0EC006F0D6
:1004E0001DC007F01EC008F0FE0E0E26FF0E1D22D6
:1004F0001E220EC0E9FF1DC0F3FF1E5070EC2BF052
:100500000E6EF3CF1DF00EC00CF01DC00FF0E86AA8
:100510001DBEFF0E1B6E1C6E11500A0A02E1105028
:100520000AE00C500E6E0F501D6E0EC00CF01DC078
:100530000FF01B6A1C6A040E196EF40E0D6E800E0D
:100540001A6E1150D8B440D0105013E01150E56E1F
:10055000040EE56EF40EE56E1C50E56E1B50E56E64
:100560000F50E56E0C50E56E4CEC0EF0070EE126D8
:1005700012D01150E56E040EE56EF40EE56E1C50BF
:10058000E56E1B50E56E0F50E56E0C50E56E5EECAF
:100590001CF0070EE12617502FE00DC0E9FF19C02F
:1005A000F3FF1A50E6EC2BF02D0A26E0FF0E0D2685
:1005B00019221A2218C0E5FF0DC0E9FF19C0F3FF88
:1005C0001A5099EC2CF018D00CC0E5FF0DC0E9FFD3
:1005D00019C0F3FF1A5099EC2CF00D50010F0C6E5E
:1005E000000E19200E6E000E1A20E56A0CC0E9FFFD
:1005F0000EC0F3FF99EC2CF00DC00CF019C00EF0FA
:100600001AC00FF013C010F0105010E00CC0E9FF3A
:100610000EC0F3FF0F50E6EC2BF0176E175006E0FC
:100620000C2A02E30E4A0F2A1006EED710C013F070
:1006300014501EE109C00CF00AC00EF010C00FF0FB
:100640000F5010E01550E56E0250E56E0150E56E5A
:100650000050E56E50EC15F0040EE1260C4A0E2A0F
:100660000F06EED70CC009F00EC00AF00FC013F051
:1006700016C00CF00DC00DF019C00EF01AC00FF02E
:1006800009C010F00AC015F00DC0E9FF0EC0F3FF5D
:100690000F50E6EC2BF0166E1650D8B43ED00CC0BE
:1006A00016F0176A161E171E1650171005E00CC01C
:1006B00016F00C06165031E00DC0E9FF0EC0F3FF36
:1006C0000F50E6EC2BF0116E125010E01150E56E59
:1006D00017EC2BF0166EE652165004E0DF0E1114E4
:1006E000166E02D011C016F016C011F01150E56E52
:1006F0000250E56E0150E56E0050E56E50EC15F0CD
:10070000040EE1260D2A02E30E4A0F2A104A152A8A
:100710001350D8B4B9D71306B7D710C009F015C015
:100720000AF014502BE010C00CF015C00DF013C0EF
:100730000EF00E501FE0200EE56E0250E56E0150E7
:10074000E56E0050E56E50EC15F0040EE1260C4A03
:100750000D2A0E06EED70B50E56E0250E56E0150E5
:10076000E56E0050E56E50EC15F0040EE126094AE6
:100770000A2A04D00CC009F00DC00AF0032A02E3D3
:10078000044A052A7FEF00F00AC0F3FF0950E4CFC6
:100790001EF0E4CF1DF0E4CF1CF0E4CF1BF0E4CF5B
:1007A0001AF0E4CF19F0E4CF18F0E4CF17F0E4CF5B
:1007B00016F0E4CF15F0E4CF14F0E4CF13F0E4CF5B
:1007C00012F0E4CF11F0E4CF10F0E4CF0FF0E4CF5B
:1007D0000EF0E4CF0DF0E4CF0CF0E4CF0BF0E4CF5B
:1007E0000AF0E4CF09F0E4CF08F0E4CF07F0E4CF5B
:1007F00006F0E4CF05F0E4CF04F0E4CF03F0E4CF5B
:1008000002F0E4CF01F0E4CF00F0E4CFD9FF120012
:100810003C4E4F20464C4F41543E000000C0E5FF87
:1008200001C0E5FF02C0E5FF03C0E5FF04C0E5FF2E
:1008300005C0E5FF06C0E5FF07C0E5FF08C0E5FF0E
:1008400009C0E5FF0AC0E5FF0BC0E5FF0CC0E5FFEE
:10085000006A016A026A040E025CD8B0E8D101C0E5
:1008600003F0012A100E035CD8B0E1D10001F02B97
:10087000100EF05D01E3F06B0001F039E8441F0B4E
:10088000036E046A700E0326050E042203C0E9FFFE
:1008900004C0EAFFEFCF03F0070EF015046E010E5F
:1008A000056E000E066E045006E0E86CD890053622
:1008B0000636010FFCE3076A0350051607500616BB
:1008C00005500610D880E866D890056A05360550B0
:1008D000D8A4C1D70001F051020DF450046EF3CF3B
:1008E00003F0390E0324056E040E0420066E05C0C5
:1008F000E9FF06C0EAFFEECF05F0EFCF06F00001FA
:10090000EDA19DD0B30E0324076E040E0420086EE3
:1009100007C0E9FF08C0EAFFEECF07F0EFCF08F00D
:100920000650800FF36E0850800FF35C02E1075011
:10093000055C03E2056A066A60D0D30E0326040E46
:10094000042203C0E9FF04C0EAFFEECF03F0EFCFBB
:1009500004F00450800FF36E0650800FF35C02E148
:100960000550035C04E205683F0E066E46D0075052
:10097000055C096E085006580A6EE86A0ABEFF0E4A
:100980000B6EE56E0B50E56E0A50E56E0950E56E94
:10099000E56AE56A400EE56E000EE56A59EC0BF07B
:1009A000096EF3CF0AF0F4CF0BF0E9CF0CF0080E8C
:1009B000E1260750035C076E08500458086EE86A89
:1009C00008BEFF0E036EE56E0350E56E0850E56E3F
:1009D0000750E56E0C50E56E0B50E56E0A50E56E63
:1009E0000950E56EA6EC13F0036EF3CF04F0080E89
:1009F000E1260350056E0450066E0001EC51800F95
:100A0000F36E0650800FF35C02E10550EB5D03E3EB
:100A1000056A066A14D00001EB51FF08036E3F0E11
:100A2000EC55046E0650800FF36E0450800FF35C9B
:100A300002E10350055C03E305683F0E066E00010A
:100A4000F051020DF450046EF3CF03F0930E032621
:100A5000040E042203C0E9FF04C0EAFFEECF03F056
:100A6000EFCF04F00350055C036E04500658046E8B
:100A7000D88004AED89004E3041E036CD8B4042AD2
:100A8000022A0001EC51800FF36E0450800FF35CDA
:100A900002E10350EB5DD8B0DED60001F051020D4B
:100AA000F450086EF3CF07F0930E0726040E0822C9
:100AB00007C0E9FF08C0EAFF05C0EEFF06C0EFFF70
:100AC0000001EDA55AD00001F051020DF450086E5E
:100AD000F3CF07F0000E0724096E050E08200A6EFA
:100AE00009C0E9FF0AC0EAFFEECF0BF0EFCF0CF030
:100AF0000B500C10D8B441D0590E0726040E082212
:100B000007C0E9FF08C0EAFFEECF07F0EFCF08F01B
:100B10000750055C036E08500658046E03101CE075
:100B20000450800F800F02E1010E035C076A073654
:100B30000C50800F800F02E1010E0B5C0B6A0B362C
:100B400007500B1809E109C0E9FF0AC0EAFF03C01A
:100B5000EEFF04C0EFFF7FD60001F051020DF4500C
:100B6000046EF3CF03F0000E0326050E042203C02B
:100B7000E9FF04C0EAFFEE6AEF6A0001EDA343D08B
:100B800000500EE100C003F0002A046AF10E0326B3
:100B9000000E042203C0E9FF04C0EAFF420EEF6E1C
:100BA00000C003F0002A046AF10E0326000E04229E
:100BB000640E0001F025076E03C0E9FF04C0EAFFE0
:100BC00007C0EFFF00C003F0002A046AF10E0326FD
:100BD000000E04220650076E03C0E9FF04C0EAFFBE
:100BE00007C0EFFF00C003F0002A046AF10E0326DD
:100BF000000E04220550076E03C0E9FF04C0EAFF9F
:100C000007C0EFFF28D6F0C003F00650E56E055090
:100C1000E56EE56A0350E56E000EE56E300EE56E9A
:100C2000F00EE56EDBEC22F0070EE12614D602C0D2
:100C300001F000501DE00001EDA31AD000C002F049
:100C4000002A036AF10E0226000E032202C0E9FF09
:100C500003C0EAFF0A0EEF6E0050E56E800EE56EEF
:100C6000000EE56EF10EE56E7EEC18F0040EE12646
:100C70000150E4CF0CF0E4CF0BF0E4CF0AF0E4CF66
:100C800009F0E4CF08F0E4CF07F0E4CF06F0E4CFBA
:100C900005F0E4CF04F0E4CF03F0E4CF02F0E4CFBA
:100CA00001F0E4CF00F0120000C0E5FF01C0E5FF55
:100CB00002C0E5FF03C0E5FF04C0E5FF05C0E5FF96
:100CC00006C0E5FF07C0E5FF08C0E5FF09C0E5FF76
:100CD0000AC0E5FFC2A204D00001EE516DEF08F09A
:100CE0000001EF51D8B41BD10001EE51020DF450B8
:100CF000016EF3CF00F0390E0026040E012200C071
:100D0000E9FF01C0EAFFEECF00F0EFCF01F0230EC4
:100D1000EE25026E036A040E032202C0E9FF03C03F
:100D2000EAFFEFCF02F00250FF0A01E152D0023891
:100D30000F0B036E920E0324046E056A0F0E05223C
:100D4000066A920E03260F0E062203C0E9FF06C0B4
:100D5000EAFFEFCF03F0070E0214066E010E076ED6
:100D6000065005E0E86CD8900736010FFDE3071C3C
:100D7000066E031604C0E9FF05C0EAFF03C0EFFFDB
:100D800002380F0B036E890E0324046E056A0F0EE2
:100D90000522066A890E03260F0E062203C0E9FF0C
:100DA00006C0EAFFEFCF03F0070E0214066E010E35
:100DB000076E065005E0E86CD8900736010FFDE39A
:100DC000071C066E031604C0E9FF05C0EAFF03C056
:100DD000EFFF0001EE51020DF450046EF3CF03F06B
:100DE000390E0326040E042201340130066E003051
:100DF000056E0634063205320634063205320550D9
:100E0000005C056E06500158066EC3CF07F0086AF5
:100E10000750052608500622C4CF07F0086A07507D
:100E20000A6E096A095005260A50062203C0E9FF26
:100E300004C0EAFF05C0EEFF06C0EFFF0001EA5163
:100E4000010A01E06AD00001EE51020DF450046E77
:100E5000F3CF03F0390E0324056E040E0420066E52
:100E600005C0E9FF06C0EAFFEECF00F0EFCF01F0CA
:100E7000B30E0326040E042203C0E9FF04C0EAFFF8
:100E8000EECF05F0EFCF06F09C0E0526D8A00606A3
:100E90000150800FF36E0650800FF35C02E10550A5
:100EA000005C0EE20050640F056E000E0120066E1D
:100EB00003C0E9FF04C0EAFF05C0EEFF06C0EFFF74
:100EC0000001EE51020DF450046EF3CF03F0D30E87
:100ED0000326040E042203C0E9FF04C0EAFFEECF9C
:100EE00005F0EFCF06F0640E0526D8B0062A0650AE
:100EF000800FF36E0150800FF35C02E10050055C3F
:100F00000CE29C0E0026D8A0010603C0E9FF04C035
:100F1000EAFF00C0EEFF01C0EFFF0001EF6B000130
:100F2000EE2B100EEE5D01E3EE6B0001EE39E844AE
:100F30001F0B006E016A700E0026050E012200C014
:100F4000E9FF01C0EAFFEFCF00F0070EEE15016EDA
:100F5000010E036E000E046E015006E0E86CD8909E
:100F600003360436010FFCE3056A005003160550F2
:100F7000041603500410D880E866D890036A03363C
:100F80000350D8A4A8D0230E0001EE25006E016AFC
:100F90000F0E012200C0E9FF01C0EAFFEFCF00F011
:100FA0000044E844FC0B016E0128C26EEE51E56E70
:100FB000EFEC16F0E652230E0001EE25006E016AFA
:100FC000040E012200C0E9FF01C0EAFFEFCF02F0EA
:100FD0000250FF0A01E17BD002380F0B006E920E27
:100FE0000024016E036A0F0E0322046A920E00268B
:100FF0000F0E042200C0E9FF04C0EAFFEFCF00F0AB
:10100000070E0214046E010E056E045005E0E86C34
:10101000D8900536010FFDE30550001201C0E9FF2D
:1010200003C0EAFF00C0EFFF380E006E0F0E016E26
:1010300002380F0B036E046A03500026045001228D
:10104000380E056E0F0E066E05500326065004225C
:1010500003C0E9FF04C0EAFFEFCF03F0070E02165A
:10106000010E046E025005E0E86CD8900436010FC2
:10107000FDE30450031200C0E9FF01C0EAFF03C012
:10108000EFFF0F0145830000000045930F014493DB
:101090000BC0E5FFF2CF0BF0F29E44810000000090
:1010A0000000000000000000000000000000000040
:1010B0000000000000000000000000000000000030
:1010C0000000000044910BBEF28EE4CF0BF0C28210
:1010D000010E0001EF6F0001EE51E4CF0AF0E4CF02
:1010E00009F0E4CF08F0E4CF07F0E4CF06F0E4CF56
:1010F00005F0E4CF04F0E4CF03F0E4CF02F0E4CF56
:1011000001F0E4CF00F0120000C0E5FF01C0E5FFF0
:1011100002C0E5FF03C0E5FF05C0E5FFE7EC2CF0EA
:10112000949293900C0E0F01576F9394B96AB98201
:10113000BD6E939A0F015D6F0F01579B57990F0179
:10114000586BBD9ABD98BE6A0F015D9B5D990F01FA
:101150005E6BFBEC17F09280800E006E0F0E016E3E
:101160000F0E036E380E002603500122800E026E11
:101170000F0E036E800E005E0350015A0F0E056EB7
:10118000380E0226055003220F0E056E800E025EF9
:101190000550035A02C0E9FF03C0EAFFEFCF02F097
:1011A000028000C0E9FF01C0EAFF02C0EFFFE56A6C
:1011B000030EE56E98EC1BF0E652E6529282800E2A
:1011C000006E0F0E016E0F0E036E380E00260350D8
:1011D0000122800E026E0F0E036E800E005E035021
:1011E000015A0F0E056E380E0226055003220F0E0F
:1011F000056E800E025E0550035A02C0E9FF03C06F
:10120000EAFFEFCF02F0028200C0E9FF01C0EAFF6F
:1012100002C0EFFF010EE56E040EE56E98EC1BF0C8
:10122000E652E652928A800E006E0F0E016E0F0E8D
:10123000036E380E002603500122800E026E0F0E40
:10124000036E800E005E0350015A0F0E056E380EBD
:101250000226055003220F0E056E800E025E055019
:10126000035A02C0E9FF03C0EAFFEFCF02F0028A8F
:1012700000C0E9FF01C0EAFF02C0EFFF040EE56E07
:10128000000EE56A98EC1BF0E652E6529284800E5E
:10129000006E0F0E016E0F0E036E380E0026035007
:1012A0000122800E026E0F0E036E800E005E035050
:1012B000015A0F0E056E380E0226055003220F0E3E
:1012C000056E800E025E0550035A02C0E9FF03C09E
:1012D000EAFFEFCF02F0028400C0E9FF01C0EAFF9D
:1012E00002C0EFFF020EE56E010EE56E98EC1BF0FA
:1012F000E652E6529284800E006E0F0E016E0F0EC3
:10130000036E380E002603500122800E026E0F0E6F
:10131000036E800E005E0350015A0F0E056E380EEC
:101320000226055003220F0E056E800E025E055048
:10133000035A02C0E9FF03C0EAFFEFCF02F00284C4
:1013400000C0E9FF01C0EAFF02C0EFFF020EE56E38
:10135000E56E98EC1BF0E652E652929C898C8BEC81
:1013600021F0F19E938C810E006E0F0E016E0F0E18
:10137000036E380E0026035001220F0E036E800EFE
:10138000005E0350015A810E026E0F0E036E0F0EA7
:10139000056E380E0226055003220F0E056E800ED4
:1013A000025E0550035A02C0E9FF03C0EAFFEFCF17
:1013B00002F0029C00C0E9FF01C0EAFF02C0EFFF9B
:1013C000060EE56E800EE56E0F0EE56E810EE56E83
:1013D000000EE56AD2EC21F0050EE126270EE56E3F
:1013E000E56A080EE56E15EC13F0030EE12689ECB4
:1013F00026F00AEC27F0F3CF01F0F4CF02F0E9CFAA
:1014000003F0880F0401336F130E0120346F000EB8
:101410000220356F000E0320366FE4CF05F0E4CFD5
:1014200003F0E4CF02F0E4CF01F0E4CF00F01200CB
:10143000800EE56E040EE56ED30EE56E78EC1FF0BF
:10144000030EE126800EE56E040EE56EB30EE56E2A
:1014500078EC1FF0030EE126800EE56E040EE56EBB
:10146000D50EE56E78EC1FF0030EE126800EE56EDA
:10147000040EE56EB50EE56E78EC1FF0030EE12666
:10148000800EE56E040EE56ED70EE56E78EC1FF06B
:10149000030EE126800EE56E040EE56EB70EE56ED6
:1014A00078EC1FF0030EE126800EE56E040EE56E6B
:1014B000D90EE56E78EC1FF0030EE126800EE56E86
:1014C000040EE56EB90EE56E78EC1FF0030EE12612
:1014D000800EE56E040EE56EDB0EE56E78EC1FF017
:1014E000030EE126800EE56E040EE56EBB0EE56E82
:1014F00078EC1FF0030EE126800EE56E040EE56E1B
:10150000DD0EE56E78EC1FF0030EE126800EE56E31
:10151000040EE56EBD0EE56E78EC1FF0030EE126BD
:10152000800EE56E040EE56EDF0EE56E78EC1FF0C2
:10153000030EE126800EE56E040EE56EBF0EE56E2D
:1015400078EC1FF0030EE126800EE56E040EE56ECA
:10155000E10EE56E78EC1FF0030EE126800EE56EDD
:10156000040EE56EC10EE56E78EC1FF0030EE12669
:10157000800EE56E040EE56EE30EE56E78EC1FF06E
:10158000030EE126800EE56E040EE56EC30EE56ED9
:1015900078EC1FF0030EE126800EE56E040EE56E7A
:1015A000E50EE56E78EC1FF0030EE126800EE56E89
:1015B000040EE56EC50EE56E78EC1FF0030EE12615
:1015C000800EE56E040EE56EE70EE56E78EC1FF01A
:1015D000030EE126800EE56E040EE56EC70EE56E85
:1015E00078EC1FF0030EE126800EE56E040EE56E2A
:1015F000E90EE56E78EC1FF0030EE126800EE56E35
:10160000040EE56EC90EE56E78EC1FF0030EE126C0
:10161000800EE56E040EE56EEB0EE56E78EC1FF0C5
:10162000030EE126800EE56E040EE56ECB0EE56E30
:1016300078EC1FF0030EE126800EE56E040EE56ED9
:10164000ED0EE56E78EC1FF0030EE126800EE56EE0
:10165000040EE56ECD0EE56E78EC1FF0030EE1266C
:10166000800EE56E040EE56EEF0EE56E78EC1FF071
:10167000030EE126800EE56E040EE56ECF0EE56EDC
:1016800078EC1FF0030EE126800EE56E040EE56E89
:10169000F10EE56E78EC1FF0030EE126800EE56E8C
:1016A000040EE56ED10EE56E78EC1FF0030EE12618
:1016B0001200D9CFE5FFE1CFD9FF00C0E5FF01C09F
:1016C000E5FF02C0E5FF03C0E5FF04C0E5FF05C07C
:1016D000E5FF06C0E5FF07C0E5FF020EDBCF00F027
:1016E000030EDBCF01F0040EDBCF02F0050EDBCFE3
:1016F00003F0060EDBCF04F0070EDBCF05F0080E7B
:10170000DBCF06F0090EDBCF07F000500401816F3C
:101710000150826F0250836F0350846F04500401A4
:10172000856F0550866F0650876F0750886F0401DC
:10173000815104018703F4CF01F0F3CF00F0005092
:1017400004018C6F01508D6F0401815104018503E8
:10175000F4CF01F0F3CF00F0005004018A6F015084
:101760008B6F0401845104018503F3CF00F0040161
:101770008D51002600508D6F0401835104018603B2
:10178000F3CF01F001500026005004018D6F0401D9
:10179000835104018503F4CF01F0F3CF00F004017D
:1017A0008C5100268D51012200508C6F01508D6F9D
:1017B0000401825104018603F4CF03F0F3CF02F059
:1017C0000250002603500122005004018C6F01508A
:1017D0008D6F0401825104018703F3CF00F00050A4
:1017E0000401916F0401825104018503F4CF01F0DB
:1017F000F3CF00F0005004018F6F0150906F04018F
:10180000815104018803F3CF00F0005005015F6FA0
:101810000401815104018603F4CF01F0F3CF00F0FD
:10182000005005015D6F01505E6F04018E6B050174
:101830005C6B04018E5104018A25006E04018F51F6
:1018400004018B21016E0401905104018C21026E70
:101850000401915104018D21036E00508A6F0150E3
:101860008B6F02508C6F03508D6F05015C5104012A
:101870008A25006E05015D5104018B21016E050171
:101880005E5104018C21026E05015F5104018D211E
:10189000036E03C0E9FF02C0F4FF01C0F3FF005074
:1018A000E4CF07F0E4CF06F0E4CF05F0E4CF04F096
:1018B000E4CF03F0E4CF02F0E4CF01F0E4CF00F096
:1018C000E4CFD9FF120000C0E5FF01C0E5FF000131
:1018D000E751D8B4F5D09DA81DD09EA81BD0050116
:1018E00089510501861905E144EC2CF00501866B50
:1018F000E7D0000E05018925006E016A040E012261
:1019000000C0E9FF01C0EAFFEFCF82F5892B82C555
:10191000ADFFD6D09EAAD4D0ABA205D00501878159
:1019200044EC2CF0CDD0ABA405D00501878344EC6A
:101930002CF0C6D0ABA03ED0AECF82F5800E000119
:10194000E8110501821904E105018789AB96B8D039
:101950000501825104E082510001E81927E10501E7
:101960008799AB960501825103E00501879702D064
:101970000501878782C58BF584C58CF50501840533
:1019800005018D6F600E05018C25006E016A000E49
:10199000012200C0E9FF01C0EAFF82C5EFFF8C2BE6
:1019A0008C51800A02E105018C6B8AD00501879970
:1019B000AB8686D0AECF82F5050187A919D0800EFF
:1019C0000001E8110501821911E194909D9AAB98EC
:1019D0000501865104E1AD6A44EC2CF007D000C447
:1019E000ADFF010E0501896F9D886AD0AB8668D076
:1019F0000501825105018B2705018C5105018D19C7
:101A00001BE105018B510CE18CC584F5050187B7FD
:101A100012D094909D9AAB98AD6A44EC2CF00BD008
:101A20000501878587B707D094909D9AAB98010EE2
:101A3000AD6E44EC2CF044D005018C5105018519A4
:101A400008E1050185510501841903E044EC2CF0FF
:101A500037D084C500F0016A004A012AE56A800E89
:101A6000E56E0150E56E0050E56E57EC1AF0006E21
:101A7000040EE12600500501836F05018C190CE16D
:101A80001F0E0501821505018D6F8D2B8D2B050114
:101A9000845105018D278D9F8CC500F005018C2B8D
:101AA000016A600E0026000E012200C0E9FF01C09D
:101AB000EAFF82C5EFFF8C51800A02E105018C6BC1
:101AC000E4CF01F0E4CF00F0120000C0E5FF01C058
:101AD000E5FF02C0E5FF03C0E5FF04C0E5FF05C068
:101AE000E5FF06C0E5FF07C0E5FF08C0E5FF09C048
:101AF000E5FF0AC0E5FF006A016A040E015CD8B088
:101B0000B3D0400E0001FE25026E036A050E0322CB
:101B100002C0E9FF03C0EAFFEFCF02F00250FF0A64
:101B200001E19BD00001FE39E8441F0B026E740EE8
:101B30000224036E046A050E042203C0E9FF04C0F8
:101B4000EAFFEFCF03F0070EFE15046E010E056EDF
:101B5000000E066E045006E0E86CD8900536063696
:101B6000010FFCE3076A05500316065007160350E1
:101B70000710D880E866D890036A03360350D880EF
:101B8000E866D890036A0336076A720E0226050ECD
:101B9000072202C0E9FF07C0EAFFEFCF08F008C044
:101BA00009F00A6A095005160A5006160550061073
:101BB000D880E866D890056A05360550D880E86672
:101BC000D890056A05360350051801E146D0035048
:101BD00012E0010E056E045005E0E86CD890053661
:101BE000010FFDE30550081202C0E9FF07C0EAFF3C
:101BF00008C0EFFF17D002C0E9FF07C0EAFFEFCF30
:101C000005F0010E066E045005E0E86CD89006362B
:101C1000010FFDE3061C051602C0E9FF07C0EAFF3D
:101C200005C0EFFF035003E1036A032A01D0036AF2
:101C3000FEC004F0E56A0350E56EE56A0450E56E07
:101C4000000EE56E430EE56E980EE56EDBEC22F0BD
:101C5000070EE126012A01C000F00001FE2B100E44
:101C6000FE5DD8A04AD7FE6B0050E4CF0AF0E4CF67
:101C700009F0E4CF08F0E4CF07F0E4CF06F0E4CFBA
:101C800005F0E4CF04F0E4CF03F0E4CF02F0E4CFBA
:101C900001F0E4CF00F01200D9CFE5FFE1CFD9FF8A
:101CA00000C0E5FF01C0E5FF02C0E5FF03C0E5FF9E
:101CB00004C0E5FF05C0E5FF06C0E5FF07C0E5FF7E
:101CC00008C0E5FF09C0E5FF0AC0E5FF0BC0E5FF5E
:101CD0000CC0E5FF0DC0E5FF0EC0E5FF0FC0E5FF3E
:101CE000020EDBCF00F0030EDBCF01F0040EDBCFE2
:101CF00002F0050EDBCF03F0060EDBCF04F0070E7B
:101D0000DBCF05F0080EDBCF06F0200E076E086A69
:101D100006C009F00A6A0B6A0C6AE56AE56AE56AB8
:101D20000950E56E0350E56E0250E56E0150E56E18
:101D30000050E56E4FEC11F00D6E080EE126300EEE
:101D40000D263A0E0D5C05E30D500E6E270E0E2487
:101D50000D6EFF0E07260822200E07240E6E050EBC
:101D600008200F6E0EC0E9FF0FC0EAFF0DC0EFFFA5
:101D70000C50E56E0B50E56E0A50E56E0950E56EAD
:101D80000350E56E0250E56E0150E56E0050E56EC1
:101D9000A6EC13F0006EF3CF01F0F4CF02F0E9CF20
:101DA00003F0080EE1260050011002100310D8A421
:101DB000AFD707C000F008C001F004C002F005C0B2
:101DC00003F000C004F001C005F0004A012A200E13
:101DD0000426050E052204C0E9FF05C0EAFFEFCF87
:101DE00004F002C0E9FF03C0EAFF04C0EFFF024AAB
:101DF000032A000E015C02E1200E005CE2E302C057
:101E0000E9FF03C0EAFF000EEF6AE4CF0FF0E4CF72
:101E10000EF0E4CF0DF0E4CF0CF0E4CF0BF0E4CF04
:101E20000AF0E4CF09F0E4CF08F0E4CF07F0E4CF04
:101E300006F0E4CF05F0E4CF04F0E4CF03F0E4CF04
:101E400002F0E4CF01F0E4CF00F0E4CFD9FF1200BC
:101E500000C0E5FF01C0E5FF02C0E5FF03C0E5FFEC
:101E600004C0E5FF05C0E5FF06C0E5FF07C0E5FFCC
:101E700008C0E5FF006A016A026A036A046A17EC97
:101E80002CF0056E055002E1E86AA7D0AE0EE56EB3
:101E90005EEC27F0E652E56E800EE56E020EE56E12
:101EA000000EE56EFC0EE56EFBEC1BF0050EE12668
:101EB00000C205F0066A01C207F0086A0750055E15
:101EC0000850065AD88006AED89007E3061C086E64
:101ED000051C076E074A082A04D005C007F006C093
:101EE00008F00850800F800F02E10E0E075C04E33B
:101EF00005C000F006C001F002C205F0066A03C288
:101F000007F0086A0750055E0850065AD88006AEEA
:101F1000D89007E3061C086E051C076E074A082ABE
:101F200004D005C007F006C008F00850800F800FED
:101F300002E10E0E075C04E305C002F006C003F0E8
:101F4000005001101CE0D88001AED89009E30501D3
:101F50009F5103E0010E046E12D005019E2B0FD09D
:101F60000150800F800F02E1010E005C08E30501C3
:101F70009E5103E0020E046E02D005019F2B025019
:101F800003101CE0D88003AED89009E30501A151ED
:101F900003E0030E046E12D00501A02B0FD00350F6
:101FA000800F800F02E1010E025C08E30501A051E1
:101FB00003E0040E046E02D00501A12B00500110B5
:101FC00003E102500310D8A448EC24F0045004E0CC
:101FD0008EEC2CF0045001D0E86AE4CF08F0E4CF96
:101FE00007F0E4CF06F0E4CF05F0E4CF04F0E4CF4F
:101FF00003F0E4CF02F0E4CF01F0E4CF00F01200F0
:10200000D9CFE5FFE1CFD9FF00C0E5FF01C0E5FF73
:1020100002C0E5FF03C0E5FF04C0E5FF05C0E5FF22
:1020200006C0E5FF07C0E5FF08C0E5FF09C0E5FF02
:102030000AC0E5FF0BC0E5FF0CC0E5FF0DC0E5FFE2
:10204000020EDBCF00F0030EDBCF01F0040EDBCF7E
:1020500002F0050EDBCF03F0060EDBCF04F0070E17
:10206000DBCF05F0080EDBCF06F0090EDBCF07F063
:102070000A0EDBCF08F00B0EDBCF09F00C0EDBCF26
:102080000AF00D0EDBCF0BF0940EE56EAFEC20F0F6
:102090000C6EF3CF0DF0E6520CC0E5FF0DC0F4FF5F
:1020A00009C0E9FF0AC0F3FF0B5060EC2CF0960E5C
:1020B000E56EAFEC20F0096EF3CF0AF0E65209C0EE
:1020C000E5FF0AC0F4FF00C0E9FF01C0F3FF0250C2
:1020D00060EC2CF0980EE56EAFEC20F0006EF3CFC4
:1020E00001F0E65200C0E5FF01C0F4FF03C0E9FFC4
:1020F00004C0F3FF055060EC2CF09A0EE56EAFECD7
:1021000020F0006EF3CF01F0E65200C0E5FF01C001
:10211000F4FF06C0E9FF07C0F3FF085060EC2CF0A5
:10212000E4CF0DF0E4CF0CF0E4CF0BF0E4CF0AF0F5
:10213000E4CF09F0E4CF08F0E4CF07F0E4CF06F0F5
:10214000E4CF05F0E4CF04F0E4CF03F0E4CF02F0F5
:10215000E4CF01F0E4CF00F0E4CFD9FF120000C0DB
:10216000E5FF01C0E5FF02C0E5FF03C0E5FF04C0D5
:10217000E5FF05C0E5FF006A400E0024016E026A1B
:10218000050E022201C0E9FF02C0EAFFEFCF01F015
:102190000150FF0A01E171D001380F0B026E036A92
:1021A000800E02260F0E032202C0E9FF03C0EAFFE1
:1021B000EFCF02F0070E0116010E036E000E046E43
:1021C000015006E0E86CD89003360436010FFCE3BA
:1021D000056A025003160550041603500410D880F7
:1021E000E866D890036A0336035024E10038E844D7
:1021F0001F0B016E026A740E0126050E022201C039
:10220000E9FF02C0EAFFEFCF03F0070E0014046EEF
:10221000010E056E045005E0E86CD8900536010FFC
:10222000FDE30550031201C0E9FF02C0EAFF03C04D
:10223000EFFF23D00038E8441F0B016E026A740ED2
:102240000126050E022201C0E9FF02C0EAFFEFCF1E
:1022500003F0070E0014046E010E056E045005E035
:10226000E86CD8900536010FFDE3051C031601C08C
:10227000E9FF02C0EAFF03C0EFFF002A100E005C76
:10228000D8A07AD7E4CF05F0E4CF04F0E4CF03F090
:10229000E4CF02F0E4CF01F0E4CF00F01200D9CF98
:1022A000E5FFE1CFD9FF00C0E5FF01C0E5FF02C0B7
:1022B000E5FF03C0E5FF04C0E5FF05C0E5FF06C07C
:1022C000E5FF07C0E5FF08C0E5FF09C0E5FF0AC05C
:1022D000E5FF020EDBCF00F0030EDBCF01F0040EB2
:1022E000DBCF02F0050EDBCF03F0060EDBCF04F0F0
:1022F000070EDBCF05F0080EDBCF06F0090EDBCFB3
:1023000007F0086A045005100610071005E1E96897
:10231000F468F368E86847D0096A0750800BE8441E
:102320000A6E0A501BE104500426053606360736AD
:102330000750035C08E10650025C05E10550015CB2
:1023400002E10450005C06E2D89007320632053202
:10235000043204D0092A09C008F0DFD70750035C13
:1023600008E10650025C05E10550015C02E1045001
:10237000005C08E30450005E0550015A0650025A02
:102380000750035AD890073206320532043208C08B
:1023900009F008060950E2E103C0E9FF02C0F4FFBA
:1023A00001C0F3FF0050E4CF0AF0E4CF09F0E4CF1E
:1023B00008F0E4CF07F0E4CF06F0E4CF05F0E4CF77
:1023C00004F0E4CF03F0E4CF02F0E4CF01F0E4CF77
:1023D00000F0E4CFD9FF120000C0E5FF01C0E5FF27
:1023E00002C0E5FF03C0E5FF05C0E5FF34EC27F0C0
:1023F0000A0A01E07ED034EC27F0006A016E34EC6A
:1024000027F0036A0026035001220050020BE84027
:10241000010BE838E844F46E0F015751DF0BF4105C
:10242000576F0050010B010BE838F46E5751EF0B5A
:10243000F410576F01340130036E0030026E033424
:102440000332023202500F01586F34EC27F0026A57
:10245000036E34EC27F0056A0224006E0550032059
:10246000016E0050020BE840010BE838E844F46EBE
:10247000BD50DF0BF410BD6E0050010B010BE838AE
:10248000F46EBD50EF0BF410BD6E01340130036EDD
:102490000030026E0334033202320250BE6E34EC5E
:1024A00027F0026A036E34EC27F0056A0224006EFE
:1024B00005500320016E0050020BE840010BE83884
:1024C000E844F46E0F015D51DF0BF4105D6F0050B6
:1024D000010B010BE838F46E5D51EF0BF4105D6FEA
:1024E00001340132003201340132003200500F0158
:1024F0005E6FE4CF05F0E4CF03F0E4CF02F0E4CF69
:1025000001F0E4CF00F01200D9CFE5FFE1CFD9FF11
:1025100000C0E5FF01C0E5FF02C0E5FF03C0E5FF25
:1025200004C0E5FF05C0E5FF06C0E5FF07C0E5FF05
:10253000020EDBCF00F0030EDBCF01F00AEC27F038
:10254000026EF3CF03F0F4CF04F0E9CF05F0E56AB3
:10255000E56A0150E56E0050E56EE56A0F0EE56E26
:10256000420EE56E400EE56E59EC0BF0006EF3CFB7
:1025700001F0F4CF06F0E9CF07F0080EE126E56A96
:10258000E56A030EE56EE80EE56E0750E56E06504F
:10259000E56E0150E56E0050E56EA6EC13F0006E9E
:1025A000F3CF01F0F4CF06F0E9CF07F0080EE126F3
:1025B00000500224006E01500320016E06500420DA
:1025C000026E07500520036E0AEC27F0046EF3CF6D
:1025D00005F0F4CF06F0E9CF07F00050045E01509B
:1025E000055A0250065A0350075A079E3F0E075CD1
:1025F00008E1FF0E065C05E1FF0E055C02E1FF0E3F
:10260000045CE2E2E4CF07F0E4CF06F0E4CF05F0AB
:10261000E4CF04F0E4CF03F0E4CF02F0E4CF01F024
:10262000E4CF00F0E4CFD9FF1200D9CFE5FFE1CF2E
:10263000D9FF00C0E5FF01C0E5FF02C0E5FF03C010
:10264000E5FF04C0E5FF05C0E5FF020EDBCF00F0AB
:10265000030EDBCF01F0040EDBCF02F03F0EC716F6
:10266000C66AC56A0050C6120150C7129488820E0D
:10267000006E0F0E016E0F0E046E380E0026045011
:1026800001220F0E046E800E005E0450015A820E6D
:10269000036E0F0E046E0F0E056E380E03260550E6
:1026A00004220F0E056E800E035E0550045A03C00F
:1026B000E9FF04C0EAFFEFCF03F0039800C0E9FF91
:1026C00001C0EAFF03C0EFFF9486820E006E0F0E7A
:1026D000016E0F0E046E380E0026045001220F0EFC
:1026E000046E800E005E0450015A820E036E0F0EBF
:1026F000046E0F0E056E380E0326055004220F0ED1
:10270000056E800E035E0550045A03C0E9FF04C045
:10271000EAFFEFCF03F0039600C0E9FF01C0EAFF34
:1027200003C0EFFF02C0C8FFC68A9E96A196E4CF01
:1027300005F0E4CF04F0E4CF03F0E4CF02F0E4CFFF
:1027400001F0E4CF00F0E4CFD9FF1200D9CFE5FFCC
:10275000E1CFD9FF00C0E5FF01C0E5FF02C0E5FF02
:1027600003C0E5FF04C0E5FF05C0E5FF06C0E5FFC7
:1027700007C0E5FF08C0E5FF09C0E5FF0AC0E5FFA7
:102780000BC0E5FF0CC0E5FF0DC0E5FF020EDBCF7F
:1027900000F0030EDBCF01F0040EDBCF02F0050EDC
:1027A000DBCF03F0060EDBCF04F0070EDBCF05F026
:1027B000080EDBCF06F0090EDBCF07F0086A096AC6
:1027C0000A6A0B6A200E0C6E0350800BE8440D6EF3
:1027D0000050002601360236033608500826093616
:1027E0000A360B360D50D8A4088007500B5C08E160
:1027F00006500A5C05E10550095C02E10450085CE2
:1028000009E30450085E0550095A06500A5A075059
:102810000B5A00800C040D6E0DC00CF00D50D4E16D
:1028200003C0E9FF02C0F4FF01C0F3FF0050E4CF92
:102830000DF0E4CF0CF0E4CF0BF0E4CF0AF0E4CFDE
:1028400009F0E4CF08F0E4CF07F0E4CF06F0E4CFDE
:1028500005F0E4CF04F0E4CF03F0E4CF02F0E4CFDE
:1028600001F0E4CF00F0E4CFD9FF120000C0E5FF93
:1028700001C0E5FF03C0E5FF04C0E5FF05C0E5FFBB
:1028800006C0E5FF07C0E5FF08C0E5FF09C0E5FF9A
:102890000AC0E5FF0BC0E5FF6EC500F06FC501F093
:1028A00005016E3F01D06F2B0050E56E36EC2CF029
:1028B000E652076E046A056A066A6EC500F06FC5C7
:1028C00001F005016E3F01D06F2B0050E56E36EC34
:1028D0002CF0E6520B6A0A6E086A085004120512C0
:1028E0000A5006120B5007126EC500F06FC501F0BA
:1028F00005016E3F01D06F2B0050E56E36EC2CF0D9
:10290000E652036E006A03C001F0E86A03BEFF0EE0
:10291000086E096E0050041201500512085006128C
:10292000095007126EC500F06FC501F005016E3F3A
:1029300001D06F2B0050E56E36EC2CF0E652016AA8
:102940000412015005120612071207C0E9FF06C063
:10295000F4FF05C0F3FF0450E4CF0BF0E4CF0AF01E
:10296000E4CF09F0E4CF08F0E4CF07F0E4CF06F0BD
:10297000E4CF05F0E4CF04F0E4CF03F0E4CF01F0BE
:10298000E4CF00F0120000C0E5FF01C0E5FF02C087
:10299000E5FF03C0E5FF04C0E5FF05018551050122
:1029A000841901E15FD085C500F0002A009E600E09
:1029B0000024016E026A000E022201C0E9FF02C07B
:1029C000EAFFEFCF8FF51F0E05018F1785C58EF536
:1029D0008F5105018E278E2B8E2B8E9F34EC27F086
:1029E000016E015003E1016A012A01D0016A34EC51
:1029F00027F005018F6F800E8F15026E1F0E8F1549
:102A0000036E03C004F003C08FF5045003E184C5D6
:102A100085F53BD001501BE0025022E034EC27F05A
:102A2000006E05018F070050420A1AE000504E0A5E
:102A300003E159EC22F014D00050460A03E178EC8F
:102A40002CF00ED00050490A0BE1FF0009D085C5DB
:102A500090F5025003E0C1EC1CF002D0ECEC11F058
:102A60008EC585F50001E4510001E51906E0050178
:102A7000865103E166EC16F008D094B006D005014B
:102A8000865103E1ACB244EC2CF0E4CF04F0E4CF87
:102A900003F0E4CF02F0E4CF01F0E4CF00F0120045
:102AA000D9CFE5FFE1CFD9FF00C0E5FF01C0E5FFC9
:102AB00002C0E5FF03C0E5FF04C0E5FF05C0E5FF78
:102AC00006C0E5FF07C0E5FF020EDBCF00F0030EF6
:102AD000DBCF01F0040EDBCF02F0050EDBCF03F0FD
:102AE00002C006F00650046E800A33E100C0E9FF20
:102AF00001C0F3FF025083EC2AF0056EF3CF06F01D
:102B0000F4CF07F003C0E5FF05C0E9FF06C0F3FFFF
:102B1000075099EC2CF000C0E9FF01C0F3FF025010
:102B200083EC2AF0056EF3CF06F0F4CF07F0052A08
:102B300002E3064A072A05C0E5FF06C0F4FF07C006
:102B4000F6FF00C0E9FF01C0F3FF025027EC2CF0B4
:102B500020D004C000F000AA1CD0007A0050046EFF
:102B600004E10350ECEC2CF014D00450010A04E111
:102B70000350FFEC2CF00DD004500F0A04E1035079
:102B8000CAEC25F006D004500E0A03E10350FCEC19
:102B90002CF0E4CF07F0E4CF06F0E4CF05F0E4CF6B
:102BA00004F0E4CF03F0E4CF02F0E4CF01F0E4CF8F
:102BB00000F0E4CFD9FF1200D9CFE5FFE1CFD9FF74
:102BC00000C0E5FF01C0E5FF02C0E5FF03C0E5FF6F
:102BD00004C0E5FF05C0E5FF06C0E5FF07C0E5FF4F
:102BE00008C0E5FF09C0E5FF0AC0E5FF020EDBCF24
:102BF00000F0030EDBCF01F0040EDBCF02F0050E78
:102C0000DBCF03F0060EDBCF04F0070EDBCF05F0C1
:102C10000038E8441F0B066E076A700E0626050E84
:102C2000072206C0E9FF07C0EAFFEFCF08F0070E52
:102C30000014096E010E0A6E095005E0E86CD89088
:102C40000A36010FFDE30A50081206C0E9FF07C06B
:102C5000EAFF08C0EFFF230E0024066E076A0F0E7E
:102C6000072206C0E9FF07C0EAFF01C0EFFF016AC3
:102C7000230E0026040E0122800E025E070E0216AD
:102C80000238F00B036E070E05160550032600C030
:102C9000E9FF01C0EAFF03C0EFFFE4CF0AF0E4CF91
:102CA00009F0E4CF08F0E4CF07F0E4CF06F0E4CF7A
:102CB00005F0E4CF04F0E4CF03F0E4CF02F0E4CF7A
:102CC00001F0E4CF00F0E4CFD9FF120000C0E5FF2F
:102CD00001C0E5FF02C0E5FF03C0E5FFACA276D06E
:102CE00056EC29F0006E005005E10001E56B000193
:102CF000E46B6CD0E5C001F00050012656EC29F0E1
:102D0000026E00060250230A1FE1010E005CD8A0EB
:102D10005BD056EC29F0026E690A03E1FBEC25F06A
:102D200053D00250720A03E144EC2CF04DD0025013
:102D3000730A01E049D09480AB869D8A9D98AE507D
:102D4000AE50AB98AB8840D00250430A05E0025029
:102D5000420A01E039D001D0008E00C088F5005051
:102D60000401006F010E0501896F0001E551011892
:102D700014E056EC29F0026E05018827000E0501CB
:102D80008925006E036A040E032200C0E9FF03C018
:102D9000EAFF02C0EFFF892BE8D7000E0501892565
:102DA000006E026A040E02220501881D036E032ACA
:102DB00000C0E9FF02C0EAFF03C0EFFF0501892B55
:102DC00089C586F50501806B01C0E5F0E4CF03F00D
:102DD000E4CF02F0E4CF01F0E4CF00F01200D9CF4D
:102DE000E5FFE1CFD9FF00C0E5FF01C0E5FF02C06C
:102DF000E5FF03C0E5FF04C0E5FF05C0E5FF06C031
:102E0000E5FF020EDBCF00F000502FE1928A800E2A
:102E1000016E0F0E026E0F0E046E380E0126045066
:102E20000222800E036E0F0E046E800E015E0450AF
:102E3000025A0F0E066E380E0326065004220F0E9D
:102E4000066E800E035E0650045A03C0E9FF04C0FC
:102E5000EAFFEFCF03F0038A01C0E9FF02C0EAFFF7
:102E600003C0EFFF9298899831D00050020A2EE1FA
:102E70009288800E006E0F0E016E0F0E036E380EDC
:102E8000002603500122800E026E0F0E036E800E8C
:102E9000005E0350015A0F0E056E380E02260550D3
:102EA00003220F0E056E800E025E0550035A02C00B
:102EB000E9FF03C0EAFFEFCF02F0028800C0E9FF9C
:102EC00001C0EAFF02C0EFFF929A899AE4CF06F0B0
:102ED000E4CF05F0E4CF04F0E4CF03F0E4CF02F058
:102EE000E4CF01F0E4CF00F0E4CFD9FF1200D9CF56
:102EF000E5FFE1CFD9FF00C0E5FF01C0E5FF02C05B
:102F0000E5FF03C0E5FF04C0E5FF05C0E5FF06C01F
:102F1000E5FF020EDBCF00F0030EDBCF01F0040E65
:102F2000DBCF02F0050EDBCF03F003C004F0056A2F
:102F30000350D8B44FD000C0E9FF01C0F3FF0250E6
:102F4000E6EC2BF0066E430A03E1010E056E038EDC
:102F50000406002A02E3014A022A94909D9AAB9843
:102F60009D989EA8FED7AC80AD6A00009EA8FED7B3
:102F7000AC9003C0ADFF00009EA8FED7055004E052
:102F8000420EAD6E032604D0620EAD6E620E0326B5
:102F9000045015E000009EA8FED700C0E9FF01C064
:102FA000F3FF0250E6EC2BF0056E05C0ADFF0550B7
:102FB00003260406002A02E3014A022AE9D7000098
:102FC0009EA8FED7031CAD6EAD2A00009EA8FED7BA
:102FD00044EC2CF0E4CF06F0E4CF05F0E4CF04F0AD
:102FE000E4CF03F0E4CF02F0E4CF01F0E4CF00F04F
:102FF000E4CFD9FF120000C0E5FF01C0E5FF02C029
:10300000E5FF03C0E5FF04C0E5FF006A700E002481
:10301000016E026A050E022201C0E9FF02C0EAFF4A
:10302000EF6A002A020E005CF1E3006A0050020D14
:10303000F450026EF3CF01F0390E0124036E040E3A
:103040000220046E03C0E9FF04C0EAFFEE6AEF6AE3
:10305000590E0124036E040E0220046E03C0E9FF22
:1030600004C0EAFFEE6AEF6A930E0124036E040EB9
:103070000220046E03C0E9FF04C0EAFFEE6AEF6AB3
:10308000B30E0124036E040E0220046E03C0E9FF98
:1030900004C0EAFFEE6AEF6AD30E0126040E022294
:1030A00001C0E9FF02C0EAFFEE687F0EEF6E230E5B
:1030B0000024016E026A040E022201C0E9FF02C070
:1030C000EAFFEF68002A100E005CD8A0AFD7AF0E61
:1030D000C06EC16A010EC26EC282E4CF04F0E4CFBA
:1030E00003F0E4CF02F0E4CF01F0E4CF00F01200EF
:1030F0004320412025642025640A0000D9CFE5FF44
:10310000E1CFD9FF00C0E5FF01C0E5FF02C0E5FF48
:1031100003C0E5FF04C0E5FF05C0E5FF06C0E5FF0D
:1031200007C0E5FF020EDBCF00F0030EDBCF01F09E
:10313000040EDBCF02F0050EDBCF03F0E5C0E6F0B6
:103140000001E4510001E65FE60703C004F0056AF0
:10315000030E0426D8B0052AE6C006F0076A075019
:10316000800FF36E0550800FF35C02E10450065CA3
:1031700002E2E8682BD0020E035C02E2E86A26D085
:1031800003060350E56E97EC23F0E652046A035001
:10319000045C14E204500024056EE86A0120066E07
:1031A000E86A022005C0E9FF06C0F3FFE6EC2BF059
:1031B000042AE56E97EC23F0E652E9D7E5C0E6F085
:1031C0000001E4510001E65FE607E86AE4CF07F09A
:1031D000E4CF06F0E4CF05F0E4CF04F0E4CF03F051
:1031E000E4CF02F0E4CF01F0E4CF00F0E4CFD9FF68
:1031F0001200920EE56E5EEC27F0E652AB0A02E09A
:10320000E86A6ED0E56A0A0EE56E62EC20F0E652DE
:10321000E652010EE56E49EC2AF0E652000EE56A30
:1032200082EC24F0E652000EE56AB4EC26F0E65299
:10323000000EE56A88EC27F0E65205019599959B0A
:103240009551E56E800EE56E75EC29F0E652E6527A
:10325000E56AE56AE56AE56AE70EE56E29EC1FF0C6
:10326000050EE126000EE56AB2EC27F0E652E56AAB
:103270000A0EE56E84EC12F0E652E652010EE56E9F
:10328000B2EC27F0E652E56A0A0EE56E84EC12F025
:10329000E652E652000EE56A2CEC2AF0E652010EE8
:1032A000E56EB3EC29F0E652020EE56E94EC29F0DF
:1032B000E652320EE56E5AEC2BF0E6528EEC2CF014
:1032C000050196513F0BC009966FC00B0909966F17
:1032D000E56EA60EE56E75EC29F0E652E652010E9B
:1032E0001200D9CFE5FFE1CFD9FF00C0E5FF01C053
:1032F000E5FF02C0E5FF03C0E5FF04C0E5FF05C030
:10330000E5FF020EDBCF00F0030EDBCF01F0040E71
:10331000DBCF02F00050020DF450036EF3CF00F04B
:10332000590E0024046E040E0320056E04C0E9FF4C
:1033300005C0EAFF01C0EEFF02C0EFFF930E0024BC
:10334000046E040E0320056E04C0E9FF05C0EAFF09
:10335000EECF04F0EFCF05F00150045C016E025097
:103360000558026E000E0026050E032200C0E9FF7C
:1033700003C0EAFF01C0EEFF02C0EFFFD88002AE3B
:10338000D89004E3021E016CD8B4022A0250800FC8
:10339000800F02E1030E015C02E2016A026A015041
:1033A000021007E100C0E9FF03C0EAFF000EEE6A69
:1033B000EF6AE4CF05F0E4CF04F0E4CF03F0E4CF0C
:1033C00002F0E4CF01F0E4CF00F0E4CFD9FF120027
:1033D00000C0E5FF01C0E5FF02C0E5FF03C0E5FF57
:1033E000C3EC14F054EC06F0AFEC10F0C3EC14F0A6
:1033F00020EC1DF0C3EC14F00AEC27F0006EF3CFC4
:1034000001F0F4CF02F0E9CF03F004013351005E84
:103410003451015A3551025A3651035A039E3F0E18
:10342000035C08E1FF0E025C05E1FF0E015C02E1B6
:10343000FF0E005C33E20AEC27F0F3CF01F0F4CF8B
:1034400002F0E9CF03F0100F0401336F270E0120C3
:10345000346F000E0220356F000E0320366F65ECCE
:103460000DF0006E0050D8B40EEC04F00001E12B1A
:10347000C3EC14F0C3EC14F00001E1510FE1E0C023
:1034800000F0E56A0050E56E000EE56E4D0EE56E4B
:10349000560EE56EDBEC22F0050EE126E4CF03F0DC
:1034A000E4CF02F0E4CF01F0E4CF00F01200D9CF76
:1034B000E5FFE1CFD9FF00C0E5FF01C0E5FF02C095
:1034C000E5FF03C0E5FF04C0E5FF05C0E5FF06C05A
:1034D000E5FF020EDBCF00F0030EDBCF01F0040EA0
:1034E000DBCF02F0050EDBCF03F0D88001AED89021
:1034F000046A0436045007E0011C066E001C056EC9
:10350000054A062A04D000C005F001C006F0D880A4
:1035100003AED89007E3031C016E021C006E004A44
:10352000012A04D002C000F003C001F00150E56E92
:103530000050E56E0650E56E0550E56E7EEC1DF020
:10354000006EF3CF01F0040EE12604500AE0011CE6
:10355000036E001C026E024A032A03C0F3FF0250EE
:1035600003D001C0F3FF0050E4CF06F0E4CF05F034
:10357000E4CF04F0E4CF03F0E4CF02F0E4CF01F0B5
:10358000E4CF00F0E4CFD9FF1200D9CFE5FFE1CFBF
:10359000D9FF00C0E5FF01C0E5FF02C0E5FF03C0A1
:1035A000E5FF04C0E5FF05C0E5FF020EDBCF00F03C
:1035B000030EDBCF01F0040EDBCF02F0050EDBCFF4
:1035C00003F06EC504F06FC505F005016E3F01D034
:1035D0006F2B0350E56E0450E56E12EC29F0E652B5
:1035E000E6526EC504F06FC505F005016E3F01D0CF
:1035F0006F2B0250056EE56E0450E56E12EC29F05B
:10360000E652E6526EC504F06FC505F005016E3F47
:1036100001D06F2B0150056EE56E0450E56E12EC83
:1036200029F0E652E6526EC504F06FC505F00501BB
:103630006E3F01D06F2B0050E56E0450E56E12EC2A
:1036400029F0E652E652E4CF05F0E4CF04F0E4CFEF
:1036500003F0E4CF02F0E4CF01F0E4CF00F0E4CFD8
:10366000D9FF1200D9CFE5FFE1CFD9FF00C0E5FFB8
:1036700001C0E5FF02C0E5FF03C0E5FF04C0E5FFB0
:1036800005C0E5FF06C0E5FF020EDBCF00F0030E2C
:10369000DBCF01F0040EDBCF02F00401375119E15A
:1036A00036EC14F0036EF3CF04F0F4CF05F0E9CF5D
:1036B00006F003C0E5FF04C0F4FF05C0F6FF06C036
:1036C000F7FF00C0E9FF01C0F3FF0250D5EC2BF07B
:1036D0001ED004013751010A1AE100C0E9FF01C000
:1036E000F3FF025036EC29F0006EF3CF01F0F4CF77
:1036F00002F0E9CF03F00350E56E0250E56E015091
:10370000E56E0050E56EC5EC1AF0040EE126E4CF3C
:1037100006F0E4CF05F0E4CF04F0E4CF03F0E4CF0B
:1037200002F0E4CF01F0E4CF00F0E4CFD9FF1200C3
:10373000D9CFE5FFE1CFD9FF00C0E5FF01C0E5FF2C
:1037400002C0E5FF03C0E5FF04C0E5FF05C0E5FFDB
:1037500006C0E5FF020EDBCF00F0030EDBCF01F069
:103760000038E8441F0B026E036A700E0226050E35
:10377000032202C0E9FF03C0EAFFEFCF04F0070E07
:103780000014056E010E066E055005E0E86CD89039
:103790000636010FFDE30650041202C0E9FF03C024
:1037A000EAFF04C0EFFF230E0024026E036A0F0E2F
:1037B000032202C0E9FF03C0EAFF01C0EFFF016A74
:1037C000230E0026040E012200C0E9FF01C0EAFF1B
:1037D000FF0EEF68E4CF06F0E4CF05F0E4CF04F08D
:1037E000E4CF03F0E4CF02F0E4CF01F0E4CF00F047
:1037F000E4CFD9FF1200D9CFE5FFE1CFD9FF00C058
:10380000E5FF01C0E5FF02C0E5FF03C0E5FF04C01E
:10381000E5FF05C0E5FF020EDBCF00F0030EDBCFB6
:1038200001F0040EDBCF02F0050EDBCF03F0060E35
:10383000DBCF04F0E56A390EE56E2CEC26F0E6529B
:10384000E6520050E56ED0EC2AF0E65279EC28F012
:10385000010EE56E390EE56E2CEC26F0E652E652CE
:10386000006A04C005F00406055016E0DFEC26F0FF
:10387000056E05C0E5FF01C0E9FF02C0F3FF03507C
:1038800099EC2CF0012A02E3024A032A045002E0D8
:10389000DBEC27F0002AE5D779EC28F00050E4CFE4
:1038A00005F0E4CF04F0E4CF03F0E4CF02F0E4CF7E
:1038B00001F0E4CF00F0E4CFD9FF1200D9CFE5FF4B
:1038C000E1CFD9FF00C0E5FF01C0E5FF02C0E5FF81
:1038D00003C0E5FF04C0E5FF05C0E5FF06C0E5FF46
:1038E000020EDBCF00F0030EDBCF01F0040EDBCFC6
:1038F00002F0050EDBCF03F0060EDBCF04F0070E5F
:10390000DBCF05F0080EDBCF06F0D88003AED890F1
:1039100015E306500A0A12E104C0E9FF05C0EAFFF8
:103920002D0EEF6E044A052A031E021E011E006CB6
:1039300005E1012A03E1022AD8B4032A0650E56E04
:103940000550E56E0450E56E0350E56E0250E56EDD
:103950000150E56E0050E56E4CEC0EF0070EE126CE
:10396000E4CF06F0E4CF05F0E4CF04F0E4CF03F0B9
:10397000E4CF02F0E4CF01F0E4CF00F0E4CFD9FFD0
:10398000120000C0E5FF01C0E5FF02C0E5FF34EC16
:1039900027F0006E4C0A08E134EC27F0300A02E010
:1039A0008B8247D08B9245D00050450A27E1000E0C
:1039B000E56E4D0EE56E620EE56EDBEC22F0030E59
:1039C000E126F6EC2CF0006E00C001F001C002F020
:1039D000010602500FE034EC27F0E56AE56E000EB8
:1039E000E56E4D0EE56E640EE56EDBEC22F0050E25
:1039F000E126ECD70A0ECAEC25F01BD00050520A83
:103A00000AE1270EE56EE56A080EE56E15EC13F087
:103A1000030EE1260ED00050410A0BE1270EE56EA1
:103A2000E56A080EE56E15EC13F0030EE12689EC4D
:103A300026F0E4CF02F0E4CF01F0E4CF00F0120072
:103A400000C0E5FF07EC2CF0006E0050D8B453D056
:103A5000800EE56E050EE56E6C0EE56E800EE56E71
:103A6000050EE56E6A0EE56E800EE56E050EE56EDE
:103A7000680EE56E800EE56E050EE56E660EE56E6F
:103A800000EC10F00C0EE126420E0501506F0A0EFC
:103A9000516F050167510501526F0501665105011E
:103AA000536F050169510501546F05016851050106
:103AB000556F05016B510501566F05016A510501EE
:103AC000576F05016D510501586F05016C510501D6
:103AD000596FD5EC2CF005015A6F0A0E5B6F0C0E76
:103AE000E56E800EE56E050EE56E500EE56E7EEC21
:103AF00018F0040EE126E4CF00F01200D9CFE5FF64
:103B0000E1CFD9FF00C0E5FF01C0E5FF02C0E5FF3E
:103B100003C0E5FF04C0E5FF05C0E5FF06C0E5FF03
:103B2000020EDBCF00F0030EDBCF01F0040EDBCF83
:103B300002F0050EDBCF03F0046A056A0350800B28
:103B4000E844066E065011E1025002260336035087
:103B5000015C02E10250005C04E2D89003320232C0
:103B600004D0052A05C004F0E9D70350015C02E146
:103B70000250005C04E30250005E0350015AD890EA
:103B80000332023204C005F004060550EEE101C024
:103B9000F3FF0050E4CF06F0E4CF05F0E4CF04F0EB
:103BA000E4CF03F0E4CF02F0E4CF01F0E4CF00F083
:103BB000E4CFD9FF1200D9CFE5FFE1CFD9FF00C094
:103BC000E5FF01C0E5FF02C0E5FF03C0E5FF04C05B
:103BD000E5FF05C0E5FF06C0E5FF07C0E5FF020EF3
:103BE000DBCF00F0030EDBCF01F0040EDBCF02F0E1
:103BF000050EDBCF03F0046A056A100E066E015055
:103C0000800BE844076E005000260136045004265D
:103C100005360750D8A404800350055C02E1025029
:103C2000045C05E30250045E0350055A008006045C
:103C3000076E07C006F00750E2E101C0F3FF005035
:103C4000E4CF07F0E4CF06F0E4CF05F0E4CF04F0D2
:103C5000E4CF03F0E4CF02F0E4CF01F0E4CF00F0D2
:103C6000E4CFD9FF1200D9CFE5FFE1CFD9FF00C0E3
:103C7000E5FF01C0E5FF02C0E5FF03C0E5FF020E5E
:103C8000DBCF00F0030EDBCF01F0040EDBCF02F040
:103C900000C0E9FF01C0F3FF0250E6EC2BF0036E19
:103CA000035029E0C6A610D00350E56ED0EC2AF0F0
:103CB000036EE652035002E0FD0E1ED05DEC26F0CE
:103CC000C5AC14D0FE0E18D09E9600C0E9FF01C00E
:103CD000F3FF0250E6EC2BF0C96EC6889EA6FED715
:103CE000C7B404D0C7B002D0FE0E06D0002AD0E37D
:103CF000014A022ACDD7E86AE4CF03F0E4CF02F00C
:103D0000E4CF01F0E4CF00F0E4CFD9FF120000C00F
:103D1000E5FF01C0E5FF02C0E5FF03C0E5FF85C583
:103D200000F0016A90C502F0036A0250005E035081
:103D3000015AE56A800EE56E0150E56E0050E56EB1
:103D400057EC1AF0006E040EE126000690C501F053
:103D5000430ECAEC25F0200ECAEC25F0005020E0FE
:103D6000600E0124026E036A000E032202C0E9FF06
:103D700003C0EAFFEFCF02F0E56A0250E56E000EE5
:103D8000E56E580EE56EA00EE56EDBEC22F0050E3A
:103D9000E126012A0150800A01E1016A0006DED70E
:103DA000E4CF03F0E4CF02F0E4CF01F0E4CF00F081
:103DB0001200D9CFE5FFE1CFD9FF00C0E5FF01C078
:103DC000E5FF02C0E5FF03C0E5FF020EDBCF00F018
:103DD000030EDBCF01F0040EDBCF02F0050EDBCFCC
:103DE00003F0005005017A6F01507B6F025005010E
:103DF0007C6F03507D6F05017A5105017C03F4CF80
:103E000001F0F3CF00F0005005017E6F01507F6F8D
:103E100005017A5105017D03F3CF00F005017B51C7
:103E200005017C03F3CF01F00150002605017F510D
:103E3000002600507F6F7FC5F3FF7E51E4CF03F073
:103E4000E4CF02F0E4CF01F0E4CF00F0E4CFD9FFFB
:103E50001200D9CFE5FFE1CFD9FF00C0E5FF01C0D7
:103E6000E5FF02C0E5FF03C0E5FF04C0E5FF020E69
:103E7000DBCF00F0030EDBCF01F0040EDBCF02F04E
:103E8000050EDBCF03F0060EDBCF04F0E56A390E3A
:103E9000E56E2CEC26F0E652E6520050E56ED0ECD2
:103EA0002AF0E65204C000F00406005012E001C0FF
:103EB000E9FF02C0F3FF0350E6EC2BF0006E012A8D
:103EC00002E3024A032A0050E56ED0EC2AF0E652E3
:103ED000E9D779EC28F0E4CF04F0E4CF03F0E4CFA5
:103EE00002F0E4CF01F0E4CF00F0E4CFD9FF1200FC
:103EF000D9CFE5FFE1CFD9FF00C0E5FF01C0E5FF65
:103F000002C0E5FF03C0E5FF04C0E5FF020EDBCF02
:103F100000F0030EDBCF01F0040EDBCF02F0040152
:103F2000375111E196EC25F0036EF3CF04F003C096
:103F3000E5FF04C0F4FF00C0E9FF01C0F3FF025039
:103F400060EC2CF016D004013751010A12E100C0D8
:103F5000E9FF01C0F3FF025070EC2BF0006EF3CFCD
:103F600001F00150E56E0050E56E5AEC23F0E65288
:103F7000E652E4CF04F0E4CF03F0E4CF02F0E4CF64
:103F800001F0E4CF00F0E4CFD9FF1200D9CFE5FF74
:103F9000E1CFD9FF00C0E5FF01C0E5FF02C0E5FFAA
:103FA00003C0E5FF04C0E5FF020EDBCF00F00038E0
:103FB000E8441F0B016E026A740E0126050E0222F0
:103FC00001C0E9FF02C0EAFFEFCF01F0070E0016C3
:103FD000010E026E000E036E005006E0E86CD890F1
:103FE00002360336010FFCE3046A01500216045046
:103FF000031602500310D880E866D890026A023691
:104000000250D880E866D890026A02360250E4CFA7
:1040100004F0E4CF03F0E4CF02F0E4CF01F0E4CF0A
:1040200000F0E4CFD9FF12009C0EF66E590EF76E29
:10403000000EF86E0900F550056E0900F550066E89
:1040400004E1056702D061EF20F00900F550006E31
:104050000900F550016E0900F550026E09000900D3
:10406000F550E96E0900F550EA6E090009000900F3
:10407000F550036E0900F550046E09000900F6CFF3
:1040800007F0F7CF08F0F8CF09F000C0F6FF01C045
:10409000F7FF02C0F8FF035002E1045007E00900F7
:1040A000F550EE6E0306F8E20406F9D707C0F6FFF6
:1040B00008C0F7FF09C0F8FF050601E2060620EF79
:1040C00020F01200D9CFE5FFE1CFD9FF00C0E5FF16
:1040D00001C0E5FF020EDBCF00F0030EDBCF01F0E5
:1040E0000150E56E0050E56EE56A200EE56ED9ECF4
:1040F0001EF0006EF3CF01F0040EE126E56A590EC2
:10410000E56E0150E56E0050E56EDBEC1DF0006ED3
:10411000F3CF01F0040EE12600500008006E010EFE
:1041200001560150800F7F0F02E1000E005C03E397
:10413000FF0E006E016AD88001AED890D8B0006A38
:104140000050E56E810EE56E75EC29F0E652E65200
:10415000E4CF01F0E4CF00F0E4CFD9FF1200D9CFD3
:10416000E5FFE1CFD9FF00C0E5FF01C0E5FF02C0D8
:10417000E5FF03C0E5FF020EDBCF00F0E56A390E74
:10418000E56E2CEC26F0E652E6520050E56ED0ECDF
:104190002AF0E65279EC28F0010EE56E390EE56E54
:1041A0002CEC26F0E652E652DFEC26F00501786FA3
:1041B000DBEC27F0DFEC26F00501796F79EC28F0D5
:1041C00079C500F0016A0050036E026A78C500F0FC
:1041D000005002120150031203C0F3FF0250E4CF5B
:1041E00003F0E4CF02F0E4CF01F0E4CF00F0E4CF3D
:1041F000D9FF1200D9CFE5FFE1CFD9FF00C0E5FF1D
:1042000001C0E5FF02C0E5FF03C0E5FF04C0E5FF14
:1042100005C0E5FF020EDBCF00F00050010A22E1ED
:10422000016A0150020DF450036EF3CF02F0B30E99
:104230000224046E040E0320056E04C0E9FF05C0CD
:10424000EAFFEE687F0EEF6ED30E0226040E032205
:1042500002C0E9FF03C0EAFFEE6AEF6A012A100E0E
:10426000015CDFE300C0EAF0E4CF05F0E4CF04F046
:10427000E4CF03F0E4CF02F0E4CF01F0E4CF00F0AC
:10428000E4CFD9FF1200D9CFE5FFE1CFD9FF00C0BD
:10429000E5FF01C0E5FF02C0E5FF03C0E5FF04C084
:1042A000E5FF020EDBCF00F0030EDBCF01F0040EC2
:1042B000DBCF02F0036A02C004F0020604501DE0E6
:1042C000DFEC26F0046E00C0E9FF01C0EAFF04C085
:1042D000EFFF004A012A03C004F0C5A6ECD7A1A64F
:1042E00002D0E8680BD0042A04C003F00250F5E0C5
:1042F000DBEC27F0C5B8FED7F0D70350E4CF04F0CD
:10430000E4CF03F0E4CF02F0E4CF01F0E4CF00F01B
:10431000E4CFD9FF120000C0E5FF01C0E5FF02C0F5
:10432000E5FF03C0E5FF04C0E5FF006A720E00244C
:10433000016E026A050E0222740E0024036E046AE6
:10434000050E042203C0E9FF04C0EAFF010EEF6E70
:1043500001C0E9FF02C0EAFFEF6E002A020E005C16
:10436000E5E3006A400E0024016E026A050E022297
:1043700001C0E9FF02C0EAFFEF68002A100E005CEE
:10438000F1E3E4CF04F0E4CF03F0E4CF02F0E4CFB4
:1043900001F0E4CF00F012004320732025642025B3
:1043A000640A0000D9CFE5FFE1CFD9FF00C0E5FFE7
:1043B00001C0E5FF02C0E5FF03C0E5FF04C0E5FF63
:1043C00005C0E5FF020EDBCF00F0030EDBCF01F0EE
:1043D000040EDBCF02F0050EDBCF03F0060EDBCFC1
:1043E00004F0056A400E0026050E0522800E015ECF
:1043F000070E01160138F00B026E070E041604506A
:10440000022600C0E9FF05C0EAFF02C0EFFFE4CFCB
:1044100005F0E4CF04F0E4CF03F0E4CF02F0E4CF02
:1044200001F0E4CF00F0E4CFD9FF1200D9CFE5FFCF
:10443000E1CFD9FF00C0E5FF01C0E5FF02C0E5FF05
:1044400003C0E5FF020EDBCF00F0030EDBCF01F06F
:10445000040EDBCF02F0050EDBCF03F00050E56E5B
:10446000A40EE56E75EC29F0E652E6520150E56EB9
:10447000A50EE56E75EC29F0E652E6520250E56EA7
:10448000A70EE56E75EC29F0E652E6520350E56E94
:10449000A90EE56E75EC29F0E652E652E4CF03F082
:1044A000E4CF02F0E4CF01F0E4CF00F0E4CFD9FF95
:1044B000120000C0E5FF01C0E5FF02C0E5FF34ECDB
:1044C00027F0006E34EC27F0016E0050026ED00E23
:1044D0000224006E0A0E005C05E30050026EF90E25
:1044E0000224006E0150026ED00E0224016E0A0EEC
:1044F000015C05E30150026EF90E0224016E080E04
:10450000005C12E2100E015CD8B00ED00038F00B47
:104510000124006E0EEC24F0016E015005E1005004
:10452000E56EB8EC2AF0E652E4CF02F0E4CF01F0F9
:10453000E4CF00F01200D9CFE5FFE1CFD9FF00C0F2
:10454000E5FF01C0E5FF02C0E5FF03C0E5FF04C0D1
:10455000E5FF020EDBCF00F00038E8441F0B016ED0
:10456000026A700E0126050E022201C0E9FF02C098
:10457000EAFFEFCF03F0070E0016010E046E0050A5
:1045800005E0E86CD8900436010FFDE3041C031627
:1045900001C0E9FF02C0EAFF03C0EFFFE4CF04F06F
:1045A000E4CF03F0E4CF02F0E4CF01F0E4CF00F079
:1045B000E4CFD9FF1200D9CFE5FFE1CFD9FF00C08A
:1045C000E5FF01C0E5FF02C0E5FF020ED924006E41
:1045D000000EDA20016E800E026E030E0026000E21
:1045E000012202220250E56E0150E56E0050E56E98
:1045F000040EDBCFE5FF030EDBCFE5FF020EDBCFC2
:10460000E5FF04017F51E56E7E51E56E7D51E56E5B
:104610000EEC00F0006EF3CF01F0090EE12601C0B0
:10462000F3FF0050E4CF02F0E4CF01F0E4CF00F05C
:10463000E4CFD9FF1200D9CFE5FFE1CFD9FF00C009
:10464000E5FF01C0E5FF02C0E5FF03C0E5FF020E84
:10465000DBCF00F0030EDBCF01F0040EDBCF02F066
:10466000040137510DE12EEC2BF0036E03C0E5FF82
:1046700000C0E9FF01C0F3FF025099EC2CF00FD00D
:1046800004013751010A0BE100C0E9FF01C0F3FF4B
:104690000250E6EC2BF0E56EC7EC28F0E652E4CFD2
:1046A00003F0E4CF02F0E4CF01F0E4CF00F0E4CF78
:1046B000D9FF1200D9CFE5FFE1CFD9FF00C0E5FF58
:1046C00001C0E5FF02C0E5FF03C0E5FF020EDBCF3E
:1046D00000F0030EDBCF01F06EC502F06FC503F0F2
:1046E00005016E3F01D06F2B0150E56E0250E56E63
:1046F00012EC29F0E652E6526EC502F06FC503F0E7
:1047000005016E3F01D06F2B0050E56E0250E56E43
:1047100012EC29F0E652E652E4CF03F0E4CF02F0C7
:10472000E4CF01F0E4CF00F0E4CFD9FF1200D9CFFD
:10473000E5FFE1CFD9FF00C0E5FF01C0E5FF02C002
:10474000E5FF03C0E5FF04C0E5FF020EDBCF00F08C
:10475000E4C001F0026A014A022AE5C003F0046ADB
:104760000150031803E10250041801E001D00ED0FB
:10477000000E0001E425016E026A010E022201C052
:10478000E9FF02C0EAFF00C0EFFFE42BE4CF04F032
:10479000E4CF03F0E4CF02F0E4CF01F0E4CF00F087
:1047A000E4CFD9FF1200D9CFE5FFE1CFD9FF00C098
:1047B000E5FF01C0E5FF02C0E5FF03C0E5FF020E13
:1047C000DBCF00F0016A90C502F0036A02500026B8
:1047D00003500122E56A800EE56E0150E56E00503F
:1047E000E56E57EC1AF0006EF3CF01F0040EE126EF
:1047F000600E0026000E012200C0E9FF01C0EAFFA2
:10480000EFCF00F00050E4CF03F0E4CF02F0E4CFAC
:1048100001F0E4CF00F0E4CFD9FF120000C0E5FFC3
:1048200001C0E5FF02C0E5FF010E006E34EC27F089
:10483000016E01C002F0015023E00050E56E36EC3D
:104840002CF0016EE652015010E10A0E005C0BE202
:104850000A0E006EE56E36EC2CF0016EE652015049
:1048600004E1E8680ED0E8680CD00150021802E0BC
:10487000E86807D0002A1B0E005CD8E3E86801D086
:10488000E86AE4CF02F0E4CF01F0E4CF00F01200D8
:1048900000C0E5FF01C0E5FF02C0E5FF03C0E5FF82
:1048A0000AEC27F0006EF3CF01F0F4CF02F0E9CF6D
:1048B00003F0E56AE56A030EE56EE80EE56E035067
:1048C000E56E0250E56E0150E56E0050E56EA6EC17
:1048D00013F0006EF3CF01F0F4CF02F0E9CF03F054
:1048E000080EE12603C0E9FF02C0F4FF01C0F3FF98
:1048F0000050E4CF03F0E4CF02F0E4CF01F0E4CFC6
:1049000000F01200D9CFE5FFE1CFD9FF00C0E5FFED
:10491000020EDBCF00F000500AE105019D919D5190
:10492000E56EAB0EE56E75EC29F0E652E6520050EE
:10493000D880E866D890006A00360050D880E866D3
:10494000D890006A00360050010BE840E840F46E51
:1049500005019551BF0BF410956FE56E800EE56E65
:1049600075EC29F0E652E6528EEC2CF0E4CF00F024
:10497000E4CFD9FF1200F3CFE5FFF4CFE5FFE9CF95
:10498000E5FFEACFE5FFFACFE5FFFBCFE5FF00014A
:10499000E2510F01356F0001E3510F01366FD65020
:1049A000336FD750346FF2A411D00001E23F01D031
:1049B000E32BF2940001E2510F01356F0001E35146
:1049C0000F01366FD650336FD750346FE4CFFBFFF3
:1049D000E4CFFAFFE4CFEAFFE4CFE9FFE4CFF4FF4E
:1049E000E4CFF3FF1100D9CFE5FFE1CFD9FF00C03D
:1049F000E5FF01C0E5FF020EDBCF00F0030EDBCFC9
:104A000001F0010E015C02E2010E016E410E015C3B
:104A100002E3400E016E01060050030BE840E8403F
:104A2000F46E050198513F0BF410986F01503F0B45
:104A3000F46E9851C00BF410986FE56E8E0EE56E13
:104A400075EC29F0E652E652E4CF01F0E4CF00F035
:104A5000E4CFD9FF1200D9CFE5FFE1CFD9FF00C0E5
:104A6000E5FF01C0E5FF02C0E5FF03C0E5FF020E60
:104A7000DBCF00F0E56E800EE56E050EE56E760E7E
:104A8000E56E0050E56EFBEC1BF0050EE12676C5E9
:104A900000F0016A0050036E026A77C500F0005012
:104AA00002120150031203C0F3FF0250E4CF03F0DF
:104AB000E4CF02F0E4CF01F0E4CF00F0E4CFD9FF7F
:104AC0001200D9CFE5FFE1CFD9FF00C0E5FF01C05B
:104AD000E5FF020EDBCF00F0030EDBCF01F001504B
:104AE000030BE838F46E0501A251CF0BF410A26F4E
:104AF000E56E900EE56E75EC29F0E652E652005038
:104B0000030BE838F46E05019751CF0BF410976F43
:104B1000E56E8F0EE56E75EC29F0E652E652E4CFB5
:104B200001F0E4CF00F0E4CFD9FF120000C0E5FFB0
:104B300001C0E5FF02C0E5FF03C0E5FF6EC500F060
:104B40006FC501F005016E3F01D06F2B0050E56E7F
:104B500036EC2CF0E652036E026A6EC500F06FC5AB
:104B600001F005016E3F01D06F2B0050E56E36EC71
:104B70002CF0E652016A02120150031203C0F3FF47
:104B80000250E4CF03F0E4CF02F0E4CF01F0E4CF31
:104B900000F0120000C0E5FF01C0E5FF02C0E5FF24
:104BA000006E000E0001E925016E026A0F0E02225E
:104BB00001C0E9FF02C0EAFF00C0EFFF220EE95D7D
:104BC00001E2E92B00500A0A0FE10001E951E56E0C
:104BD000800EE56E0F0EE56E000EE56E7EEC18F0B1
:104BE000040EE1260001E96BE4CF02F0E4CF01F00E
:104BF000E4CF00F012000001E46B0001E56B00015E
:104C0000E66994808B909480B06A3F0EAF6EB88650
:104C1000AC8AAC84AC8CAC90AB8CAB8E0501876B52
:104C20000501816B0501846B0501856B0501866BB0
:104C3000000EE56A36EC2CF00001E86FE6529F9812
:104C40009F9A010E0001E76F04017D6B7E6B2F0EB2
:104C50007F6F44EC2CF01200D9CFE5FFE1CFD9FFF4
:104C600000C0E5FF01C0E5FF02C0E5FF020EDBCF9B
:104C700000F0030EDBCF01F0A0EC28F00044FE0BA7
:104C8000026E0150D880E866D890006A0036005065
:104C9000D880E866D890006A0036005002120250B0
:104CA000E56ED0EC2AF0E652E4CF02F0E4CF01F05A
:104CB000E4CF00F0E4CFD9FF120000C0E5FF01C04F
:104CC000E5FF02C0E5FF03C0E5FFE80E006E030E3E
:104CD000016E0050FF0F026EFF0E0120036E02C036
:104CE00000F003C001F0025003100AE01F0EC514CB
:104CF000026E036AC7B4032A035002120250E9E1AC
:104D0000E4CF03F0E4CF02F0E4CF01F0E4CF00F011
:104D10001200F9EC18F00001E06FE0511BE0010E09
:104D2000E56E88EC27F0E652030EE56E49EC2AF0BA
:104D3000E652E56A0A0EE56E62EC20F0E652E652B3
:104D4000010EE56EB4EC26F0E652080EE56ED2ECEC
:104D500029F0E652120043415044534F4B20256442
:104D60000A00430025630000D9CFE5FFE1CFD9FF5A
:104D700000C0E5FF020EDBCF00F00050D880E866EF
:104D8000D890006A00360050D880E866D890006A53
:104D900000360050010BE844E844F46E05019551DB
:104DA000FB0BF410956FE56E800EE56E75EC29F047
:104DB000E652E652E4CF00F0E4CFD9FF120000C083
:104DC000E5FF01C0E5FF02C0E5FF03C0E5FFE80E17
:104DD000006E030E016E5DEC26F0C5860050FF0FDD
:104DE000026EFF0E0120036E02C000F003C001F04E
:104DF0000250031005E0E1EC2CF0026E0250EEE0F0
:104E0000C950E4CF03F0E4CF02F0E4CF01F0E4CFE7
:104E100000F012000001E25104017B6F0001E35138
:104E200004017C6FD650796FD7507A6F7B510001A7
:104E3000E21905E104017C510001E3190CE00001D5
:104E4000E25104017B6F0001E35104017C6FD650F5
:104E5000796FD7507A6F7CC4E9FF7BC4F4FF7AC4C2
:104E6000F3FF04017951120000C0E5FF01C0E5FF26
:104E70000501855105018E1905E0050185510501E2
:104E8000841902E1E86A15D085C500F00501852B7B
:104E9000016A600E0026000E012200C0E9FF01C079
:104EA000EAFFEFCF00F08551800A02E10501856B32
:104EB0000050E4CF01F0E4CF00F01200D9CFE5FFBD
:104EC000E1CFD9FF00C0E5FF020EDBCF00F0E56ABD
:104ED000390EE56E2CEC26F0E652E6520050E56EF7
:104EE000D0EC2AF0E65279EC28F0010EE56E390E8E
:104EF000E56E2CEC26F0E652E652DFEC26F0006E72
:104F000079EC28F00050E4CF00F0E4CFD9FF120094
:104F1000D9CFE5FFE1CFD9FF00C0E5FF020EDBCF1F
:104F200000F00050D880E866D890006A0036005043
:104F3000D880E866D890006A00360050010BE8443B
:104F4000F46E05019551FD0BF410956FE56E800E22
:104F5000E56E75EC29F0E652E652E4CF00F0E4CFBE
:104F6000D9FF1200D9CFE5FFE1CFD9FF00C0E5FF9F
:104F7000020EDBCF00F00050D880E866D890006ABF
:104F800000360050D880E866D890006A003600509D
:104F9000010BF46E05019551FE0BF410956FE56E53
:104FA000800EE56E75EC29F0E652E652E4CF00F093
:104FB000E4CFD9FF120000C0E5FF01C0E5FF02C049
:104FC000E5FF03C0E5FFE80E006E030E016E5DEC29
:104FD00026F09E96C59AC5880050FF0F026EFF0E00
:104FE0000120036E02C000F003C001F00250031064
:104FF00002E09EA6F1D7E4CF03F0E4CF02F0E4CFC5
:1050000001F0E4CF00F0120000C0E5FFF0EC2CF05E
:105010000401896B806B8983006A89B3002A005080
:10502000010BE844F46E8051FD0BF410806FD58EB7
:10503000D59CD59AD588D596D594D582D580F28A37
:10504000F184D08EF28EF28CBA80FF0EBB68BA84E7
:10505000E4CF00F01200D9CFE5FFE1CFD9FF00C0C7
:10506000E5FF01C0E5FF020EDBCF00F00050020DAE
:10507000F450016EF3CF00F0000E0026050E012261
:1050800000C0E9FF01C0EAFFEECF00F0EFCF01F072
:1050900001C0F3FF0050E4CF01F0E4CF00F0E4CF13
:1050A000D9FF1200D9CFE5FFE1CFD9FF00C0E5FF5E
:1050B00001C0E5FF020EDBCF00F00050020DF450FE
:1050C000016EF3CF00F0390E0026040E012200C05D
:1050D000E9FF01C0EAFFEECF00F0EFCF01F001C021
:1050E000F3FF0050E4CF01F0E4CF00F0E4CFD9FFAC
:1050F000120000C0E5FF01C0E5FF02C0E5FF03C0EC
:10510000E5FFE80E006E030E016E5DEC26F0C5842F
:105110000050FF0F026EFF0E0120036E02C000F070
:1051200003C001F00250031002E0C5B4F1D7E4CF90
:1051300003F0E4CF02F0E4CF01F0E4CF00F012007E
:1051400000C0E5FF01C0E5FF02C0E5FF03C0E5FFC9
:10515000E80E006E030E016E5DEC26F0C580005077
:10516000FF0F026EFF0E0120036E02C000F003C0AD
:1051700001F00250031002E0C5B0F1D7E4CF03F014
:10518000E4CF02F0E4CF01F0E4CF00F01200D9CF79
:10519000E5FFE1CFD9FF00C0E5FF01C0E5FF02C098
:1051A000E5FF020EDBCF00F06EC501F06FC502F027
:1051B00005016E3F01D06F2B0050E56E0150E56E8A
:1051C00012EC29F0E652E652E4CF02F0E4CF01F00F
:1051D000E4CF00F0E4CFD9FF1200D8CFE5FFE0CF55
:1051E000E5FFE56EF3CFE5FFF4CFE5FFE9CFE5FF9F
:1051F000EACFE5FFFACFE5FFFBCFE5FF63EC0CF06C
:10520000E4CFFBFFE4CFFAFFE4CFEAFFE4CFE9FF0E
:10521000E4CFF4FFE4CFF3FFE450E4CFE0FFE4CFCA
:10522000D8FF1000D9CFE5FFE1CFD9FF00C0E5FFDF
:10523000020EDBCF00F0030EDBCFA8FF00C0A9FFFA
:10524000A69EA69CA684F29EF29C550EA76EAA0E60
:10525000A76EA682A6A202D00000FCD7A694F28E6A
:10526000F28CE4CF00F0E4CFD9FF1200E8AE0AD010
:10527000F3CFEAFFEE50EECFF3FFEECFF4FFEECF29
:10528000E9FF1200E8BC05EF2DF0E9CFF6FFF3CF00
:10529000F7FFF86E0900F5500900F5CFF3FF09009C
:1052A000F5CFF4FF0900F5CFE9FF120000C0E5FFDC
:1052B00001C0E5FF0001E4510001E51902E1E86ADF
:1052C0000FD0000E0001E525006E016A010E0122DB
:1052D00000C0E9FF01C0EAFFEFCF00F0E52B00506E
:1052E000E4CF01F0E4CF00F01200D9CFE5FFE1CF29
:1052F000D9FF00C0E5FF020EDBCF00F0030EDBCFCD
:10530000A4F5010EE56E800EE56E050EE56EA40EA9
:10531000E56E0050E56E29EC1FF0050EE126E4CFA6
:1053200000F0E4CFD9FF1200D9CFE5FFE1CFD9FFDC
:1053300000C0E5FF020EDBCF00F00050030BE838A1
:10534000E844F46E05019C519F0BF4109C6FE56ED0
:10535000A30EE56E75EC29F0E652E652E4CF00F0BC
:10536000E4CFD9FF1200D9CFE5FFE1CFD9FF00C0CC
:10537000E5FF020EDBCF00F00050030BE840E840F1
:10538000F46E05019B513F0BF4109B6FE56EA20E6E
:10539000E56E75EC29F0E652E652E4CF00F0E4CF7A
:1053A000D9FF1200D9CFE5FFE1CFD9FF00C0E5FF5B
:1053B000020EDBCF00F00050030BE844E844F46E2B
:1053C00005019751F30BF410976FE56E8F0EE56EA4
:1053D00075EC29F0E652E652E4CF00F0E4CFD9FFB5
:1053E0001200F2CFEAFFF29EA69EA69CA684E9CF09
:1053F000A9FFF3CFAAFFE4CFA8FFAEEC2CF0F4CFC7
:10540000A8FFAEEC2CF0F6CFA8FFAEEC2CF0F7CF57
:10541000A8FFAEEC2CF0A694EABEF28E1200D9CF13
:10542000E5FFE1CFD9FF00C0E5FF01C0E5FF020EB7
:10543000DBCF00F0016A400E0026050E012200C0FD
:10544000E9FF01C0EAFFFF0EEF68E4CF01F0E4CF0F
:1054500000F0E4CFD9FF1200D9CFE5FFE1CFD9FFAB
:1054600000C0E5FF020EDBCF00F00050030BF46E2E
:1054700005019A51FC0BF4109A6FE56EAA0EE56EC9
:1054800075EC29F0E652E652E4CF00F0E4CFD9FF04
:105490001200D9CFE5FFE1CFD9FF00C0E5FF020E32
:1054A000DBCF00F00050030BF46E05019751FC0BAD
:1054B000F410976FE56E8F0EE56E75EC29F0E652ED
:1054C000E652E4CF00F0E4CFD9FF1200F2CFF6FFAE
:1054D000F29EA69EA69CE9CFA9FFF3CFAAFFA680C5
:1054E000A850A94AAA2AA680A8CFF3FFA94AAA2AA7
:1054F000A680A8CFF4FFA94AAA2AA680A8CFEAFFCF
:10550000F6BEF28E1200E8AE08D0F3CFEAFFEE50FE
:10551000EECFF3FFEECFF4FF1200E8BC0DEF2DF05D
:10552000E9CFF6FFF3CFF7FFF86E0900F550090059
:10553000F5CFF3FF0900F5CFF4FF1200F2CFEAFF39
:10554000F29EA69EA69CA684E9CFA9FFF3CFAAFF50
:10555000E4CFA8FFAEEC2CF0F4CFA8FFAEEC2CF01B
:10556000F6CFA8FFAEEC2CF0A694EABEF28E1200A5
:10557000D9CFE5FFE1CFD9FF00C0E5FF020EDBCFB9
:1055800000F000C0E8F00050E56E000EE56A12EC95
:1055900029F0E652E652E4CF00F0E4CFD9FF120042
:1055A000D9CFE5FFE1CFD9FF00C0E5FF020EDBCF89
:1055B00000F0C69E00C0C9FFC6AE02D0E86803D0A6
:1055C0005DEC26F0E86AE4CF00F0E4CFD9FF1200EA
:1055D000F2CFF6FFF29EA69EA69CE9CFA9FFF3CFDD
:1055E000AAFFA680A850A94AAA2AA680A8CFF3FF9E
:1055F000A94AAA2AA680A8CFF4FFF6BEF28E12000E
:1056000000C0E5FF01C0E5FF600E05018525006EC5
:10561000016A000E012200C0E9FF01C0EAFFEFCFDE
:1056200000F00050E4CF01F0E4CF00F01200D9CF39
:10563000E5FFE1CFD9FF00C0E5FF020EDBCF00F0B0
:10564000610E005C05E37B0E005C02E2010E01D0FE
:10565000E86AE4CF00F0E4CFD9FF120000C0E5FF14
:1056600001C0E5FF6EC500F06FC501F005016E3F9A
:1056700001D06F2B0050E56E36EC2CF0E652E4CFF3
:1056800001F0E4CF00F01200D9CFE5FFE1CFD9FF60
:1056900000C0E5FF020EDBCF00F000C0E7F00050D5
:1056A00004E144EC2CF09D9A9D98E4CF00F0E4CF07
:1056B000D9FF1200D9CFE5FFE1CFD9FF00C0E5FF48
:1056C000020EDBCF00F00050E56EA00EE56E75EC2B
:1056D00029F0E652E652E4CF00F0E4CFD9FF120001
:1056E000E8AE06D0F3CFEAFFEE50EECFF3FF1200A4
:1056F000E8BC03EF2DF0E9CFF6FFF3CFF7FFF86E2C
:105700000900F5500900F5CFF3FF1200F2CFEAFFD0
:10571000F29EA69EA69CA684E9CFA9FFF3CFAAFF7E
:10572000E4CFA8FFAEEC2CF0F4CFA8FFAEEC2CF049
:10573000A694EABEF28E120013EEFFF023EEFFF005
:10574000F86AA68EA69CE9680E0EEA6E0068000E46
:10575000ED6A0050FDE114EC20F006EC00F0FFD7FC
:10576000F2CFF6FFF29EA69EA69CE9CFA9FFF3CF4B
:10577000AAFFA680A850A94AAA2AA680A8CFF3FF0C
:10578000F6BEF28E1200F2CFEAFFF29EA69EA69C13
:10579000A684E9CFA9FFF3CFAAFFE4CFA8FFAEEC20
:1057A0002CF0A694EABEF28E1200E8AE0BD0F3CF36
:1057B000EAFFE4CFEEFFF4CFEEFFF6CFEEFFF7CF38
:1057C000EEFF1200E8BC07EF2DF01200E8AE04D0A7
:1057D000F3CFEAFFEE501200E8BC01EF2DF0E9CF65
:1057E000F6FFF3CFF7FFF86E0900F5501200000046
:1057F00000000000FF000000000A0002000000425C
:10580000000000000000000000000000000000C0D8
:10581000E5FF930EE56E5EEC27F0E6520501A36FFF
:10582000006AA3B1002A0050E4CF00F0120000C0CB
:10583000E5FFAF0EE56E5EEC27F0E6520501996FCD
:10584000006A99B1002A0050E4CF00F01200E8AEDF
:1058500009D0F3CFEAFFE4CFEEFFF4CFEEFFF6CFAF
:10586000EEFF1200E8BC0FEF2DF01200D9CFE5FFDC
:10587000E1CFD9FF020EDBCFA9FFA69CA69EA68092
:10588000A850E4CFD9FF1200ACA2FED79480AE504E
:105890000000AE50AB98AB88AB869D8A9D981200F5
:1058A00025642000F2CFF6FFF29EA69EA69CE9CFCB
:1058B000A9FFF3CFAAFFA680A850F6BEF28E120071
:1058C000E8AE07D0F3CFEAFFE4CFEEFFF4CFEEFF70
:1058D0001200E8BC0BEF2DF01200700ED36E9B8C03
:1058E000FF0E9268936894689668626AF19E12004F
:1058F00000C0E5FF0EEC24F0006E005001E1FF0057
:10590000E4CF00F012000F01456B900E0F01446FC1
:10591000030E0F01436F0F01458F12000501916BBC
:1059200005019E6B05019F6B0501A06B0501A16B35
:105930001200E8AE05D0F3CFEAFFE4CFEEFF12008D
:10594000E8BC09EF2DF01200D9CFE5FFE1CFD9FF78
:10595000020EDBCFEDF0E4CFD9FF1200550EA76E9B
:10596000AA0EA76EA682A6B2FED7A94AAA2A010E3F
:105970000401376F1C0E05016E6F6F6B12005DEC3A
:1059800026F09E96C58AC5889EA6FED71200040101
:10599000376B1C0E05016E6F6F6B12000100EE5726
:1059A0000000E0000000200000009C0EE56E5EECB0
:1059B00027F0E65212005DEC26F0C582C5B2FED794
:1059C0001200C7A002D0010E01D0E86A120004EC58
:1059D00028F0FBEC25F01200ACA2FED7AD6E120051
:1059E0006DEC2CF0120005018551120005018F515C
:1059F00012000001E7511200E8CF7FFF1200C96ECC
:105A0000120052EF2CF0B0EF2BF066EF2AF0F1EF1E
:105A100029F0C3EF2BF086EF2BF0E8EF2AF09EEF92
:025A20002AF06A
:020000040030CA
:010006008574
:00000001FF
