:020000040000FA
:10000000D2EF24F0C69A120030EF20F025EC0DF06C
:10001000AAEC17F0FDD71200EFEF22F0D9CFE5FFE1
:10002000E1CFD9FF00C0E5FF01C0E5FF02C0E5FF59
:1000300003C0E5FF04C0E5FF05C0E5FF06C0E5FF1E
:1000400007C0E5FF08C0E5FF09C0E5FF0AC0E5FFFE
:100050000BC0E5FF0CC0E5FF0DC0E5FF0EC0E5FFDE
:100060000FC0E5FF10C0E5FF11C0E5FF12C0E5FFBE
:1000700013C0E5FF14C0E5FF15C0E5FF16C0E5FF9E
:1000800017C0E5FF18C0E5FF19C0E5FF1AC0E5FF7E
:100090001BC0E5FF1CC0E5FF1DC0E5FF1EC0E5FF5E
:1000A000020EDBCF00F0030EDBCF01F0040EDBCF3E
:1000B00002F0050EDBCF03F0060EDBCF04F0070ED7
:1000C000DBCF05F0080EDBCF06F0090EDBCF07F023
:1000D0000A0EDBCF08F0096A0A6A02C00DF00D5063
:1000E000800A0DE102500301686F0150676F0050F4
:1000F000666F030E016E660E006E800E026E03C008
:10010000E9FF04C0F3FF05501CEC25F00B6E0B500B
:10011000D8B4C4EF03F00B50250A02E0ABEF03F0B4
:100120000C6A0D6A0E6A0F6A106A0A0E116E126A64
:10013000136A146A200E156E1668176A2B0E186E55
:10014000032A02E3044A052A03C0E9FF04C0F3FFBF
:1001500005501CEC25F0196E250A13E11950E56EC7
:100160000250E56E0150E56E0050E56EA1EC15F011
:10017000040EE126094A0A2A032A02E3044A052A50
:10018000BED71950300A06E1300E156E032A02E37D
:10019000044A052A03C0E9FF04C0F3FF05501CEC24
:1001A00025F02D0A06E1010E146E032A02E3044A2B
:1001B000052A03C0E9FF04C0F3FF05501CEC25F03D
:1001C000200A08E1010E176E200E186E032A02E3C2
:1001D000044A052A03C0E9FF04C0F3FF05501CECE4
:1001E00025F02B0A06E1010E176E032A02E3044AEA
:1001F000052A03C0E9FF04C0F3FF05501CEC25F0FD
:10020000196E310E195C2BE33A0E195C28E203C01B
:1002100019F004C01AF005C01BF019C0E9FF1AC09C
:10022000F3FF1B501CEC25F01C6E300E1C5C11E320
:100230003A0E1C5C0EE213500A0DF3CF1DF01C5059
:100240001D26D00E1D24136E192A02E31A4A1B2AFA
:10025000E4D719C003F01AC004F01BC005F003C0B6
:10026000E9FF04C0F3FF05501CEC25F02E0A2DE138
:10027000032A02E3044A052A166A03C019F004C0DF
:100280001AF005C01BF019C0E9FF1AC0F3FF1B509C
:100290001CEC25F01C6E300E1C5C11E33A0E1C5C4D
:1002A0000EE216500A0DF3CF1DF01C501D26D00E85
:1002B0001D24166E192A02E31A4A1B2AE4D719C014
:1002C00003F01AC004F01BC005F003C0E9FF04C02E
:1002D000F3FF05501CEC25F0196E6C0A07E1010EC6
:1002E0000C6E032A02E3044A052A09D01950680A51
:1002F00006E1010E0E6E032A02E3044A052A03C03A
:10030000E9FF04C0F3FF05501CEC25F0750A06E177
:10031000010E106E032A02E3044A052A03C0E9FF16
:1003200004C0F3FF05501CEC25F0196E730A05E1BB
:10033000010E0D6E200E156E3FD01950780A03E1A4
:10034000100E116E39D01950580A05E1100E116EB9
:10035000010E126E31D01950630A02E1116A2CD0DD
:1003600019506F0A03E1080E116E26D01950660A63
:1003700003E1010E0F6E20D01950640A1DE01950E0
:10038000690A1AE0105005E0FF0E03260422052238
:1003900013D01950E56E0250E56E0150E56E005025
:1003A000E56EA1EC15F0040EE126094A0A2A032A9B
:1003B00002E3044A052AA3D60D5021E00650030F9C
:1003C0000D6E000E0720196E000E08201A6E0DC06B
:1003D00006F019C007F01AC008F0FD0E0D26FF0E3A
:1003E00019221A220DC0E9FF19C0F3FF1A50CFECF1
:1003F00023F00D6EF3CF19F0F4CF1AF0FDD00F50AB
:100400000DE0000E1A6E080E196E100E0D6E040E21
:100410000626000E072208221668EED016680C5039
:1004200023E00650040F0C6E000E07200F6E000E26
:1004300008201B6E0CC006F00FC007F01BC008F0B0
:10044000FC0E0C26FF0E0F221B220CC0E9FF0FC072
:10045000F3FF1B5038EC23F00C6EF3CF0FF0F4CF0A
:100460001BF0E9CF1CF067D00E502FE00650020FB2
:100470000E6E000E07201D6E000E08201E6E0EC0B0
:1004800006F01DC007F01EC008F0FE0E0E26FF0E7F
:100490001D221E220EC0E9FF1DC0F3FF1E50A6EC58
:1004A00024F00E6E0EC00CF00F6A1B6A1C6A11500D
:1004B0000A0A03E11050D8B43ED00C500E6E0EC0A4
:1004C0000CF00F6A1B6A1C6A36D00650020F0E6EC3
:1004D000000E07201D6E000E08201E6E0EC006F0D6
:1004E0001DC007F01EC008F0FE0E0E26FF0E1D22D6
:1004F0001E220EC0E9FF1DC0F3FF1E50A6EC24F023
:100500000E6EF3CF1DF00EC00CF01DC00FF0E86AA8
:100510001DBEFF0E1B6E1C6E11500A0A02E1105028
:100520000AE00C500E6E0F501D6E0EC00CF01DC078
:100530000FF01B6A1C6A040E196EF40E0D6E800E0D
:100540001A6E1150D8B440D0105013E01150E56E1F
:10055000040EE56EF40EE56E1C50E56E1B50E56E64
:100560000F50E56E0C50E56E11EC0EF0070EE12613
:1005700012D01150E56E040EE56EF40EE56E1C50BF
:10058000E56E1B50E56E0F50E56E0C50E56E2BECE2
:100590001AF0070EE12617502FE00DC0E9FF19C031
:1005A000F3FF1A501CEC25F02D0A26E0FF0E0D2655
:1005B00019221A2218C0E5FF0DC0E9FF19C0F3FF88
:1005C0001A50A4EC25F018D00CC0E5FF0DC0E9FFCF
:1005D00019C0F3FF1A50A4EC25F00D50010F0C6E5A
:1005E000000E19200E6E000E1A20E56A0CC0E9FFFD
:1005F0000EC0F3FFA4EC25F00DC00CF019C00EF0F6
:100600001AC00FF013C010F0105010E00CC0E9FF3A
:100610000EC0F3FF0F501CEC25F0176E175006E0CC
:100620000C2A02E30E4A0F2A1006EED710C013F070
:1006300014501EE109C00CF00AC00EF010C00FF0FB
:100640000F5010E01550E56E0250E56E0150E56E5A
:100650000050E56EA1EC15F0040EE1260C4A0E2ABE
:100660000F06EED70CC009F00EC00AF00FC013F051
:1006700016C00CF00DC00DF019C00EF01AC00FF02E
:1006800009C010F00AC015F00DC0E9FF0EC0F3FF5D
:100690000F501CEC25F0166E1650D8B43ED00CC08E
:1006A00016F0176A161E171E1650171005E00CC01C
:1006B00016F00C06165031E00DC0E9FF0EC0F3FF36
:1006C0000F501CEC25F0116E125010E01150E56E29
:1006D00063EC24F0166EE652165004E0DF0E11149F
:1006E000166E02D011C016F016C011F01150E56E52
:1006F0000250E56E0150E56E0050E56EA1EC15F07C
:10070000040EE1260D2A02E30E4A0F2A104A152A8A
:100710001350D8B4B9D71306B7D710C009F015C015
:100720000AF014502BE010C00CF015C00DF013C0EF
:100730000EF00E501FE0200EE56E0250E56E0150E7
:10074000E56E0050E56EA1EC15F0040EE1260C4AB2
:100750000D2A0E06EED70B50E56E0250E56E0150E5
:10076000E56E0050E56EA1EC15F0040EE126094A95
:100770000A2A04D00CC009F00DC00AF0032A02E3D3
:10078000044A052A7FEF00F00AC0F3FF0950E4CFC6
:100790001EF0E4CF1DF0E4CF1CF0E4CF1BF0E4CF5B
:1007A0001AF0E4CF19F0E4CF18F0E4CF17F0E4CF5B
:1007B00016F0E4CF15F0E4CF14F0E4CF13F0E4CF5B
:1007C00012F0E4CF11F0E4CF10F0E4CF0FF0E4CF5B
:1007D0000EF0E4CF0DF0E4CF0CF0E4CF0BF0E4CF5B
:1007E0000AF0E4CF09F0E4CF08F0E4CF07F0E4CF5B
:1007F00006F0E4CF05F0E4CF04F0E4CF03F0E4CF5B
:1008000002F0E4CF01F0E4CF00F0E4CFD9FF120012
:100810003C4E4F20464C4F41543E000000C0E5FF87
:1008200001C0E5FF02C0E5FF03C0E5FF04C0E5FF2E
:1008300005C0E5FF06C0E5FF07C0E5FF08C0E5FF0E
:1008400009C0E5FF0AC0E5FFC2A204D003012D5193
:1008500047EF06F003012E51D8B42FD103012D51DB
:10086000020DF450016EF3CF00F0E00E0026000EF2
:10087000012200C0E9FF01C0EAFFEECF00F0EFCF98
:1008800001F0230E2D25026E036A040E032202C01E
:10089000E9FF03C0EAFFEFCF02F00250FF0A01E1D7
:1008A00066D002380F0B036E920E0324046E056AA5
:1008B0000F0E0522066A920E03260F0E062203C0B3
:1008C000E9FF06C0EAFFEFCF03F00250066E070E05
:1008D0000616010E076E06500DE006E6E86CD8908D
:1008E0000736010FFDE306D0D89007BED880073247
:1008F000010FFBE3071C066E0350061604C0E9FF58
:1009000005C0EAFF06C0EFFF02380F0B036E890E29
:100910000324046E056A0F0E0522066A890E03265B
:100920000F0E062203C0E9FF06C0EAFFEFCF03F077
:100930000250066E070E0616010E076E06500DE0F9
:1009400006E6E86CD8900736010FFDE306D0D89094
:1009500007BED8800732010FFBE3071C066E035069
:10096000061604C0E9FF05C0EAFF06C0EFFF030159
:100970002D51020DF450046EF3CF03F0E00E032668
:10098000000E042201340130066E0030056E06347C
:10099000063205320634063205320550005C056E1B
:1009A00006500158066EC3CF07F0086A07500526A7
:1009B00008500622C4CF07F0086A07500A6E096A79
:1009C000095005260A50062203C0E9FF04C0EAFFC9
:1009D00005C0EEFF06C0EFFF03012951010A01E047
:1009E0006AD003012D51020DF450046EF3CF03F0D1
:1009F000E00E0324056E000E0420066E05C0E9FF1C
:100A000006C0EAFFEECF00F0EFCF01F0930E032611
:100A1000040E042203C0E9FF04C0EAFFEECF05F094
:100A2000EFCF06F09C0E0526D8A006060150800FD9
:100A3000F36E0650800FF35C02E10550005C0EE29D
:100A40000050640F056E000E0120066E03C0E9FF22
:100A500004C0EAFF05C0EEFF06C0EFFF03012D5101
:100A6000020DF450046EF3CF03F0B30E0326040E10
:100A7000042203C0E9FF04C0EAFFEECF05F0EFCF88
:100A800006F0640E0526D8B0062A0650800FF36ED5
:100A90000150800FF35C02E10050055C0CE29C0EFB
:100AA0000026D8A0010603C0E9FF04C0EAFF00C089
:100AB000EEFF01C0EFFF03012E6B03012D2B100E83
:100AC0002D5D01E32D6B03012D39E8441F0B006EF2
:100AD000016A6B0E0026030E012200C0E9FF01C06F
:100AE000EAFFEFCF00F02DC301F0070E0116010E53
:100AF000036E000E046E015006E0E86CD8900336D9
:100B00000436010FFCE3056A005003160550041675
:100B100003500410D880E866D890036A0336035067
:100B2000D8A4B3D0230E03012D25006E016A0F0E49
:100B3000012200C0E9FF01C0EAFFEFCF00F000444E
:100B4000E844FC0B016E0128C26E230E2D25006EB9
:100B5000016A040E012200C0E9FF01C0EAFFEFCFE5
:100B600002F00250FF0A01E18CD002380F0B006E38
:100B7000920E0024016E036A0F0E0322046A920E85
:100B800000260F0E042200C0E9FF04C0EAFFEFCFE9
:100B900000F00250046E070E0416010E056E04509C
:100BA0000DE006E6E86CD8900536010FFDE306D0AF
:100BB000D89005BED8800532010FFBE30050051226
:100BC00001C0E9FF03C0EAFF05C0EFFF380E006E69
:100BD0000F0E016E02380F0B036E046A03500026DD
:100BE00004500122380E056E0F0E066E05500326C6
:100BF0000650042203C0E9FF04C0EAFFEFCF03F070
:100C0000070E0216010E046E02500DE006E6E86CB7
:100C1000D8900436010FFDE306D0D89004BED880EA
:100C20000432010FFBE30350041200C0E9FF01C0CE
:100C3000EAFF04C0EFFF0F01458300000000459369
:100C40000F0144930BC0E5FFF2CF0BF0F29E4481FD
:100C50000000000000000000000000000000000094
:100C60000000000000000000000000000000000084
:100C7000000000000000000044910BBEF28EE4CFA3
:100C80000BF0C282010E03012E6F03012D51E4CF40
:100C90000AF0E4CF09F0E4CF08F0E4CF07F0E4CFA6
:100CA00006F0E4CF05F0E4CF04F0E4CF03F0E4CFA6
:100CB00002F0E4CF01F0E4CF00F0120000C0E5FF45
:100CC00001C0E5FF02C0E5FF03C0E5FF04C0E5FF8A
:100CD00005C0E5FF06C0E5FF07C0E5FF08C0E5FF6A
:100CE00009C0E5FF0AC0E5FF0BC0E5FF0CC0E5FF4A
:100CF000006A016A026A040E025CD8B0ECD101C03D
:100D000003F0012A100E035CD8B0E5D103012F2BAC
:100D1000100E2F5D01E32F6B03012F39E8441F0BE9
:100D2000036E046A6B0E0326030E042203C0E9FF60
:100D300004C0EAFFEFCF03F02FC304F0070E041640
:100D4000010E056E000E066E045006E0E86CD890A9
:100D500005360636010FFCE3076A035005160750F7
:100D6000061605500610D880E866D890056A053644
:100D70000550D8A4C0D703012F51020DF450046EC2
:100D8000F3CF03F0E00E0324056E000E0420066E80
:100D900005C0E9FF06C0EAFFEECF05F0EFCF06F091
:100DA0002CC307F007A09DD0930E0324076E040EFA
:100DB0000420086E07C0E9FF08C0EAFFEECF07F085
:100DC000EFCF08F00650800FF36E0850800FF35CF1
:100DD00002E10750055C03E2056A066A60D0B30EC3
:100DE0000326040E042203C0E9FF04C0EAFFEECF8D
:100DF00003F0EFCF04F00450800FF36E0650800F25
:100E0000F35C02E10550035C04E205683F0E066EE8
:100E100046D00750055C096E085006580A6EE86A0D
:100E20000ABEFF0E0B6EE56E0B50E56E0A50E56EC6
:100E30000950E56EE56AE56A400EE56E000EE56A6A
:100E40001BEC0CF0096EF3CF0AF0F4CF0BF0E9CFF6
:100E50000CF0080EE1260750035C076E085004589A
:100E6000086EE86A08BEFF0E036EE56E0350E56E7D
:100E70000850E56E0750E56E0C50E56E0B50E56EC0
:100E80000A50E56E0950E56EF7EC13F0036EF3CFF0
:100E900004F0080EE1260350056E0450066E0301AF
:100EA0002B51800FF36E0650800FF35C02E105506A
:100EB0002A5D03E3056A066A14D003012A51FF087C
:100EC000036E3F0E2B55046E0650800FF36E0450D8
:100ED000800FF35C02E10350055C03E305683F0EFD
:100EE000066E03012F51020DF450046EF3CF03F090
:100EF000590E0326040E042203C0E9FF04C0EAFFD2
:100F0000EECF03F0EFCF04F00350055C036E045006
:100F10000658046ED88004AED89004E3041E036C17
:100F2000D8B4042A022A03012B51800FF36E045017
:100F3000800FF35C02E103502A5DD8B0DCD60301D8
:100F40002F51020DF450086EF3CF07F0590E07260B
:100F5000040E082207C0E9FF08C0EAFF05C0EEFF43
:100F600006C0EFFF2CC307F007A459D02F51020D84
:100F7000F450086EF3CF07F0D30E0724096E040E69
:100F800008200A6E09C0E9FF0AC0EAFFEECF0BF0A5
:100F9000EFCF0CF00B500C10D8B441D0390E07260F
:100FA000040E082207C0E9FF08C0EAFFEECF07F0F1
:100FB000EFCF08F00750055C036E08500658046E2A
:100FC00003101CE00450800F800F02E1010E035C4F
:100FD000076A07360C50800F800F02E1010E0B5C90
:100FE0000B6A0B3607500B1809E109C0E9FF0AC06C
:100FF000EAFF03C0EEFF04C0EFFF7DD603012F51CF
:10100000020DF450046EF3CF03F0D30E0326040E4A
:10101000042203C0E9FF04C0EAFFEE6AEF6A2CC3B2
:1010200003F003A244D000500EE100C003F0002AF8
:10103000046A300E0326030E042203C0E9FF04C035
:10104000EAFF420EEF6E00C003F0002A046A300E81
:101050000326030E042203012F51076E640E072698
:1010600003C0E9FF04C0EAFF07C0EFFF00C003F0C0
:10107000002A046A300E0326030E04220650076E6F
:1010800003C0E9FF04C0EAFF07C0EFFF00C003F0A0
:10109000002A046A300E0326030E04220550076E50
:1010A00003C0E9FF04C0EAFF07C0EFFF24D62FC347
:1010B00003F00650E56E0550E56EE56A0350E56EF7
:1010C000000EE56E2E0EE56E5A0EE56E89EC1EF0F2
:1010D000070EE12610D602C001F000501EE02CC31E
:1010E00002F002A21AD000C002F0002A036A300EF9
:1010F0000226030E032202C0E9FF03C0EAFF0A0E24
:10110000EF6E0050E56E800EE56E030EE56E300E5C
:10111000E56E2DEC16F0040EE1260150E4CF0CF044
:10112000E4CF0BF0E4CF0AF0E4CF09F0E4CF08F00D
:10113000E4CF07F0E4CF06F0E4CF05F0E4CF04F00D
:10114000E4CF03F0E4CF02F0E4CF01F0E4CF00F00D
:101150001200800EE56E040EE56EB30EE56E3FECF8
:101160001CF0030EE126800EE56E040EE56E930E74
:10117000E56E3FEC1CF0030EE126800EE56E040EDA
:10118000E56EB50EE56E3FEC1CF0030EE126800E19
:10119000E56E040EE56E950EE56E3FEC1CF0030E59
:1011A000E126800EE56E040EE56EB70EE56E3FECAF
:1011B0001CF0030EE126800EE56E040EE56E970E20
:1011C000E56E3FEC1CF0030EE126800EE56E040E8A
:1011D000E56EB90EE56E3FEC1CF0030EE126800EC5
:1011E000E56E040EE56E990EE56E3FEC1CF0030E05
:1011F000E126800EE56E040EE56EBB0EE56E3FEC5B
:101200001CF0030EE126800EE56E040EE56E9B0ECB
:10121000E56E3FEC1CF0030EE126800EE56E040E39
:10122000E56EBD0EE56E3FEC1CF0030EE126800E70
:10123000E56E040EE56E9D0EE56E3FEC1CF0030EB0
:10124000E126800EE56E040EE56EBF0EE56E3FEC06
:101250001CF0030EE126800EE56E040EE56E9F0E77
:10126000E56E3FEC1CF0030EE126800EE56E040EE9
:10127000E56EC10EE56E3FEC1CF0030EE126800E1C
:10128000E56E040EE56EA10EE56E3FEC1CF0030E5C
:10129000E126800EE56E040EE56EC30EE56E3FECB2
:1012A0001CF0030EE126800EE56E040EE56EA30E23
:1012B000E56E3FEC1CF0030EE126800EE56E040E99
:1012C000E56EC50EE56E3FEC1CF0030EE126800EC8
:1012D000E56E040EE56EA50EE56E3FEC1CF0030E08
:1012E000E126800EE56E040EE56EC70EE56E3FEC5E
:1012F0001CF0030EE126800EE56E040EE56EA70ECF
:10130000E56E3FEC1CF0030EE126800EE56E040E48
:10131000E56EC90EE56E3FEC1CF0030EE126800E73
:10132000E56E040EE56EA90EE56E3FEC1CF0030EB3
:10133000E126800EE56E040EE56ECB0EE56E3FEC09
:101340001CF0030EE126800EE56E040EE56EAB0E7A
:10135000E56E3FEC1CF0030EE126800EE56E040EF8
:10136000E56ECD0EE56E3FEC1CF0030EE126800E1F
:10137000E56E040EE56EAD0EE56E3FEC1CF0030E5F
:10138000E126800EE56E040EE56ECF0EE56E3FECB5
:101390001CF0030EE126800EE56E040EE56EAF0E26
:1013A000E56E3FEC1CF0030EE126800EE56E040EA8
:1013B000E56ED10EE56E3FEC1CF0030EE126800ECB
:1013C000E56E040EE56EB10EE56E3FEC1CF0030E0B
:1013D000E126120000C0E5FF01C0E5FF02C0E5FF05
:1013E00003C0E5FF03012651D8B40AD19DA81DD042
:1013F0009EA81BD003017A510301771905E15AEC2D
:1014000025F00301776BFCD0000E03017A25006EF6
:10141000016A040E012200C0E9FF01C0EAFFEFCF1C
:1014200073F37A2B73C3ADFFEBD09EAAE9D0ABA2C6
:1014300005D0030178815AEC25F0E2D0ABA405D0A9
:10144000030178835AEC25F0DBD0ABA048D0AECFB7
:1014500073F327C300F0016A008E73C302F0036ABE
:101460000250001803E10350011801E004D0030109
:101470007889AB96C5D00301735104E07351030121
:10148000271929E103017899AB960301735103E011
:101490000301789702D00301788773C37CF375C387
:1014A0007DF303017551006E000403017E6F600E31
:1014B00003017D25006E016A000E012200C0E9FFD4
:1014C00001C0EAFF73C3EFFF7D2B7D51800A02E16B
:1014D00003017D6B95D003017899AB8691D0AECF97
:1014E00073F3030178A921D027C300F0016A008EAD
:1014F00073C302F0036A0250001803E1035001189D
:1015000001E011D094909D9AAB980301775104E1CA
:10151000AD6A5AEC25F007D000C4ADFF010E0301FF
:101520007A6F9D886DD0AB866BD003017351030138
:101530007C2703017D5103017E191BE103017C51CE
:101540000CE17DC375F3030178B712D094909D9A96
:10155000AB98AD6A5AEC25F00BD00301788578B7CB
:1015600007D094909D9AAB98010EAD6E5AEC25F081
:1015700047D003017D510301761908E1030176513B
:101580000301751903E05AEC25F03AD075C300F059
:10159000016A004A012AE56A800EE56E0150E56E97
:1015A0000050E56E19EC18F0006E040EE1260050B4
:1015B0000301746F03017D190FE173C300F01F0E67
:1015C000001403017E6F006E020E00247E6F030183
:1015D000755103017E277E9F7DC300F003017D2BA3
:1015E000016A600E0026000E012200C0E9FF01C062
:1015F000EAFF73C3EFFF7D51800A02E103017D6BB7
:10160000E4CF03F0E4CF02F0E4CF01F0E4CF00F048
:10161000120000C0E5FF01C0E5FF02C0E5FF03C006
:10162000E5FF04C0E5FF05C0E5FF06C0E5FF07C014
:10163000E5FF08C0E5FF09C0E5FF006A016A040E86
:10164000015CD8B0E2D03F0E03013D25026E036A73
:10165000030E032202C0E9FF03C0EAFFEFCF02F04E
:101660000250FF0A01E1CAD003013D39E8441F0BD3
:10167000026E6F0E0224036E046A030E042203C07E
:10168000E9FF04C0EAFFEFCF03F03DC304F0070E0B
:101690000416010E056E000E066E045006E0E86C9E
:1016A000D89005360636010FFCE3076A035005168D
:1016B0000750061605500610D880E866D890056ACF
:1016C00005360550D880E866D890056A053605507D
:1016D000036E046A6D0E0226030E042202C0E9FFA7
:1016E00004C0EAFFEFCF05F03DC306F0070E061673
:1016F000010E076E000E086E065006E0E86CD890EA
:1017000007360836010FFCE305C006F0096A0650EB
:1017100007160950081607500810D880E866D890B8
:10172000076A07360750D880E866D890076A0736F8
:101730000350071801E162D003501FE003013D513F
:10174000066E070E0616010E076E06500DE006E641
:10175000E86CD8900736010FFDE306D0D89007BE9D
:10176000D8800732010FFBE30550071202C0E9FFE2
:1017700004C0EAFF07C0EFFF26D002C0E9FF04C0A3
:10178000EAFFEFCF05F003013D51066E070E061686
:10179000010E076E06500DE006E6E86CD89007369D
:1017A000010FFDE306D0D89007BED8800732010FA5
:1017B000FBE3071C066E0550061602C0E9FF04C0D5
:1017C000EAFF06C0EFFF035003E1036A032A01D0DA
:1017D000036A3DC304F0E56A0350E56EE56A045010
:1017E000E56E000EE56E3B0EE56EFA0EE56E89ECD9
:1017F0001EF0070EE126012A01C000F003013D2B77
:10180000100E3D5DD8A01BD73D6B0050E4CF09F012
:10181000E4CF08F0E4CF07F0E4CF06F0E4CF05F022
:10182000E4CF04F0E4CF03F0E4CF02F0E4CF01F022
:10183000E4CF00F01200D9CFE5FFE1CFD9FF00C01F
:10184000E5FF01C0E5FF02C0E5FF03C0E5FF04C0FE
:10185000E5FF05C0E5FF06C0E5FF07C0E5FF020E96
:10186000DBCF00F0030EDBCF01F0040EDBCF02F084
:10187000050EDBCF03F0060EDBCF04F0070EDBCF47
:1018800005F0080EDBCF06F0090EDBCF07F00050A5
:101890000401856F0150866F0250876F0350886F77
:1018A000045004018A6F05508B6F06508C6F0750EF
:1018B0008D6F0401855104018C03F4CF01F0F3CF47
:1018C00000F000500401906F0150916F04018551A8
:1018D00004018A03F4CF01F0F3CF00F000500401BB
:1018E0008E6F01508F6F0401885104018A03F3CF7A
:1018F00000F00401915100260050916F04018751BE
:1019000004018B03F3CF01F00150002600500401C5
:10191000916F0401875104018A03F4CF01F0F3CFE2
:1019200000F0040190510026915101220050906F67
:101930000150916F0401865104018B03F4CF03F031
:10194000F3CF02F0025000260350012200500401A0
:10195000906F0150916F0401865104018C03F3CF05
:1019600000F0005003015B6F0401865104018A03FB
:10197000F4CF01F0F3CF00F000500301596F015094
:101980005A6F0401855104018D03F3CF00F000501C
:1019900003015F6F0401855104018B03F4CF01F053
:1019A000F3CF00F0005003015D6F01505E6F030143
:1019B000586B03015C6B0301585104018E25006EC6
:1019C0000301595104018F21016E03015A51040191
:1019D0009021026E03015B5104019121036E0050BE
:1019E0008E6F01508F6F0250906F0350916F030103
:1019F0005C5104018E25006E03015D5104018F21AD
:101A0000016E03015E5104019021026E03015F51DA
:101A100004019121036E03C0E9FF02C0F4FF01C07D
:101A2000F3FF0050E4CF07F0E4CF06F0E4CF05F079
:101A3000E4CF04F0E4CF03F0E4CF02F0E4CF01F010
:101A4000E4CF00F0E4CFD9FF120000C0E5FF01C0F1
:101A5000E5FF02C0E5FF03C0E5FF04C0E5FFECECD5
:101A600025F09492939E89EC21F0F3CF01F0F4CF0E
:101A700002F0E9CF03F0880F0401336F130E012049
:101A8000346F000E0220356F000E0320366FB0EC6D
:101A900016F09280800E006E0F0E016E0F0E036E18
:101AA000380E002603500122800E026E0F0E036EC8
:101AB000800E005E0350015A0F0E046E380E02268F
:101AC000045003220F0E046E800E025E0450035A6F
:101AD00002C0E9FF03C0EAFFEFCF02F0028000C0BE
:101AE000E9FF01C0EAFF02C0EFFF000EE56AE56A08
:101AF000F3EC18F0E652E6529282800E006E0F0E62
:101B0000016E0F0E036E380E002603500122800E68
:101B1000026E0F0E036E800E005E0350015A0F0E10
:101B2000046E380E0226045003220F0E046E800E3F
:101B3000025E0450035A02C0E9FF03C0EAFFEFCF80
:101B400002F0028200C0E9FF01C0EAFF02C0EFFF1D
:101B5000010EE56EE56EF3EC18F0E652E652BCECD1
:101B60001DF0F19E938C810E006E0F0E016E0F0E14
:101B7000036E380E0026035001220F0E036E800EF6
:101B8000005E0350015A810E026E0F0E036E0F0E9F
:101B9000046E380E0226045003220F0E046E800ECF
:101BA000025E0450035A02C0E9FF03C0EAFFEFCF10
:101BB00002F0029C00C0E9FF01C0EAFF02C0EFFF93
:101BC000060EE56E800EE56E0F0EE56E810EE56E7B
:101BD000000EE56A03EC1EF0050EE126270EE56E09
:101BE000E56A080EE56ECFEC12F0030EE126010E59
:101BF000E56E800EE56E040EE56E790EE56EEBEC9B
:101C00001AF0040EE126E4CF04F0E4CF03F0E4CFB1
:101C100002F0E4CF01F0E4CF00F0120043002563AE
:101C20000000D9CFE5FFE1CFD9FF00C0E5FF01C03B
:101C3000E5FF02C0E5FF03C0E5FF04C0E5FF05C006
:101C4000E5FF06C0E5FF07C0E5FF08C0E5FF09C0E6
:101C5000E5FF0AC0E5FF0BC0E5FF0CC0E5FF0DC0C6
:101C6000E5FF0EC0E5FF0FC0E5FF020EDBCF00F081
:101C7000030EDBCF01F0040EDBCF02F0050EDBCF4D
:101C800003F0060EDBCF04F0070EDBCF05F0080EE5
:101C9000DBCF06F0200E076E086A06C009F00A6A5C
:101CA0000B6A0C6AE56AE56AE56A0950E56E03505D
:101CB000E56E0250E56E0150E56E0050E56E70EC89
:101CC00010F00D6E080EE126300E0D263A0E0D5C5A
:101CD00005E30D500E6E270E0E240D6EFF0E072627
:101CE0000822000E07240E6E030E08200F6E0EC091
:101CF000E9FF0FC0EAFF0DC0EFFF0C50E56E0B507F
:101D0000E56E0A50E56E0950E56E0350E56E02502F
:101D1000E56E0150E56E0050E56EF7EC13F0006ED5
:101D2000F3CF01F0F4CF02F0E9CF03F0080EE12683
:101D30000050011002100310D8A4AFD707C000F064
:101D400008C001F004C002F005C003F000C004F0B8
:101D500001C005F0004A012A000E0426030E0522E8
:101D600004C0E9FF05C0EAFFEFCF04F002C0E9FFBD
:101D700003C0EAFF04C0EFFF024A032A000E015C21
:101D800002E1200E005CE2E302C0E9FF03C0EAFFCB
:101D9000000EEF6AE4CF0FF0E4CF0EF0E4CF0DF0C9
:101DA000E4CF0CF0E4CF0BF0E4CF0AF0E4CF09F07D
:101DB000E4CF08F0E4CF07F0E4CF06F0E4CF05F07D
:101DC000E4CF04F0E4CF03F0E4CF02F0E4CF01F07D
:101DD000E4CF00F0E4CFD9FF1200D9CFE5FFE1CF87
:101DE000D9FF00C0E5FF01C0E5FF02C0E5FF03C069
:101DF000E5FF04C0E5FF05C0E5FF06C0E5FF020EF4
:101E0000DBCF00F0030EDBCF01F0040EDBCF02F0DE
:101E100000C0E9FF01C0F3FF02501CEC25F0036E87
:101E2000E56AE56EFEEC20F0E652E652320EE56E13
:101E30001CEC24F0E6527BEC22F0010EE56E035020
:101E4000E56EFEEC20F0E652E6520050010F036E04
:101E5000000E0120046E000E0220056E5EEC21F0E3
:101E6000066E06C0E5FF03C0E9FF04C0F3FF05509E
:101E7000A4EC25F0DDEC21F00050020F036E000E03
:101E80000120046E000E0220056E5EEC21F0066E4D
:101E900006C0E5FF03C0E9FF04C0F3FF0550A4EC52
:101EA00025F0DDEC21F00050030F036E000E012041
:101EB000046E000E0220056E5EEC21F0066E06C078
:101EC000E5FF03C0E9FF04C0F3FF0550A4EC25F0D3
:101ED000DDEC21F00050040F036E000E0120046EB3
:101EE000000E0220056E5EEC21F0066E06C0E5FFD6
:101EF00003C0E9FF04C0F3FF0550A4EC25F0DDECBE
:101F000021F00050050F036E000E0120046E000E3C
:101F10000220056E5EEC21F0066E06C0E5FF03C0F0
:101F2000E9FF04C0F3FF0550A4EC25F0DDEC21F03F
:101F3000060E0026000E012202225EEC21F0036E46
:101F400003C0E5FF00C0E9FF01C0F3FF0250A4ECAD
:101F500025F07BEC22F0E4CF06F0E4CF05F0E4CFEF
:101F600004F0E4CF03F0E4CF02F0E4CF01F0E4CFDB
:101F700000F0E4CFD9FF120000C0E5FF01C0E5FF8B
:101F800002C0E5FF03C0E5FF04C0E5FF05C0E5FFB3
:101F9000006A3F0E0024016E026A030E022201C095
:101FA000E9FF02C0EAFFEFCF01F00150FF0A01E1B3
:101FB00085D001380F0B026E036A800E02260F0EC9
:101FC000032202C0E9FF03C0EAFFEFCF02F0070ED1
:101FD0000116010E036E000E046E015006E0E86C5F
:101FE000D89003360436010FFCE3056A025003164D
:101FF0000550041603500410D880E866D890036A90
:10200000033603502DE10038E8441F0B016E026ACD
:102010006F0E0126030E022201C0E9FF02C0EAFF93
:10202000EFCF03F00050046E070E0416010E056E8C
:1020300004500DE006E6E86CD8900536010FFDE38C
:1020400006D0D89005BED8800532010FFBE30350BF
:10205000051201C0E9FF02C0EAFF05C0EFFF2ED064
:102060000038E8441F0B016E026A6F0E0126030E52
:10207000022201C0E9FF02C0EAFFEFCF03F00050E7
:10208000046E070E0416010E056E04500DE006E600
:10209000E86CD8900536010FFDE306D0D89005BE58
:1020A000D8800532010FFBE3051C046E03500416B3
:1020B00001C0E9FF02C0EAFF04C0EFFF002A100ED2
:1020C000005CD8A066D7E4CF05F0E4CF04F0E4CFFD
:1020D00003F0E4CF02F0E4CF01F0E4CF00F012000F
:1020E000D9CFE5FFE1CFD9FF00C0E5FF01C0E5FF93
:1020F00002C0E5FF03C0E5FF04C0E5FF05C0E5FF42
:1021000006C0E5FF07C0E5FF08C0E5FF09C0E5FF21
:102110000AC0E5FF020EDBCF00F0030EDBCF01F0BB
:10212000040EDBCF02F0050EDBCF03F0060EDBCF93
:1021300004F0070EDBCF05F0080EDBCF06F0090E2A
:10214000DBCF07F0086A045005100610071005E100
:10215000E968F468F368E86847D0096A0750800BBB
:10216000E8440A6E0A501BE1045004260536063680
:1021700007360750035C08E10650025C05E1055094
:10218000015C02E10450005C06E2D890073206329E
:102190000532043204D0092A09C008F0DFD70750FD
:1021A000035C08E10650025C05E10550015C02E1B8
:1021B0000450005C08E30450005E0550015A0650CC
:1021C000025A0750035AD8900732063205320432B9
:1021D00008C009F008060950E2E103C0E9FF02C0A7
:1021E000F4FF01C0F3FF0050E4CF0AF0E4CF09F0A0
:1021F000E4CF08F0E4CF07F0E4CF06F0E4CF05F039
:10220000E4CF04F0E4CF03F0E4CF02F0E4CF01F038
:10221000E4CF00F0E4CFD9FF1200D9CFE5FFE1CF42
:10222000D9FF00C0E5FF01C0E5FF02C0E5FF03C024
:10223000E5FF04C0E5FF020EDBCF00F0030EDBCFAD
:1022400001F0040EDBCF02F0050EDBCF03F0420EEF
:1022500003014F6F0350506F0050010F036E000ECB
:102260000120046E000E022003C0E9FF04C0F3FF4A
:102270001CEC25F00301516F0050020F036E000E9D
:102280000120046E000E022003C0E9FF04C0F3FF2A
:102290001CEC25F00301526F0050030F036E000E7B
:1022A0000120046E000E022003C0E9FF04C0F3FF0A
:1022B0001CEC25F00301536F0050040F036E000E59
:1022C0000120046E000E022003C0E9FF04C0F3FFEA
:1022D0001CEC25F00301546F0050050F036E000E37
:1022E0000120046E000E022003C0E9FF04C0F3FFCA
:1022F0001CEC25F00301556F060E0026000E01228E
:10230000022200C0E9FF01C0F3FF02501CEC25F0DF
:102310000301566F0A0E576F090EE56E800EE56ECB
:10232000030EE56E4F0EE56E2DEC16F0040EE12661
:10233000E4CF04F0E4CF03F0E4CF02F0E4CF01F007
:10234000E4CF00F0E4CFD9FF120000C0E5FF01C0E8
:10235000E5FF02C0E5FF03C0E5FF04C0E5FF0301A0
:1023600076510301751901E167D076C300F0005082
:10237000016E0128006E009E600E0024016E026A4C
:10238000000E022201C0E9FF02C0EAFFEFCF80F396
:102390001F0E0301801776C37FF3805103017F274F
:1023A0007F51016E020E01247F6F7F9FB3EC21F0FD
:1023B000016E015003E1016A012A01D0016AB3EC08
:1023C00021F00301806F80C302F0800E021680C3EB
:1023D00003F01F0E031603C004F003C080F3045083
:1023E00003E175C376F33BD001501EE0025022E0BA
:1023F000B3EC21F0006E03018051016E0104806F87
:102400000050420A17E000504E0A03E147EC1EF06C
:1024100011D00050460A03E18EEC25F00BD000509D
:10242000490A08E1FF0006D076C381F30250D8A420
:102430005FEC19F07FC376F30301235103012419E4
:1024400006E00301775103E13AEC12F008D094B0B2
:1024500006D00301775103E1ACB25AEC25F0E4CF8A
:1024600004F0E4CF03F0E4CF02F0E4CF01F0E4CFD6
:1024700000F0120000C0E5FF01C0E5FF02C0E5FF6B
:1024800003C0E5FF04C0E5FFACA27ED058EC23F00A
:10249000006E005005E10301246B0301236B74D02F
:1024A00024C301F00050012658EC23F0026E0050C6
:1024B000036E0304006E0250230A1FE1010E005C4C
:1024C000D8A060D058EC23F0026E690A03E1CDEC8D
:1024D00020F058D00250720A03E15AEC25F052D095
:1024E0000250730A01E04ED09480AB869D8A9D987D
:1024F000AE50AE50AB98AB8845D00250430A05E0D1
:102500000250420A01E03ED006D000C003F0046A47
:10251000038E0350006E00C079F300500401006F79
:10252000010E03017A6F03012451011814E058ECE5
:1025300023F0026E03017927000E03017A25006E55
:10254000036A040E032200C0E9FF03C0EAFF02C0D1
:10255000EFFF7A2BE8D7000E03017A25006E026A9E
:10256000040E02220301791D036E032A00C0E9FF55
:1025700002C0EAFF03C0EFFF03017A2B7AC377F3AF
:102580000301716B01C024F3E4CF04F0E4CF03F046
:10259000E4CF02F0E4CF01F0E4CF00F01200D9CF95
:1025A000E5FFE1CFD9FF00C0E5FF01C0E5FF02C0B4
:1025B000E5FF03C0E5FF04C0E5FF06C0E5FF020E2E
:1025C000DBCF00F0030EDBCF01F0040EDBCF02F017
:1025D0003F0EC716C66AC56A0050C6120150C71220
:1025E0009488820E006E0F0E016E0F0E046E380E70
:1025F0000026045001220F0E046E800E005E04506F
:10260000015A820E036E0F0E046E0F0E066E380E08
:102610000326065004220F0E066E800E035E06503F
:10262000045A03C0E9FF04C0EAFFEFCF03F00398A8
:1026300000C0E9FF01C0EAFF03C0EFFF9486820EED
:10264000006E0F0E016E0F0E046E380E0026045041
:1026500001220F0E046E800E005E0450015A820E9D
:10266000036E0F0E046E0F0E066E380E0326065014
:1026700004220F0E066E800E035E0650045A03C03D
:10268000E9FF04C0EAFFEFCF03F0039600C0E9FFC3
:1026900001C0EAFF03C0EFFF02C0C8FFC6CF00F0D1
:1026A000008A0050C66E9E96A196E4CF06F0E4CF55
:1026B00004F0E4CF03F0E4CF02F0E4CF01F0E4CF84
:1026C00000F0E4CFD9FF1200D9CFE5FFE1CFD9FF69
:1026D00000C0E5FF01C0E5FF02C0E5FF03C0E5FF64
:1026E00004C0E5FF05C0E5FF06C0E5FF07C0E5FF44
:1026F00008C0E5FF09C0E5FF0AC0E5FF020EDBCF19
:1027000000F0030EDBCF01F0040EDBCF02F0050E6C
:10271000DBCF03F0060EDBCF04F0070EDBCF05F0B6
:102720000038E8441F0B066E076A6B0E0626030E80
:10273000072206C0E9FF07C0EAFFEFCF08F000500C
:10274000096E070E0916010E0A6E09500DE006E625
:10275000E86CD8900A36010FFDE306D0D8900ABE87
:10276000D8800A32010FFBE308500A1206C0E9FFC5
:1027700007C0EAFF0AC0EFFF230E0024066E076AB7
:102780000F0E072206C0E9FF07C0EAFF01C0EFFFF6
:10279000016A230E0026040E0122800E025E070E3F
:1027A00002160238F00B036E070E051605500326BD
:1027B00000C0E9FF01C0EAFF03C0EFFFE4CF0AF069
:1027C000E4CF09F0E4CF08F0E4CF07F0E4CF06F05F
:1027D000E4CF05F0E4CF04F0E4CF03F0E4CF02F05F
:1027E000E4CF01F0E4CF00F0E4CFD9FF1200D9CF5D
:1027F000E5FFE1CFD9FF00C0E5FF01C0E5FF02C062
:10280000E5FF03C0E5FF04C0E5FF05C0E5FF06C026
:10281000E5FF07C0E5FF08C0E5FF09C0E5FF0AC006
:10282000E5FF0BC0E5FF0CC0E5FF0DC0E5FF020EA4
:10283000DBCF00F0030EDBCF01F0040EDBCF02F0A4
:10284000050EDBCF03F0060EDBCF04F0070EDBCF67
:1028500005F0080EDBCF06F0090EDBCF07F0086AA3
:10286000096A0A6A0B6A200E0C6E0350800BE8445A
:102870000D6E005000260136023603360850082639
:1028800009360A360B360D50D8A4088007500B5C69
:1028900008E106500A5C05E10550095C02E10450BC
:1028A000085C09E30450085E0550095A06500A5AAC
:1028B00007500B5A00800C040D6E0DC00CF00D502B
:1028C000D4E103C0E9FF02C0F4FF01C0F3FF0050F0
:1028D000E4CF0DF0E4CF0CF0E4CF0BF0E4CF0AF03E
:1028E000E4CF09F0E4CF08F0E4CF07F0E4CF06F03E
:1028F000E4CF05F0E4CF04F0E4CF03F0E4CF02F03E
:10290000E4CF01F0E4CF00F0E4CFD9FF120000C023
:10291000E5FF01C0E5FF03C0E5FF04C0E5FF05C01A
:10292000E5FF06C0E5FF07C0E5FF08C0E5FF09C0F9
:10293000E5FF0AC0E5FF0BC0E5FF69C300F06AC30D
:1029400001F00301693F01D06A2B0050E56E4CECA9
:1029500025F0E652076E046A056A066A69C300F04C
:102960006AC301F00301693F01D06A2B0050E56E94
:102970004CEC25F0E6520B6A0A6E086A0850041205
:1029800005120A5006120B50071269C300F06AC301
:1029900001F00301693F01D06A2B0050E56E4CEC59
:1029A00025F0E652036E006A03C001F0E86A03BE38
:1029B000FF0E086E096E00500412015005120850F7
:1029C00006120950071269C300F06AC301F003013F
:1029D000693F01D06A2B0050E56E4CEC25F0E652C1
:1029E000016A0412015005120612071207C0E9FF1E
:1029F00006C0F4FF05C0F3FF0450E4CF0BF0E4CFB2
:102A00000AF0E4CF09F0E4CF08F0E4CF07F0E4CF18
:102A100006F0E4CF05F0E4CF04F0E4CF03F0E4CF18
:102A200001F0E4CF00F01200D9CFE5FFE1CFD9FFEC
:102A300000C0E5FF01C0E5FF02C0E5FF03C0E5FF00
:102A400004C0E5FF05C0E5FF06C0E5FF07C0E5FFE0
:102A5000020EDBCF00F0030EDBCF01F0040EDBCF64
:102A600002F0050EDBCF03F003C004F0056A03504B
:102A7000D8B454D000C0E9FF01C0F3FF02501CECF1
:102A800025F0066E430A08E1010E056E03C006F04C
:102A9000076A068E0650036E0406002A02E3014A06
:102AA000022A94909D9AAB989D989EA8FED7AC80E0
:102AB000AD6A00009EA8FED7AC9003C0ADFF000039
:102AC0009EA8FED7055004E0420EAD6E032604D04A
:102AD000620EAD6E620E0326045015E000009EA843
:102AE000FED700C0E9FF01C0F3FF02501CEC25F047
:102AF000056E05C0ADFF055003260406002A02E35B
:102B0000014A022AE9D700009EA8FED7031CAD6E39
:102B1000AD2A00009EA8FED75AEC25F0E4CF07F0BE
:102B2000E4CF06F0E4CF05F0E4CF04F0E4CF03F007
:102B3000E4CF02F0E4CF01F0E4CF00F0E4CFD9FF1E
:102B40001200D9CFE5FFE1CFD9FF00C0E5FF01C0FA
:102B5000E5FF02C0E5FF03C0E5FF04C0E5FF05C0D7
:102B6000E5FF06C0E5FF07C0E5FF020EDBCF00F082
:102B7000030EDBCF01F0040EDBCF02F0050EDBCF3E
:102B800003F002C006F00650046E800A33E100C074
:102B9000E9FF01C0F3FF0250CFEC23F0056EF3CF45
:102BA00006F0F4CF07F003C0E5FF05C0E9FF06C05B
:102BB000F3FF0750A4EC25F000C0E9FF01C0F3FFCC
:102BC0000250CFEC23F0056EF3CF06F0F4CF07F000
:102BD000052A02E3064A072A05C0E5FF06C0F4FFFE
:102BE00007C0F6FF00C0E9FF01C0F3FF02503DEC53
:102BF00025F020D004C000F000AA1CD0007A0050BC
:102C0000046E04E10350F1EC25F014D00450010AE5
:102C100004E1035004EC26F00DD004500F0A04E147
:102C200003509CEC20F006D004500E0A03E1035040
:102C300001EC26F0E4CF07F0E4CF06F0E4CF05F096
:102C4000E4CF04F0E4CF03F0E4CF02F0E4CF01F0EE
:102C5000E4CF00F0E4CFD9FF1200D9CFE5FFE1CFF8
:102C6000D9FF00C0E5FF01C0E5FF02C0E5FF03C0DA
:102C7000E5FF04C0E5FF05C0E5FF06C0E5FF07C0AE
:102C8000E5FF020EDBCF00F0030EDBCF01F0040EF8
:102C9000DBCF02F0050EDBCF03F024C325F30301E5
:102CA00023510301255F2551046E0404256F03C0E1
:102CB00004F0056A030E0426D8B0052A25C306F0E1
:102CC000076A0750800FF36E0550800FF35C02E136
:102CD0000450065C02E2E86830D0020E035C02E2B7
:102CE000E86A2BD00350046E0404036EE56E45ECD5
:102CF0001FF0E652046A0350045C14E204500024FE
:102D0000056EE86A0120066EE86A022005C0E9FF48
:102D100006C0F3FF1CEC25F0042AE56E45EC1FF01D
:102D2000E652E9D724C325F3030123510301255FAC
:102D30002551006E0004256FE86AE4CF07F0E4CF68
:102D400006F0E4CF05F0E4CF04F0E4CF03F0E4CFE5
:102D500002F0E4CF01F0E4CF00F0E4CFD9FF12009D
:102D600000C0E5FF01C0E5FF02C0E5FF03C0E5FFCD
:102D700004C0E5FF006A6B0E0024016E026A030EB8
:102D8000022201C0E9FF02C0EAFFEF6A002A020E38
:102D9000005CF1E3006A0050020DF450026EF3CFC4
:102DA00001F0E00E0124036E000E0220046E03C049
:102DB000E9FF04C0EAFFEE6AEF6A390E0124036EF0
:102DC000040E0220046E03C0E9FF04C0EAFFEE6AAD
:102DD000EF6A590E0124036E040E0220046E03C034
:102DE000E9FF04C0EAFFEE6AEF6A930E0124036E66
:102DF000040E0220046E03C0E9FF04C0EAFFEE6A7D
:102E0000EF6AB30E0126040E022201C0E9FF02C0E0
:102E1000EAFFEE687F0EEF6E230E0024016E026A59
:102E2000040E022201C0E9FF02C0EAFFEF68002A97
:102E3000100E005CD8A0AFD7AF0EC06EC16A010EF5
:102E4000C26EC282E4CF04F0E4CF03F0E4CF02F01C
:102E5000E4CF01F0E4CF00F01200432041202564CC
:102E60002025640A0000D9CFE5FFE1CFD9FF00C0DB
:102E7000E5FF01C0E5FF02C0E5FF03C0E5FF04C0B8
:102E8000E5FF05C0E5FF020EDBCF00F0030EDBCF50
:102E900001F0040EDBCF02F00050020DF450036E7F
:102EA000F3CF00F0390E0024046E040E0320056EEB
:102EB00004C0E9FF05C0EAFF01C0EEFF02C0EFFF5A
:102EC000590E0024046E040E0320056E04C0E9FFB1
:102ED00005C0EAFFEECF04F0EFCF05F00150045C2F
:102EE000016E02500558026ED30E0026040E032216
:102EF00000C0E9FF03C0EAFF01C0EEFF02C0EFFF20
:102F0000D88002AED89004E3021E016CD8B4022A25
:102F10000250800F800F02E1030E015C02E2016AA1
:102F2000026A0150021007E100C0E9FF03C0EAFF96
:102F3000000EEE6AEF6AE4CF05F0E4CF04F0E4CFD0
:102F400003F0E4CF02F0E4CF01F0E4CF00F0E4CFEF
:102F5000D9FF120000C0E5FF01C0E5FF02C0E5FF98
:102F600003C0E5FFA5EC11F00EEC04F0BCEC0FF093
:102F7000A5EC11F089EC21F0006EF3CF01F0F4CF55
:102F800002F0E9CF03F004013351005E3451015ADD
:102F90003551025A3651035A039E3F0E035C08E135
:102FA000FF0E025C05E1FF0E015C02E1FF0E005C1A
:102FB00037E289EC21F0F3CF01F0F4CF02F0E9CF52
:102FC00003F0100F0401336F270E0120346F000E41
:102FD0000220356F000E0320366F010EE56E800E65
:102FE000E56E040EE56E790EE56E0DEC11F0040E43
:102FF000E12609EC0BF0006E0050D8B45EEC06F050
:103000000301202BA5EC11F0800EE56E040EE56E99
:10301000790EE56EEDEC0EF0030EE126A5EC11F055
:10302000E4CF03F0E4CF02F0E4CF01F0E4CF00F00E
:103030001200D9CFE5FFE1CFD9FF00C0E5FF01C005
:10304000E5FF02C0E5FF03C0E5FF04C0E5FF05C0E2
:10305000E5FF06C0E5FF020EDBCF00F0030EDBCF7D
:1030600001F0040EDBCF02F0050EDBCF03F0D880B9
:1030700001AED890046A0436045007E0011C066EC5
:10308000001C056E054A062A04D000C005F001C0E8
:1030900006F0D88003AED89007E3031C016E021C33
:1030A000006E004A012A04D002C000F003C001F003
:1030B0000150E56E0050E56E0650E56E0550E56E78
:1030C0008EEC1AF0006EF3CF01F0040EE1260450EE
:1030D0000AE0011C036E001C026E024A032A03C0B0
:1030E000F3FF025003D001C0F3FF0050E4CF06F01D
:1030F000E4CF05F0E4CF04F0E4CF03F0E4CF02F036
:10310000E4CF01F0E4CF00F0E4CFD9FF1200D9CF33
:10311000E5FFE1CFD9FF00C0E5FF01C0E5FF02C038
:10312000E5FF03C0E5FF04C0E5FF05C0E5FF020EB3
:10313000DBCF00F0030EDBCF01F0040EDBCF02F09B
:10314000050EDBCF03F069C304F06AC305F0030189
:10315000693F01D06A2B0350E56E0450E56E14EC14
:1031600023F0E652E65269C304F06AC305F0030196
:10317000693F01D06A2B0250056EE56E0450E56E82
:1031800014EC23F0E652E65269C304F06AC305F07A
:103190000301693F01D06A2B0150E56E0450E56ED2
:1031A00014EC23F0E652E65269C304F06AC305F05A
:1031B0000301693F01D06A2B0050E56E0450E56EB3
:1031C00014EC23F0E652E652E4CF05F0E4CF04F02D
:1031D000E4CF03F0E4CF02F0E4CF01F0E4CF00F05D
:1031E000E4CFD9FF1200D9CFE5FFE1CFD9FF00C06E
:1031F000E5FF01C0E5FF02C0E5FF03C0E5FF04C035
:10320000E5FF05C0E5FF06C0E5FF020EDBCF00F0DD
:10321000030EDBCF01F00038E8441F0B026E036A97
:103220006B0E0226030E032202C0E9FF03C0EAFF71
:10323000EFCF04F00050056E070E0516010E066E66
:1032400005500DE006E6E86CD8900636010FFDE368
:1032500006D0D89006BED8800632010FFBE304509A
:10326000061202C0E9FF03C0EAFF06C0EFFF230E0B
:103270000024026E036A0F0E032202C0E9FF03C09E
:10328000EAFF01C0EFFF016A230E0026040E0122AF
:1032900000C0E9FF01C0EAFFFF0EEF68E4CF06F0CF
:1032A000E4CF05F0E4CF04F0E4CF03F0E4CF02F084
:1032B000E4CF01F0E4CF00F0E4CFD9FF120000C06A
:1032C000E5FF01C0E5FF02C0E5FFB3EC21F0006EB1
:1032D0004C0A08E1B3EC21F0006E300A02E08B8268
:1032E00001D08B920050530A08E1B3EC21F0300A70
:1032F00002E08A8E43D08A9E41D00050450A27E1E1
:10330000000EE56E1C0EE56E1C0EE56E89EC1EF0DF
:10331000030EE126FBEC25F0006E00C001F001C0B9
:1033200002F0010602500FE0B3EC21F0E56AE56E11
:10333000000EE56E1C0EE56E1E0EE56E89EC1EF0AD
:10334000050EE126ECD70A0E9CEC20F017D00050B9
:10335000520A14E1270EE56EE56A080EE56ECFEC21
:1033600012F0030EE126E56A800EE56E040EE56EAE
:10337000790EE56EEBEC1AF0040EE126E4CF02F0D4
:10338000E4CF01F0E4CF00F01200D9CFE5FFE1CFA8
:10339000D9FF00C0E5FF01C0E5FF02C0E5FF03C0A3
:1033A000E5FF04C0E5FF05C0E5FF06C0E5FF020E2E
:1033B000DBCF00F0030EDBCF01F0040EDBCF02F019
:1033C0000401375119E187EC14F0036EF3CF04F0D8
:1033D000F4CF05F0E9CF06F003C0E5FF04C0F4FF29
:1033E00005C0F6FF06C0F7FF00C0E9FF01C0F3FF0C
:1033F00002500BEC25F01ED004013751010A1AE1EE
:1034000000C0E9FF01C0F3FF025038EC23F0006E6A
:10341000F3CF01F0F4CF02F0E9CF03F00350E56EF3
:103420000250E56E0150E56E0050E56E87EC18F035
:10343000040EE126E4CF06F0E4CF05F0E4CF04F07B
:10344000E4CF03F0E4CF02F0E4CF01F0E4CF00F0EA
:10345000E4CFD9FF1200D9CFE5FFE1CFD9FF00C0FB
:10346000E5FF01C0E5FF02C0E5FF03C0E5FF04C0C2
:10347000E5FF05C0E5FF06C0E5FF020EDBCF00F06B
:10348000030EDBCF01F0040EDBCF02F0050EDBCF25
:1034900003F0060EDBCF04F0070EDBCF05F0080EBD
:1034A000DBCF06F0D88003AED89015E306500A0AA9
:1034B00012E104C0E9FF05C0EAFF2D0EEF6E044AD9
:1034C000052A031E021E011E006C05E1012A03E10C
:1034D000022AD8B4032A0650E56E0550E56E045062
:1034E000E56E0350E56E0250E56E0150E56E00504A
:1034F000E56E11EC0EF0070EE126E4CF06F0E4CF06
:1035000005F0E4CF04F0E4CF03F0E4CF02F0E4CF21
:1035100001F0E4CF00F0E4CFD9FF1200D9CFE5FFEE
:10352000E1CFD9FF00C0E5FF01C0E5FF02C0E5FF24
:1035300003C0E5FF04C0E5FF05C0E5FF06C0E5FFE9
:10354000020EDBCF00F0030EDBCF01F0040EDBCF69
:1035500002F0050EDBCF03F0046A056A0350800B0E
:10356000E844066E065011E102500226033603506D
:10357000015C02E10250005C04E2D89003320232A6
:1035800004D0052A05C004F0E9D70350015C02E12C
:103590000250005C04E30250005E0350015AD890D0
:1035A0000332023204C005F004060550EEE101C00A
:1035B000F3FF0050E4CF06F0E4CF05F0E4CF04F0D1
:1035C000E4CF03F0E4CF02F0E4CF01F0E4CF00F069
:1035D000E4CFD9FF1200D9CFE5FFE1CFD9FF00C07A
:1035E000E5FF01C0E5FF02C0E5FF03C0E5FF020EF5
:1035F000DBCF00F0030EDBCF01F0040EDBCF02F0D7
:10360000050EDBCF03F0035003E11D0E036E02D065
:10361000530E036E03C0E5FF00C0E9FF01C0F3FFD6
:103620000250A4EC25F0E56A2D0EE56E0350E56E20
:103630002FEC21F0030EE126100EE56E2D0EE56E47
:103640000350E56E2FEC21F0030EE126080EE56E27
:103650002D0EE56E0350E56E2FEC21F0030EE126F2
:103660000B0EE56E310EE56E0350E56E2FEC21F08A
:10367000030EE126E4CF03F0E4CF02F0E4CF01F043
:10368000E4CF00F0E4CFD9FF1200D9CFE5FFE1CFBE
:10369000D9FF00C0E5FF01C0E5FF02C0E5FF03C0A0
:1036A000E5FF020EDBCF00F0030EDBCF01F0040ECE
:1036B000DBCF02F000C0E9FF01C0F3FF02501CECB9
:1036C00025F0036E035029E0C6A610D00350E56E26
:1036D0001CEC24F0036EE652035002E0FD0E1ED0F7
:1036E000F6EC1FF0C5AC14D0FE0E18D09E9600C0AC
:1036F000E9FF01C0F3FF02501CEC25F0C96EC6883B
:103700009EA6FED7C7B404D0C7B002D0FE0E06D026
:10371000002AD0E3014A022ACDD7E86AE4CF03F0B9
:10372000E4CF02F0E4CF01F0E4CF00F0E4CFD9FF22
:103730001200D9CFE5FFE1CFD9FF00C0E5FF01C0FE
:10374000E5FF02C0E5FF03C0E5FF04C0E5FF05C0DB
:10375000E5FF020EDBCF00F0030EDBCF01F0040E1D
:10376000DBCF02F0050EDBCF03F0046A03C005F0E7
:103770000306055022E05EEC21F0056E05C0E5FF72
:1037800000C0E9FF01C0F3FF0250A4EC25F0002ABD
:1037900002E3014A022A04C005F0C5A6E7D7A1A6A4
:1037A00002D0E8680BD0052A05C004F00350F5E00C
:1037B000DDEC21F0C5B8FED7F0D70450E4CF05F01A
:1037C000E4CF04F0E4CF03F0E4CF02F0E4CF01F063
:1037D000E4CF00F0E4CFD9FF120000C0E5FF01C044
:1037E000E5FF02C0E5FF03C0E5FF76C300F0016A14
:1037F00081C302F0036A0250005E0350015AE56A79
:10380000800EE56E0150E56E0050E56E19EC18F083
:10381000006E040EE126000681C301F0430E9CEC0D
:1038200020F0200E9CEC20F0005020E0600E0124DF
:10383000026E036A000E032202C0E9FF03C0EAFF22
:10384000EFCF02F0E56A0250E56E000EE56E4A0E1B
:10385000E56ECC0EE56E89EC1EF0050EE126012A20
:103860000150800A01E1016A0006DED7E4CF03F0CF
:10387000E4CF02F0E4CF01F0E4CF00F01200D9CFA2
:10388000E5FFE1CFD9FF00C0E5FF01C0E5FF02C0C1
:10389000E5FF03C0E5FF04C0E5FF020EDBCF00F04B
:1038A000030EDBCF01F0040EDBCF02F00401375131
:1038B00011E168EC20F0036EF3CF04F003C0E5FFE4
:1038C00004C0F4FF00C0E9FF01C0F3FF025076EC32
:1038D00025F016D004013751010A12E100C0E9FFBA
:1038E00001C0F3FF0250A6EC24F0006EF3CF01F00C
:1038F0000150E56E0050E56E08EC1FF0E652E6520E
:10390000E4CF04F0E4CF03F0E4CF02F0E4CF01F021
:10391000E4CF00F0E4CFD9FF1200D9CFE5FFE1CF2B
:10392000D9FF00C0E5FF01C0E5FF02C0E5FF03C00D
:10393000E5FF04C0E5FF020EDBCF00F00038E844ED
:103940001F0B016E026A6F0E0126030E022201C0D8
:10395000E9FF02C0EAFFEFCF01F0070E0016010EEB
:10396000026E000E036E005006E0E86CD89002363E
:103970000336010FFCE3046A0150021604500316DB
:1039800002500310D880E866D890026A02360250CE
:10399000D880E866D890026A02360250E4CF04F07C
:1039A000E4CF03F0E4CF02F0E4CF01F0E4CF00F085
:1039B000E4CFD9FF1200B20EF66E4B0EF76E000E7A
:1039C000F86E0900F550056E0900F550066E04E129
:1039D000056702D028EF1DF00900F550006E0900C0
:1039E000F550016E0900F550026E09000900F5500E
:1039F000E96E0900F550EA6E090009000900F5506A
:103A0000036E0900F550046E09000900F6CF07F0B7
:103A1000F7CF08F0F8CF09F000C0F6FF01C0F7FFBC
:103A200002C0F8FF035002E1045007E00900F5501E
:103A3000EE6E0306F8E20406F9D707C0F6FF08C0E9
:103A4000F7FF09C0F8FF050601E20606E7EF1CF0E4
:103A50001200D9CFE5FFE1CFD9FF00C0E5FF01C0DB
:103A6000E5FF02C0E5FF03C0E5FF04C0E5FF020E6D
:103A7000DBCF00F00038E8441F0B016E026A6B0ECA
:103A80000126030E022201C0E9FF02C0EAFFEFCFC8
:103A900003F0070E0016010E046E00500DE006E65E
:103AA000E86CD8900436010FFDE306D0D89004BE30
:103AB000D8800432010FFBE3041C006E0350001693
:103AC00001C0E9FF02C0EAFF00C0EFFFE4CF04F04D
:103AD000E4CF03F0E4CF02F0E4CF01F0E4CF00F054
:103AE000E4CFD9FF1200D9CFE5FFE1CFD9FF00C065
:103AF000E5FF01C0E5FF02C0E5FF03C0E5FF04C02C
:103B0000E5FF05C0E5FF020EDBCF00F00050010A23
:103B100022E1016A0150020DF450036EF3CF02F06E
:103B2000930E0224046E040E0320056E04C0E9FF08
:103B300005C0EAFFEE687F0EEF6EB30E0226040E9C
:103B4000032202C0E9FF03C0EAFFEE6AEF6A012A1E
:103B5000100E015CDFE300C029F3E4CF05F0E4CFF1
:103B600004F0E4CF03F0E4CF02F0E4CF01F0E4CFBF
:103B700000F0E4CFD9FF120000C0E5FF01C0E5FF6F
:103B800002C0E5FF03C0E5FF04C0E5FF006A6D0E5B
:103B90000024016E026A030E02226F0E0024036EDF
:103BA000046A030E042203C0E9FF04C0EAFF010E09
:103BB000EF6E01C0E9FF02C0EAFFEF6E002A020EBD
:103BC000005CE5E3006A3F0E0024016E026A030E0A
:103BD000022201C0E9FF02C0EAFFEF68002A100ECE
:103BE000005CF1E3E4CF04F0E4CF03F0E4CF02F0B3
:103BF000E4CF01F0E4CF00F01200432073202564ED
:103C00002025640A0000D9CFE5FFE1CFD9FF00C02D
:103C1000E5FF01C0E5FF02C0E5FF03C0E5FF04C00A
:103C2000E5FF05C0E5FF020EDBCF00F0030EDBCFA2
:103C300001F0040EDBCF02F0050EDBCF03F0060E21
:103C4000DBCF04F0056A3F0E0026030E0522800E2E
:103C5000015E070E01160138F00B026E070E041606
:103C60000450022600C0E9FF05C0EAFF02C0EFFFD2
:103C7000E4CF05F0E4CF04F0E4CF03F0E4CF02F0AA
:103C8000E4CF01F0E4CF00F0E4CFD9FF120000C090
:103C9000E5FF01C0E5FF02C0E5FFB3EC21F0006ED7
:103CA000B3EC21F0016E0050026ED00E0224006EC3
:103CB0000A0E005C05E30050026EF90E0224006E4D
:103CC0000150026ED00E0224016E0A0E015C05E363
:103CD0000150026EF90E0224016E080E005C12E221
:103CE000100E015CD8B00ED00038F00B0124006E2D
:103CF000BCEC1FF0016E015005E10050E56E04ECD4
:103D000024F0E652E4CF02F0E4CF01F0E4CF00F07B
:103D10001200D9CFE5FFE1CFD9FF00C0E5FF01C018
:103D2000E5FF02C0E5FF020ED924006E000EDA2086
:103D3000016E800E026E030E0026000E012202228A
:103D40000250E56E0150E56E0050E56E040EDBCFCB
:103D5000E5FF030EDBCFE5FF020EDBCFE5FF03013E
:103D60006251E56E6151E56E6051E56E0EEC00F05A
:103D7000006EF3CF01F0090EE12601C0F3FF005001
:103D8000E4CF02F0E4CF01F0E4CF00F0E4CFD9FFBC
:103D90001200D9CFE5FFE1CFD9FF00C0E5FF01C098
:103DA000E5FF02C0E5FF03C0E5FF020EDBCF00F038
:103DB000030EDBCF01F0040EDBCF02F0040137511C
:103DC0000DE17AEC24F0036E03C0E5FF00C0E9FFCB
:103DD00001C0F3FF0250A4EC25F00FD004013751CD
:103DE000010A0BE100C0E9FF01C0F3FF02501CEC27
:103DF00025F0E56EC9EC22F0E652E4CF03F0E4CF03
:103E000002F0E4CF01F0E4CF00F0E4CFD9FF1200DC
:103E1000D9CFE5FFE1CFD9FF00C0E5FF01C0E5FF45
:103E200002C0E5FF03C0E5FF020EDBCF00F0030E8A
:103E3000DBCF01F069C302F06AC303F00301693FFD
:103E400001D06A2B0150E56E0250E56E14EC23F0B0
:103E5000E652E65269C302F06AC303F00301693F08
:103E600001D06A2B0050E56E0250E56E14EC23F091
:103E7000E652E652E4CF03F0E4CF02F0E4CF01F0E3
:103E8000E4CF00F0E4CFD9FF1200D9CFE5FFE1CFB6
:103E9000D9FF00C0E5FF01C0E5FF02C0E5FF03C098
:103EA000E5FF04C0E5FF020EDBCF00F023C301F005
:103EB000026A014A022A24C303F0046A015003186B
:103EC00003E10250041801E001D00ED0000E0301FE
:103ED0002325016E026A010E022201C0E9FF02C021
:103EE000EAFF00C0EFFF232BE4CF04F0E4CF03F0A0
:103EF000E4CF02F0E4CF01F0E4CF00F0E4CFD9FF4B
:103F00001200D9CFE5FFE1CFD9FF00C0E5FF01C026
:103F1000E5FF02C0E5FF03C0E5FF020EDBCF00F0C6
:103F2000016A81C302F0036A025000260350012295
:103F3000E56A800EE56E0150E56E0050E56E19EC05
:103F400018F0006EF3CF01F0040EE126600E00269B
:103F5000000E012200C0E9FF01C0EAFFEFCF00F030
:103F60000050E4CF03F0E4CF02F0E4CF01F0E4CF5F
:103F700000F0E4CFD9FF120000C0E5FF01C0E5FF6B
:103F800002C0E5FF010E006EB3EC21F0016E01C02E
:103F900002F0015023E00050E56E4CEC25F0016E7C
:103FA000E652015010E10A0E005C0BE20A0E006EB0
:103FB000E56E4CEC25F0016EE652015004E1E86834
:103FC0000ED0E8680CD00150021802E0E86807D073
:103FD000002A1B0E005CD8E3E86801D0E86AE4CF51
:103FE00002F0E4CF01F0E4CF00F0120000C0E5FFE2
:103FF00001C0E5FF02C0E5FF03C0E5FF04C0E5FF27
:1040000005C0E5FFE80E006E030E016E0050FF0FC5
:10401000026EFF0E0120036E02C000F003C001F02B
:104020000250031010E0C5CF02F0036A1F0E021603
:10403000046AC7B4042A056A045002120550031228
:1040400002500310E3E1E4CF05F0E4CF04F0E4CF45
:1040500003F0E4CF02F0E4CF01F0E4CF00F012006F
:10406000F3CFE5FFF4CFE5FFE9CFE5FFEACFE5FFCA
:10407000FACFE5FFFBCFE5FF030121510F01356FBB
:10408000030122510F01366FD650336FD750346F72
:10409000F2A411D00301213F01D0222BF29403019D
:1040A00021510F01356F030122510F01366FD65098
:1040B000336FD750346FE4CFFBFFE4CFFAFFE4CF88
:1040C000EAFFE4CFE9FFE4CFF4FFE4CFF3FF110010
:1040D00000C0E5FF01C0E5FF02C0E5FF03C0E5FF4A
:1040E00069C300F06AC301F00301693F01D06A2B84
:1040F0000050E56E4CEC25F0E652036E026A69C38F
:1041000000F06AC301F00301693F01D06A2B00503F
:10411000E56E4CEC25F0E652016A021201500312E2
:1041200003C0F3FF0250E4CF03F0E4CF02F0E4CF8A
:1041300001F0E4CF00F0120000C0E5FF01C0E5FF90
:1041400002C0E5FF006E000E03012825016E026A21
:104150000F0E022201C0E9FF02C0EAFF00C0EFFF1C
:10416000220E285D01E2282B00500A0A0FE103010C
:104170002851E56E800EE56E0F0EE56E000EE56EC1
:104180002DEC16F0040EE1260301286BE4CF02F0BB
:10419000E4CF01F0E4CF00F012000301236B030130
:1041A000246B0301256994808B909480B06A3F0E44
:1041B000AF6EB886AC8AAC84AC8CAC90AB8CAB8E5A
:1041C0000301786B0301726B0301756B0301766B5E
:1041D0000301776B000EE56A4CEC25F00301276FB5
:1041E000E6529F989F9A010E0301266F0301606BB0
:1041F000616B2F0E626F5AEC25F01200D9CFE5FFEC
:10420000E1CFD9FF00C0E5FF01C0E5FF02C0E5FF37
:10421000020EDBCF00F0030EDBCF01F0A2EC22F0A8
:104220000044FE0B026E0150D880E866D890016A07
:1042300001360150D880E866D890016A01360150F5
:1042400002120250E56E1CEC24F0E652E4CF02F0BC
:10425000E4CF01F0E4CF00F0E4CFD9FF1200D9CFD2
:10426000E5FFE1CFD9FF00C0E5FF01C0E5FF02C0D7
:10427000E5FF020EDBCF00F0030EDBCF01F0040EF2
:10428000DBCF02F0E56A0050E56EFEEC20F0E6526E
:10429000E6520150E56E1CEC24F0E6520250E56E49
:1042A0001CEC24F0E6527BEC22F0E4CF02F0E4CFE9
:1042B00001F0E4CF00F0E4CFD9FF120000C0E5FF29
:1042C00001C0E5FF02C0E5FF03C0E5FFE80E006E98
:1042D000030E016EF6EC1FF0C5860050FF0F026E54
:1042E000FF0E0120036E02C000F003C001F0025077
:1042F000031005E0E6EC25F0026E0250EEE0C95036
:10430000E4CF03F0E4CF02F0E4CF01F0E4CF00F01B
:104310001200030121510401836F030122510401A2
:10432000846FD650816FD750826F8351030121195A
:1043300005E104018451030122190CE0030121511C
:104340000401836F030122510401846FD650816FF1
:10435000D750826F84C4E9FF83C4F4FF82C4F3FFA3
:1043600004018151120000C0E5FF01C0E5FF030117
:10437000765103017F1905E0030176510301751998
:1043800002E1E86A15D076C300F00301762B016ADA
:10439000600E0026000E012200C0E9FF01C0EAFF06
:1043A000EFCF00F07651800A02E10301766B0050F6
:1043B000E4CF01F0E4CF00F0120000C0E5FF01C03F
:1043C000E5FF02C0E5FF03C0E5FFE80E006E030E47
:1043D000016EF6EC1FF09E96C59AC5880050FF0F3F
:1043E000026EFF0E0120036E02C000F003C001F058
:1043F0000250031002E09EA6F1D7E4CF03F0E4CF11
:1044000002F0E4CF01F0E4CF00F0120000C0E5FFBD
:10441000F5EC25F00401896B806B8983006A89B310
:10442000002A0050010BE844F46E8051FD0BF4109B
:10443000806FD58ED59CD59AD588D596D594D582C2
:10444000D580F28AF184D08EF28EF28CBA80FF0E83
:10445000BB68BA84E4CF00F01200D9CFE5FFE1CF0A
:10446000D9FF00C0E5FF01C0E5FF020EDBCF00F081
:104470000050020DF450016EF3CF00F0D30E002671
:10448000040E012200C0E9FF01C0EAFFEECF00F0F8
:10449000EFCF01F001C0F3FF0050E4CF01F0E4CF13
:1044A00000F0E4CFD9FF1200D9CFE5FFE1CFD9FF6B
:1044B00000C0E5FF01C0E5FF020EDBCF00F00050B9
:1044C000020DF450016EF3CF00F0E00E0026000E56
:1044D000012200C0E9FF01C0EAFFEECF00F0EFCFFC
:1044E00001F001C0F3FF0050E4CF01F0E4CF00F091
:1044F000E4CFD9FF120000C0E5FF01C0E5FF02C014
:10450000E5FF03C0E5FFE80E006E030E016EF6EC5A
:104510001FF0C5840050FF0F026EFF0E0120036ED6
:1045200002C000F003C001F00250031002E0C5B465
:10453000F1D7E4CF03F0E4CF02F0E4CF01F0E4CF11
:1045400000F0120000C0E5FF01C0E5FF02C0E5FF7A
:1045500003C0E5FFE80E006E030E016EF6EC1FF0DF
:10456000C5800050FF0F026EFF0E0120036E02C0D7
:1045700000F003C001F00250031002E0C5B0F1D713
:10458000E4CF03F0E4CF02F0E4CF01F0E4CF00F099
:104590001200D9CFE5FFE1CFD9FF00C0E5FF01C090
:1045A000E5FF02C0E5FF020EDBCF00F069C301F0BA
:1045B0006AC302F00301693F01D06A2B0050E56E27
:1045C0000150E56E14EC23F0E652E652E4CF02F01F
:1045D000E4CF01F0E4CF00F0E4CFD9FF1200D8CF50
:1045E000E5FFE0CFE5FFE56EF3CFE5FFF4CFE5FFB4
:1045F000E9CFE5FFEACFE5FFFACFE5FFFBCFE5FF27
:10460000EAEC09F0E4CFFBFFE4CFFAFFE4CFEAFFE6
:10461000E4CFE9FFE4CFF4FFE4CFF3FFE450E4CFCD
:10462000E0FFE4CFD8FF1000D9CFE5FFE1CFD9FFFD
:1046300000C0E5FF020EDBCF00F0030EDBCFA8FFCA
:1046400000C0A9FFA69EA69CA684F29EF29C550ED1
:10465000A76EAA0EA76EA682A6A202D00000FCD763
:10466000A694F28EF28CE4CF00F0E4CFD9FF1200D2
:10467000E8AE0AD0F3CFEAFFEE50EECFF3FFEECF75
:10468000F4FFEECFE9FF1200E8BC0AEF26F0E9CF15
:10469000F6FFF3CFF7FFF86E0900F5500900F5CFEC
:1046A000F3FF0900F5CFF4FF0900F5CFE9FF120091
:1046B00000C0E5FF01C0E5FF0301235103012419F8
:1046C00002E1E86A0FD0000E03012425006E016AA2
:1046D000010E012200C0E9FF01C0EAFFEFCF00F0A8
:1046E000242B0050E4CF01F0E4CF00F01200F2CF11
:1046F000EAFFF29EA69EA69CA684E9CFA9FFF3CF6F
:10470000AAFFE4CFA8FFB9EC25F0F4CFA8FFB9ECDD
:1047100025F0F6CFA8FFB9EC25F0F7CFA8FFB9EC4C
:1047200025F0A694EABEF28E1200D9CFE5FFE1CFC4
:10473000D9FF00C0E5FF01C0E5FF020EDBCF00F0AE
:10474000016A3F0E0026030E012200C0E9FF01C0EE
:10475000EAFFFF0EEF68E4CF01F0E4CF00F0E4CF12
:10476000D9FF1200F2CFF6FFF29EA69EA69CE9CFDB
:10477000A9FFF3CFAAFFA680A850A94AAA2AA6801B
:10478000A8CFF3FFA94AAA2AA680A8CFF4FFA94A76
:10479000AA2AA680A8CFEAFFF6BEF28E1200E8AEE3
:1047A00008D0F3CFEAFFEE50EECFF3FFEECFF4FFE9
:1047B0001200E8BC12EF26F0E9CFF6FFF3CFF7FFC7
:1047C000F86E0900F5500900F5CFF3FF0900F5CFA9
:1047D000F4FF1200F2CFEAFFF29EA69EA69CA684EA
:1047E000E9CFA9FFF3CFAAFFE4CFA8FFB9EC25F0EA
:1047F000F4CFA8FFB9EC25F0F6CFA8FFB9EC25F06F
:10480000A694EABEF28E1200D9CFE5FFE1CFD9FF20
:1048100000C0E5FF020EDBCF00F000C027F3005020
:10482000E56E000EE56A14EC23F0E652E652E4CFA2
:1048300000F0E4CFD9FF1200D9CFE5FFE1CFD9FFD7
:1048400000C0E5FF020EDBCF00F0C69E00C0C9FF2E
:10485000C6AE02D0E86803D0F6EC1FF0E86AE4CFF9
:1048600000F0E4CFD9FF1200F2CFF6FFF29EA69E31
:10487000A69CE9CFA9FFF3CFAAFFA680A850A94A1A
:10488000AA2AA680A8CFF3FFA94AAA2AA680A8CF61
:10489000F4FFF6BEF28E120000C0E5FF01C0E5FF96
:1048A000600E03017625006E016A000E012200C031
:1048B000E9FF01C0EAFFEFCF00F00050E4CF01F0C4
:1048C000E4CF00F01200D9CFE5FFE1CFD9FF00C05F
:1048D000E5FF020EDBCF00F0610E005C05E37B0E0E
:1048E000005C02E2010E01D0E86AE4CF00F0E4CF00
:1048F000D9FF120000C0E5FF01C0E5FF69C300F069
:104900006AC301F00301693F01D06A2B0050E56ED4
:104910004CEC25F0E652E4CF01F0E4CF00F01200B9
:10492000D9CFE5FFE1CFD9FF00C0E5FF020EDBCF15
:1049300000F000C026F3005004E15AEC25F09D9AE7
:104940009D98E4CF00F0E4CFD9FF1200E8AE06D086
:10495000F3CFEAFFEE50EECFF3FF1200E8BC08EF12
:1049600026F0E9CFF6FFF3CFF7FFF86E0900F55018
:104970000900F5CFF3FF1200F2CFEAFFF29EA69EE8
:10498000A69CA684E9CFA9FFF3CFAAFFE4CFA8FF96
:10499000B9EC25F0F4CFA8FFB9EC25F0A694EABE57
:1049A000F28E120012EEFFF022EEFFF0F86AA68EF1
:1049B000A69CE9680E0EEA6E0068000EED6A0050D3
:1049C000FDE1DBEC1CF006EC00F0FFD7F2CFF6FFC8
:1049D000F29EA69EA69CE9CFA9FFF3CFAAFFA680D0
:1049E000A850A94AAA2AA680A8CFF3FFF6BEF28E45
:1049F0001200F2CFEAFFF29EA69EA69CA684E9CF03
:104A0000A9FFF3CFAAFFE4CFA8FFB9EC25F0A69445
:104A1000EABEF28E1200E8AE0BD0F3CFEAFFE4CF8D
:104A2000EEFFF4CFEEFFF6CFEEFFF7CFEEFF120072
:104A3000E8BC0CEF26F01200E8AE04D0F3CFEAFF9A
:104A4000EE501200E8BC06EF26F0E9CFF6FFF3CFF8
:104A5000F7FFF86E0900F55012000000000000FF9B
:104A6000000000000A0002000000420000000000F8
:104A700000000000000000000000E8AE09D0F3CF05
:104A8000EAFFE4CFEEFFF4CFEEFFF6CFEEFF120029
:104A9000E8BC14EF26F01200D9CFE5FFE1CFD9FF33
:104AA000020EDBCFA9FFA69CA69EA680A850E4CF4D
:104AB000D9FF1200ACA2FED79480AE500000AE50D9
:104AC000AB98AB88AB869D8A9D9812002564200028
:104AD000F2CFF6FFF29EA69EA69CE9CFA9FFF3CFE8
:104AE000AAFFA680A850F6BEF28E1200E8AE07D04C
:104AF000F3CFEAFFE4CFEEFFF4CFEEFF1200E8BC05
:104B000010EF26F01200700ED36E9B8CFF0E926891
:104B1000936894689668626AF19E120000C0E5FF8F
:104B2000BCEC1FF0006E005001E1FF00E4CF00F08C
:104B300012000F01456B900E0F01446F030E0F0121
:104B4000436F0F01458F1200E8AE05D0F3CFEAFFA7
:104B5000E4CFEEFF1200E8BC0EEF26F01200D9CF32
:104B6000E5FFE1CFD9FF020EDBCF2CF3E4CFD9FF75
:104B70001200550EA76EAA0EA76EA682A6B2FED789
:104B8000A94AAA2A010E0401376F1C0E0301696F9E
:104B90006A6B1200F6EC1FF09E96C58AC5889EA629
:104BA000FED712000401376B1C0E0301696F6A6B9C
:104BB000120001005A4A0000200300001F000000FC
:104BC000F6EC1FF0C582C5B2FED71200C7A002D016
:104BD000010E01D0E86A120006EC22F0CDEC20F0C4
:104BE0001200ACA2FED7AD6E120083EC25F01200CD
:104BF0000301765112000301805112000301265176
:104C00001200E8CF7FFF1200C96E120068EF25F096
:104C1000E6EF24F0B2EF23F077EF23F0F9EF24F082
:0C4C2000BCEF24F034EF24F0EAEF23F0A6
:020000040030CA
:010006008574
:00000001FF
