:020000040000FA
:100000004DEF17F0C69A12003AEF10F00000000012
:1000100000FF00000000000040EF15F0D9CFE5FF21
:10002000E1CFD9FF00C0E5FF01C0E5FF02C0E5FF59
:1000300003C0E5FF04C0E5FF05C0E5FF06C0E5FF1E
:1000400007C0E5FF08C0E5FF09C0E5FF0AC0E5FFFE
:100050000BC0E5FF0CC0E5FF0DC0E5FF0EC0E5FFDE
:100060000FC0E5FF10C0E5FF11C0E5FF12C0E5FFBE
:1000700013C0E5FF14C0E5FF15C0E5FF16C0E5FF9E
:1000800017C0E5FF18C0E5FF19C0E5FF1AC0E5FF7E
:100090001BC0E5FF1CC0E5FF1DC0E5FF1EC0E5FF5E
:1000A000020EDBCF00F0030EDBCF01F0040EDBCF3E
:1000B00002F0050EDBCF03F0060EDBCF04F0070ED7
:1000C000DBCF05F0080EDBCF06F0090EDBCF07F023
:1000D0000A0EDBCF08F0096A0A6A02C00DF00D5063
:1000E000800A0DE1025004013E6F01503D6F005047
:1000F0003C6F040E016E3C0E006E800E026E03C05B
:10010000E9FF04C0F3FF055097EC17F00B6E0B509E
:10011000D8B4C4EF03F00B50250A02E0ABEF03F0B4
:100120000C6A0D6A0E6A0F6A106A0A0E116E126A64
:10013000136A146A200E156E1668176A2B0E186E55
:10014000032A02E3044A052A03C0E9FF04C0F3FFBF
:10015000055097EC17F0196E250A13E11950E56E5A
:100160000250E56E0150E56E0050E56E55EC0AF068
:10017000040EE126094A0A2A032A02E3044A052A50
:10018000BED71950300A06E1300E156E032A02E37D
:10019000044A052A03C0E9FF04C0F3FF055097ECA9
:1001A00017F02D0A06E1010E146E032A02E3044A39
:1001B000052A03C0E9FF04C0F3FF055097EC17F0D0
:1001C000200A08E1010E176E200E186E032A02E3C2
:1001D000044A052A03C0E9FF04C0F3FF055097EC69
:1001E00017F02B0A06E1010E176E032A02E3044AF8
:1001F000052A03C0E9FF04C0F3FF055097EC17F090
:10020000196E310E195C2BE33A0E195C28E203C01B
:1002100019F004C01AF005C01BF019C0E9FF1AC09C
:10022000F3FF1B5097EC17F01C6E300E1C5C11E3B3
:100230003A0E1C5C0EE213500A0DF3CF1DF01C5059
:100240001D26D00E1D24136E192A02E31A4A1B2AFA
:10025000E4D719C003F01AC004F01BC005F003C0B6
:10026000E9FF04C0F3FF055097EC17F02E0A2DE1CB
:10027000032A02E3044A052A166A03C019F004C0DF
:100280001AF005C01BF019C0E9FF1AC0F3FF1B509C
:1002900097EC17F01C6E300E1C5C11E33A0E1C5CE0
:1002A0000EE216500A0DF3CF1DF01C501D26D00E85
:1002B0001D24166E192A02E31A4A1B2AE4D719C014
:1002C00003F01AC004F01BC005F003C0E9FF04C02E
:1002D000F3FF055097EC17F0196E6C0A07E1010E59
:1002E0000C6E032A02E3044A052A09D01950680A51
:1002F00006E1010E0E6E032A02E3044A052A03C03A
:10030000E9FF04C0F3FF055097EC17F0750A06E10A
:10031000010E106E032A02E3044A052A03C0E9FF16
:1003200004C0F3FF055097EC17F0196E730A05E14E
:10033000010E0D6E200E156E3FD01950780A03E1A4
:10034000100E116E39D01950580A05E1100E116EB9
:10035000010E126E31D01950630A02E1116A2CD0DD
:1003600019506F0A03E1080E116E26D01950660A63
:1003700003E1010E0F6E20D01950640A1DE01950E0
:10038000690A1AE0105005E0FF0E03260422052238
:1003900013D01950E56E0250E56E0150E56E005025
:1003A000E56E55EC0AF0040EE126094A0A2A032AF2
:1003B00002E3044A052AA3D60D5021E00650030F9C
:1003C0000D6E000E0720196E000E08201A6E0DC06B
:1003D00006F019C007F01AC008F0FD0E0D26FF0E3A
:1003E00019221A220DC0E9FF19C0F3FF1A5062EC5E
:1003F00016F00D6EF3CF19F0F4CF1AF0FDD00F50B8
:100400000DE0000E1A6E080E196E100E0D6E040E21
:100410000626000E072208221668EED016680C5039
:1004200023E00650040F0C6E000E07200F6E000E26
:1004300008201B6E0CC006F00FC007F01BC008F0B0
:10044000FC0E0C26FF0E0F221B220CC0E9FF0FC072
:10045000F3FF1B50AAEC15F00C6EF3CF0FF0F4CFA6
:100460001BF0E9CF1CF067D00E502FE00650020FB2
:100470000E6E000E07201D6E000E08201E6E0EC0B0
:1004800006F01DC007F01EC008F0FE0E0E26FF0E7F
:100490001D221E220EC0E9FF1DC0F3FF1E5021ECDD
:1004A00017F00E6E0EC00CF00F6A1B6A1C6A11501A
:1004B0000A0A03E11050D8B43ED00C500E6E0EC0A4
:1004C0000CF00F6A1B6A1C6A36D00650020F0E6EC3
:1004D000000E07201D6E000E08201E6E0EC006F0D6
:1004E0001DC007F01EC008F0FE0E0E26FF0E1D22D6
:1004F0001E220EC0E9FF1DC0F3FF1E5021EC17F0B5
:100500000E6EF3CF1DF00EC00CF01DC00FF0E86AA8
:100510001DBEFF0E1B6E1C6E11500A0A02E1105028
:100520000AE00C500E6E0F501D6E0EC00CF01DC078
:100530000FF01B6A1C6A040E196E240E0D6E800EDD
:100540001A6E1150D8B440D0105013E01150E56E1F
:10055000040EE56E240EE56E1C50E56E1B50E56E34
:100560000F50E56E0C50E56E2FEC05F0070EE126FE
:1005700012D01150E56E040EE56E240EE56E1C508F
:10058000E56E1B50E56E0F50E56E0C50E56E22ECEB
:100590000EF0070EE12617502FE00DC0E9FF19C03D
:1005A000F3FF1A5097EC17F02D0A26E0FF0E0D26E8
:1005B00019221A2218C0E5FF0DC0E9FF19C0F3FF88
:1005C0001A5010EC18F018D00CC0E5FF0DC0E9FF70
:1005D00019C0F3FF1A5010EC18F00D50010F0C6EFB
:1005E000000E19200E6E000E1A20E56A0CC0E9FFFD
:1005F0000EC0F3FF10EC18F00DC00CF019C00EF097
:100600001AC00FF013C010F0105010E00CC0E9FF3A
:100610000EC0F3FF0F5097EC17F0176E175006E05F
:100620000C2A02E30E4A0F2A1006EED710C013F070
:1006300014501EE109C00CF00AC00EF010C00FF0FB
:100640000F5010E01550E56E0250E56E0150E56E5A
:100650000050E56E55EC0AF0040EE1260C4A0E2A15
:100660000F06EED70CC009F00EC00AF00FC013F051
:1006700016C00CF00DC00DF019C00EF01AC00FF02E
:1006800009C010F00AC015F00DC0E9FF0EC0F3FF5D
:100690000F5097EC17F0166E1650D8B43ED00CC021
:1006A00016F0176A161E171E1650171005E00CC01C
:1006B00016F00C06165031E00DC0E9FF0EC0F3FF36
:1006C0000F5097EC17F0116E125010E01150E56EBC
:1006D000DEEC16F0166EE652165004E0DF0E111432
:1006E000166E02D011C016F016C011F01150E56E52
:1006F0000250E56E0150E56E0050E56E55EC0AF0D3
:10070000040EE1260D2A02E30E4A0F2A104A152A8A
:100710001350D8B4B9D71306B7D710C009F015C015
:100720000AF014502BE010C00CF015C00DF013C0EF
:100730000EF00E501FE0200EE56E0250E56E0150E7
:10074000E56E0050E56E55EC0AF0040EE1260C4A09
:100750000D2A0E06EED70B50E56E0250E56E0150E5
:10076000E56E0050E56E55EC0AF0040EE126094AEC
:100770000A2A04D00CC009F00DC00AF0032A02E3D3
:10078000044A052A7FEF00F00AC0F3FF0950E4CFC6
:100790001EF0E4CF1DF0E4CF1CF0E4CF1BF0E4CF5B
:1007A0001AF0E4CF19F0E4CF18F0E4CF17F0E4CF5B
:1007B00016F0E4CF15F0E4CF14F0E4CF13F0E4CF5B
:1007C00012F0E4CF11F0E4CF10F0E4CF0FF0E4CF5B
:1007D0000EF0E4CF0DF0E4CF0CF0E4CF0BF0E4CF5B
:1007E0000AF0E4CF09F0E4CF08F0E4CF07F0E4CF5B
:1007F00006F0E4CF05F0E4CF04F0E4CF03F0E4CF5B
:1008000002F0E4CF01F0E4CF00F0E4CFD9FF120012
:100810003C4E4F20464C4F41543E000000C0E5FF87
:1008200001C0E5FF02C0E5FF03C0E5FF0F0129514C
:10083000D8B40CD19DA81DD09EA81BD0040148514E
:100840000401461905E1C5EC17F00401466BFED022
:10085000000E04014825006E016A040E012200C04A
:10086000E9FF01C0EAFFEFCF42F4482B42C4ADFFDD
:10087000EDD09DAAEBD09EAAE9D0ABA205D0040191
:100880004781C5EC17F0E2D0ABA405D00401478343
:10089000C5EC17F0DBD0ABA048D0AECF42F42ACFE6
:1008A00000F0016A008E42C402F0036A0250001890
:1008B00003E10350011801E004D004014789AB961D
:1008C000C5D00401425104E042510F012A1929E127
:1008D00004014799AB960401425103E00401479794
:1008E00002D00401478742C44BF444C44CF40401D1
:1008F0004451006E000404014D6F600E04014C254C
:10090000006E016A000E012200C0E9FF01C0EAFF8B
:1009100042C4EFFF4C2B4C51800A02E104014C6BA6
:1009200095D004014799AB8691D0AECF42F4040133
:1009300047A921D02ACF00F0016A008E42C402F0FC
:10094000036A0250001803E10350011801E011D0BE
:100950009D9AAB9894900401465104E1AD6AC5ECB0
:1009600017F007D000C4ADFF010E0401486F9D8849
:100970006DD0AB866BD00401425104014B270401BA
:100980004C5104014D191BE104014B510CE14CC4C5
:1009900044F4040147B712D09D9AAB989490AD6A85
:1009A000C5EC17F00BD00401478547B707D09D9AD7
:1009B000AB989490010EAD6EC5EC17F047D00401D2
:1009C0004C510401451908E1040145510401441941
:1009D00003E0C5EC17F03AD044C400F0016A004AC5
:1009E000012AE56A800EE56E0150E56E0050E56E65
:1009F000E2EC0CF0006E040EE12600500401436F9F
:100A000004014C190FE142C400F01F0E0014040150
:100A10004D6F006E020E00244D6F0401445104011D
:100A20004D274D9F4CC400F004014C2B016A600E11
:100A30000026000E012200C0E9FF01C0EAFF42C407
:100A4000EFFF4C51800A02E104014C6BE4CF03F04C
:100A5000E4CF02F0E4CF01F0E4CF00F01200D9CFF0
:100A6000E5FFE1CFD9FF00C0E5FF01C0E5FF02C00F
:100A7000E5FF03C0E5FF04C0E5FF05C0E5FF06C0D4
:100A8000E5FF07C0E5FF08C0E5FF09C0E5FF0AC0B4
:100A9000E5FF0BC0E5FF0CC0E5FF0DC0E5FF0EC094
:100AA000E5FF0FC0E5FF020EDBCF00F0030EDBCF4A
:100AB00001F0040EDBCF02F0050EDBCF03F0060ED3
:100AC000DBCF04F0070EDBCF05F0080EDBCF06F01E
:100AD000200E076E086A06C009F00A6A0B6A0C6AE3
:100AE000E56AE56AE56A0950E56E0350E56E025075
:100AF000E56E0150E56E0050E56EE5EC06F00D6E1A
:100B0000080EE126300E0D263A0E0D5C05E30D5061
:100B10000E6E270E0E240D6EFF0E07260822E00E25
:100B200007240E6E000E08200F6E0EC0E9FF0FC0E6
:100B3000EAFF0DC0EFFF0C50E56E0B50E56E0A505A
:100B4000E56E0950E56E0350E56E0250E56E01500A
:100B5000E56E0050E56EABEC08F0006EF3CF01F0EF
:100B6000F4CF02F0E9CF03F0080EE12600500110A7
:100B700002100310D8A4AFD707C000F008C001F0DE
:100B800004C002F005C003F000C004F001C005F08D
:100B9000004A012AE00E0426000E052204C0E9FFE7
:100BA00005C0EAFFEFCF04F002C0E9FF03C0EAFF8F
:100BB00004C0EFFF024A032A000E015C02E1200E8E
:100BC000005CE2E302C0E9FF03C0EAFF000EEF6A47
:100BD000E4CF0FF0E4CF0EF0E4CF0DF0E4CF0CF053
:100BE000E4CF0BF0E4CF0AF0E4CF09F0E4CF08F053
:100BF000E4CF07F0E4CF06F0E4CF05F0E4CF04F053
:100C0000E4CF03F0E4CF02F0E4CF01F0E4CF00F052
:100C1000E4CFD9FF1200D9CFE5FFE1CFD9FF00C063
:100C2000E5FF01C0E5FF02C0E5FF03C0E5FF04C02A
:100C3000E5FF05C0E5FF06C0E5FF020EDBCF00F0D3
:100C4000030EDBCF01F0040EDBCF02F000C0E9FFA2
:100C500001C0F3FF025097EC17F0036EE56AE56EF2
:100C60007EEC13F0E652E652300EE56EE9EC15F03C
:100C7000E65259EC18F0010EE56E0350E56E7EEC7D
:100C800013F0E652E652F3EC14F0036E03A28AD09E
:100C900089EC15F0F3EC14F089EC15F00050010F1D
:100CA000036E000E0120046E000E0220056EF3ECB0
:100CB00014F0066E06C0E5FF03C0E9FF04C0F3FFB1
:100CC000055010EC18F089EC15F00050020F036E7F
:100CD000000E0120046E000E0220056EF3EC14F0ED
:100CE000066E06C0E5FF03C0E9FF04C0F3FF055030
:100CF00010EC18F089EC15F00050030F036E000E95
:100D00000120046E000E0220056EF3EC14F0066E56
:100D100006C0E5FF03C0E9FF04C0F3FF055010EC77
:100D200018F089EC15F00050040F036E000E01203E
:100D3000046E000E0220056EF3EC14F0066E06C081
:100D4000E5FF03C0E9FF04C0F3FF055010EC18F005
:100D500089EC15F00050050F036E000E0120046EA3
:100D6000000E0220056EF3EC14F0066E06C0E5FFDF
:100D700003C0E9FF04C0F3FF055010EC18F089EC44
:100D800015F0060E0026000E01220222F3EC14F0EC
:100D9000036E03C0E5FF00C0E9FF01C0F3FF02508E
:100DA00010EC18F059EC18F0E4CF06F0E4CF05F0A1
:100DB000E4CF04F0E4CF03F0E4CF02F0E4CF01F09D
:100DC000E4CF00F0E4CFD9FF1200D9CFE5FFE1CFA7
:100DD000D9FF00C0E5FF01C0E5FF02C0E5FF03C089
:100DE000E5FF04C0E5FF05C0E5FF06C0E5FF07C05D
:100DF000E5FF08C0E5FF09C0E5FF0AC0E5FF020EF8
:100E0000DBCF00F0030EDBCF01F0040EDBCF02F0EE
:100E1000050EDBCF03F0060EDBCF04F0070EDBCFB1
:100E200005F0080EDBCF06F0090EDBCF07F0086AED
:100E3000045005100610071005E1E968F468F3682E
:100E4000E86847D0096A0750800BE8440A6E0A50E8
:100E50001BE1045004260536063607360750035CAE
:100E600008E10650025C05E10550015C02E1045016
:100E7000005C06E2D890073206320532043204D014
:100E8000092A09C008F0DFD70750035C08E10650C3
:100E9000025C05E10550015C02E10450005C08E3DE
:100EA0000450005E0550015A0650025A0750035A7A
:100EB000D890073206320532043208C009F008061D
:100EC0000950E2E103C0E9FF02C0F4FF01C0F3FFF3
:100ED0000050E4CF0AF0E4CF09F0E4CF08F0E4CF0B
:100EE00007F0E4CF06F0E4CF05F0E4CF04F0E4CF60
:100EF00003F0E4CF02F0E4CF01F0E4CF00F0E4CF60
:100F0000D9FF1200D9CFE5FFE1CFD9FF00C0E5FF3F
:100F100001C0E5FF02C0E5FF03C0E5FF04C0E5FF37
:100F2000020EDBCF00F0030EDBCF01F0040EDBCFAF
:100F300002F0050EDBCF03F0420E0F012E6F0350BF
:100F40002F6F0050010F036E000E0120046E000E83
:100F5000022003C0E9FF04C0F3FF97EC17F00F0174
:100F6000306F0050020F036E000E0120046E000E61
:100F7000022003C0E9FF04C0F3FF97EC17F00F0154
:100F8000316F0050030F036E000E0120046E000E3F
:100F9000022003C0E9FF04C0F3FF97EC17F00F0134
:100FA000326F0050040F036E000E0120046E000E1D
:100FB000022003C0E9FF04C0F3FF97EC17F00F0114
:100FC000336F0050050F036E000E0120046E000EFB
:100FD000022003C0E9FF04C0F3FF97EC17F00F01F4
:100FE000346F060E0026000E0122022200C0E9FF27
:100FF00001C0F3FF025097EC17F00F01356F0A0E96
:10100000366F090EE56E800EE56E0F0EE56E2E0E44
:10101000E56EF3EC0BF0040EE126E4CF04F0E4CF30
:1010200003F0E4CF02F0E4CF01F0E4CF00F0E4CF2E
:10103000D9FF1200D9CFE5FFE1CFD9FF00C0E5FF0E
:1010400001C0E5FF02C0E5FF03C0E5FF04C0E5FF06
:1010500006C0E5FF020EDBCF00F0030EDBCF01F090
:10106000040EDBCF02F03F0EC716C66AC56A0050F9
:10107000C6120150C7129488820E006E0F0E016EC8
:101080000F0E046E380E0026045001220F0E046E5F
:10109000800E005E0450015A820E036E0F0E046E25
:1010A0000F0E066E380E0326065004220F0E066E33
:1010B000800E035E0650045A03C0E9FF04C0EAFF35
:1010C000EFCF03F0039800C0E9FF01C0EAFF03C0BF
:1010D000EFFF9486820E006E0F0E016E0F0E046EEF
:1010E000380E0026045001220F0E046E800E005EA2
:1010F0000450015A820E036E0F0E046E0F0E066E20
:10110000380E0326065004220F0E066E800E035E74
:101110000650045A03C0E9FF04C0EAFFEFCF03F012
:10112000039600C0E9FF01C0EAFF03C0EFFF02C061
:10113000C8FFC68A9E96A196E4CF06F0E4CF04F0DD
:10114000E4CF03F0E4CF02F0E4CF01F0E4CF00F00D
:10115000E4CFD9FF1200D9CFE5FFE1CFD9FF00C01E
:10116000E5FF01C0E5FF02C0E5FF03C0E5FF04C0E5
:10117000E5FF05C0E5FF06C0E5FF07C0E5FF08C0C5
:10118000E5FF09C0E5FF0AC0E5FF0BC0E5FF0CC0A5
:10119000E5FF0DC0E5FF020EDBCF00F0030EDBCF55
:1011A00001F0040EDBCF02F0050EDBCF03F0060EDC
:1011B000DBCF04F0070EDBCF05F0080EDBCF06F027
:1011C000090EDBCF07F0086A096A0A6A0B6A200E6B
:1011D0000C6E0350800BE8440D6E00500026013663
:1011E000023603360850082609360A360B360D50EB
:1011F000D8A4088007500B5C08E106500A5C05E1A2
:101200000550095C02E10450085C09E30450085EE3
:101210000550095A06500A5A07500B5A00800C0410
:101220000D6E0DC00CF00D50D4E103C0E9FF02C0FB
:10123000F4FF01C0F3FF0050E4CF0DF0E4CF0CF059
:10124000E4CF0BF0E4CF0AF0E4CF09F0E4CF08F0EC
:10125000E4CF07F0E4CF06F0E4CF05F0E4CF04F0EC
:10126000E4CF03F0E4CF02F0E4CF01F0E4CF00F0EC
:10127000E4CFD9FF120000C0E5FF01C0E5FF03C0C5
:10128000E5FF04C0E5FF05C0E5FF06C0E5FF07C0B8
:10129000E5FF08C0E5FF09C0E5FF0AC0E5FF0BC098
:1012A000E5FF3FC400F040C401F004013F3F01D01E
:1012B000402B0050E56EB7EC17F0E652076E046A5B
:1012C000056A066A3FC400F040C401F004013F3FD4
:1012D00001D0402B0050E56EB7EC17F0E6520B6AD8
:1012E0000A6E086A0850041205120A5006120B50C2
:1012F00007123FC400F040C401F004013F3F01D099
:10130000402B0050E56EB7EC17F0E652036E006A12
:1013100003C001F0E86A03BEFF0E086E096E0050BC
:1013200004120150051208500612095007123FC45A
:1013300000F040C401F004013F3F01D0402B0050B9
:10134000E56EB7EC17F0E652016A0412015005127F
:101350000612071207C0E9FF06C0F4FF05C0F3FF3D
:101360000450E4CF0BF0E4CF0AF0E4CF09F0E4CF6F
:1013700008F0E4CF07F0E4CF06F0E4CF05F0E4CFC7
:1013800004F0E4CF03F0E4CF01F0E4CF00F012006A
:1013900000C0E5FF01C0E5FF02C0E5FF03C0E5FFB7
:1013A000040145510401441901E163D045C400F032
:1013B000002A009E016A600E0026000E012200C075
:1013C000E9FF01C0EAFFEFCF4FF41F0E04014F17F2
:1013D00045C44EF44F5104014E274E51006E020E8B
:1013E00000244E6F4E9FA2EC14F0006E005003E1FB
:1013F000006A002A01D0006AA2EC14F004014F6FC9
:101400004FC401F0800E01164FC402F01F0E0216E9
:1014100002C003F002C04FF4035003E144C445F49A
:101420003BD000501EE0015022E0A2EC14F0006E10
:1014300004014F51026E02044F6F0050420A17E040
:1014400000504E0A03E1E2EC11F011D00050460AC0
:1014500003E105EC18F00BD00050490A08E1FF0049
:1014600006D045C450F40150D8A4EEEC17F04EC499
:1014700045F40F0126510F01271906E004014651DA
:1014800003E1E1EC0AF008D094B006D00401465123
:1014900003E1ACB2C5EC17F0E4CF03F0E4CF02F007
:1014A000E4CF01F0E4CF00F01200D9CFE5FFE1CFA7
:1014B000D9FF00C0E5FF01C0E5FF02C0E5FF03C0A2
:1014C000E5FF04C0E5FF05C0E5FF06C0E5FF07C076
:1014D000E5FF020EDBCF00F0030EDBCF01F0040EC0
:1014E000DBCF02F0050EDBCF03F002C006F00650A2
:1014F000046E800A33E100C0E9FF01C0F3FF02502F
:1015000062EC16F0056EF3CF06F0F4CF07F003C0DF
:10151000E5FF05C0E9FF06C0F3FF075010EC18F027
:1015200000C0E9FF01C0F3FF025062EC16F0056E47
:10153000F3CF06F0F4CF07F0052A02E3064A072AA4
:1015400005C0E5FF06C0F4FF07C0F6FF00C0E9FFD5
:1015500001C0F3FF0250A8EC17F020D004C000F047
:1015600000AA1CD0007A0050046E04E103505DEC28
:1015700018F014D00450010A04E1035070EC18F084
:101580000DD004500F0A04E1035019EC14F006D0FA
:1015900004500E0A03E103506DEC18F0E4CF07F09D
:1015A000E4CF06F0E4CF05F0E4CF04F0E4CF03F09D
:1015B000E4CF02F0E4CF01F0E4CF00F0E4CFD9FFB4
:1015C000120000C0E5FF01C0E5FF02C0E5FF03C057
:1015D000E5FFACA277D0CAEC15F0006E005005E133
:1015E0000F01276B0F01266B6DD027CF01F0005044
:1015F0000126CAEC15F0026E00060250230A1FE114
:10160000010E005CD8A05CD0CAEC15F0036E690A2C
:1016100003E1E8EC13F054D00350720A03E1C5EC87
:1016200017F04ED00350730A01E04AD09480AB8685
:101630009D8A9D98AE50AE50AB98AB8841D0025079
:10164000430A05E00250420A01E03AD001D0008E80
:101650000401486B00C049F400500401006F04010C
:10166000482B0F012751011814E0CAEC15F0006E49
:1016700004014927000E04014825026E036A040E86
:10168000032202C0E9FF03C0EAFF00C0EFFF482BBE
:10169000E8D7000E04014825006E026A040E0222FB
:1016A0000401491D036E032A00C0E9FF02C0EAFFDE
:1016B00003C0EFFF0401482B48C446F40401916BBA
:1016C00001C027FFE4CF03F0E4CF02F0E4CF01F044
:1016D000E4CF00F01200D9CFE5FFE1CFD9FF00C081
:1016E000E5FF01C0E5FF02C0E5FF03C0E5FF04C060
:1016F000E5FF05C0E5FF06C0E5FF020EDBCF00F009
:10170000030EDBCF01F0040EDBCF02F0050EDBCFC2
:1017100003F003C004F0056A0350D8B453D000C0EE
:10172000E9FF01C0F3FF025097EC17F0066E430A81
:1017300003E1010E056E038E0406002A02E3014A4E
:10174000022A9D9AAB9894909D989EA8FED7AC8053
:10175000AD6A00009EA8FED7AC9003C0ADFF0000AC
:101760009EA8FED7055005E0420EAD6E0324056E1F
:1017700005D0620EAD6E620E0324056E04C003F048
:10178000035015E000009EA8FED700C0E9FF01C08D
:10179000F3FF025097EC17F0046E04C0ADFF045045
:1017A00005260306002A02E3014A022AE9D70000BF
:1017B0009EA8FED7051CAD6EAD2A00009EA8FED7E0
:1017C000C5EC17F0E4CF06F0E4CF05F0E4CF04F069
:1017D000E4CF03F0E4CF02F0E4CF01F0E4CF00F077
:1017E000E4CFD9FF1200D9CFE5FFE1CFD9FF00C088
:1017F000E5FF01C0E5FF02C0E5FF03C0E5FF04C04F
:10180000E5FF05C0E5FF06C0E5FF07C0E5FF020EE6
:10181000DBCF00F0030EDBCF01F0040EDBCF02F0D4
:10182000050EDBCF03F027CF28FF0F0126510F0154
:10183000285F2851046E0404286F03C004F0056A71
:10184000030E0426D8B0052A28CF06F0076A0750F1
:10185000800FF36E0550800FF35C02E10450065CCC
:1018600002E2E8682ED0020E035C02E2E86A29D0A8
:1018700003060350E56E1EEC12F0E652046A0350B4
:10188000045C14E204500024056EE86A0120066E30
:10189000E86A022005C0E9FF06C0F3FF97EC17F0E5
:1018A000042AE56E1EEC12F0E652E9D727CF28FF96
:1018B0000F0126510F01285F2851006E0004286F88
:1018C000E86AE4CF07F0E4CF06F0E4CF05F0E4CF18
:1018D00004F0E4CF03F0E4CF02F0E4CF01F0E4CF72
:1018E00000F0E4CFD9FF1200D9CFE5FFE1CFD9FF57
:1018F00000C0E5FF01C0E5FF02C0E5FF03C0E5FF52
:10190000020EDBCF00F0030EDBCF01F0040EDBCFC5
:1019100002F0050EDBCF03F0035003E11D0E036E52
:1019200002D0530E036E03C0E5FF00C0E9FF01C003
:10193000F3FF025010EC18F0E56A2D0EE56E03502F
:10194000E56E49EC14F0030EE126100EE56E2D0E47
:10195000E56E0350E56E49EC14F0030EE126080E27
:10196000E56E2D0EE56E0350E56E49EC14F0030EA6
:10197000E1260B0EE56E310EE56E0350E56E49EC87
:1019800014F0030EE126090EE56E2C0EE56E0350F1
:10199000E56E49EC14F0030EE126810EE56E380E7B
:1019A000E56E0350E56E49EC14F0030EE126E4CF3A
:1019B00003F0E4CF02F0E4CF01F0E4CF00F0E4CF95
:1019C000D9FF1200D9CFE5FFE1CFD9FF00C0E5FF75
:1019D00001C0E5FF02C0E5FF03C0E5FF04C0E5FF6D
:1019E00005C0E5FF06C0E5FF020EDBCF00F0030EE9
:1019F000DBCF01F0040EDBCF02F0050EDBCF03F0EE
:101A0000D88001AED890046A0436045007E0011C67
:101A1000066E001C056E054A062A04D000C005F0BB
:101A200001C006F0D88003AED89007E3031C016E16
:101A3000021C006E004A012A04D002C000F003C05C
:101A400001F00150E56E0050E56E0650E56E055060
:101A5000E56EE3EC0EF0006EF3CF01F0040EE1262C
:101A600004500AE0011C036E001C026E024A032AA5
:101A700003C0F3FF025003D001C0F3FF0050E4CFD6
:101A800006F0E4CF05F0E4CF04F0E4CF03F0E4CFB8
:101A900002F0E4CF01F0E4CF00F0E4CFD9FF120070
:101AA000D9CFE5FFE1CFD9FF00C0E5FF01C0E5FFD9
:101AB00002C0E5FF03C0E5FF04C0E5FF05C0E5FF88
:101AC000020EDBCF00F0030EDBCF01F0040EDBCF04
:101AD00002F0050EDBCF03F03FC404F040C405F074
:101AE00004013F3F01D0402B0350E56E0450E56EEA
:101AF00065EC15F0E652E6523FC404F040C405F030
:101B000004013F3F01D0402B0250056EE56E0450AA
:101B1000E56E65EC15F0E652E6523FC404F040C4B1
:101B200005F004013F3F01D0402B0150E56E045009
:101B3000E56E65EC15F0E652E6523FC404F040C491
:101B400005F004013F3F01D0402B0050E56E0450EA
:101B5000E56E65EC15F0E652E652E4CF05F0E4CF11
:101B600004F0E4CF03F0E4CF02F0E4CF01F0E4CFDF
:101B700000F0E4CFD9FF1200D9CFE5FFE1CFD9FFC4
:101B800000C0E5FF01C0E5FF02C0E5FF03C0E5FFBF
:101B900004C0E5FF05C0E5FF06C0E5FF020EDBCF90
:101BA00000F0030EDBCF01F0040EDBCF02F00401E6
:101BB000375119E13BEC09F0036EF3CF04F0F4CF99
:101BC00005F0E9CF06F003C0E5FF04C0F4FF05C04F
:101BD000F6FF06C0F7FF00C0E9FF01C0F3FF0250A7
:101BE00086EC17F01ED004013751010A1AE100C03B
:101BF000E9FF01C0F3FF0250AAEC15F0006EF3CF2D
:101C000001F0F4CF02F0E9CF03F00350E56E02508B
:101C1000E56E0150E56E0050E56E50EC0DF0040EDF
:101C2000E126E4CF06F0E4CF05F0E4CF04F0E4CF02
:101C300003F0E4CF02F0E4CF01F0E4CF00F0E4CF12
:101C4000D9FF1200D9CFE5FFE1CFD9FF00C0E5FFF2
:101C500001C0E5FF02C0E5FF03C0E5FF04C0E5FFEA
:101C600005C0E5FF06C0E5FF020EDBCF00F0030E66
:101C7000DBCF01F0040EDBCF02F0050EDBCF03F06B
:101C8000060EDBCF04F0070EDBCF05F0080EDBCF2E
:101C900006F0D88003AED89015E306500A0A12E188
:101CA00004C0E9FF05C0EAFF2D0EEF6E044A052AC5
:101CB000031E021E011E006C05E1012A03E1022A37
:101CC000D8B4032A0650E56E0550E56E0450E56E63
:101CD0000350E56E0250E56E0150E56E0050E56E72
:101CE0002FEC05F0070EE126E4CF06F0E4CF05F077
:101CF000E4CF04F0E4CF03F0E4CF02F0E4CF01F04E
:101D0000E4CF00F0E4CFD9FF120000C0E5FF01C02E
:101D1000E5FF02C0E5FF03C0E5FFC8EC09F0800E57
:101D2000E56E040EE56E300EE56E0BEC06F0030E6C
:101D3000E12678EC14F0006EF3CF01F0F4CF02F05E
:101D4000E9CF03F004018151005E8251015A8351B1
:101D5000025A8451035A039E3F0E035C08E1FF0EB2
:101D6000025C05E1FF0E015C02E1FF0E005C22E275
:101D700078EC14F0F3CF01F0F4CF02F0E9CF03F0E8
:101D8000880F0401816F130E0120826F000E022064
:101D9000836F000E0320846F020EE56E800EE56EE9
:101DA000040EE56E300EE56E82EC07F0040EE126BF
:101DB0000F01236BE4CF03F0E4CF02F0E4CF01F096
:101DC000E4CF00F01200D9CFE5FFE1CFD9FF00C08A
:101DD000E5FF01C0E5FF02C0E5FF03C0E5FF04C069
:101DE000E5FF05C0E5FF06C0E5FF020EDBCF00F012
:101DF000030EDBCF01F0040EDBCF02F0050EDBCFCC
:101E000003F0046A056A0350800BE844066E06502E
:101E100011E10250022603360350015C02E1025038
:101E2000005C04E2D8900332023204D0052A05C0D7
:101E300004F0E9D70350015C02E10250005C04E3C6
:101E40000250005E0350015AD8900332023204C09F
:101E500005F004060550EEE101C0F3FF0050E4CFA9
:101E600006F0E4CF05F0E4CF04F0E4CF03F0E4CFD4
:101E700002F0E4CF01F0E4CF00F0E4CFD9FF12008C
:101E8000D9CFE5FFE1CFD9FF00C0E5FF01C0E5FFF5
:101E900002C0E5FF03C0E5FF020EDBCF00F0030E3A
:101EA000DBCF01F0040EDBCF02F000C0E9FF01C080
:101EB000F3FF025097EC17F0036E035029E0C6A61B
:101EC00010D00350E56EE9EC15F0036EE6520350B6
:101ED00002E0FD0E1ED00BEC13F0C5AC14D0FE0ECC
:101EE00018D09E9600C0E9FF01C0F3FF025097ECA6
:101EF00017F0C96EC6889EA6FED7C7B404D0C7B077
:101F000002D0FE0E06D0002AD0E3014A022ACDD725
:101F1000E86AE4CF03F0E4CF02F0E4CF01F0E4CFCD
:101F200000F0E4CFD9FF1200D9CFE5FFE1CFD9FF10
:101F300000C0E5FF01C0E5FF02C0E5FF03C0E5FF0B
:101F400004C0E5FF05C0E5FF020EDBCF00F0030E85
:101F5000DBCF01F0040EDBCF02F0050EDBCF03F088
:101F6000046A03C005F00306055022E0F3EC14F008
:101F7000056E05C0E5FF00C0E9FF01C0F3FF025098
:101F800010EC18F0002A02E3014A022A04C005F00E
:101F9000C5A6E7D7A1A602D0E8680BD0052A05C0E0
:101FA00004F00350F5E089EC15F0C5B8FED7F0D782
:101FB0000450E4CF05F0E4CF04F0E4CF03F0E4CF25
:101FC00002F0E4CF01F0E4CF00F0E4CFD9FF12003B
:101FD00000C0E5FF01C0E5FF02C0E5FF03C0E5FF6B
:101FE00045C400F0016A50C402F0036A0250005E6A
:101FF0000350015AE56A800EE56E0150E56E00500F
:10200000E56EE2EC0CF0006E040EE126000650C412
:1020100001F0430E19EC14F0200E19EC14F00050EE
:1020200020E0600E0124026E036A000E032202C04B
:10203000E9FF03C0EAFFEFCF02F0E56A0250E56E68
:10204000000EE56E2F0EE56EA20EE56E26EC11F089
:10205000050EE126012A0150800A01E1016A00060D
:10206000DED7E4CF03F0E4CF02F0E4CF01F0E4CF19
:1020700000F01200D8CFE5FFE0CFE5FFE56EF3CF2B
:10208000E5FFF4CFE5FFE9CFE5FFEACFE5FFFACFC3
:10209000E5FFFBCFE5FF00C0E5FF01C0E5FF0F0155
:1020A00024510401876F0F0125510401886FD65018
:1020B000856FD750866FF2A417D024CF00F025CFBC
:1020C00001F00050010F0F01246F000E0120256F59
:1020D000F29424510401876F0F0125510401886F88
:1020E000D650856FD750866FE4CF01F0E4CF00F073
:1020F000E4CFFBFFE4CFFAFFE4CFEAFFE4CFE9FF50
:10210000E4CFF4FFE4CFF3FFE450E4CFE0FFE4CF0B
:10211000D8FF1000D9CFE5FFE1CFD9FF00C0E5FF20
:1021200001C0E5FF02C0E5FF03C0E5FF04C0E5FF15
:10213000020EDBCF00F0030EDBCF01F0040EDBCF8D
:1021400002F00401375111E1B4EC13F0036EF3CF48
:1021500004F003C0E5FF04C0F4FF00C0E9FF01C0C4
:10216000F3FF0250E1EC17F016D004013751010AD9
:1021700012E100C0E9FF01C0F3FF025021EC17F0AB
:10218000006EF3CF01F00150E56E0050E56EA5EC56
:1021900011F0E652E652E4CF04F0E4CF03F0E4CFCE
:1021A00002F0E4CF01F0E4CF00F0E4CFD9FF120059
:1021B000760EF66E300EF76E000EF86E0900F550D2
:1021C000056E0900F550066E04E1056702D025EFA3
:1021D00011F00900F550006E0900F550016E09007C
:1021E000F550026E09000900F550E96E0900F5503E
:1021F000EA6E090009000900F550036E0900F55068
:10220000046E09000900F6CF07F0F7CF08F0F8CF09
:1022100009F000C0F6FF01C0F7FF02C0F8FF03504D
:1022200002E1045007E00900F550EE6E0306F8E203
:102230000406F9D707C0F6FF08C0F7FF09C0F8FF8A
:10224000050601E20606E4EF10F01200D9CFE5FF23
:10225000E1CFD9FF00C0E5FF01C0E5FF02C0E5FF07
:10226000020ED924006E000EDA20016E800E026E7E
:10227000030E0026000E012202220250E56E0150DC
:10228000E56E0050E56E040EDBCFE5FF030EDBCFFD
:10229000E5FF020EDBCFE5FF04019051E56E8F51A3
:1022A000E56E8E51E56E0EEC00F0006EF3CF01F09E
:1022B000090EE12601C0F3FF0050E4CF02F0E4CFA5
:1022C00001F0E4CF00F0E4CFD9FF1200D9CFE5FF51
:1022D000E1CFD9FF00C0E5FF01C0E5FF02C0E5FF87
:1022E00003C0E5FF020EDBCF00F0030EDBCF01F0F1
:1022F000040EDBCF02F0040137510DE1F5EC16F0CE
:10230000036E03C0E5FF00C0E9FF01C0F3FF025008
:1023100010EC18F00FD004013751010A0BE100C096
:10232000E9FF01C0F3FF025097EC17F0E56E1AECDD
:1023300015F0E652E4CF03F0E4CF02F0E4CF01F071
:10234000E4CF00F0E4CFD9FF1200D9CFE5FFE1CF11
:10235000D9FF00C0E5FF01C0E5FF02C0E5FF03C0F3
:10236000E5FF020EDBCF00F0030EDBCF01F03FC430
:1023700002F040C403F004013F3F01D0402B015064
:10238000E56E0250E56E65EC15F0E652E6523FC48C
:1023900002F040C403F004013F3F01D0402B005045
:1023A000E56E0250E56E65EC15F0E652E652E4CFBC
:1023B00003F0E4CF02F0E4CF01F0E4CF00F0E4CF8B
:1023C000D9FF120000C0E5FF01C0E5FF02C0E5FF34
:1023D000A2EC14F0006EA2EC14F0016ED00E0026F8
:1023E0000A0E005C05E30050026EF90E0224006E36
:1023F000D00E01260A0E015C05E30150026EF90EB3
:102400000224016E080E005C12E2100E015CD8B0CE
:102410000ED00038F00B0124006ED1EC12F0016EEA
:10242000015005E10050E56E97EC16F0E652E4CF5E
:1024300002F0E4CF01F0E4CF00F01200D9CFE5FFC5
:10244000E1CFD9FF00C0E5FF01C0E5FF02C0E5FF15
:1024500003C0E5FF04C0E5FF020EDBCF00F026CF8E
:1024600001F0026A014A022A27CF03F0046A0150F0
:10247000031803E10250041801E001D00ED0000E51
:102480000F012625016E026A010E022201C0E9FF3A
:1024900002C0EAFF00C0EFFF262BE4CF04F0E4CF38
:1024A00003F0E4CF02F0E4CF01F0E4CF00F0E4CF9A
:1024B000D9FF1200D9CFE5FFE1CFD9FF00C0E5FF7A
:1024C00001C0E5FF02C0E5FF03C0E5FF04C0E5FF72
:1024D000020EDBCF00F0030EDBCF01F0040EDBCFEA
:1024E00002F0050EDBCF03F0060EDBCF04F000C0D8
:1024F000E9FF01C0F3FF025097EC17F0006E0450A3
:10250000E56E0350E56E0050E56E49EC14F0030EE5
:10251000E126E4CF04F0E4CF03F0E4CF02F0E4CF0F
:1025200001F0E4CF00F0E4CFD9FF1200D9CFE5FFEE
:10253000E1CFD9FF00C0E5FF01C0E5FF02C0E5FF24
:1025400003C0E5FF020EDBCF00F0016A50C402F0C9
:10255000036A0250002603500122E56A800EE56EF0
:102560000150E56E0050E56EE2EC0CF0006EF3CF2A
:1025700001F0040EE126600E0026000E012200C0CC
:10258000E9FF01C0EAFFEFCF00F00050E4CF03F015
:10259000E4CF02F0E4CF01F0E4CF00F0E4CFD9FFC4
:1025A000120000C0E5FF01C0E5FF02C0E5FF010E1B
:1025B000006EA2EC14F0016E01C002F0015023E0A5
:1025C0000050E56EB7EC17F0016EE652015010E1D5
:1025D0000A0E005C0BE20A0E006EE56EB7EC17F017
:1025E000016EE652015004E1E8680ED0E8680CD0B4
:1025F0000150021802E0E86807D0002A1B0E005CB8
:10260000D8E3E86801D0E86AE4CF02F0E4CF01F053
:10261000E4CF00F0120000C0E5FF01C0E5FF02C0FA
:10262000E5FF03C0E5FF04C0E5FF05C0E5FFE80ED8
:10263000006E030E016EFF0E0026012200500110F5
:1026400010E0C5CF02F0036A1F0E0216046AC7B479
:10265000042A056A045002120550031202500310A6
:10266000EAE10F012C6B005003E1015001E12C2B3A
:10267000E4CF05F0E4CF04F0E4CF03F0E4CF02F0C0
:10268000E4CF01F0E4CF00F0120001C0E5FF02C08A
:10269000E5FF03C0E5FF54EC18F094928B9278ECC0
:1026A00014F0F3CF01F0F4CF02F0E9CF03F0880F7C
:1026B0000401816F130E0120826F000E0220836FD0
:1026C000000E0320846F270EE56EE56A080EE56EA6
:1026D0001AEC08F0030EE126E56A800EE56E040EA2
:1026E000E56E300EE56E74EC0CF0040EE126E4CFDE
:1026F00003F0E4CF02F0E4CF01F01200D9CFE5FF00
:10270000E1CFD9FF00C0E5FF01C0E5FF02C0E5FF52
:10271000020EDBCF00F0030EDBCF01F008EC16F069
:102720000F012C5102E0E86816D00044FE0B026E47
:102730000150D880E866D890016A01360150D880EF
:10274000E866D890016A0136015002120250E56E27
:10275000E9EC15F0E652E4CF02F0E4CF01F0E4CF6B
:1027600000F0E4CFD9FF120000C0E5FF01C0E5FF93
:1027700002C0E5FF03C0E5FF3FC400F040C401F024
:1027800004013F3F01D0402B0050E56EB7EC17F03D
:10279000E652036E026A3FC400F040C401F0040137
:1027A0003F3F01D0402B0050E56EB7EC17F0E652EA
:1027B000016A02120150031203C0F3FF0250E4CF7A
:1027C00003F0E4CF02F0E4CF01F0E4CF00F0120018
:1027D0000F01266B0F01276B0F01286994808B90E6
:1027E0009480B06A3F0EAF6EB886AC8AAC84AC8C75
:1027F000AC90AB8CAB8E0401476B0401416B0401C0
:10280000446B0401456B0401466B000EE56AB7ECAE
:1028100017F00F012A6FE6529F989F9A010E0F0141
:10282000296F04018E6B8F6B2F0E906FC5EC17F024
:10283000120000C0E5FF01C0E5FF02C0E5FF006E29
:10284000000E0F012B25016E026A0F0E022201C03D
:10285000E9FF02C0EAFF00C0EFFF220E2B5DD8A007
:102860002B2B00500A0A0EE10F012B51E56E800E52
:10287000E56E0F0EE56E000EE56EF3EC0BF0040E48
:10288000E1262B6BE4CF02F0E4CF01F0E4CF00F0BF
:102890001200D9CFE5FFE1CFD9FF00C0E5FF01C0AD
:1028A000E5FF02C0E5FF020EDBCF00F0030EDBCF39
:1028B00001F0040EDBCF02F0E56A0050E56E7EEC1D
:1028C00013F0E652E6520150E56EE9EC15F0E652DF
:1028D0000250E56EE9EC15F0E65259EC18F0E4CF41
:1028E00002F0E4CF01F0E4CF00F0E4CFD9FF120012
:1028F0000F01245104018C6F0F01255104018D6FCC
:10290000D6508A6FD7508B6F8C510F01241905E177
:1029100004018D510F0125190CE00F012451040110
:102920008C6F0F01255104018D6FD6508A6FD750DF
:102930008B6F8DC4E9FF8CC4F4FF8BC4F3FF0401DB
:102940008A51120000C0E5FF01C0E5FF04014551B6
:1029500004014E1905E0040145510401441902E146
:10296000E86A15D045C400F00401452B016A600EE9
:102970000026000E012200C0E9FF01C0EAFFEFCFF0
:1029800000F04551800A02E10401456B0050E4CF9C
:1029900001F0E4CF00F0120000C0E5FF61EC18F098
:1029A0000401896B806B8983006A89B3002A005017
:1029B000010BE844F46E8051FD0BF410806FD58E4E
:1029C000D59CD59AD588D596D594D582D580F28ACE
:1029D000F184D08EF28EF28CBA80FF0EBB68BA847E
:1029E000E4CF00F0120000C0E5FF01C0E5FF02C027
:1029F000E5FF0BEC13F0C586E80E006E030E016ECA
:102A0000FF0E002601220050011005E04EEC18F0E8
:102A1000026E0250F5E00F012C6B005003E10150F3
:102A200001E12C2BC950E4CF02F0E4CF01F0E4CF58
:102A300000F01200D9CFE5FFE1CFD9FF00C0E5FFDC
:102A400001C0E5FF02C0E5FF020EDBCF00F03FC48E
:102A500001F040C402F004013F3F01D0402B005080
:102A6000E56E0150E56E65EC15F0E652E652E4CFF6
:102A700002F0E4CF01F0E4CF00F0E4CFD9FF120080
:102A8000D8CFE5FFE0CFE5FFE56EF3CFE5FFF4CF6C
:102A9000E5FFE9CFE5FFEACFE5FFFACFE5FFFBCFA2
:102AA000E5FF0EEC04F0E4CFFBFFE4CFFAFFE4CF48
:102AB000EAFFE4CFE9FFE4CFF4FFE4CFF3FFE45013
:102AC000E4CFE0FFE4CFD8FF1000D9CFE5FFE1CF9E
:102AD000D9FF00C0E5FF020EDBCF00F0030EDBCF15
:102AE000A8FF00C0A9FFA69EA69CA684F29EF29C09
:102AF000550EA76EAA0EA76EA682A6A202D000004F
:102B0000FCD7A694F28EF28CE4CF00F0E4CFD9FF8C
:102B1000120000C0E5FF01C0E5FF0BEC13F09E962C
:102B2000C59AC588E80E006E030E016EFF0E0026E2
:102B300001220050011002E09EA6F8D70F012C6B75
:102B4000005003E1015001E12C2BE4CF01F0E4CF70
:102B500000F01200E8AE0AD0F3CFEAFFEE50EECF5D
:102B6000F3FFEECFF4FFEECFE9FF1200E8BC76EF03
:102B700018F0E9CFF6FFF3CFF7FFF86E0900F55034
:102B80000900F5CFF3FF0900F5CFF4FF0900F5CFF9
:102B9000E9FF120000C0E5FF01C0E5FF0F0126516B
:102BA0000F01271902E1E86A0FD0000E0F01272557
:102BB000006E016A010E012200C0E9FF01C0EAFFB8
:102BC000EFCF00F0272B0050E4CF01F0E4CF00F06E
:102BD0001200D9CFE5FFE1CFD9FF00C0E5FF020E1B
:102BE000DBCF00F0C69E00C0C9FFC6AE02D0E868C9
:102BF0000AD00BEC13F0C5BC03D00F012C5102E03E
:102C0000E86801D0E86AE4CF00F0E4CFD9FF120011
:102C100000C0E5FF01C0E5FF0BEC13F0C580E80E36
:102C2000006E030E016EFF0E0026012200500110FF
:102C300002E0C5B0F8D70F012C6B005003E1015042
:102C400001E12C2BE4CF01F0E4CF00F01200F2CF31
:102C5000EAFFF29EA69EA69CA684E9CFA9FFF3CF29
:102C6000AAFFE4CFA8FF1BEC18F0F4CFA8FF1BECE1
:102C700018F0F6CFA8FF1BEC18F0F7CFA8FF1BEC5D
:102C800018F0A694EABEF28E1200F2CFF6FFF29E82
:102C9000A69EA69CE9CFA9FFF3CFAAFFA680A850C5
:102CA000A94AAA2AA680A8CFF3FFA94AAA2AA680E1
:102CB000A8CFF4FFA94AAA2AA680A8CFEAFFF6BEA9
:102CC000F28E1200E8AE08D0F3CFEAFFEE50EECF5E
:102CD000F3FFEECFF4FF1200E8BC7EEF18F0E9CF6F
:102CE000F6FFF3CFF7FFF86E0900F5500900F5CFB6
:102CF000F3FF0900F5CFF4FF1200F2CFEAFFF29ED6
:102D0000A69EA69CA684E9CFA9FFF3CFAAFFE4CF95
:102D1000A8FF1BEC18F0F4CFA8FF1BEC18F0F6CFBF
:102D2000A8FF1BEC18F0A694EABEF28E1200D9CFD1
:102D3000E5FFE1CFD9FF00C0E5FF020EDBCF00F0D9
:102D400000C02AFF0050E56E000EE56A65EC15F044
:102D5000E652E652E4CF00F0E4CFD9FF1200F2CF02
:102D6000F6FFF29EA69EA69CE9CFA9FFF3CFAAFF8D
:102D7000A680A850A94AAA2AA680A8CFF3FFA94AEC
:102D8000AA2AA680A8CFF4FFF6BEF28E120000C0D9
:102D9000E5FF01C0E5FF600E04014525006E016AF4
:102DA000000E012200C0E9FF01C0EAFFEFCF00F0F2
:102DB0000050E4CF01F0E4CF00F01200D9CFE5FFDE
:102DC000E1CFD9FF00C0E5FF020EDBCF00F0610EBE
:102DD000005C05E37B0E005C02E2010E01D0E86AB4
:102DE000E4CF00F0E4CFD9FF120000C0E5FF01C03E
:102DF000E5FF3FC400F040C401F004013F3F01D0B3
:102E0000402B0050E56EB7EC17F0E652E4CF01F02E
:102E1000E4CF00F01200D9CFE5FFE1CFD9FF00C029
:102E2000E5FF020EDBCF00F000C029FF005004E1F7
:102E3000C5EC17F09D9A9D98E4CF00F0E4CFD9FF40
:102E40001200E8AE06D0F3CFEAFFEE50EECFF3FF6C
:102E50001200E8BC74EF18F0E9CFF6FFF3CFF7FFEC
:102E6000F86E0900F5500900F5CFF3FF1200F2CF1C
:102E7000EAFFF29EA69EA69CA684E9CFA9FFF3CF07
:102E8000AAFFE4CFA8FF1BEC18F0F4CFA8FF1BECBF
:102E900018F0A694EABEF28E120012EEFFF022EEB7
:102EA000FFF0F86AA68EA69CE9680E0EEA6E00682E
:102EB000000EED6A0050FDE1D8EC10F042EC18F085
:102EC000FFD7F2CFF6FFF29EA69EA69CE9CFA9FF00
:102ED000F3CFAAFFA680A850A94AAA2AA680A8CF05
:102EE000F3FFF6BEF28E1200F2CFEAFFF29EA69E2C
:102EF000A69CA684E9CFA9FFF3CFAAFFE4CFA8FF41
:102F00001BEC18F0A694EABEF28E1200E8AE0BD0CD
:102F1000F3CFEAFFE4CFEEFFF4CFEEFFF6CFEEFF04
:102F2000F7CFEEFF1200E8BC78EF18F01200E8AE21
:102F300004D0F3CFEAFFEE501200E8BC72EF18F0B5
:102F4000E9CFF6FFF3CFF7FFF86E0900F550120056
:102F5000E8AE09D0F3CFEAFFE4CFEEFFF4CFEEFF07
:102F6000F6CFEEFF1200E8BC80EF18F01200D9CFC8
:102F7000E5FFE1CFD9FF020EDBCFA9FFA69CA69EFD
:102F8000A680A850E4CFD9FF1200ACA2FED794804F
:102F9000AE500000AE50AB98AB88AB869D8A9D9832
:102FA000120025642000F2CFF6FFF29EA69EA69C9A
:102FB000E9CFA9FFF3CFAAFFA680A850F6BEF28EF4
:102FC0001200E8AE07D0F3CFEAFFE4CFEEFFF4CF74
:102FD000EEFF1200E8BC7CEF18F01200A2EC14F037
:102FE0004C0A07E1A2EC14F0300A02E08B8201D017
:102FF0008B921200700ED36E9B8CFF0E92689368BA
:1030000094689668626AF19E120000C0E5FFD1ECF8
:1030100012F0006E005001E1FF00E4CF00F012005A
:10302000E8AE05D0F3CFEAFFE4CFEEFF1200E8BC34
:103030007AEF18F01200550EA76EAA0EA76EA682A0
:10304000A6B2FED7A94AAA2A010E0401376F1C0EA8
:1030500004013F6F406B12000BEC13F09E96C58A83
:10306000C5889EA6FED712000401376B1C0E040112
:103070003F6F406B120001000C000000230F0000A6
:103080000B00000045EC13F085EC0EF0FDD71200AC
:103090000BEC13F0C582C5B2FED71200C7A002D058
:1030A000010E01D0E86A1200CCEC14F0E8EC13F049
:1030B00012000BEC13F0C5841200ACA2FED7AD6E6B
:1030C0001200FAEC17F0120004014551120004013D
:1030D0004F5112000F0129511200E8CF7FFF12005B
:1030E000C96E1200D3EF17F061EF17F045EF16F03D
:1030F00027EF16F074EF17F037EF17F0AFEF16F079
:043100007DEF16F059
:020000040030CA
:010006008574
:00000001FF
