:020000040000FA
:1000000043EF15F0C96E120089EF0FF0DFEC0DF031
:10001000BBEC07F0FDD712004AEF12F0D9CFE5FF95
:10002000E1CFD9FF00C0E5FF01C0E5FF02C0E5FF59
:1000300003C0E5FF04C0E5FF05C0E5FF06C0E5FF1E
:1000400007C0E5FF08C0E5FF09C0E5FF0AC0E5FFFE
:100050000BC0E5FF0CC0E5FF0DC0E5FF0EC0E5FFDE
:100060000FC0E5FF10C0E5FF11C0E5FF12C0E5FFBE
:1000700013C0E5FF14C0E5FF15C0E5FF16C0E5FF9E
:1000800017C0E5FF18C0E5FF19C0E5FF1AC0E5FF7E
:100090001BC0E5FF1CC0E5FF1DC0E5FF1EC0E5FF5E
:1000A000020EDBCF00F0030EDBCF01F0040EDBCF3E
:1000B00002F0050EDBCF03F0060EDBCF04F0070ED7
:1000C000DBCF05F0080EDBCF06F0090EDBCF07F023
:1000D0000A0EDBCF08F0096A0A6A02C00DF00D5063
:1000E000800A0DE1025004018F6F01508E6F0050A5
:1000F0008D6F040E016E8D0E006E800E026E03C0B9
:10010000E9FF04C0F3FF05508DEC15F00B6E0B50AA
:10011000D8B4C4EF03F00B50250A02E0ABEF03F0B4
:100120000C6A0D6A0E6A0F6A106A0A0E116E126A64
:10013000136A146A200E156E1668176A2B0E186E55
:10014000032A02E3044A052A03C0E9FF04C0F3FFBF
:1001500005508DEC15F0196E250A13E11950E56E66
:100160000250E56E0150E56E0050E56E2DEC0BF08F
:10017000040EE126094A0A2A032A02E3044A052A50
:10018000BED71950300A06E1300E156E032A02E37D
:10019000044A052A03C0E9FF04C0F3FF05508DECB3
:1001A00015F02D0A06E1010E146E032A02E3044A3B
:1001B000052A03C0E9FF04C0F3FF05508DEC15F0DC
:1001C000200A08E1010E176E200E186E032A02E3C2
:1001D000044A052A03C0E9FF04C0F3FF05508DEC73
:1001E00015F02B0A06E1010E176E032A02E3044AFA
:1001F000052A03C0E9FF04C0F3FF05508DEC15F09C
:10020000196E310E195C2BE33A0E195C28E203C01B
:1002100019F004C01AF005C01BF019C0E9FF1AC09C
:10022000F3FF1B508DEC15F01C6E300E1C5C11E3BF
:100230003A0E1C5C0EE213500A0DF3CF1DF01C5059
:100240001D26D00E1D24136E192A02E31A4A1B2AFA
:10025000E4D719C003F01AC004F01BC005F003C0B6
:10026000E9FF04C0F3FF05508DEC15F02E0A2DE1D7
:10027000032A02E3044A052A166A03C019F004C0DF
:100280001AF005C01BF019C0E9FF1AC0F3FF1B509C
:100290008DEC15F01C6E300E1C5C11E33A0E1C5CEC
:1002A0000EE216500A0DF3CF1DF01C501D26D00E85
:1002B0001D24166E192A02E31A4A1B2AE4D719C014
:1002C00003F01AC004F01BC005F003C0E9FF04C02E
:1002D000F3FF05508DEC15F0196E6C0A07E1010E65
:1002E0000C6E032A02E3044A052A09D01950680A51
:1002F00006E1010E0E6E032A02E3044A052A03C03A
:10030000E9FF04C0F3FF05508DEC15F0750A06E116
:10031000010E106E032A02E3044A052A03C0E9FF16
:1003200004C0F3FF05508DEC15F0196E730A05E15A
:10033000010E0D6E200E156E3FD01950780A03E1A4
:10034000100E116E39D01950580A05E1100E116EB9
:10035000010E126E31D01950630A02E1116A2CD0DD
:1003600019506F0A03E1080E116E26D01950660A63
:1003700003E1010E0F6E20D01950640A1DE01950E0
:10038000690A1AE0105005E0FF0E03260422052238
:1003900013D01950E56E0250E56E0150E56E005025
:1003A000E56E2DEC0BF0040EE126094A0A2A032A19
:1003B00002E3044A052AA3D60D5021E00650030F9C
:1003C0000D6E000E0720196E000E08201A6E0DC06B
:1003D00006F019C007F01AC008F0FD0E0D26FF0E3A
:1003E00019221A220DC0E9FF19C0F3FF1A5058EC68
:1003F00014F00D6EF3CF19F0F4CF1AF0FDD00F50BA
:100400000DE0000E1A6E080E196E100E0D6E040E21
:100410000626000E072208221668EED016680C5039
:1004200023E00650040F0C6E000E07200F6E000E26
:1004300008201B6E0CC006F00FC007F01BC008F0B0
:10044000FC0E0C26FF0E0F221B220CC0E9FF0FC072
:10045000F3FF1B50DEEC13F00C6EF3CF0FF0F4CF74
:100460001BF0E9CF1CF067D00E502FE00650020FB2
:100470000E6E000E07201D6E000E08201E6E0EC0B0
:1004800006F01DC007F01EC008F0FE0E0E26FF0E7F
:100490001D221E220EC0E9FF1DC0F3FF1E5017ECE7
:1004A00015F00E6E0EC00CF00F6A1B6A1C6A11501C
:1004B0000A0A03E11050D8B43ED00C500E6E0EC0A4
:1004C0000CF00F6A1B6A1C6A36D00650020F0E6EC3
:1004D000000E07201D6E000E08201E6E0EC006F0D6
:1004E0001DC007F01EC008F0FE0E0E26FF0E1D22D6
:1004F0001E220EC0E9FF1DC0F3FF1E5017EC15F0C1
:100500000E6EF3CF1DF00EC00CF01DC00FF0E86AA8
:100510001DBEFF0E1B6E1C6E11500A0A02E1105028
:100520000AE00C500E6E0F501D6E0EC00CF01DC078
:100530000FF01B6A1C6A0F0E196E240E0D6E800ED2
:100540001A6E1150D8B440D0105013E01150E56E1F
:100550000F0EE56E240EE56E1C50E56E1B50E56E29
:100560000F50E56E0C50E56E42EC06F0070EE126EA
:1005700012D01150E56E0F0EE56E240EE56E1C5084
:10058000E56E1B50E56E0F50E56E0C50E56E7CEC91
:100590000DF0070EE12617502FE00DC0E9FF19C03E
:1005A000F3FF1A508DEC15F02D0A26E0FF0E0D26F4
:1005B00019221A2218C0E5FF0DC0E9FF19C0F3FF88
:1005C0001A50FAEC15F018D00CC0E5FF0DC0E9FF89
:1005D00019C0F3FF1A50FAEC15F00D50010F0C6E14
:1005E000000E19200E6E000E1A20E56A0CC0E9FFFD
:1005F0000EC0F3FFFAEC15F00DC00CF019C00EF0B0
:100600001AC00FF013C010F0105010E00CC0E9FF3A
:100610000EC0F3FF0F508DEC15F0176E175006E06B
:100620000C2A02E30E4A0F2A1006EED710C013F070
:1006300014501EE109C00CF00AC00EF010C00FF0FB
:100640000F5010E01550E56E0250E56E0150E56E5A
:100650000050E56E2DEC0BF0040EE1260C4A0E2A3C
:100660000F06EED70CC009F00EC00AF00FC013F051
:1006700016C00CF00DC00DF019C00EF01AC00FF02E
:1006800009C010F00AC015F00DC0E9FF0EC0F3FF5D
:100690000F508DEC15F0166E1650D8B43ED00CC02D
:1006A00016F0176A161E171E1650171005E00CC01C
:1006B00016F00C06165031E00DC0E9FF0EC0F3FF36
:1006C0000F508DEC15F0116E125010E01150E56EC8
:1006D000D4EC14F0166EE652165004E0DF0E11143E
:1006E000166E02D011C016F016C011F01150E56E52
:1006F0000250E56E0150E56E0050E56E2DEC0BF0FA
:10070000040EE1260D2A02E30E4A0F2A104A152A8A
:100710001350D8B4B9D71306B7D710C009F015C015
:100720000AF014502BE010C00CF015C00DF013C0EF
:100730000EF00E501FE0200EE56E0250E56E0150E7
:10074000E56E0050E56E2DEC0BF0040EE1260C4A30
:100750000D2A0E06EED70B50E56E0250E56E0150E5
:10076000E56E0050E56E2DEC0BF0040EE126094A13
:100770000A2A04D00CC009F00DC00AF0032A02E3D3
:10078000044A052A7FEF00F00AC0F3FF0950E4CFC6
:100790001EF0E4CF1DF0E4CF1CF0E4CF1BF0E4CF5B
:1007A0001AF0E4CF19F0E4CF18F0E4CF17F0E4CF5B
:1007B00016F0E4CF15F0E4CF14F0E4CF13F0E4CF5B
:1007C00012F0E4CF11F0E4CF10F0E4CF0FF0E4CF5B
:1007D0000EF0E4CF0DF0E4CF0CF0E4CF0BF0E4CF5B
:1007E0000AF0E4CF09F0E4CF08F0E4CF07F0E4CF5B
:1007F00006F0E4CF05F0E4CF04F0E4CF03F0E4CF5B
:1008000002F0E4CF01F0E4CF00F0E4CFD9FF120012
:100810003C4E4F20464C4F41543E000000C0E5FF87
:1008200001C0E5FF02C0E5FF03C0E5FF04012C5154
:10083000D8B40CD19DA81DD09EA81BD00401445152
:100840000401411905E1BBEC15F00401416BFED038
:10085000000E04014425006E016A040E012200C04E
:10086000E9FF01C0EAFFEFCF3DF4442B3DC4ADFFEB
:10087000EDD09DAAEBD09EAAE9D0ABA205D0040191
:100880004281BBEC15F0E2D0ABA405D00401428359
:10089000BBEC15F0DBD0ABA048D0AECF3DF42DC4FF
:1008A00000F0016A008E3DC402F0036A0250001895
:1008B00003E10350011801E004D004014289AB9622
:1008C000C5D004013D5104E03D5104012D1929E139
:1008D00004014299AB9604013D5103E004014297A3
:1008E00002D0040142873DC446F43FC447F40401EA
:1008F0003F51006E00040401486F600E040147255B
:10090000006E016A000E012200C0E9FF01C0EAFF8B
:100910003DC4EFFF472B4751800A02E10401476BBA
:1009200095D004014299AB8691D0AECF3DF404013D
:1009300042A921D02DC400F0016A008E3DC402F00E
:10094000036A0250001803E10350011801E011D0BE
:100950009D9AAB9894900401415104E1AD6ABBECBF
:1009600015F007D000C4ADFF010E0401446F9D884F
:100970006DD0AB866BD004013D51040146270401C4
:100980004751040148191BE1040146510CE147C4D9
:100990003FF4040142B712D09D9AAB989490AD6A8F
:1009A000BBEC15F00BD00401428542B707D09D9AED
:1009B000AB989490010EAD6EBBEC15F047D00401DE
:1009C00047510401401908E10401405104013F1955
:1009D00003E0BBEC15F03AD03FC400F0016A004AD6
:1009E000012AE56A800EE56E0150E56E0050E56E65
:1009F0003CEC0CF0006E040EE126005004013E6F4A
:100A0000040147190FE13DC400F01F0E001404015A
:100A1000486F006E020E0024486F04013F5104012C
:100A20004827489F47C400F00401472B016A600E25
:100A30000026000E012200C0E9FF01C0EAFF3DC40C
:100A4000EFFF4751800A02E10401476BE4CF03F056
:100A5000E4CF02F0E4CF01F0E4CF00F01200000098
:100A60000100020003000400050006000700080062
:100A700009000A000B000C000D000E000F00100012
:100A800011001200130014001500160017001800C2
:100A900019001A001B001C001D001E001F00200072
:100AA0002100220023002400250026002700280022
:100AB00029002A002B002C002D002E002F003000D2
:100AC0003100320033003400350036003700380082
:100AD00039003A003B003C003D003E003F00400032
:100AE00041004200430044004500460047004800E2
:100AF00049004A004B004C004D004E004F00500092
:100B00005100520053005400550056005700580041
:100B100059005A005B005C005D005E005F006000F1
:100B200061006200630064006500660067006800A1
:100B300069006A006B006C006D006E006F00700051
:100B40007100720073007400750076007700780001
:100B500079007A007B007C007D007E007F008000B1
:100B60008100820083008400850086008700880061
:100B700089008A008B008C008D008E008F00900011
:100B800091009200930094009500960097009800C1
:100B900099009A009B009C009D009E009F00A00071
:100BA000A100A200A300A400A500A600A700A80021
:100BB000A900AA00AB00AC00AD00AE00AF00B000D1
:100BC000B100B200B300B400B500B600B700B80081
:100BD000B900BA00BB00BC00BD00BE00BF00C00031
:100BE000C100C200C300C400C500C600C700C800E1
:100BF000C900CA00CB00CC00CD00CE00CF00D00091
:100C0000D100D200D300D400D500D600D700D80040
:100C1000D900DA00DB00DC00DD00DE00DF00E000F0
:100C2000E100E200E300E400E500E600E700E800A0
:100C3000E900EA00EB00EC00ED00EE00EF00F00050
:100C4000F100F200F300F400F500F600F700F80000
:100C5000F900FA00FB00FC00FD00FE00FF00434528
:100C600072726F720A004348656C6C6F2120743297
:100C70003D202564204B313D2025640A00004300BF
:100C800025630000D9CFE5FFE1CFD9FF00C0E5FF24
:100C900001C0E5FF02C0E5FF03C0E5FF04C0E5FFBA
:100CA00005C0E5FF06C0E5FF07C0E5FF08C0E5FF9A
:100CB00009C0E5FF0AC0E5FF0BC0E5FF0CC0E5FF7A
:100CC0000DC0E5FF0EC0E5FF0FC0E5FF020EDBCF54
:100CD00000F0030EDBCF01F0040EDBCF02F0050EB7
:100CE000DBCF03F0060EDBCF04F0070EDBCF05F001
:100CF000080EDBCF06F0200E076E086A06C009F06A
:100D00000A6A0B6A0C6AE56AE56AE56A0950E56EEB
:100D10000350E56E0250E56E0150E56E0050E56E41
:100D20001EEC07F00D6E080EE126300E0D263A0E71
:100D30000D5C05E30D500E6E270E0E240D6EFF0E9A
:100D400007260822E00E07240E6E000E08200F6E04
:100D50000EC0E9FF0FC0EAFF0DC0EFFF0C50E56EBB
:100D60000B50E56E0A50E56E0950E56E0350E56ED6
:100D70000250E56E0150E56E0050E56E83EC09F01F
:100D8000006EF3CF01F0F4CF02F0E9CF03F0080ECC
:100D9000E1260050011002100310D8A4AFD707C0FD
:100DA00000F008C001F004C002F005C003F000C06C
:100DB00004F001C005F0004A012AE00E0426000EEE
:100DC000052204C0E9FF05C0EAFFEFCF04F002C02E
:100DD000E9FF03C0EAFF04C0EFFF024A032A000E46
:100DE000015C02E1200E005CE2E302C0E9FF03C007
:100DF000EAFF000EEF6AE4CF0FF0E4CF0EF0E4CF8D
:100E00000DF0E4CF0CF0E4CF0BF0E4CF0AF0E4CF28
:100E100009F0E4CF08F0E4CF07F0E4CF06F0E4CF28
:100E200005F0E4CF04F0E4CF03F0E4CF02F0E4CF28
:100E300001F0E4CF00F0E4CFD9FF1200D9CFE5FFF5
:100E4000E1CFD9FF00C0E5FF01C0E5FF02C0E5FF2B
:100E500003C0E5FF04C0E5FF05C0E5FF06C0E5FFF0
:100E600007C0E5FF08C0E5FF09C0E5FF0AC0E5FFD0
:100E7000020EDBCF00F0030EDBCF01F0040EDBCF60
:100E800002F0050EDBCF03F0060EDBCF04F0070EF9
:100E9000DBCF05F0080EDBCF06F0090EDBCF07F045
:100EA000086A045005100610071005E1E968F468A7
:100EB000F368E86847D0096A0750800BE8440A6E77
:100EC0000A501BE104500426053606360736075043
:100ED000035C08E10650025C05E10550015C02E19B
:100EE0000450005C06E2D890073206320532043224
:100EF00004D0092A09C008F0DFD70750035C08E1D5
:100F00000650025C05E10550015C02E10450005C02
:100F100008E30450005E0550015A0650025A07507B
:100F2000035AD890073206320532043208C009F05D
:100F300008060950E2E103C0E9FF02C0F4FF01C066
:100F4000F3FF0050E4CF0AF0E4CF09F0E4CF08F05B
:100F5000E4CF07F0E4CF06F0E4CF05F0E4CF04F0EF
:100F6000E4CF03F0E4CF02F0E4CF01F0E4CF00F0EF
:100F7000E4CFD9FF120000C0E5FF01C0E5FF02C0C9
:100F8000E5FF03C0E5FF56EC08F004012651020D11
:100F9000F450016EF3CF00F0026A5E0E00260A0ED6
:100FA0000122000E022200C0F6FF01C0F7FF02C0BE
:100FB000F8FF0900F5CF00F00900F5CF01F026C4D5
:100FC00002F0036A0050021803E1015003180AE01E
:100FD000000EE56E0C0EE56E5E0EE56E67EC10F031
:100FE000030EE1260401262B19EC13F0006EF3CF5B
:100FF00001F0F4CF02F0E9CF03F004013051005EBC
:101000003151015A3251025A3351035A039E3F0E55
:10101000035C08E1FF0E025C05E1FF0E015C02E1EA
:10102000FF0E005CD8B039D019EC13F0F3CF01F00B
:10103000F4CF02F0E9CF03F0880F0401306F130EF4
:101040000120316F000E0220326F000E0320336F3B
:1010500004012451006E0028246F0401235104016F
:10106000245D1BE3246B04012551006E0028256FCD
:10107000006A80B0002A25C402F0E56A0050E56EDF
:10108000E56A0250E56E000EE56E0C0EE56E660E2A
:10109000E56E67EC10F0070EE126E4CF03F0E4CF35
:1010A00002F0E4CF01F0E4CF00F0120000C0E5FF51
:1010B00001C0E5FF02C0E5FF03C0E5FF04C0E5FF96
:1010C0000401405104013F1901E16AD040C400F01D
:1010D0000050016E0128006E009E600E0024016E1B
:1010E000026A000E022201C0E9FF02C0EAFFEFCF50
:1010F0004AF41F0E04014A1740C449F44A5104013E
:1011000049274951016E020E0124496F499F43EC62
:1011100013F0016E015003E1016A012A01D0016A56
:1011200043EC13F004014A6F4AC402F0800E021629
:101130004AC403F01F0E031603C004F003C04AF4B0
:10114000045003E13FC440F43ED001501EE0025081
:1011500025E043EC13F0006E04014A51016E0104D6
:101160004A6F0050420A1AE000504E0A03E125EC93
:1011700010F014D00050460A03E1EFEC15F00ED049
:101180000050490A0BE1FF0009D040C44BF4025063
:1011900003E0E6EC10F002D005EC16F049C440F490
:1011A0000401295104012A1906E00401415103E117
:1011B000EEEC08F008D094B006D00401415103E1F0
:1011C000ACB2BBEC15F0E4CF04F0E4CF03F0E4CF15
:1011D00002F0E4CF01F0E4CF00F0120000C0E5FF20
:1011E00001C0E5FF02C0E5FF03C0E5FF04C0E5FF65
:1011F000ACA27ED0FEEC13F0006E005005E10401BD
:101200002A6B0401296B74D02AC401F00050012616
:10121000FEEC13F0026E0050036E0304006E0250E9
:10122000230A1FE1010E005CD8A060D0FEEC13F091
:10123000026E690A03E1E8EC12F058D00250720A1B
:1012400003E1BBEC15F052D00250730A01E04ED01E
:101250009480AB869D8A9D98AE50AE50AB98AB887B
:1012600045D00250430A05E00250420A01E03ED058
:1012700006D000C003F0046A038E0350006E00C065
:1012800043F400500401006F010E0401446F040197
:101290002A51011814E0FEEC13F0026E04014327FA
:1012A000000E04014425006E036A040E032200C0F0
:1012B000E9FF03C0EAFF02C0EFFF442BE8D7000EAE
:1012C00004014425006E026A040E02220401431D3B
:1012D000036E032A00C0E9FF02C0EAFF03C0EFFF6C
:1012E0000401442B44C441F404013B6B01C02AF4C3
:1012F000E4CF04F0E4CF03F0E4CF02F0E4CF01F058
:10130000E4CF00F01200D9CFE5FFE1CFD9FF00C054
:10131000E5FF01C0E5FF02C0E5FF03C0E5FF04C033
:10132000E5FF05C0E5FF06C0E5FF07C0E5FF08C013
:10133000E5FF09C0E5FF0AC0E5FF0BC0E5FF0CC0F3
:10134000E5FF0DC0E5FF020EDBCF00F0030EDBCFA3
:1013500001F0040EDBCF02F0050EDBCF03F0060E2A
:10136000DBCF04F0070EDBCF05F0080EDBCF06F075
:10137000090EDBCF07F0086A096A0A6A0B6A200EB9
:101380000C6E0350800BE8440D6E005000260136B1
:10139000023603360850082609360A360B360D5039
:1013A000D8A4088007500B5C08E106500A5C05E1F0
:1013B0000550095C02E10450085C09E30450085E32
:1013C0000550095A06500A5A07500B5A00800C045F
:1013D0000D6E0DC00CF00D50D4E103C0E9FF02C04A
:1013E000F4FF01C0F3FF0050E4CF0DF0E4CF0CF0A8
:1013F000E4CF0BF0E4CF0AF0E4CF09F0E4CF08F03B
:10140000E4CF07F0E4CF06F0E4CF05F0E4CF04F03A
:10141000E4CF03F0E4CF02F0E4CF01F0E4CF00F03A
:10142000E4CFD9FF120000C0E5FF01C0E5FF03C013
:10143000E5FF04C0E5FF05C0E5FF06C0E5FF07C006
:10144000E5FF08C0E5FF09C0E5FF0AC0E5FF0BC0E6
:10145000E5FF32CF00F033CF01F00F01323F01D072
:10146000332B0050E56EADEC15F0E652076E046AC2
:10147000056A066A32CF00F033CF01F00F01323F28
:1014800001D0332B0050E56EADEC15F0E6520B6A3F
:101490000A6E086A0850041205120A5006120B5010
:1014A000071232CF00F033CF01F00F01323F01D0ED
:1014B000332B0050E56EADEC15F0E652036E006A7A
:1014C00003C001F0E86A03BEFF0E086E096E00500B
:1014D000041201500512085006120950071232CFAB
:1014E00000F033CF01F00F01323F01D0332B005019
:1014F000E56EADEC15F0E652016A041201500512DA
:101500000612071207C0E9FF06C0F4FF05C0F3FF8B
:101510000450E4CF0BF0E4CF0AF0E4CF09F0E4CFBD
:1015200008F0E4CF07F0E4CF06F0E4CF05F0E4CF15
:1015300004F0E4CF03F0E4CF01F0E4CF00F01200B8
:10154000D9CFE5FFE1CFD9FF00C0E5FF01C0E5FF3E
:1015500002C0E5FF03C0E5FF04C0E5FF05C0E5FFED
:1015600006C0E5FF07C0E5FF020EDBCF00F0030E6B
:10157000DBCF01F0040EDBCF02F0050EDBCF03F072
:1015800003C004F0056A0350D8B454D000C0E9FF8A
:1015900001C0F3FF02508DEC15F0066E430A08E11E
:1015A000010E056E03C006F0076A068E0650036E34
:1015B0000406002A02E3014A022A9D9AAB989490FD
:1015C0009D989EA8FED7AC80AD6A00009EA8FED76D
:1015D000AC9003C0ADFF00009EA8FED7055004E00C
:1015E000420EAD6E032604D0620EAD6E620E03266F
:1015F000045015E000009EA8FED700C0E9FF01C01E
:10160000F3FF02508DEC15F0056E05C0ADFF0550DF
:1016100003260406002A02E3014A022AE9D7000051
:101620009EA8FED7031CAD6EAD2A00009EA8FED773
:10163000BBEC15F0E4CF07F0E4CF06F0E4CF05F003
:10164000E4CF04F0E4CF03F0E4CF02F0E4CF01F004
:10165000E4CF00F0E4CFD9FF1200D9CFE5FFE1CF0E
:10166000D9FF00C0E5FF01C0E5FF02C0E5FF03C0F0
:10167000E5FF04C0E5FF05C0E5FF06C0E5FF07C0C4
:10168000E5FF020EDBCF00F0030EDBCF01F0040E0E
:10169000DBCF02F0050EDBCF03F002C006F00650F0
:1016A000046E800A33E100C0E9FF01C0F3FF02507D
:1016B00058EC14F0056EF3CF06F0F4CF07F003C03A
:1016C000E5FF05C0E9FF06C0F3FF0750FAEC15F08F
:1016D00000C0E9FF01C0F3FF025058EC14F0056EA2
:1016E000F3CF06F0F4CF07F0052A02E3064A072AF3
:1016F00005C0E5FF06C0F4FF07C0F6FF00C0E9FF24
:1017000001C0F3FF02509EEC15F020D004C000F0A1
:1017100000AA1CD0007A0050046E04E1035039EC9A
:1017200016F014D00450010A04E1035002EC00F05A
:101730000DD004500F0A04E10350B7EC12F006D0AC
:1017400004500E0A03E1035049EC16F0E4CF07F011
:10175000E4CF06F0E4CF05F0E4CF04F0E4CF03F0EB
:10176000E4CF02F0E4CF01F0E4CF00F0E4CFD9FF02
:101770001200D9CFE5FFE1CFD9FF00C0E5FF01C0DE
:10178000E5FF02C0E5FF03C0E5FF04C0E5FF05C0BB
:10179000E5FF06C0E5FF07C0E5FF020EDBCF00F066
:1017A000030EDBCF01F0040EDBCF02F0050EDBCF22
:1017B00003F02AC42BF40401295104012B5F2B519F
:1017C000046E04042B6F03C004F0056A030E0426A4
:1017D000D8B0052A2BC406F0076A0750800FF36EB5
:1017E0000550800FF35C02E10450065C02E2E868F9
:1017F00030D0020E035C02E2E86A2BD00350046E84
:101800000404036EE56E60EC11F0E652046A0350C6
:10181000045C14E204500024056EE86A0120066EA0
:10182000E86A022005C0E9FF06C0F3FF8DEC15F061
:10183000042AE56E60EC11F0E652E9D72AC42BF4D5
:101840000401295104012B5F2B51006E00042B6F02
:10185000E86AE4CF07F0E4CF06F0E4CF05F0E4CF88
:1018600004F0E4CF03F0E4CF02F0E4CF01F0E4CFE2
:1018700000F0E4CFD9FF1200D9CFE5FFE1CFD9FFC7
:1018800000C0E5FF01C0E5FF02C0E5FF03C0E5FFC2
:1018900004C0E5FF05C0E5FF06C0E5FF020EDBCF93
:1018A00000F0030EDBCF01F0040EDBCF02F0050EDB
:1018B000DBCF03F0D88001AED890046A0436045020
:1018C00007E0011C066E001C056E054A062A04D0BE
:1018D00000C005F001C006F0D88003AED89007E341
:1018E000031C016E021C006E004A012A04D002C0D3
:1018F00000F003C001F00150E56E0050E56E0650A7
:10190000E56E0550E56E3CEC0EF0006EF3CF01F095
:10191000040EE12604500AE0011C036E001C026E56
:10192000024A032A03C0F3FF025003D001C0F3FFB1
:101930000050E4CF06F0E4CF05F0E4CF04F0E4CFAC
:1019400003F0E4CF02F0E4CF01F0E4CF00F0E4CF05
:10195000D9FF1200D9CFE5FFE1CFD9FF00C0E5FFE5
:1019600001C0E5FF02C0E5FF03C0E5FF04C0E5FFDD
:1019700005C0E5FF020EDBCF00F0030EDBCF01F068
:10198000040EDBCF02F0050EDBCF03F032CF04F004
:1019900033CF05F00F01323F01D0332B0350E56EFA
:1019A0000450E56EBAEC13F0E652E65232CF04F082
:1019B00033CF05F00F01323F01D0332B0250056EBB
:1019C000E56E0450E56EBAEC13F0E652E65232CF03
:1019D00004F033CF05F00F01323F01D0332B01501B
:1019E000E56E0450E56EBAEC13F0E652E65232CFE3
:1019F00004F033CF05F00F01323F01D0332B0050FC
:101A0000E56E0450E56EBAEC13F0E652E652E4CF10
:101A100005F0E4CF04F0E4CF03F0E4CF02F0E4CF2C
:101A200001F0E4CF00F0E4CFD9FF1200D9CFE5FFF9
:101A3000E1CFD9FF00C0E5FF01C0E5FF02C0E5FF2F
:101A400003C0E5FF04C0E5FF05C0E5FF06C0E5FFF4
:101A5000020EDBCF00F0030EDBCF01F0040EDBCF74
:101A600002F00401885119E113EC0AF0036EF3CF80
:101A700004F0F4CF05F0E9CF06F003C0E5FF04C0A1
:101A8000F4FF05C0F6FF06C0F7FF00C0E9FF01C084
:101A9000F3FF02507CEC15F01ED004018851010ABE
:101AA0001AE100C0E9FF01C0F3FF0250DEEC13F0C1
:101AB000006EF3CF01F0F4CF02F0E9CF03F0035052
:101AC000E56E0250E56E0150E56E0050E56EAAEC41
:101AD0000CF0040EE126E4CF06F0E4CF05F0E4CFED
:101AE00004F0E4CF03F0E4CF02F0E4CF01F0E4CF60
:101AF00000F0E4CFD9FF1200D9CFE5FFE1CFD9FF45
:101B000000C0E5FF01C0E5FF02C0E5FF03C0E5FF3F
:101B100004C0E5FF05C0E5FF06C0E5FF020EDBCF10
:101B200000F0030EDBCF01F0040EDBCF02F0050E58
:101B3000DBCF03F0060EDBCF04F0070EDBCF05F0A2
:101B4000080EDBCF06F0D88003AED89015E3065020
:101B50000A0A12E104C0E9FF05C0EAFF2D0EEF6E8C
:101B6000044A052A031E021E011E006C05E1012A1B
:101B700003E1022AD8B4032A0650E56E0550E56E4B
:101B80000450E56E0350E56E0250E56E0150E56EBF
:101B90000050E56E42EC06F0070EE126E4CF06F0B9
:101BA000E4CF05F0E4CF04F0E4CF03F0E4CF02F09B
:101BB000E4CF01F0E4CF00F0E4CFD9FF120000C081
:101BC000E5FF01C0E5FF02C0E5FF03C0E5FF04C07B
:101BD000E5FF34EC16F094928B9219EC13F0F3CFEE
:101BE00001F0F4CF02F0E9CF03F0880F0401306F69
:101BF000130E0120316F000E0220326F000E032001
:101C0000336F9280800E006E0F0E016E0F0E036E0A
:101C1000380E002603500122800E026E0F0E036E56
:101C2000800E005E0350015A0F0E046E380E02261D
:101C3000045003220F0E046E800E025E0450035AFD
:101C400002C0E9FF03C0EAFFEFCF02F0029000C03C
:101C5000E9FF01C0EAFF02C0EFFF330ECD6E9D80A9
:101C60009F80E4CF04F0E4CF03F0E4CF02F0E4CFB0
:101C700001F0E4CF00F01200D9CFE5FFE1CFD9FFAA
:101C800000C0E5FF01C0E5FF02C0E5FF03C0E5FFBE
:101C900004C0E5FF05C0E5FF06C0E5FF020EDBCF8F
:101CA00000F0030EDBCF01F0040EDBCF02F0050ED7
:101CB000DBCF03F0046A056A0350800BE844066E2C
:101CC000065011E10250022603360350015C02E186
:101CD0000250005C04E2D8900332023204D0052A9C
:101CE00005C004F0E9D70350015C02E10250005C3A
:101CF00004E30250005E0350015AD89003320232CE
:101D000004C005F004060550EEE101C0F3FF0050E9
:101D1000E4CF06F0E4CF05F0E4CF04F0E4CF03F025
:101D2000E4CF02F0E4CF01F0E4CF00F0E4CFD9FF3C
:101D3000120000C0E5FF01C0E5FF02C0E5FF03C0DF
:101D4000E5FF40C400F0016A4BC402F0036A025090
:101D5000005E0350015AE56A800EE56E0150E56EA3
:101D60000050E56E3CEC0CF0006E040EE12600061F
:101D70004BC401F0430EB7EC12F0200EB7EC12F09A
:101D8000005020E0600E0124026E036A000E032260
:101D900002C0E9FF03C0EAFFEFCF02F0E56A02509C
:101DA000E56E000EE56E2B0EE56E8E0EE56E67ECB1
:101DB00010F0050EE126012A0150800A01E1016AB6
:101DC0000006DED7E4CF03F0E4CF02F0E4CF01F069
:101DD000E4CF00F01200D9CFE5FFE1CFD9FF00C07A
:101DE000E5FF01C0E5FF02C0E5FF03C0E5FF020E0D
:101DF000DBCF00F0030EDBCF01F0040EDBCF02F0EF
:101E0000050EDBCF03F000500F01346F0150356F2A
:101E100002500F01366F0350376F0F0134510F011D
:101E20003603F4CF01F0F3CF00F000500401396F16
:101E300001503A6F0F0134510F013703F3CF00F017
:101E40000F0135510F013603F3CF01F00150002689
:101E500004013A51002600503A6F3AC4F3FF395159
:101E6000E4CF03F0E4CF02F0E4CF01F0E4CF00F0E0
:101E7000E4CFD9FF1200D9CFE5FFE1CFD9FF00C0F1
:101E8000E5FF01C0E5FF02C0E5FF03C0E5FF04C0B8
:101E9000E5FF020EDBCF00F0030EDBCF01F0040EF6
:101EA000DBCF02F00401885111E183EC12F0036EE4
:101EB000F3CF04F003C0E5FF04C0F4FF00C0E9FF66
:101EC00001C0F3FF0250D7EC15F016D00401885181
:101ED000010A12E100C0E9FF01C0F3FF025017EC54
:101EE00015F0006EF3CF01F00150E56E0050E56E85
:101EF00023EC11F0E652E652E4CF04F0E4CF03F015
:101F0000E4CF02F0E4CF01F0E4CF00F0E4CFD9FF5A
:101F10001200F3CFE5FFF4CFE5FFE9CFE5FFEACF0D
:101F2000E5FFFACFE5FFFBCFE5FFF6CFE5FFF6CF04
:101F3000E5FFF7CFE5FFF8CFE5FFF5CFE5FF0401BB
:101F400027510401366F040128510401376FD65020
:101F5000346FD750356FF2A411D00401273F01D060
:101F6000282BF294040127510401366F04012851F3
:101F70000401376FD650346FD750356F11EC12F023
:101F8000E4CFF5FFE4CFF8FFE4CFF7FFE4CFF6FFAF
:101F9000E4CFF6FFE4CFFBFFE4CFFAFFE4CFEAFFA4
:101FA000E4CFE9FFE4CFF4FFE4CFF3FF11005A0ED2
:101FB000F66E2C0EF76E000EF86E0900F550056EE9
:101FC0000900F550066E04E1056702D024EF10F019
:101FD0000900F550006E0900F550016E0900F5503A
:101FE000026E09000900F550E96E0900F550EA6E2D
:101FF000090009000900F550036E0900F550046E50
:1020000009000900F6CF07F0F7CF08F0F8CF09F084
:1020100000C0F6FF01C0F7FF02C0F8FF035002E165
:10202000045007E00900F550EE6E0306F8E20406DE
:10203000F9D707C0F6FF08C0F7FF09C0F8FF05068B
:1020400001E20606E3EF0FF0120000C0E5FF01C059
:10205000E5FF02C0E5FF43EC13F0006E43EC13F024
:10206000016E0050026ED00E0224006E0A0E005C5B
:1020700005E30050026EF90E0224006E0150026E5C
:10208000D00E0224016E0A0E015C05E30150026EBF
:10209000F90E0224016E080E005C12E2100E015CC3
:1020A000D8B00ED00038F00B0124006ED7EC11F040
:1020B000016E015005E10050E56E8DEC14F0E65222
:1020C000E4CF02F0E4CF01F0E4CF00F01200D9CF6A
:1020D000E5FFE1CFD9FF00C0E5FF01C0E5FF02C089
:1020E000E5FF020ED924006E000EDA20016E800E8C
:1020F000026E030E0026000E012202220250E56E3F
:102100000150E56E0050E56E040EDBCFE5FF030ED7
:10211000DBCFE5FF020EDBCFE5FF04018751E56E63
:102120008651E56E8551E56E0EEC00F0006EF3CF42
:1021300001F0090EE12601C0F3FF0050E4CF02F0E8
:10214000E4CF01F0E4CF00F0E4CFD9FF1200D9CF03
:10215000E5FFE1CFD9FF00C0E5FF01C0E5FF02C008
:10216000E5FF03C0E5FF020EDBCF00F0030EDBCF7F
:1021700001F0040EDBCF02F0040188510DE1EBEC1D
:1021800014F0036E03C0E5FF00C0E9FF01C0F3FFD8
:102190000250FAEC15F00FD004018851010A0BE14E
:1021A00000C0E9FF01C0F3FF02508DEC15F0E56EB1
:1021B00094EC13F0E652E4CF03F0E4CF02F0E4CF66
:1021C00001F0E4CF00F0E4CFD9FF120000C0E5FF3A
:1021D00001C0E5FF43EC13F0006E4C0A08E143EC4C
:1021E00013F0300A02E08B8229D08B9227D0005066
:1021F000450A24E1000EE56E0C0EE56E7E0EE56EDE
:1022000067EC10F0030EE12643EC16F0006E00C000
:1022100001F0000601500FE043EC13F0E56AE56EB3
:10222000000EE56E0C0EE56E800EE56E67EC10F0AC
:10223000050EE126ECD70A0EB7EC12F0E4CF01F060
:10224000E4CF00F01200D9CFE5FFE1CFD9FF00C005
:10225000E5FF01C0E5FF02C0E5FF03C0E5FF020E98
:10226000DBCF00F0030EDBCF01F032CF02F033CF33
:1022700003F00F01323F01D0332B0150E56E0250C5
:10228000E56EBAEC13F0E652E65232CF02F033CFED
:1022900003F00F01323F01D0332B0050E56E0250A6
:1022A000E56EBAEC13F0E652E652E4CF03F0E4CF69
:1022B00002F0E4CF01F0E4CF00F0E4CFD9FF120048
:1022C000D9CFE5FFE1CFD9FF00C0E5FF01C0E5FFB1
:1022D00002C0E5FF03C0E5FF04C0E5FF020EDBCF4F
:1022E00000F029C401F0026A014A022A2AC403F05C
:1022F000046A0150031803E10250041801E001D000
:102300000ED0000E04012925016E026A010E022280
:1023100001C0E9FF02C0EAFF00C0EFFF292BE4CFB4
:1023200004F0E4CF03F0E4CF02F0E4CF01F0E4CF17
:1023300000F0E4CFD9FF1200D9CFE5FFE1CFD9FFFC
:1023400000C0E5FF01C0E5FF02C0E5FF03C0E5FFF7
:10235000020EDBCF00F0016A4BC402F0036A0250A8
:10236000002603500122E56A800EE56E0150E56EFD
:102370000050E56E3CEC0CF0006EF3CF01F0040E63
:10238000E126600E0026000E012200C0E9FF01C018
:10239000EAFFEFCF00F00050E4CF03F0E4CF02F00B
:1023A000E4CF01F0E4CF00F0E4CFD9FF120000C089
:1023B000E5FF01C0E5FF02C0E5FF010E006E43EC42
:1023C00013F0016E01C002F0015023E00050E56EF1
:1023D000ADEC15F0016EE652015010E10A0E005C02
:1023E0000BE20A0E006EE56EADEC15F0016EE652E2
:1023F000015004E1E8680ED0E8680CD001500218E2
:1024000002E0E86807D0002A1B0E005CD8E3E86809
:1024100001D0E86AE4CF02F0E4CF01F0E4CF00F0AD
:10242000120000C0E5FF01C0E5FF02C0E5FF9EA06D
:102430002AD00F013151E56E3051E56EE56A020E8A
:10244000E56EEBEC0EF0006EF3CF01F0040EE1262A
:10245000026A5E0E00260A0E0122000E022200C051
:10246000F6FF01C0F7FF02C0F8FF0900F5CF90F4B6
:102470000900F5CF91F40F01303F01D0312BCF6827
:10248000D70ECE6E9E90E4CF02F0E4CF01F0E4CF01
:1024900000F01200D8CFE5FFE0CFE5FFE56EF3CF07
:1024A000E5FFF4CFE5FFE9CFE5FFEACFE5FFFACF9F
:1024B000E5FFFBCFE5FFF6CFE5FFF6CFE5FFF7CF72
:1024C000E5FFF8CFE5FFF5CFE5FF0EEC04F0E4CF34
:1024D000F5FFE4CFF8FFE4CFF7FFE4CFF6FFE4CF5A
:1024E000F6FFE4CFFBFFE4CFFAFFE4CFEAFFE4CF4F
:1024F000E9FFE4CFF4FFE4CFF3FFE450E4CFE0FFE3
:10250000E4CFD8FF100000C0E5FF01C0E5FF02C026
:10251000E5FF03C0E5FF32CF00F033CF01F00F013C
:10252000323F01D0332B0050E56EADEC15F0E65292
:10253000036E026A32CF00F033CF01F00F01323F59
:1025400001D0332B0050E56EADEC15F0E652016A78
:1025500002120150031203C0F3FF0250E4CF03F054
:10256000E4CF02F0E4CF01F0E4CF00F0120000C0AD
:10257000E5FF01C0E5FF02C0E5FF006E000E0401AB
:102580002E25016E026A0F0E022201C0E9FF02C071
:10259000EAFF00C0EFFF220E2E5D01E22E2B00505D
:1025A0000A0A0FE104012E51E56E800EE56E0F0E52
:1025B000E56E000EE56EB9EC0BF0040EE1260401A9
:1025C0002E6BE4CF02F0E4CF01F0E4CF00F0120074
:1025D0000401296B04012A6B04012B6994808B9000
:1025E0009480B06A3F0EAF6EB886AC8AAC84AC8C77
:1025F000AC90AB8CAB8E0401426B04013C6B0401CC
:102600003F6B0401406B0401416B000EE56AADECC9
:1026100015F004012D6FE6529F989F9A010E040158
:102620002C6F0401856B866B2F0E876FBBEC15F04A
:102630001200040127510401836F04012851040191
:10264000846FD650816FD750826F83510401271950
:1026500005E104018451040128190CE0040127510B
:102660000401836F040128510401846FD650816FE7
:10267000D750826F84C4E9FF83C4F4FF82C4F3FFA0
:1026800004018151120000C0E5FF01C0E5FF040113
:1026900040510401491905E00401405104013F196A
:1026A00002E1E86A15D040C400F00401402B016A41
:1026B000600E0026000E012200C0E9FF01C0EAFF03
:1026C000EFCF00F04051800A02E10401406B00505E
:1026D000E4CF01F0E4CF00F0120000C0E5FF3DECD4
:1026E00016F00401896B806B8983006A89B3002A24
:1026F0000050010BE844F46E8051FD0BF410806F24
:10270000D58ED59CD59AD588D596D594D582D580A9
:10271000F28AF184D08EF28EF28CBA80FF0EBB6802
:10272000BA84E4CF00F01200D9CFE5FFE1CFD9FFA2
:1027300000C0E5FF01C0E5FF02C0E5FF020EDBCFF0
:1027400000F032CF01F033CF02F00F01323F01D061
:10275000332B0050E56E0150E56EBAEC13F0E652F3
:10276000E652E4CF02F0E4CF01F0E4CF00F0E4CF92
:10277000D9FF1200D9CFE5FFE1CFD9FF00C0E5FFB7
:10278000020EDBCF00F0030EDBCFA8FF00C0A9FFD5
:10279000A69EA69CA684F29EF29C550EA76EAA0E3B
:1027A000A76EA682A6A202D00000FCD7A694F28E45
:1027B000F28CE4CF00F0E4CFD9FF1200E8AE0AD0EB
:1027C000F3CFEAFFEE50EECFF3FFEECFF4FFEECF04
:1027D000E9FF1200E8BC50EF16F0E9CFF6FFF3CFA7
:1027E000F7FFF86E0900F5500900F5CFF3FF090077
:1027F000F5CFF4FF0900F5CFE9FF120000C0E5FFB7
:1028000001C0E5FF0401295104012A1902E1E86A27
:102810000FD0000E04012A25006E016A010E01226C
:1028200000C0E9FF01C0EAFFEFCF00F02A2B005003
:10283000E4CF01F0E4CF00F01200F2CFEAFFF29E05
:10284000A69EA69CA684E9CFA9FFF3CFAAFFE4CF5A
:10285000A8FF0EEC16F0F4CFA8FF0EEC16F0F6CFA2
:10286000A8FF0EEC16F0F7CFA8FF0EEC16F0A6941A
:10287000EABEF28E1200F2CFF6FFF29EA69EA69C52
:10288000E9CFA9FFF3CFAAFFA680A850A94AAA2A98
:10289000A680A8CFF3FFA94AAA2AA680A8CFF4FF52
:1028A000A94AAA2AA680A8CFEAFFF6BEF28E120095
:1028B000E8AE08D0F3CFEAFFEE50EECFF3FFEECF55
:1028C000F4FF1200E8BC58EF16F0E9CFF6FFF3CFA3
:1028D000F7FFF86E0900F5500900F5CFF3FF090086
:1028E000F5CFF4FF1200F2CFEAFFF29EA69EA69C5F
:1028F000A684E9CFA9FFF3CFAAFFE4CFA8FF0EEC8F
:1029000016F0F4CFA8FF0EEC16F0F6CFA8FF0EECF1
:1029100016F0A694EABEF28E1200D9CFE5FFE1CF01
:10292000D9FF00C0E5FF020EDBCF00F000C02DF4A0
:102930000050E56E000EE56ABAEC13F0E652E6527E
:10294000E4CF00F0E4CFD9FF1200F2CFF6FFF29E01
:10295000A69EA69CE9CFA9FFF3CFAAFFA680A85008
:10296000A94AAA2AA680A8CFF3FFA94AAA2AA68024
:10297000A8CFF4FFF6BEF28E120000C0E5FF01C042
:10298000E5FF600E04014025006E016A000E012281
:1029900000C0E9FF01C0EAFFEFCF00F00050E4CF34
:1029A00001F0E4CF00F01200D9CFE5FFE1CFD9FF6D
:1029B00000C0E5FF020EDBCF00F0610E005C05E316
:1029C0007B0E005C02E2010E01D0E86AE4CF00F069
:1029D000E4CFD9FF120000C0E5FF01C0E5FF32CF10
:1029E00000F033CF01F00F01323F01D0332B005004
:1029F000E56EADEC15F0E652E4CF01F0E4CF00F067
:102A00001200D9CFE5FFE1CFD9FF00C0E5FF020EEC
:102A1000DBCF00F000C02CF4005004E1BBEC15F05B
:102A20009D9A9D98E4CF00F0E4CFD9FF1200E8AE64
:102A300006D0F3CFEAFFEE50EECFF3FF1200E8BC72
:102A40004EEF16F0E9CFF6FFF3CFF7FFF86E09006F
:102A5000F5500900F5CFF3FF1200F2CFEAFFF29E26
:102A6000A69EA69CA684E9CFA9FFF3CFAAFFE4CF38
:102A7000A8FF0EEC16F0F4CFA8FF0EEC16F0A6940B
:102A8000EABEF28E120012EEFFF022EEFFF0F86ABC
:102A9000A68EA69CE9680E0EEA6E0068000EED6A2E
:102AA0000050FDE1D7EC0FF006EC00F0FFD7F2CFBD
:102AB000F6FFF29EA69EA69CE9CFA9FFF3CFAAFF40
:102AC000A680A850A94AAA2AA680A8CFF3FFF6BEDE
:102AD000F28E1200F2CFEAFFF29EA69EA69CA6847A
:102AE000E9CFA9FFF3CFAAFFE4CFA8FF0EEC16F0C1
:102AF000A694EABEF28E1200E8AE0BD0F3CFEAFF46
:102B0000E4CFEEFFF4CFEEFFF6CFEEFFF7CFEEFF10
:102B10001200E8BC52EF16F01200E8AE04D0F3CF7A
:102B2000EAFFEE501200E8BC4CEF16F0E9CFF6FFDA
:102B3000F3CFF7FFF86E0900F5501200E8AE09D0A8
:102B4000F3CFEAFFE4CFEEFFF4CFEEFFF6CFEEFFD8
:102B50001200E8BC5AEF16F01200D9CFE5FFE1CF22
:102B6000D9FF020EDBCFA9FFA69CA69EA680A85087
:102B7000E4CFD9FF1200ACA2FED79480AE50000083
:102B8000AE50AB98AB88AB869D8A9D9812002564A9
:102B90002000F2CFF6FFF29EA69EA69CE9CFA9FFE9
:102BA000F3CFAAFFA680A850F6BEF28E1200E8AEC0
:102BB00007D0F3CFEAFFE4CFEEFFF4CFEEFF120031
:102BC000E8BC56EF16F01200700ED36E9B8CFF0E11
:102BD0009268936894689668626AF19E120000C0D9
:102BE000E5FFD7EC11F0006E005001E1FF00E4CFEB
:102BF00000F01200E8AE05D0F3CFEAFFE4CFEEFF1D
:102C00001200E8BC54EF16F0120043EC13F0010A76
:102C100004E143EC13F00401236F1200550EA76E7C
:102C2000AA0EA76EA682A6B2FED7A94AAA2A010EAC
:102C30000401886F1C0E0F01326F336B1200C80045
:102C4000000000000000FF00000000000401886B8D
:102C50001C0E0F01326F336B120001003E2C00007E
:102C6000230400000D0000006DEC13F0E8EC12F0FE
:102C70001200ACA2FED7AD6E1200E4EC15F012000B
:102C800004014051120004014A51120004012C5168
:102C90001200E8CF7FFF1200C9EF15F057EF15F0D3
:102CA0003BEF14F01DEF14F06AEF15F02DEF15F067
:082CB000A5EF14F073EF14F01E
:020000040030CA
:010006008574
:00000001FF
