:020000040000FA
:10000000DFEF25F0C69A1200D9EF19F0AFEC08F037
:1000100022EC18F0FDD712003EEF1FF0D9CFE5FF1C
:10002000E1CFD9FF00C0E5FF01C0E5FF02C0E5FF59
:1000300003C0E5FF04C0E5FF05C0E5FF06C0E5FF1E
:1000400007C0E5FF08C0E5FF09C0E5FF0AC0E5FFFE
:100050000BC0E5FF0CC0E5FF0DC0E5FF0EC0E5FFDE
:100060000FC0E5FF10C0E5FF11C0E5FF12C0E5FFBE
:1000700013C0E5FF14C0E5FF15C0E5FF16C0E5FF9E
:1000800017C0E5FF18C0E5FF19C0E5FF1AC0E5FF7E
:100090001BC0E5FF1CC0E5FF1DC0E5FF1EC0E5FF5E
:1000A000020EDBCF00F0030EDBCF01F0040EDBCF3E
:1000B00002F0050EDBCF03F0060EDBCF04F0070ED7
:1000C000DBCF05F0080EDBCF06F0090EDBCF07F023
:1000D0000A0EDBCF08F0096A0A6A02C00DF00D5063
:1000E000800A0DE102500301696F0150686F0050F2
:1000F000676F030E016E670E006E800E026E03C006
:10010000E9FF04C0F3FF055029EC26F00B6E0B50FD
:10011000D8B4C4EF03F00B50250A02E0ABEF03F0B4
:100120000C6A0D6A0E6A0F6A106A0A0E116E126A64
:10013000136A146A200E156E1668176A2B0E186E55
:10014000032A02E3044A052A03C0E9FF04C0F3FFBF
:10015000055029EC26F0196E250A13E11950E56EB9
:100160000250E56E0150E56E0050E56E09EC15F0A9
:10017000040EE126094A0A2A032A02E3044A052A50
:10018000BED71950300A06E1300E156E032A02E37D
:10019000044A052A03C0E9FF04C0F3FF055029EC17
:1001A00026F02D0A06E1010E146E032A02E3044A2A
:1001B000052A03C0E9FF04C0F3FF055029EC26F02F
:1001C000200A08E1010E176E200E186E032A02E3C2
:1001D000044A052A03C0E9FF04C0F3FF055029ECD7
:1001E00026F02B0A06E1010E176E032A02E3044AE9
:1001F000052A03C0E9FF04C0F3FF055029EC26F0EF
:10020000196E310E195C2BE33A0E195C28E203C01B
:1002100019F004C01AF005C01BF019C0E9FF1AC09C
:10022000F3FF1B5029EC26F01C6E300E1C5C11E312
:100230003A0E1C5C0EE213500A0DF3CF1DF01C5059
:100240001D26D00E1D24136E192A02E31A4A1B2AFA
:10025000E4D719C003F01AC004F01BC005F003C0B6
:10026000E9FF04C0F3FF055029EC26F02E0A2DE12A
:10027000032A02E3044A052A166A03C019F004C0DF
:100280001AF005C01BF019C0E9FF1AC0F3FF1B509C
:1002900029EC26F01C6E300E1C5C11E33A0E1C5C3F
:1002A0000EE216500A0DF3CF1DF01C501D26D00E85
:1002B0001D24166E192A02E31A4A1B2AE4D719C014
:1002C00003F01AC004F01BC005F003C0E9FF04C02E
:1002D000F3FF055029EC26F0196E6C0A07E1010EB8
:1002E0000C6E032A02E3044A052A09D01950680A51
:1002F00006E1010E0E6E032A02E3044A052A03C03A
:10030000E9FF04C0F3FF055029EC26F0750A06E169
:10031000010E106E032A02E3044A052A03C0E9FF16
:1003200004C0F3FF055029EC26F0196E730A05E1AD
:10033000010E0D6E200E156E3FD01950780A03E1A4
:10034000100E116E39D01950580A05E1100E116EB9
:10035000010E126E31D01950630A02E1116A2CD0DD
:1003600019506F0A03E1080E116E26D01950660A63
:1003700003E1010E0F6E20D01950640A1DE01950E0
:10038000690A1AE0105005E0FF0E03260422052238
:1003900013D01950E56E0250E56E0150E56E005025
:1003A000E56E09EC15F0040EE126094A0A2A032A33
:1003B00002E3044A052AA3D60D5021E00650030F9C
:1003C0000D6E000E0720196E000E08201A6E0DC06B
:1003D00006F019C007F01AC008F0FD0E0D26FF0E3A
:1003E00019221A220DC0E9FF19C0F3FF1A50F4ECCC
:1003F00024F00D6EF3CF19F0F4CF1AF0FDD00F50AA
:100400000DE0000E1A6E080E196E100E0D6E040E21
:100410000626000E072208221668EED016680C5039
:1004200023E00650040F0C6E000E07200F6E000E26
:1004300008201B6E0CC006F00FC007F01BC008F0B0
:10044000FC0E0C26FF0E0F221B220CC0E9FF0FC072
:10045000F3FF1B501FEC24F00C6EF3CF0FF0F4CF22
:100460001BF0E9CF1CF067D00E502FE00650020FB2
:100470000E6E000E07201D6E000E08201E6E0EC0B0
:1004800006F01DC007F01EC008F0FE0E0E26FF0E7F
:100490001D221E220EC0E9FF1DC0F3FF1E50B3EC4B
:1004A00025F00E6E0EC00CF00F6A1B6A1C6A11500C
:1004B0000A0A03E11050D8B43ED00C500E6E0EC0A4
:1004C0000CF00F6A1B6A1C6A36D00650020F0E6EC3
:1004D000000E07201D6E000E08201E6E0EC006F0D6
:1004E0001DC007F01EC008F0FE0E0E26FF0E1D22D6
:1004F0001E220EC0E9FF1DC0F3FF1E50B3EC25F015
:100500000E6EF3CF1DF00EC00CF01DC00FF0E86AA8
:100510001DBEFF0E1B6E1C6E11500A0A02E1105028
:100520000AE00C500E6E0F501D6E0EC00CF01DC078
:100530000FF01B6A1C6A040E196EF40E0D6E800E0D
:100540001A6E1150D8B440D0105013E01150E56E1F
:10055000040EE56EF40EE56E1C50E56E1B50E56E64
:100560000F50E56E0C50E56E99EC0EF0070EE1268B
:1005700012D01150E56E040EE56EF40EE56E1C50BF
:10058000E56E1B50E56E0F50E56E0C50E56E7CEC91
:100590001BF0070EE12617502FE00DC0E9FF19C030
:1005A000F3FF1A5029EC26F02D0A26E0FF0E0D2647
:1005B00019221A2218C0E5FF0DC0E9FF19C0F3FF88
:1005C0001A50B1EC26F018D00CC0E5FF0DC0E9FFC1
:1005D00019C0F3FF1A50B1EC26F00D50010F0C6E4C
:1005E000000E19200E6E000E1A20E56A0CC0E9FFFD
:1005F0000EC0F3FFB1EC26F00DC00CF019C00EF0E8
:100600001AC00FF013C010F0105010E00CC0E9FF3A
:100610000EC0F3FF0F5029EC26F0176E175006E0BE
:100620000C2A02E30E4A0F2A1006EED710C013F070
:1006300014501EE109C00CF00AC00EF010C00FF0FB
:100640000F5010E01550E56E0250E56E0150E56E5A
:100650000050E56E09EC15F0040EE1260C4A0E2A56
:100660000F06EED70CC009F00EC00AF00FC013F051
:1006700016C00CF00DC00DF019C00EF01AC00FF02E
:1006800009C010F00AC015F00DC0E9FF0EC0F3FF5D
:100690000F5029EC26F0166E1650D8B43ED00CC080
:1006A00016F0176A161E171E1650171005E00CC01C
:1006B00016F00C06165031E00DC0E9FF0EC0F3FF36
:1006C0000F5029EC26F0116E125010E01150E56E1B
:1006D00070EC25F0166EE652165004E0DF0E111491
:1006E000166E02D011C016F016C011F01150E56E52
:1006F0000250E56E0150E56E0050E56E09EC15F014
:10070000040EE1260D2A02E30E4A0F2A104A152A8A
:100710001350D8B4B9D71306B7D710C009F015C015
:100720000AF014502BE010C00CF015C00DF013C0EF
:100730000EF00E501FE0200EE56E0250E56E0150E7
:10074000E56E0050E56E09EC15F0040EE1260C4A4A
:100750000D2A0E06EED70B50E56E0250E56E0150E5
:10076000E56E0050E56E09EC15F0040EE126094A2D
:100770000A2A04D00CC009F00DC00AF0032A02E3D3
:10078000044A052A7FEF00F00AC0F3FF0950E4CFC6
:100790001EF0E4CF1DF0E4CF1CF0E4CF1BF0E4CF5B
:1007A0001AF0E4CF19F0E4CF18F0E4CF17F0E4CF5B
:1007B00016F0E4CF15F0E4CF14F0E4CF13F0E4CF5B
:1007C00012F0E4CF11F0E4CF10F0E4CF0FF0E4CF5B
:1007D0000EF0E4CF0DF0E4CF0CF0E4CF0BF0E4CF5B
:1007E0000AF0E4CF09F0E4CF08F0E4CF07F0E4CF5B
:1007F00006F0E4CF05F0E4CF04F0E4CF03F0E4CF5B
:1008000002F0E4CF01F0E4CF00F0E4CFD9FF120012
:100810003C4E4F20464C4F41543E000000C0E5FF87
:1008200001C0E5FF02C0E5FF03C0E5FF04C0E5FF2E
:1008300005C0E5FF06C0E5FF07C0E5FF08C0E5FF0E
:10084000C2A204D00001ED5152EF06F00001EE51BA
:10085000D8B436D10001ED51020DF450016EF3CF42
:1008600000F0390E0026040E012200C0E9FF01C08D
:10087000EAFFEECF00F0EFCF01F0230EED25026E80
:10088000036A040E032202C0E9FF03C0EAFFEFCFB0
:1008900002F00250FF0A01E16DD009C0E5FFF2CF7E
:1008A00009F0F29E02380F0B046E920E0424056EBE
:1008B000066A0F0E0622076A920E04260F0E072202
:1008C00004C0E9FF07C0EAFFEFCF04F00250076E53
:1008D000070E0716010E086E07500DE006E6E86CDD
:1008E000D8900836010FFDE306D0D89008BED88016
:1008F0000832010FFBE3081C076E0450071605C001
:10090000E9FF06C0EAFF07C0EFFF02380F0B046ED5
:10091000890E0424056E066A0F0E0622076A890EE8
:1009200004260F0E072204C0E9FF07C0EAFFEFCF3D
:1009300004F0070E0216010E076E02500DE006E6E7
:10094000E86CD8900736010FFDE306D0D89007BEBB
:10095000D8800732010FFBE3071C026E0450021619
:1009600005C0E9FF06C0EAFF02C0EFFF09BEF28E34
:10097000E4CF09F00001ED51020DF450036EF3CF06
:1009800002F0390E0226040E032201340130056EF6
:100990000030046E05340532043205340532043269
:1009A0000450005C046E05500158056EC3CF00F082
:1009B000016A0050042601500522C4CF00F0016AEC
:1009C0000050076E066A065004260750052202C032
:1009D000E9FF03C0EAFF04C0EEFF05C0EFFF00011E
:1009E000E951010A01E06AD00001ED51020DF45015
:1009F000016EF3CF00F0390E0024026E040E0120C8
:100A0000036E02C0E9FF03C0EAFFEECF02F0EFCFB2
:100A100003F0B30E0026040E012200C0E9FF01C05E
:100A2000EAFFEECF04F0EFCF05F09C0E0426D8A02D
:100A300005060350800FF36E0550800FF35C02E152
:100A40000450025C0EE20250640F046E000E03209C
:100A5000056E00C0E9FF01C0EAFF04C0EEFF05C05B
:100A6000EFFF0001ED51020DF450016EF3CF00F0E5
:100A7000D30E0026040E012200C0E9FF01C0EAFFE8
:100A8000EECF04F0EFCF05F0640E0426D8B0052AAF
:100A90000550800FF36E0350800FF35C02E10250AB
:100AA000045C0CE29C0E0226D8A0030600C0E9FFFD
:100AB00001C0EAFF02C0EEFF03C0EFFF0001EE6BD2
:100AC0000001ED2B100EED5DD8B0ED6BED39E84473
:100AD0001F0B006E016A6C0E0026030E012200C07F
:100AE000E9FF01C0EAFFEFCF00F0EDC001F0070E13
:100AF0000116010E026E000E036E015006E0E86C56
:100B0000D89002360336010FFCE3046A0050021647
:100B10000450031602500310D880E866D890026A89
:100B200002360250D8A4BCD0230E0001ED25006E81
:100B3000016A0F0E012200C0E9FF01C0EAFFEFCFFA
:100B400000F00044E844FC0B016E0128C26E230E45
:100B5000ED25006E016A040E012200C0E9FF01C00C
:100B6000EAFFEFCF00F00050FF0A01E195D009C085
:100B7000E5FFF2CF09F0F29E00380F0B026E920EE5
:100B80000224036E046A0F0E0422056A920E0226E6
:100B90000F0E052202C0E9FF05C0EAFFEFCF02F009
:100BA0000050056E070E0516010E066E05500DE08D
:100BB00006E6E86CD8900636010FFDE306D0D89023
:100BC00006BED8800632010FFBE30250061203C0B6
:100BD000E9FF04C0EAFF06C0EFFF09BEF28EE4CFD2
:100BE00009F0380E016E0F0E026E00380F0B036E07
:100BF000046A0350012604500222380E056E0F0EBF
:100C0000066E055003260650042203C0E9FF04C007
:100C1000EAFFEFCF03F0070E0016010E046E00503E
:100C20000DE006E6E86CD8900436010FFDE306D02F
:100C3000D89004BED8800432010FFBE303500412A5
:100C400001C0E9FF02C0EAFF04C0EFFF0F014583C6
:100C50000000000045930F01449309C0E5FFF2CF67
:100C600009F0F29E44810000000000000000000036
:100C70000000000000000000000000000000000074
:100C8000000000000000000000000000000044918F
:100C900009BEF28EE4CF09F0C282010E0001EE6FB0
:100CA0000001ED51E4CF08F0E4CF07F0E4CF06F007
:100CB000E4CF05F0E4CF04F0E4CF03F0E4CF02F09A
:100CC000E4CF01F0E4CF00F0120000C0E5FF01C066
:100CD000E5FF02C0E5FF03C0E5FF04C0E5FF05C076
:100CE000E5FF06C0E5FF07C0E5FF08C0E5FF09C056
:100CF000E5FF0AC0E5FF0BC0E5FF0CC0E5FF006A99
:100D0000016A026A040E025CD8B0EBD1100E015CDD
:100D1000D8B0E7D1012A0001EF2B100EEF5DD8B05B
:100D2000EF6BEF39E8441F0B036E046A6C0E032669
:100D3000030E042203C0E9FF04C0EAFFEFCF03F073
:100D4000EFC004F0070E0416010E056E000E066ECD
:100D5000045006E0E86CD89005360636010FFCE337
:100D6000076A035005160750061605500610D8806E
:100D7000E866D890056A05360550D8A4C3D70001A7
:100D8000EF51020DF450046EF3CF03F0390E03243B
:100D9000056E040E0420066E05C0E9FF06C0EAFFDA
:100DA000EECF05F0EFCF06F0ECC007F007A09DD026
:100DB000B30E0324076E040E0420086E07C0E9FF7B
:100DC00008C0EAFFEECF07F0EFCF08F00650800F23
:100DD000F36E0850800FF35C02E10750055C03E2FC
:100DE000056A066A60D0D30E0326040E042203C0EF
:100DF000E9FF04C0EAFFEECF03F0EFCF04F00450A8
:100E0000800FF36E0650800FF35C02E10550035C27
:100E100004E205683F0E066E46D00750055C096E79
:100E2000085006580A6EE86A0ABEFF0E0B6EE56EA1
:100E30000B50E56E0A50E56E0950E56EE56AE56A0D
:100E4000400EE56E000EE56A8FEC0DF0096EF3CFF3
:100E50000AF0F4CF0BF0E9CF0CF0080EE1260750B2
:100E6000035C076E08500458086EE86A08BEFF0E5F
:100E7000036EE56E0350E56E0850E56E0750E56EB3
:100E80000C50E56E0B50E56E0A50E56E0950E56EAC
:100E9000ECEC13F0036EF3CF04F0080EE1260350E0
:100EA000056E0450066E0001EB51800FF36E065084
:100EB000800FF35C02E10550EA5D03E3056A066A10
:100EC00014D00001EA51FF08036E3F0EEB55046E8B
:100ED0000650800FF36E0450800FF35C02E1035064
:100EE000055C03E305683F0E066E0001EF51020D3D
:100EF000F450046EF3CF03F0930E0326040E042285
:100F000003C0E9FF04C0EAFFEECF03F0EFCF04F027
:100F10000350055C036E04500658046ED88004AE7E
:100F2000D89004E3041E036CD8B4042A022A0001FA
:100F3000EB51800FF36E0450800FF35C02E103501D
:100F4000EA5DD8B0DFD60001EF51020DF450046E17
:100F5000F3CF03F0930E0326040E042203C0E9FF2F
:100F600004C0EAFF05C0EEFF06C0EFFFECC003F0CF
:100F700003A459D0EF51020DF450046EF3CF03F0E7
:100F8000000E0324076E030E0420086E07C0E9FF5D
:100F900008C0EAFFEECF09F0EFCF0AF009500A10BF
:100FA000D8B441D0590E0326040E042203C0E9FF31
:100FB00004C0EAFFEECF03F0EFCF04F00350055C6E
:100FC000036E04500658046E03101CE00450800F9A
:100FD000800F02E1010E035C0B6A0B360A50800F92
:100FE000800F02E1010E095C096A09360B500918ED
:100FF00009E107C0E9FF08C0EAFF03C0EEFF04C033
:10100000EFFF80D60001EF51020DF450046EF3CFD4
:1010100003F0000E0326030E042203C0E9FF04C000
:10102000EAFFEE6AEF6AECC003F003A246D000507C
:101030000EE100C003F0002A046AF00E0326000E41
:10104000042203C0E9FF04C0EAFF420EEF6E00C0B5
:1010500003F00028046E076AF00E0326000E072234
:101060000001EF51086E640E082603C0E9FF07C0B7
:10107000EAFF08C0EFFF04C003F0042A076AF00E7D
:101080000326000E07220650086E03C0E9FF07C0C2
:10109000EAFF08C0EFFF04C003F00428006E046AF2
:1010A000F00E0326000E04220550076E03C0E9FF70
:1010B00004C0EAFF07C0EFFF25D6EFC003F00650DB
:1010C000E56E0550E56EE56A0350E56E000EE56ECF
:1010D0002E0EE56E480EE56E7FEC1FF0070EE12642
:1010E00011D602C001F000501EE0ECC002F002A2D6
:1010F0001AD000C002F0002A036AF00E0226000E89
:10110000032202C0E9FF03C0EAFF0A0EEF6E00509F
:10111000E56E800EE56E000EE56EF00EE56E2AECD3
:1011200017F0040EE1260150E4CF0CF0E4CF0BF0F1
:10113000E4CF0AF0E4CF09F0E4CF08F0E4CF07F001
:10114000E4CF06F0E4CF05F0E4CF04F0E4CF03F001
:10115000E4CF02F0E4CF01F0E4CF00F0120000C0D1
:10116000E5FF01C0E5FF02C0E5FF03C0E5FF04C0E5
:10117000E5FFF9EC26F094929494B96AB9800C0ECC
:10118000BD6EBD9ABD98640EBE6EA7EC16F0948A33
:10119000820E006E0F0E016E0F0E036E380E0026CB
:1011A000035001220F0E036E800E005E0350015AA1
:1011B000820E026E0F0E036E0F0E046E380E0226A4
:1011C000045003220F0E046E800E025E0450035A78
:1011D00002C0E9FF03C0EAFFEFCF02F0028A00C0BD
:1011E000E9FF01C0EAFF02C0EFFF110EE56E000E3D
:1011F000E56A45EC1AF0E652E6529384810E006EE1
:101200000F0E016E0F0E036E380E002603500122E2
:101210000F0E036E800E005E0350015A810E026EA7
:101220000F0E036E0F0E046E380E022604500322BA
:101230000F0E046E800E025E0450035A02C0E9FFD6
:1012400003C0EAFFEFCF02F0028400C0E9FF01C053
:10125000EAFF02C0EFFF080EE56E010EE56E45ECF9
:101260001AF0E652E6529386810E006E0F0E016E62
:101270000F0E036E380E0026035001220F0E036E70
:10128000800E005E0350015A810E026E0F0E036E37
:101290000F0E046E380E0226045003220F0E046E49
:1012A000800E025E0450035A02C0E9FF03C0EAFF49
:1012B000EFCF02F0028600C0E9FF01C0EAFF02C0E2
:1012C000EFFF090EE56E020EE56E45EC1AF0E652F0
:1012D000E652B3EC1EF0F19E938C810E006E0F0E61
:1012E000016E0F0E036E380E0026035001220F0E02
:1012F000036E800E005E0350015A810E026E0F0EC7
:10130000036E0F0E046E380E0226045003220F0ED9
:10131000046E800E025E0450035A02C0E9FF03C04F
:10132000EAFFEFCF02F0029C00C0E9FF01C0EAFF34
:1013300002C0EFFF060EE56E800EE56E0F0EE56E45
:10134000810EE56E000EE56AFAEC1EF0050EE12650
:10135000938E810E006E0F0E016E0F0E036E380E0F
:101360000026035001220F0E036E800E005E035014
:10137000015A810E026E0F0E036E0F0E046E380EB0
:101380000226045003220F0E046E800E025E0450EB
:10139000035A02C0E9FF03C0EAFFEFCF02F0029E4A
:1013A00000C0E9FF01C0EAFF02C0EFFF070EE56ED3
:1013B000800EE56E0F0EE56E810EE56E010EE56E98
:1013C000FAEC1EF0050EE126270EE56EE56A080E22
:1013D000E56ECBEC12F0030EE126010EE56E800EF9
:1013E000E56E040EE56E790EE56E91EC18F0040ED4
:1013F000E126C4EC22F0F3CF01F0F4CF02F0E9CF04
:1014000003F0880F0401336F130E0120346F000EB8
:101410000220356F000E0320366FE4CF04F0E4CFD6
:1014200003F0E4CF02F0E4CF01F0E4CF00F01200CB
:10143000430025630000800EE56E040EE56ED30EBA
:10144000E56E36EC1DF0030EE126800EE56E040E0F
:10145000E56EB30EE56E36EC1DF0030EE126800E50
:10146000E56E040EE56ED50EE56E36EC1DF0030E4E
:10147000E126800EE56E040EE56EB50EE56E36ECE7
:101480001DF0030EE126800EE56E040EE56ED70E0C
:10149000E56E36EC1DF0030EE126800EE56E040EBF
:1014A000E56EB70EE56E36EC1DF0030EE126800EFC
:1014B000E56E040EE56ED90EE56E36EC1DF0030EFA
:1014C000E126800EE56E040EE56EB90EE56E36EC93
:1014D0001DF0030EE126800EE56E040EE56EDB0EB8
:1014E000E56E36EC1DF0030EE126800EE56E040E6F
:1014F000E56EBB0EE56E36EC1DF0030EE126800EA8
:10150000E56E040EE56EDD0EE56E36EC1DF0030EA5
:10151000E126800EE56E040EE56EBD0EE56E36EC3E
:101520001DF0030EE126800EE56E040EE56EDF0E63
:10153000E56E36EC1DF0030EE126800EE56E040E1E
:10154000E56EBF0EE56E36EC1DF0030EE126800E53
:10155000E56E040EE56EE10EE56E36EC1DF0030E51
:10156000E126800EE56E040EE56EC10EE56E36ECEA
:101570001DF0030EE126800EE56E040EE56EE30E0F
:10158000E56E36EC1DF0030EE126800EE56E040ECE
:10159000E56EC30EE56E36EC1DF0030EE126800EFF
:1015A000E56E040EE56EE50EE56E36EC1DF0030EFD
:1015B000E126800EE56E040EE56EC50EE56E36EC96
:1015C0001DF0030EE126800EE56E040EE56EE70EBB
:1015D000E56E36EC1DF0030EE126800EE56E040E7E
:1015E000E56EC70EE56E36EC1DF0030EE126800EAB
:1015F000E56E040EE56EE90EE56E36EC1DF0030EA9
:10160000E126800EE56E040EE56EC90EE56E36EC41
:101610001DF0030EE126800EE56E040EE56EEB0E66
:10162000E56E36EC1DF0030EE126800EE56E040E2D
:10163000E56ECB0EE56E36EC1DF0030EE126800E56
:10164000E56E040EE56EED0EE56E36EC1DF0030E54
:10165000E126800EE56E040EE56ECD0EE56E36ECED
:101660001DF0030EE126800EE56E040EE56EEF0E12
:10167000E56E36EC1DF0030EE126800EE56E040EDD
:10168000E56ECF0EE56E36EC1DF0030EE126800E02
:10169000E56E040EE56EF10EE56E36EC1DF0030E00
:1016A000E126800EE56E040EE56ED10EE56E36EC99
:1016B0001DF0030EE126120000C0E5FF01C0E5FFAA
:1016C00002C0E5FF03C0E5FF0001E651D8B40CD12C
:1016D0009DA81DD09EA81BD003017A510301781943
:1016E00005E167EC26F00301786BFED0000E0301E4
:1016F0007A25006E016A040E012200C0E9FF01C0D4
:10170000EAFFEFCF74F37A2B74C3ADFFEDD09DAA3F
:10171000EBD09EAAE9D0ABA205D00301798167EC9A
:1017200026F0E2D0ABA405D00301798367EC26F064
:10173000DBD0ABA048D0AECF74F3E7C000F0016AB5
:10174000008E74C302F0036A0250001803E10350D4
:10175000011801E004D003017989AB96C5D00301DB
:10176000745104E074510001E71929E103017999EA
:10177000AB960301745103E00301799702D0030192
:10178000798774C37DF376C37EF303017651006ECF
:10179000000403017F6F600E03017E25006E016A65
:1017A000000E012200C0E9FF01C0EAFF74C3EFFF91
:1017B0007E2B7E51800A02E103017E6B95D00301EE
:1017C0007999AB8691D0AECF74F3030179A921D07A
:1017D000E7C000F0016A008E74C302F0036A025091
:1017E000001803E10350011801E011D09D9AAB9855
:1017F00094900301785104E1AD6A67EC26F007D0BC
:1018000000C4ADFF010E03017A6F9D886DD0AB86D9
:101810006BD00301745103017D2703017E51030145
:101820007F191BE103017D510CE17EC376F30301B7
:1018300079B712D09D9AAB989490AD6A67EC26F078
:101840000BD00301798579B707D09D9AAB98949016
:10185000010EAD6E67EC26F047D003017E51030107
:10186000771908E1030177510301761903E067EC6A
:1018700026F03AD076C300F0016A004A012AE56AF0
:10188000800EE56E0150E56E0050E56EFFEC18F03D
:10189000006E040EE12600500301756F03017E19EE
:1018A0000FE174C300F01F0E001403017F6F006E80
:1018B000020E00247F6F0301765103017F277F9F73
:1018C0007EC300F003017E2B016A600E0026000E2D
:1018D000012200C0E9FF01C0EAFF74C3EFFF7E519F
:1018E000800A02E103017E6BE4CF03F0E4CF02F053
:1018F000E4CF01F0E4CF00F0120000C0E5FF01C02A
:10190000E5FF02C0E5FF03C0E5FF04C0E5FF05C039
:10191000E5FF06C0E5FF07C0E5FF08C0E5FF09C019
:10192000E5FF006A016A040E015CD8B0E2D0400E07
:101930000001FD25026E036A030E032202C0E9FFC7
:1019400003C0EAFFEFCF02F00250FF0A01E1CAD064
:101950000001FD39E8441F0B026E700E0224036E75
:10196000046A030E042203C0E9FF04C0EAFFEFCFBC
:1019700003F0FDC004F0070E0416010E056E000E04
:10198000066E045006E0E86CD89005360636010F66
:10199000FCE3076A035005160750061605500610AB
:1019A000D880E866D890056A05360550D880E86684
:1019B000D890056A05360550036E046A6E0E02263D
:1019C000030E042202C0E9FF04C0EAFFEFCF05F0D6
:1019D000FDC006F0070E0616010E076E000E086E1B
:1019E000065006E0E86CD89007360836010FFCE395
:1019F00005C006F0096A0650071609500816075078
:101A00000810D880E866D890076A07360750D88053
:101A1000E866D890076A07360350071801E162D0DC
:101A200003501FE00001FD51066E070E0616010E61
:101A3000076E06500DE006E6E86CD8900736010FF9
:101A4000FDE306D0D89007BED8800732010FFBE334
:101A50000550071202C0E9FF04C0EAFF07C0EFFF0C
:101A600026D002C0E9FF04C0EAFFEFCF05F0000175
:101A7000FD51066E070E0616010E076E06500DE0AC
:101A800006E6E86CD8900736010FFDE306D0D89043
:101A900007BED8800732010FFBE3071C066E055016
:101AA000061602C0E9FF04C0EAFF06C0EFFF0350BC
:101AB00003E1036A032A01D0036AFDC004F0E56A6A
:101AC0000350E56EE56A0450E56E000EE56E3D0ECE
:101AD000E56EE80EE56E7FEC1FF0070EE126012AA9
:101AE00001C000F00001FD2B100EFD5DD8A01BD73A
:101AF000FD6B0050E4CF09F0E4CF08F0E4CF07F02D
:101B0000E4CF06F0E4CF05F0E4CF04F0E4CF03F037
:101B1000E4CF02F0E4CF01F0E4CF00F01200D9CF1F
:101B2000E5FFE1CFD9FF00C0E5FF01C0E5FF02C03E
:101B3000E5FF03C0E5FF04C0E5FF05C0E5FF06C003
:101B4000E5FF07C0E5FF020EDBCF00F0030EDBCFA1
:101B500001F0040EDBCF02F0050EDBCF03F0060E22
:101B6000DBCF04F0070EDBCF05F0080EDBCF06F06D
:101B7000090EDBCF07F000500401856F0150866F1E
:101B80000250876F0350886F045004018A6F05501C
:101B90008B6F06508C6F07508D6F040185510401C7
:101BA0008C03F4CF01F0F3CF00F000500401906FEC
:101BB0000150916F0401855104018A03F4CF01F0B3
:101BC000F3CF00F0005004018E6F01508F6F0401BD
:101BD000885104018A03F3CF00F0040191510026DB
:101BE0000050916F0401875104018B03F3CF01F082
:101BF0000150002600500401916F04018751040137
:101C00008A03F4CF01F0F3CF00F0040190510026D5
:101C1000915101220050906F0150916F0401865143
:101C200004018B03F4CF03F0F3CF02F0025000263F
:101C30000350012200500401906F0150916F040184
:101C4000865104018C03F3CF00F0005003015C6F58
:101C50000401865104018A03F4CF01F0F3CF00F0B0
:101C6000005003015A6F01505B6F0401855104015C
:101C70008D03F3CF00F000500301606F0401855124
:101C800004018B03F4CF01F0F3CF00F00050030107
:101C90005E6F01505F6F0301596B03015D6B0301C0
:101CA000595104018E25006E03015A5104018F2100
:101CB000016E03015B5104019021026E03015C512E
:101CC00004019121036E00508E6F01508F6F0250FE
:101CD000906F0350916F03015D5104018E25006EDA
:101CE00003015E5104018F21016E03015F51040164
:101CF0009021026E0301605104019121036E03C023
:101D0000E9FF02C0F4FF01C0F3FF0050E4CF07F089
:101D1000E4CF06F0E4CF05F0E4CF04F0E4CF03F025
:101D2000E4CF02F0E4CF01F0E4CF00F0E4CFD9FF3C
:101D30001200D9CFE5FFE1CFD9FF00C0E5FF01C018
:101D4000E5FF02C0E5FF03C0E5FF04C0E5FF05C0F5
:101D5000E5FF06C0E5FF07C0E5FF08C0E5FF09C0D5
:101D6000E5FF0AC0E5FF0BC0E5FF0CC0E5FF0DC0B5
:101D7000E5FF0EC0E5FF0FC0E5FF020EDBCF00F070
:101D8000030EDBCF01F0040EDBCF02F0050EDBCF3C
:101D900003F0060EDBCF04F0070EDBCF05F0080ED4
:101DA000DBCF06F0200E076E086A06C009F00A6A4B
:101DB0000B6A0C6AE56AE56AE56A0950E56E03504C
:101DC000E56E0250E56E0150E56E0050E56E03ECE5
:101DD00011F00D6E080EE126300E0D263A0E0D5C48
:101DE00005E30D500E6E270E0E240D6EFF0E072616
:101DF0000822200E07240E6E030E08200F6E0EC060
:101E0000E9FF0FC0EAFF0DC0EFFF0C50E56E0B506D
:101E1000E56E0A50E56E0950E56E0350E56E02501E
:101E2000E56E0150E56E0050E56EECEC13F0006ECF
:101E3000F3CF01F0F4CF02F0E9CF03F0080EE12672
:101E40000050011002100310D8A4AFD707C000F053
:101E500008C001F004C002F005C003F000C004F0A7
:101E600001C005F0004A012A200E0426030E0522B7
:101E700004C0E9FF05C0EAFFEFCF04F002C0E9FFAC
:101E800003C0EAFF04C0EFFF024A032A000E015C10
:101E900002E1200E005CE2E302C0E9FF03C0EAFFBA
:101EA000000EEF6AE4CF0FF0E4CF0EF0E4CF0DF0B8
:101EB000E4CF0CF0E4CF0BF0E4CF0AF0E4CF09F06C
:101EC000E4CF08F0E4CF07F0E4CF06F0E4CF05F06C
:101ED000E4CF04F0E4CF03F0E4CF02F0E4CF01F06C
:101EE000E4CF00F0E4CFD9FF1200D9CFE5FFE1CF76
:101EF000D9FF00C0E5FF01C0E5FF02C0E5FF03C058
:101F0000E5FF04C0E5FF05C0E5FF06C0E5FF020EE2
:101F1000DBCF00F0030EDBCF01F0040EDBCF02F0CD
:101F200000C0E9FF01C0F3FF025029EC26F0036E68
:101F3000E56AE56E9EEC21F0E652E652300EE56E63
:101F40005EEC24F0E652FEEC26F0010EE56E035046
:101F5000E56E9EEC21F0E652E6528DEC23F0036E26
:101F600003A28AD0FEEC23F08DEC23F0FEEC23F0EC
:101F70000050010F036E000E0120046E000E0220BF
:101F8000056E8DEC23F0066E06C0E5FF03C0E9FF89
:101F900004C0F3FF0550B1EC26F0FEEC23F0005036
:101FA000020F036E000E0120046E000E0220056E6B
:101FB0008DEC23F0066E06C0E5FF03C0E9FF04C008
:101FC000F3FF0550B1EC26F0FEEC23F00050030FB8
:101FD000036E000E0120046E000E0220056E8DECD3
:101FE00023F0066E06C0E5FF03C0E9FF04C0F3FF5F
:101FF0000550B1EC26F0FEEC23F00050040F036E08
:10200000000E0120046E000E0220056E8DEC23F000
:10201000066E06C0E5FF03C0E9FF04C0F3FF0550EC
:10202000B1EC26F0FEEC23F00050050F036E000E1D
:102030000120046E000E0220056E8DEC23F0066E6A
:1020400006C0E5FF03C0E9FF04C0F3FF0550B1EC93
:1020500026F0FEEC23F0060E0026000E01220222DE
:102060008DEC23F0036E03C0E5FF00C0E9FF01C063
:10207000F3FF0250B1EC26F0FEEC26F0E4CF06F0C0
:10208000E4CF05F0E4CF04F0E4CF03F0E4CF02F0B6
:10209000E4CF01F0E4CF00F0E4CFD9FF120000C09C
:1020A000E5FF01C0E5FF02C0E5FF03C0E5FF04C096
:1020B000E5FF05C0E5FF006A400E0024016E026ADC
:1020C000030E022201C0E9FF02C0EAFFEFCF01F0D8
:1020D0000150FF0A01E185D001380F0B026E036A3F
:1020E000800E02260F0E032202C0E9FF03C0EAFFA2
:1020F000EFCF02F0070E0116010E036E000E046E04
:10210000015006E0E86CD89003360436010FFCE37A
:10211000056A025003160550041603500410D880B7
:10212000E866D890036A033603502DE10038E8448E
:102130001F0B016E026A700E0126030E022201C0FF
:10214000E9FF02C0EAFFEFCF03F00050046E070E74
:102150000416010E056E04500DE006E6E86CD890FA
:102160000536010FFDE306D0D89005BED8800532B4
:10217000010FFBE30350051201C0E9FF02C0EAFFB3
:1021800005C0EFFF2ED00038E8441F0B016E026A35
:10219000700E0126030E022201C0E9FF02C0EAFF11
:1021A000EFCF03F00050046E070E0416010E056E0B
:1021B00004500DE006E6E86CD8900536010FFDE30B
:1021C00006D0D89005BED8800532010FFBE3051C70
:1021D000046E0350041601C0E9FF02C0EAFF04C008
:1021E000EFFF002A100E005CD8A066D7E4CF05F000
:1021F000E4CF04F0E4CF03F0E4CF02F0E4CF01F049
:10220000E4CF00F01200D9CFE5FFE1CFD9FF00C045
:10221000E5FF01C0E5FF02C0E5FF03C0E5FF04C024
:10222000E5FF05C0E5FF06C0E5FF07C0E5FF08C004
:10223000E5FF09C0E5FF0AC0E5FF020EDBCF00F0B5
:10224000030EDBCF01F0040EDBCF02F0050EDBCF77
:1022500003F0060EDBCF04F0070EDBCF05F0080E0F
:10226000DBCF06F0090EDBCF07F0086A045005103B
:102270000610071005E1E968F468F368E86847D0DC
:10228000096A0750800BE8440A6E0A501BE10450AB
:1022900004260536063607360750035C08E106506B
:1022A000025C05E10550015C02E10450005C06E2BD
:1022B000D890073206320532043204D0092A09C008
:1022C00008F0DFD70750035C08E10650025C05E127
:1022D0000550015C02E10450005C08E30450005E1C
:1022E0000550015A0650025A0750035AD890073237
:1022F00006320532043208C009F008060950E2E14E
:1023000003C0E9FF02C0F4FF01C0F3FF0050E4CFB7
:102310000AF0E4CF09F0E4CF08F0E4CF07F0E4CF0F
:1023200006F0E4CF05F0E4CF04F0E4CF03F0E4CF0F
:1023300002F0E4CF01F0E4CF00F0E4CFD9FF1200C7
:10234000D9CFE5FFE1CFD9FF00C0E5FF01C0E5FF30
:1023500002C0E5FF03C0E5FF04C0E5FF020EDBCFCE
:1023600000F0030EDBCF01F0040EDBCF02F0050E10
:10237000DBCF03F0420E0301506F0350516F00504A
:10238000010F036E000E0120046E000E022003C038
:10239000E9FF04C0F3FF29EC26F00301526F00505F
:1023A000020F036E000E0120046E000E022003C017
:1023B000E9FF04C0F3FF29EC26F00301536F00503E
:1023C000030F036E000E0120046E000E022003C0F6
:1023D000E9FF04C0F3FF29EC26F00301546F00501D
:1023E000040F036E000E0120046E000E022003C0D5
:1023F000E9FF04C0F3FF29EC26F00301556F0050FC
:10240000050F036E000E0120046E000E022003C0B3
:10241000E9FF04C0F3FF29EC26F00301566F060E16
:102420000026000E0122022200C0E9FF01C0F3FFD6
:10243000025029EC26F00301576F0A0E586F090E5F
:10244000E56E800EE56E030EE56E500EE56E2AEC2D
:1024500017F0040EE126E4CF04F0E4CF03F0E4CF5C
:1024600002F0E4CF01F0E4CF00F0E4CFD9FF120096
:10247000D9CFE5FFE1CFD9FF00C0E5FF01C0E5FFFF
:1024800002C0E5FF03C0E5FF04C0E5FF05C0E5FFAE
:1024900006C0E5FF07C0E5FF08C0E5FF09C0E5FF8E
:1024A0000AC0E5FF020EDBCF00F0030EDBCF01F028
:1024B000040EDBCF02F0050EDBCF03F0060EDBCF00
:1024C00004F0070EDBCF05F00038E8441F0B066E62
:1024D000076A6C0E0626030E072206C0E9FF07C036
:1024E000EAFFEFCF08F00050096E070E0916010E43
:1024F0000A6E09500DE006E6E86CD8900A36010F26
:10250000FDE306D0D8900ABED8800A32010FFBE363
:1025100008500A1206C0E9FF07C0EAFF0AC0EFFF31
:10252000230E0024066E076A0F0E072206C0E9FF7D
:1025300007C0EAFF01C0EFFF016A230E0026040E68
:102540000122800E025E070E02160238F00B036EA7
:10255000070E05160550032600C0E9FF01C0EAFF7B
:1025600003C0EFFFE4CF0AF0E4CF09F0E4CF08F0B6
:10257000E4CF07F0E4CF06F0E4CF05F0E4CF04F0B9
:10258000E4CF03F0E4CF02F0E4CF01F0E4CF00F0B9
:10259000E4CFD9FF1200D9CFE5FFE1CFD9FF00C0CA
:1025A000E5FF01C0E5FF02C0E5FF03C0E5FF04C091
:1025B000E5FF06C0E5FF020EDBCF00F0030EDBCF28
:1025C00001F0040EDBCF02F03F0EC716C66AC56AE3
:1025D0000050C6120150C7129488820E006E0F0E72
:1025E000016E0F0E046E380E0026045001220F0EED
:1025F000046E800E005E0450015A820E036E0F0EB0
:10260000046E0F0E066E380E0326065004220F0EBF
:10261000066E800E035E0650045A03C0E9FF04C034
:10262000EAFFEFCF03F0039800C0E9FF01C0EAFF23
:1026300003C0EFFF9486820E006E0F0E016E0F0E28
:10264000046E380E0026045001220F0E046E800E18
:10265000005E0450015A820E036E0F0E046E0F0EC0
:10266000066E380E0326065004220F0E066E800EEC
:10267000035E0650045A03C0E9FF04C0EAFFEFCF2F
:1026800003F0039600C0E9FF01C0EAFF03C0EFFFBB
:1026900002C0C8FFC68A9E96A196E4CF06F0E4CF9A
:1026A00004F0E4CF03F0E4CF02F0E4CF01F0E4CF94
:1026B00000F0E4CFD9FF120000C0E5FF01C0E5FF44
:1026C00002C0E5FF03C0E5FF03017751030176195E
:1026D00001E166D077C300F0002A009E016A600E17
:1026E0000026000E012200C0E9FF01C0EAFFEFCF83
:1026F00081F31F0E0301811777C380F3815103011A
:1027000080278051006E020E0024806F809FEEECC7
:1027100022F0006E005003E1006A002A01D0006A36
:10272000EEEC22F00301816F81C301F0800E0116EF
:1027300081C302F01F0E021602C003F002C081F333
:10274000035003E176C377F33ED000501EE0015002
:1027500025E0EEEC22F0006E03018151026E0204CE
:10276000816F0050420A1AE000504E0A03E13BEC30
:1027700020F014D00050460A03E19BEC26F00ED066
:102780000050490A0BE1FF0009D077C382F30150E2
:1027900003E017EC1BF002D098EC22F080C377F333
:1027A0000001E3510001E41906E00301785103E15F
:1027B00095EC15F008D094B006D00301785103E1F0
:1027C000ACB267EC26F0E4CF03F0E4CF02F0E4CF44
:1027D00001F0E4CF00F01200D9CFE5FFE1CFD9FF3F
:1027E00000C0E5FF01C0E5FF02C0E5FF03C0E5FF53
:1027F00004C0E5FF05C0E5FF06C0E5FF07C0E5FF33
:1028000008C0E5FF09C0E5FF0AC0E5FF0BC0E5FF12
:102810000CC0E5FF0DC0E5FF020EDBCF00F0030E9C
:10282000DBCF01F0040EDBCF02F0050EDBCF03F0AF
:10283000060EDBCF04F0070EDBCF05F0080EDBCF72
:1028400006F0090EDBCF07F0086A096A0A6A0B6A0C
:10285000200E0C6E0350800BE8440D6E00500026D5
:102860000136023603360850082609360A360B367A
:102870000D50D8A4088007500B5C08E106500A5C94
:1028800005E10550095C02E10450085C09E30450CD
:10289000085E0550095A06500A5A07500B5A008024
:1028A0000C040D6E0DC00CF00D50D4E103C0E9FF17
:1028B00002C0F4FF01C0F3FF0050E4CF0DF0E4CFFD
:1028C0000CF0E4CF0BF0E4CF0AF0E4CF09F0E4CF52
:1028D00008F0E4CF07F0E4CF06F0E4CF05F0E4CF52
:1028E00004F0E4CF03F0E4CF02F0E4CF01F0E4CF52
:1028F00000F0E4CFD9FF120000C0E5FF01C0E5FF02
:1029000003C0E5FF04C0E5FF05C0E5FF06C0E5FF25
:1029100007C0E5FF08C0E5FF09C0E5FF0AC0E5FF05
:102920000BC0E5FF6AC300F06BC301F003016A3F0F
:1029300001D06B2B0050E56E59EC26F0E652076E85
:10294000046A056A066A6AC300F06BC301F00301FA
:102950006A3F01D06B2B0050E56E59EC26F0E65231
:102960000B6A0A6E086A0850041205120A50061211
:102970000B5007126AC300F06BC301F003016A3FFA
:1029800001D06B2B0050E56E59EC26F0E652036E39
:10299000006A03C001F0E86A03BEFF0E086E096E0C
:1029A0000050041201500512085006120950071277
:1029B0006AC300F06BC301F003016A3F01D06B2BC7
:1029C0000050E56E59EC26F0E652016A04120150FF
:1029D00005120612071207C0E9FF06C0F4FF05C082
:1029E000F3FF0450E4CF0BF0E4CF0AF0E4CF09F09A
:1029F000E4CF08F0E4CF07F0E4CF06F0E4CF05F031
:102A0000E4CF04F0E4CF03F0E4CF01F0E4CF00F032
:102A10001200D9CFE5FFE1CFD9FF00C0E5FF01C02B
:102A2000E5FF02C0E5FF03C0E5FF04C0E5FF05C008
:102A3000E5FF06C0E5FF07C0E5FF020EDBCF00F0B3
:102A4000030EDBCF01F0040EDBCF02F0050EDBCF6F
:102A500003F002C006F00650046E800A33E100C0A5
:102A6000E9FF01C0F3FF0250F4EC24F0056EF3CF50
:102A700006F0F4CF07F003C0E5FF05C0E9FF06C08C
:102A8000F3FF0750B1EC26F000C0E9FF01C0F3FFEF
:102A90000250F4EC24F0056EF3CF06F0F4CF07F00B
:102AA000052A02E3064A072A05C0E5FF06C0F4FF2F
:102AB00007C0F6FF00C0E9FF01C0F3FF02504AEC77
:102AC00026F020D004C000F000AA1CD0007A0050EC
:102AD000046E04E1035002EC27F014D00450010A04
:102AE00004E1035015EC27F00DD004500F0A04E167
:102AF000035039EC22F006D004500E0A03E10350D3
:102B000012EC27F0E4CF07F0E4CF06F0E4CF05F0B5
:102B1000E4CF04F0E4CF03F0E4CF02F0E4CF01F01F
:102B2000E4CF00F0E4CFD9FF120000C0E5FF01C000
:102B3000E5FF02C0E5FF03C0E5FFACA277D03FECA4
:102B400024F0006E005005E10001E46B0001E36B2E
:102B50006DD0E4C001F0005001263FEC24F0026E7D
:102B600000060250230A1FE1010E005CD8A05CD0D1
:102B70003FEC24F0036E690A03E108EC22F054D024
:102B80000350720A03E167EC26F04ED00350730A3B
:102B900001E04AD09480AB869D8A9D98AE50AE509D
:102BA000AB98AB8841D00250430A05E00250420A7C
:102BB00001E03AD001D0008E03017A6B00C07BF3B4
:102BC00000500401006F03017A2B0001E451011849
:102BD00014E03FEC24F0006E03017B27000E03019C
:102BE0007A25026E036A040E032202C0E9FF03C0C5
:102BF000EAFF00C0EFFF7A2BE8D7000E03017A2529
:102C0000006E026A040E022203017B1D036E032A7A
:102C100000C0E9FF02C0EAFF03C0EFFF03017A2B07
:102C20007AC378F30301726B01C0E4F0E4CF03F0E0
:102C3000E4CF02F0E4CF01F0E4CF00F01200D9CFEE
:102C4000E5FFE1CFD9FF00C0E5FF01C0E5FF02C00D
:102C5000E5FF03C0E5FF04C0E5FF05C0E5FF06C0D2
:102C6000E5FF020EDBCF00F0030EDBCF01F0040E18
:102C7000DBCF02F0050EDBCF03F003C004F0056AE2
:102C80000350D8B453D000C0E9FF01C0F3FF025095
:102C900029EC26F0066E430A03E1010E056E038E51
:102CA0000406002A02E3014A022A9D9AAB989490F6
:102CB0009D989EA8FED7AC80AD6A00009EA8FED766
:102CC000AC9003C0ADFF00009EA8FED7055005E004
:102CD000420EAD6E0324056E05D0620EAD6E620E1F
:102CE0000324056E04C003F0035015E000009EA805
:102CF000FED700C0E9FF01C0F3FF025029EC26F027
:102D0000046E04C0ADFF045005260306002A02E34A
:102D1000014A022AE9D700009EA8FED7051CAD6E25
:102D2000AD2A00009EA8FED767EC26F0E4CF06F09F
:102D3000E4CF05F0E4CF04F0E4CF03F0E4CF02F0F9
:102D4000E4CF01F0E4CF00F0E4CFD9FF120000C0DF
:102D5000E5FF01C0E5FF02C0E5FF03C0E5FF04C0D9
:102D6000E5FF006A6C0E0024016E026A030E022267
:102D700001C0E9FF02C0EAFFEF6A002A020E005C10
:102D8000F1E3006A0050020DF450026EF3CF01F03F
:102D9000390E0124036E040E0220046E03C0E9FF05
:102DA00004C0EAFFEE6AEF6A590E0124036E040EB6
:102DB0000220046E03C0E9FF04C0EAFFEE6AEF6A76
:102DC000930E0124036E040E0220046E03C0E9FF7B
:102DD00004C0EAFFEE6AEF6AB30E0124036E040E2C
:102DE0000220046E03C0E9FF04C0EAFFEE6AEF6A46
:102DF000D30E0126040E022201C0E9FF02C0EAFF41
:102E0000EE687F0EEF6E230E0024016E026A040E40
:102E1000022201C0E9FF02C0EAFFEF68002A100E9B
:102E2000005CD8A0AFD7AF0EC06EC16A010EC26EF3
:102E3000C282E4CF04F0E4CF03F0E4CF02F0E4CFA9
:102E400001F0E4CF00F0120043204120256420254A
:102E5000640A0000D9CFE5FFE1CFD9FF00C0E5FF4C
:102E600001C0E5FF02C0E5FF03C0E5FF04C0E5FFC8
:102E700005C0E5FF06C0E5FF07C0E5FF020EDBCF9A
:102E800000F0030EDBCF01F0040EDBCF02F0050EE5
:102E9000DBCF03F0E4C0E5F00001E3510001E55FA2
:102EA000E551046E0404E56F03C004F0056A030EE7
:102EB0000426D8B0052AE5C006F0076A0750800F3F
:102EC000F36E0550800FF35C02E10450065C02E2F1
:102ED000E8682ED0020E035C02E2E86A29D00306FD
:102EE0000350E56E77EC20F0E652046A0350045C70
:102EF00014E204500024056EE86A0120066EE86AB8
:102F0000022005C0E9FF06C0F3FF29EC26F0042AE1
:102F1000E56E77EC20F0E652E9D7E4C0E5F0000179
:102F2000E3510001E55FE551006E0004E56FE86ADA
:102F3000E4CF07F0E4CF06F0E4CF05F0E4CF04F0EF
:102F4000E4CF03F0E4CF02F0E4CF01F0E4CF00F0EF
:102F5000E4CFD9FF1200D9CFE5FFE1CFD9FF00C000
:102F6000E5FF01C0E5FF02C0E5FF03C0E5FF04C0C7
:102F7000E5FF05C0E5FF020EDBCF00F0030EDBCF5F
:102F800001F0040EDBCF02F00050020DF450036E8E
:102F9000F3CF00F0590E0024046E040E0320056EDA
:102FA00004C0E9FF05C0EAFF01C0EEFF02C0EFFF69
:102FB000930E0024046E040E0320056E04C0E9FF86
:102FC00005C0EAFFEECF04F0EFCF05F00150045C3E
:102FD000016E02500558026E000E0026030E0322F9
:102FE00000C0E9FF03C0EAFF01C0EEFF02C0EFFF2F
:102FF000D88002AED89004E3021E016CD8B4022A35
:103000000250800F800F02E1030E015C02E2016AB0
:10301000026A0150021007E100C0E9FF03C0EAFFA5
:10302000000EEE6AEF6AE4CF05F0E4CF04F0E4CFDF
:1030300003F0E4CF02F0E4CF01F0E4CF00F0E4CFFE
:10304000D9FF120000C0E5FF01C0E5FF02C0E5FFA7
:1030500003C0E5FF5CEC13F00EEC04F04FEC10F055
:103060005CEC13F0C4EC22F0006EF3CF01F0F4CF6F
:1030700002F0E9CF03F004013351005E3451015AEC
:103080003551025A3651035A039E3F0E035C08E144
:10309000FF0E025C05E1FF0E015C02E1FF0E005C29
:1030A00037E2C4EC22F0F3CF01F0F4CF02F0E9CF25
:1030B00003F0100F0401336F270E0120346F000E50
:1030C0000220356F000E0320366F010EE56E800E74
:1030D000E56E040EE56E790EE56EA0EC11F0040EBF
:1030E000E1267DEC0CF0006E0050D8B465EC06F0E3
:1030F0005CEC13F0800EE56E040EE56E790EE56E65
:1031000075EC0FF0030EE1265CEC13F00001E02BF0
:10311000E4CF03F0E4CF02F0E4CF01F0E4CF00F01D
:103120001200D9CFE5FFE1CFD9FF00C0E5FF01C014
:10313000E5FF02C0E5FF03C0E5FF020EDBCF00F0B4
:10314000030EDBCF01F0040EDBCF02F0050EDBCF68
:1031500003F0035003E11D0E036E02D0530E036E05
:1031600003C0E5FF00C0E9FF01C0F3FF0250B1EC6E
:1031700026F0E56A2D0EE56E0350E56E69EC22F04F
:10318000030EE126100EE56E2D0EE56E0350E56E82
:1031900069EC22F0030EE126080EE56E2D0EE56EB9
:1031A0000350E56E69EC22F0030EE1260B0EE56E8E
:1031B000310EE56E0350E56E69EC22F0030EE12658
:1031C000090EE56E2C0EE56E0350E56E69EC22F0FB
:1031D000030EE126810EE56E380EE56E0350E56EB6
:1031E00069EC22F0030EE126E4CF03F0E4CF02F015
:1031F000E4CF01F0E4CF00F0E4CFD9FF1200D9CF43
:10320000E5FFE1CFD9FF00C0E5FF01C0E5FF02C047
:10321000E5FF03C0E5FF04C0E5FF05C0E5FF06C00C
:10322000E5FF020EDBCF00F0030EDBCF01F0040E52
:10323000DBCF02F0050EDBCF03F0D88001AED890D3
:10324000046A0436045007E0011C066E001C056E7B
:10325000054A062A04D000C005F001C006F0D88057
:1032600003AED89007E3031C016E021C006E004AF7
:10327000012A04D002C000F003C001F00150E56E45
:103280000050E56E0650E56E0550E56EDFEC1BF074
:10329000006EF3CF01F0040EE12604500AE0011C99
:1032A000036E001C026E024A032A03C0F3FF0250A1
:1032B00003D001C0F3FF0050E4CF06F0E4CF05F0E7
:1032C000E4CF04F0E4CF03F0E4CF02F0E4CF01F068
:1032D000E4CF00F0E4CFD9FF1200D9CFE5FFE1CF72
:1032E000D9FF00C0E5FF01C0E5FF02C0E5FF03C054
:1032F000E5FF04C0E5FF05C0E5FF020EDBCF00F0EF
:10330000030EDBCF01F0040EDBCF02F0050EDBCFA6
:1033100003F06AC304F06BC305F003016A3F01D0F8
:103320006B2B0350E56E0450E56EDAEC23F0E652A9
:10333000E6526AC304F06BC305F003016A3F01D093
:103340006B2B0250056EE56E0450E56EDAEC23F04F
:10335000E652E6526AC304F06BC305F003016A3F0C
:1033600001D06B2B0150E56E0450E56EDAEC23F0D2
:10337000E652E6526AC304F06BC305F003016A3FEC
:1033800001D06B2B0050E56E0450E56EDAEC23F0B3
:10339000E652E652E4CF05F0E4CF04F0E4CF03F0C8
:1033A000E4CF02F0E4CF01F0E4CF00F0E4CFD9FFA6
:1033B0001200D8CFE5FFE0CFE5FFE56EF3CFE5FFE4
:1033C000F4CFE5FFE9CFE5FFEACFE5FFFACFE5FF70
:1033D000FBCFE5FF00C0E5FF01C0E5FFF6CFE5FF4D
:1033E000F6CFE5FFF7CFE5FFF8CFE5FFF5CFE5FF37
:1033F000E1CFE5FFE2CFE5FF0001E1510F01356FBD
:103400000001E2510F01366FD650336FD750346F41
:10341000F2A417D0E1C000F0E2C001F00050010FAB
:103420000001E16F000E0120E26FF294E1510F0103
:10343000356F0001E2510F01366FD650336FD75010
:10344000346FE4CFE2FFE4CFE1FFE4CFF5FFE4CF58
:10345000F8FFE4CFF7FFE4CFF6FFE4CFF6FFE4CFC9
:1034600001F0E4CF00F0E4CFFBFFE4CFFAFFE4CFBC
:10347000EAFFE4CFE9FFE4CFF4FFE4CFF3FFE45049
:10348000E4CFE0FFE4CFD8FF1000D9CFE5FFE1CFD4
:10349000D9FF00C0E5FF01C0E5FF02C0E5FF03C0A2
:1034A000E5FF04C0E5FF05C0E5FF06C0E5FF020E2D
:1034B000DBCF00F0030EDBCF01F00038E8441F0B38
:1034C000026E036A6C0E0226030E032202C0E9FF9D
:1034D00003C0EAFFEFCF04F00050056E070E05169B
:1034E000010E066E05500DE006E6E86CD890063633
:1034F000010FFDE306D0D89006BED8800632010F3A
:10350000FBE30450061202C0E9FF03C0EAFF06C055
:10351000EFFF230E0024026E036A0F0E032202C087
:10352000E9FF03C0EAFF01C0EFFF016A230E002696
:10353000040E012200C0E9FF01C0EAFFFF0EEF68A0
:10354000E4CF06F0E4CF05F0E4CF04F0E4CF03F0DD
:10355000E4CF02F0E4CF01F0E4CF00F0E4CFD9FFF4
:103560001200D9CFE5FFE1CFD9FF00C0E5FF01C0D0
:10357000E5FF02C0E5FF03C0E5FF04C0E5FF05C0AD
:10358000E5FF06C0E5FF020EDBCF00F0030EDBCF48
:1035900001F0040EDBCF02F00401375119E17CEC9D
:1035A00014F0036EF3CF04F0F4CF05F0E9CF06F08A
:1035B00003C0E5FF04C0F4FF05C0F6FF06C0F7FF37
:1035C00000C0E9FF01C0F3FF025018EC26F01ED046
:1035D00004013751010A1AE100C0E9FF01C0F3FFFD
:1035E00002501FEC24F0006EF3CF01F0F4CF02F094
:1035F000E9CF03F00350E56E0250E56E0150E56E31
:103600000050E56E6DEC19F0040EE126E4CF06F0F3
:10361000E4CF05F0E4CF04F0E4CF03F0E4CF02F010
:10362000E4CF01F0E4CF00F0E4CFD9FF120000C0F6
:10363000E5FF01C0E5FF02C0E5FFEEEC22F0006E01
:103640004C0A08E1EEEC22F0300A02E08B824DD009
:103650008B924BD00050530A08E1EEEC22F0300A76
:1036600002E08B8442D08B9440D00050450A25E183
:10367000000EE56E140EE56E300EE56E7FEC1FF069
:10368000030EE1260CEC27F0016E01C002F00106EA
:1036900002500FE0EEEC22F0E56AE56E000EE56EFA
:1036A000140EE56E320EE56E7FEC1FF0050EE1267E
:1036B000ECD70A0E39EC22F018D00050520A15E16E
:1036C000270EE56EE56A080EE56ECBEC12F0030EF0
:1036D000E126010EE56E800EE56E040EE56E790EB4
:1036E000E56E91EC18F0040EE126E4CF02F0E4CF91
:1036F00001F0E4CF00F01200D9CFE5FFE1CFD9FF10
:1037000000C0E5FF01C0E5FF02C0E5FF03C0E5FF23
:1037100004C0E5FF05C0E5FF06C0E5FF020EDBCFF4
:1037200000F0030EDBCF01F0040EDBCF02F0050E3C
:10373000DBCF03F0060EDBCF04F0070EDBCF05F086
:10374000080EDBCF06F0D88003AED89015E3065004
:103750000A0A12E104C0E9FF05C0EAFF2D0EEF6E70
:10376000044A052A031E021E011E006C05E1012AFF
:1037700003E1022AD8B4032A0650E56E0550E56E2F
:103780000450E56E0350E56E0250E56E0150E56EA3
:103790000050E56E99EC0EF0070EE126E4CF06F03E
:1037A000E4CF05F0E4CF04F0E4CF03F0E4CF02F07F
:1037B000E4CF01F0E4CF00F0E4CFD9FF1200D9CF7D
:1037C000E5FFE1CFD9FF00C0E5FF01C0E5FF02C082
:1037D000E5FF03C0E5FF04C0E5FF05C0E5FF06C047
:1037E000E5FF020EDBCF00F0030EDBCF01F0040E8D
:1037F000DBCF02F0050EDBCF03F0046A056A03504D
:10380000800BE844066E065011E102500226033692
:103810000350015C02E10250005C04E2D8900332E4
:10382000023204D0052A05C004F0E9D70350015C38
:1038300002E10250005C04E30250005E0350015AB2
:10384000D8900332023204C005F004060550EEE1C0
:1038500001C0F3FF0050E4CF06F0E4CF05F0E4CF61
:1038600004F0E4CF03F0E4CF02F0E4CF01F0E4CFC2
:1038700000F0E4CFD9FF1200D9CFE5FFE1CFD9FFA7
:1038800000C0E5FF01C0E5FF02C0E5FF03C0E5FFA2
:10389000020EDBCF00F0030EDBCF01F0040EDBCF16
:1038A00002F000C0E9FF01C0F3FF025029EC26F04E
:1038B000036E035029E0C6A610D00350E56E5EECFF
:1038C00024F0036EE652035002E0FD0E1ED064ECBD
:1038D00021F0C5AC14D0FE0E18D09E9600C0E9FFB2
:1038E00001C0F3FF025029EC26F0C96EC6889EA6DF
:1038F000FED7C7B404D0C7B002D0FE0E06D0002A4F
:10390000D0E3014A022ACDD7E86AE4CF03F0E4CF3E
:1039100002F0E4CF01F0E4CF00F0E4CFD9FF1200D1
:10392000D9CFE5FFE1CFD9FF00C0E5FF01C0E5FF3A
:1039300002C0E5FF03C0E5FF04C0E5FF05C0E5FFE9
:10394000020EDBCF00F0030EDBCF01F0040EDBCF65
:1039500002F0050EDBCF03F0046A03C005F0030696
:10396000055022E08DEC23F0056E05C0E5FF00C098
:10397000E9FF01C0F3FF0250B1EC26F0002A02E398
:10398000014A022A04C005F0C5A6E7D7A1A602D0C5
:10399000E8680BD0052A05C004F00350F5E0FEEC02
:1039A00023F0C5B8FED7F0D70450E4CF05F0E4CF3C
:1039B00004F0E4CF03F0E4CF02F0E4CF01F0E4CF71
:1039C00000F0E4CFD9FF120000C0E5FF01C0E5FF21
:1039D00002C0E5FF03C0E5FF77C300F0016A82C3C0
:1039E00002F0036A0250005E0350015AE56A800E3D
:1039F000E56E0150E56E0050E56EFFEC18F0006ECC
:103A0000040EE126000682C301F0430E39EC22F0D9
:103A1000200E39EC22F0005020E0600E0124026EEE
:103A2000036A000E032202C0E9FF03C0EAFFEFCFE2
:103A300002F0E56A0250E56E000EE56E4C0EE56E92
:103A4000E60EE56E7FEC1FF0050EE126012A01501F
:103A5000800A01E1016A0006DED7E4CF03F0E4CF7B
:103A600002F0E4CF01F0E4CF00F01200D9CFE5FF7F
:103A7000E1CFD9FF00C0E5FF01C0E5FF02C0E5FFCF
:103A800003C0E5FF04C0E5FF020EDBCF00F0030E2C
:103A9000DBCF01F0040EDBCF02F00401375111E15E
:103AA000D4EC21F0036EF3CF04F003C0E5FF04C0B3
:103AB000F4FF00C0E9FF01C0F3FF025083EC26F0E1
:103AC00016D004013751010A12E100C0E9FF01C01C
:103AD000F3FF0250B3EC25F0006EF3CF01F001507C
:103AE000E56E0050E56EFEEC1FF0E652E652E4CFC4
:103AF00004F0E4CF03F0E4CF02F0E4CF01F0E4CF30
:103B000000F0E4CFD9FF1200D9CFE5FFE1CFD9FF14
:103B100000C0E5FF01C0E5FF02C0E5FF03C0E5FF0F
:103B200004C0E5FF020EDBCF00F00038E8441F0BB5
:103B3000016E026A700E0126030E022201C0E9FF27
:103B400002C0EAFFEFCF01F0070E0016010E026E71
:103B5000000E036E005006E0E86CD8900236033683
:103B6000010FFCE3046A01500216045003160250D0
:103B70000310D880E866D890026A02360250D880D6
:103B8000E866D890026A02360250E4CF04F0E4CF2F
:103B900003F0E4CF02F0E4CF01F0E4CF00F0E4CF93
:103BA000D9FF1200CC0EF66E4D0EF76E000EF86EB9
:103BB0000900F550056E0900F550066E04E1056731
:103BC00002D01FEF1EF00900F550006E0900F550FD
:103BD000016E0900F550026E09000900F550E96E0A
:103BE0000900F550EA6E090009000900F550036E5E
:103BF0000900F550046E09000900F6CF07F0F7CF71
:103C000008F0F8CF09F000C0F6FF01C0F7FF02C0CE
:103C1000F8FF035002E1045007E00900F550EE6E92
:103C20000306F8E20406F9D707C0F6FF08C0F7FF5D
:103C300009C0F8FF050601E20606DEEF1DF01200DE
:103C4000D9CFE5FFE1CFD9FF00C0E5FF01C0E5FF17
:103C500002C0E5FF03C0E5FF04C0E5FF020EDBCFB5
:103C600000F00038E8441F0B016E026A6C0E01265A
:103C7000030E022201C0E9FF02C0EAFFEFCF03F00A
:103C8000070E0016010E046E00500DE006E6E86C0B
:103C9000D8900436010FFDE306D0D89004BED8803A
:103CA0000432010FFBE3041C006E0350001601C038
:103CB000E9FF02C0EAFF00C0EFFFE4CF04F0E4CF69
:103CC00003F0E4CF02F0E4CF01F0E4CF00F0E4CF62
:103CD000D9FF1200D9CFE5FFE1CFD9FF00C0E5FF42
:103CE00001C0E5FF02C0E5FF03C0E5FF04C0E5FF3A
:103CF00005C0E5FF020EDBCF00F00050010A22E113
:103D0000016A0150020DF450036EF3CF02F0B30EBE
:103D10000224046E040E0320056E04C0E9FF05C0F2
:103D2000EAFFEE687F0EEF6ED30E0226040E03222A
:103D300002C0E9FF03C0EAFFEE6AEF6A012A100E33
:103D4000015CDFE300C0E9F0E4CF05F0E4CF04F06C
:103D5000E4CF03F0E4CF02F0E4CF01F0E4CF00F0D1
:103D6000E4CFD9FF120000C0E5FF01C0E5FF02C0AB
:103D7000E5FF03C0E5FF04C0E5FF006A6E0E002406
:103D8000016E026A030E0222700E0024036E046AA2
:103D9000030E042203C0E9FF04C0EAFF010EEF6E28
:103DA00001C0E9FF02C0EAFFEF6E002A020E005CCC
:103DB000E5E3006A400E0024016E026A030E02224F
:103DC00001C0E9FF02C0EAFFEF68002A100E005CA4
:103DD000F1E3E4CF04F0E4CF03F0E4CF02F0E4CF6A
:103DE00001F0E4CF00F01200432073202564202569
:103DF000640A0000D9CFE5FFE1CFD9FF00C0E5FF9D
:103E000001C0E5FF02C0E5FF03C0E5FF04C0E5FF18
:103E100005C0E5FF020EDBCF00F0030EDBCF01F0A3
:103E2000040EDBCF02F0050EDBCF03F0060EDBCF76
:103E300004F0056A400E0026030E0522800E015E86
:103E4000070E01160138F00B026E070E041604501F
:103E5000022600C0E9FF05C0EAFF02C0EFFFE4CF81
:103E600005F0E4CF04F0E4CF03F0E4CF02F0E4CFB8
:103E700001F0E4CF00F0E4CFD9FF1200D8CFE5FF86
:103E8000E0CFE5FFE56EF3CFE5FFF4CFE5FFE9CF47
:103E9000E5FFEACFE5FFFACFE5FFFBCFE5FFF6CF81
:103EA000E5FFF6CFE5FFF7CFE5FFF8CFE5FFF5CF6C
:103EB000E5FFE1CFE5FFE2CFE5FF5CEC0BF0E4CFFF
:103EC000E2FFE4CFE1FFE4CFF5FFE4CFF8FFE4CF7A
:103ED000F7FFE4CFF6FFE4CFF6FFE4CFFBFFE4CF3C
:103EE000FAFFE4CFEAFFE4CFE9FFE4CFF4FFE4CF49
:103EF000F3FFE450E4CFE0FFE4CFD8FF1000D9CFC8
:103F0000E5FFE1CFD9FF00C0E5FF01C0E5FF02C03A
:103F1000E5FF020ED924006E000EDA20016E800E3D
:103F2000026E030E0026000E012202220250E56EF0
:103F30000150E56E0050E56E040EDBCFE5FF030E89
:103F4000DBCFE5FF020EDBCFE5FF03016351E56E3A
:103F50006251E56E6151E56E0EEC00F0006EF3CF3C
:103F600001F0090EE12601C0F3FF0050E4CF02F09A
:103F7000E4CF01F0E4CF00F0E4CFD9FF1200D9CFB5
:103F8000E5FFE1CFD9FF00C0E5FF01C0E5FF02C0BA
:103F9000E5FF03C0E5FF020EDBCF00F0030EDBCF31
:103FA00001F0040EDBCF02F0040137510DE187EC84
:103FB00025F0036E03C0E5FF00C0E9FF01C0F3FF79
:103FC0000250B1EC26F00FD004013751010A0BE189
:103FD00000C0E9FF01C0F3FF025029EC26F0E56EB6
:103FE000B4EC23F0E652E4CF03F0E4CF02F0E4CFE8
:103FF00001F0E4CF00F0E4CFD9FF1200D9CFE5FF04
:10400000E1CFD9FF00C0E5FF01C0E5FF02C0E5FF39
:1040100003C0E5FF020EDBCF00F0030EDBCF01F0A3
:104020006AC302F06BC303F003016A3F01D06B2B3C
:104030000150E56E0250E56EDAEC23F0E652E652EE
:104040006AC302F06BC303F003016A3F01D06B2B1C
:104050000050E56E0250E56EDAEC23F0E652E652CF
:10406000E4CF03F0E4CF02F0E4CF01F0E4CF00F0BE
:10407000E4CFD9FF120000C0E5FF01C0E5FF02C098
:10408000E5FFEEEC22F0006EEEEC22F0016ED00EB9
:1040900000260A0E005C05E30050026EF90E0224B1
:1040A000006ED00E01260A0E015C05E30150026E7F
:1040B000F90E0224016E080E005C12E2100E015C83
:1040C000D8B00ED00038F00B0124006E2AEC21F09D
:1040D000016E015005E10050E56E29EC25F0E65235
:1040E000E4CF02F0E4CF01F0E4CF00F01200D9CF2A
:1040F000E5FFE1CFD9FF00C0E5FF01C0E5FF02C049
:10410000E5FF03C0E5FF04C0E5FF020EDBCF00F0D2
:10411000E3C001F0026A014A022AE4C003F0046A23
:104120000150031803E10250041801E001D00ED041
:10413000000E0001E325016E026A010E022201C099
:10414000E9FF02C0EAFF00C0EFFFE32BE4CF04F079
:10415000E4CF03F0E4CF02F0E4CF01F0E4CF00F0CD
:10416000E4CFD9FF1200D9CFE5FFE1CFD9FF00C0DE
:10417000E5FF01C0E5FF02C0E5FF03C0E5FF04C0A5
:10418000E5FF020EDBCF00F0030EDBCF01F0040EE3
:10419000DBCF02F0050EDBCF03F0060EDBCF04F021
:1041A00000C0E9FF01C0F3FF025029EC26F0006EC9
:1041B0000450E56E0350E56E0050E56E69EC22F0A8
:1041C000030EE126E4CF04F0E4CF03F0E4CF02F0E5
:1041D000E4CF01F0E4CF00F0E4CFD9FF1200D9CF53
:1041E000E5FFE1CFD9FF00C0E5FF01C0E5FF02C058
:1041F000E5FF03C0E5FF020EDBCF00F0016A82C3DA
:1042000002F0036A0250002603500122E56A800E84
:10421000E56E0150E56E0050E56EFFEC18F0006EA3
:10422000F3CF01F0040EE126600E0026000E0122FD
:1042300000C0E9FF01C0EAFFEFCF00F00050E4CF7B
:1042400003F0E4CF02F0E4CF01F0E4CF00F0E4CFDC
:10425000D9FF120000C0E5FF01C0E5FF02C0E5FF85
:10426000010E006EEEEC22F0016E01C002F0015072
:1042700023E00050E56E59EC26F0016EE652015045
:1042800010E10A0E005C0BE20A0E006EE56E59ECBE
:1042900026F0016EE652015004E1E8680ED0E868AD
:1042A0000CD00150021802E0E86807D0002A1B0E6B
:1042B000005CD8E3E86801D0E86AE4CF02F0E4CF1C
:1042C00001F0E4CF00F0120000C0E5FF01C0E5FFFF
:1042D00002C0E5FF03C0E5FF04C0E5FF05C0E5FF40
:1042E000E80E006E030E016EFF0E00260122005044
:1042F000011010E0C5CF02F0036A1F0E0216046A17
:10430000C7B4042A056A0450021205500312025071
:104310000310EAE10001FE6B005003E1015001E1EE
:10432000FE2BE4CF05F0E4CF04F0E4CF03F0E4CFBC
:1043300002F0E4CF01F0E4CF00F01200D9CFE5FFA6
:10434000E1CFD9FF00C0E5FF01C0E5FF02C0E5FFF6
:10435000020EDBCF00F0030EDBCF01F07DEC24F08A
:104360000001FE5102E0E86816D00044FE0B026E28
:104370000150D880E866D890016A01360150D88093
:10438000E866D890016A0136015002120250E56ECB
:104390005EEC24F0E652E4CF02F0E4CF01F0E4CF8B
:1043A00000F0E4CFD9FF120000C0E5FF01C0E5FF37
:1043B00002C0E5FF03C0E5FF6AC300F06BC301F074
:1043C00003016A3F01D06B2B0050E56E59EC26F0DB
:1043D000E652036E026A6AC300F06BC301F0030188
:1043E0006A3F01D06B2B0050E56E59EC26F0E65287
:1043F000016A02120150031203C0F3FF0250E4CF1E
:1044000003F0E4CF02F0E4CF01F0E4CF00F01200BB
:104410000001E36B0001E46B0001E56994808B907F
:104420009480B06A3F0EAF6EB886AC8AAC84AC8C18
:10443000AC90AB8CAB8E0301796B0301736B030102
:10444000766B0301776B0301786B000EE56A59EC1C
:1044500026F00001E76FE6529F989F9A010E000137
:10446000E66F0301616B626B2F0E636F67EC26F0E2
:10447000120000C0E5FF01C0E5FF02C0E5FF006ECD
:10448000000E0001E825016E026A0F0E022201C033
:10449000E9FF02C0EAFF00C0EFFF220EE85DD8A0EE
:1044A000E82B00500A0A0EE10001E851E56E800E8B
:1044B000E56E0F0EE56E000EE56E2AEC17F0040EA9
:1044C000E126E86BE4CF02F0E4CF01F0E4CF00F0A6
:1044D0001200D9CFE5FFE1CFD9FF00C0E5FF01C051
:1044E000E5FF02C0E5FF020EDBCF00F0030EDBCFDD
:1044F00001F0040EDBCF02F0E56A0050E56E9EECA1
:1045000021F0E652E6520150E56E5EEC24F0E652F0
:104510000250E56E5EEC24F0E652FEEC26F0E4CFAD
:1045200002F0E4CF01F0E4CF00F0E4CFD9FF1200B5
:1045300000C0E5FF01C0E5FF03C0E5FFEEEC22F09F
:10454000010A1BE1EEEC22F0006A016EEEEC22F0B3
:10455000036A002603500122BD9A0050010BE8387F
:10456000F46EBD50EF0BF410BD6ED89001320032E6
:10457000D890013200320050BE6EE4CF03F0E4CF99
:1045800001F0E4CF00F012000001E1510401836F5B
:104590000001E2510401846FD650816FD750826FC1
:1045A00083510001E11905E1040184510001E21980
:1045B0000CE00001E1510401836F0001E2510401AC
:1045C000846FD650816FD750826F84C4E9FF83C453
:1045D000F4FF82C4F3FF04018151120000C0E5FF23
:1045E00001C0E5FF030177510301801905E00301D4
:1045F00077510301761902E1E86A15D077C300F01C
:104600000301772B016A600E0026000E012200C014
:10461000E9FF01C0EAFFEFCF00F07751800A02E125
:104620000301776B0050E4CF01F0E4CF00F01200FB
:1046300000C0E5FF06EC27F00401896B806B8983DD
:10464000006A89B3002A0050010BE844F46E8051DF
:10465000FD0BF410806FD58ED59CD59AD588D59654
:10466000D594D582D580F28AF184D08EF28EF28CE8
:10467000BA80FF0EBB68BA84E4CF00F01200D9CF35
:10468000E5FFE1CFD9FF00C0E5FF01C0E5FF020E65
:10469000DBCF00F00050020DF450016EF3CF00F0BC
:1046A000000E0026030E012200C0E9FF01C0EAFF50
:1046B000EECF00F0EFCF01F001C0F3FF0050E4CFE8
:1046C00001F0E4CF00F0E4CFD9FF1200D9CFE5FF2D
:1046D000E1CFD9FF00C0E5FF01C0E5FF020EDBCF4F
:1046E00000F00050020DF450016EF3CF00F0390ECF
:1046F0000026040E012200C0E9FF01C0EAFFEECF50
:1047000000F0EFCF01F001C0F3FF0050E4CF01F063
:10471000E4CF00F0E4CFD9FF120000C0E5FF01C0F4
:10472000E5FF02C0E5FF64EC21F0C586E80E006EEF
:10473000030E016EFF0E002601220050011005E05D
:10474000F3EC26F0026E0250F5E00001FE6B005023
:1047500003E1015001E1FE2BC950E4CF02F0E4CFA8
:1047600001F0E4CF00F01200D9CFE5FFE1CFD9FF8F
:1047700000C0E5FF01C0E5FF02C0E5FF020EDBCF90
:1047800000F06AC301F06BC302F003016A3F01D07D
:104790006B2B0050E56E0150E56EDAEC23F0E6522B
:1047A000E652E4CF02F0E4CF01F0E4CF00F0E4CF32
:1047B000D9FF1200D9CFE5FFE1CFD9FF00C0E5FF57
:1047C000020EDBCF00F0030EDBCFA8FF00C0A9FF75
:1047D000A69EA69CA684F29EF29C550EA76EAA0EDB
:1047E000A76EA682A6A202D00000FCD7A694F28EE5
:1047F000F28CE4CF00F0E4CFD9FF120000C0E5FF57
:1048000001C0E5FF64EC21F09E96C59AC588E80ECC
:10481000006E030E016EFF0E0026012200500110F3
:1048200002E09EA6F8D70001FE6B005003E10150A4
:1048300001E1FE2BE4CF01F0E4CF00F01200E8AE7E
:104840000AD0F3CFEAFFEE50EECFF3FFEECFF4FF46
:10485000EECFE9FF1200E8BC1BEF27F0E9CFF6FF2F
:10486000F3CFF7FFF86E0900F5500900F5CFF3FF1D
:104870000900F5CFF4FF0900F5CFE9FF120000C0F1
:10488000E5FF01C0E5FF0001E3510001E41902E189
:10489000E86A0FD0000E0001E425006E016A010EE7
:1048A000012200C0E9FF01C0EAFFEFCF00F0E42BD6
:1048B0000050E4CF01F0E4CF00F01200D9CFE5FFC3
:1048C000E1CFD9FF00C0E5FF020EDBCF00F0C69EAE
:1048D00000C0C9FFC6AE02D0E8680AD064EC21F07F
:1048E000C5BC03D00001FE5102E0E86801D0E86ACF
:1048F000E4CF00F0E4CFD9FF120000C0E5FF01C013
:10490000E5FF64EC21F0C580E80E006E030E016E39
:10491000FF0E002601220050011002E0C5B0F8D7BA
:104920000001FE6B005003E1015001E1FE2BE4CFDA
:1049300001F0E4CF00F01200F2CFEAFFF29EA69E53
:10494000A69CA684E9CFA9FFF3CFAAFFE4CFA8FFD6
:10495000C6EC26F0F4CFA8FFC6EC26F0F6CFA8FFF1
:10496000C6EC26F0F7CFA8FFC6EC26F0A694EABE68
:10497000F28E1200D9CFE5FFE1CFD9FF00C0E5FFED
:1049800001C0E5FF020EDBCF00F0016A400E0026F9
:10499000030E012200C0E9FF01C0EAFFFF0EEF682D
:1049A000E4CF01F0E4CF00F0E4CFD9FF1200F2CF62
:1049B000F6FFF29EA69EA69CE9CFA9FFF3CFAAFF21
:1049C000A680A850A94AAA2AA680A8CFF3FFA94A80
:1049D000AA2AA680A8CFF4FFA94AAA2AA680A8CF0F
:1049E000EAFFF6BEF28E1200E8AE08D0F3CFEAFF7F
:1049F000EE50EECFF3FFEECFF4FF1200E8BC23EF52
:104A000027F0E9CFF6FFF3CFF7FFF86E0900F55076
:104A10000900F5CFF3FF0900F5CFF4FF1200F2CF44
:104A2000EAFFF29EA69EA69CA684E9CFA9FFF3CF3B
:104A3000AAFFE4CFA8FFC6EC26F0F4CFA8FFC6EC8F
:104A400026F0F6CFA8FFC6EC26F0A694EABEF28EBA
:104A50001200D9CFE5FFE1CFD9FF00C0E5FF020E7C
:104A6000DBCF00F000C0E7F00050E56E000EE56A15
:104A7000DAEC23F0E652E652E4CF00F0E4CFD9FFBF
:104A80001200F2CFF6FFF29EA69EA69CE9CFA9FFE8
:104A9000F3CFAAFFA680A850A94AAA2AA680A8CF29
:104AA000F3FFA94AAA2AA680A8CFF4FFF6BEF28E89
:104AB000120000C0E5FF01C0E5FF600E030177258D
:104AC000006E016A000E012200C0E9FF01C0EAFF8A
:104AD000EFCF00F00050E4CF01F0E4CF00F012007F
:104AE000D9CFE5FFE1CFD9FF00C0E5FF020EDBCF54
:104AF00000F0610E005C05E37B0E005C02E2010E3B
:104B000001D0E86AE4CF00F0E4CFD9FF120000C082
:104B1000E5FF01C0E5FF6AC300F06BC301F00301CC
:104B20006A3F01D06B2B0050E56E59EC26F0E6523F
:104B3000E4CF01F0E4CF00F01200D9CFE5FFE1CFE0
:104B4000D9FF00C0E5FF020EDBCF00F000C0E6F0A9
:104B5000005004E167EC26F09D9A9D98E4CF00F0A8
:104B6000E4CFD9FF1200E8AE06D0F3CFEAFFEE5053
:104B7000EECFF3FF1200E8BC19EF27F0E9CFF6FF04
:104B8000F3CFF7FFF86E0900F5500900F5CFF3FFFA
:104B90001200F2CFEAFFF29EA69EA69CA684E9CF61
:104BA000A9FFF3CFAAFFE4CFA8FFC6EC26F0F4CF0D
:104BB000A8FFC6EC26F0A694EABEF28E120012EE12
:104BC000FFF022EEFFF0F86AA68EA69CE9680E0EB2
:104BD000EA6E0068000EED6A0050FDE1D2EC1DF0B7
:104BE00006EC00F0FFD7F2CFF6FFF29EA69EA69C41
:104BF000E9CFA9FFF3CFAAFFA680A850A94AAA2A05
:104C0000A680A8CFF3FFF6BEF28E1200F2CFEAFF25
:104C1000F29EA69EA69CA684E9CFA9FFF3CFAAFF89
:104C2000E4CFA8FFC6EC26F0A694EABEF28E1200EE
:104C3000E8AE0BD0F3CFEAFFE4CFEEFFF4CFEEFF08
:104C4000F6CFEEFFF7CFEEFF1200E8BC1DEF27F026
:104C50001200E8AE04D0F3CFEAFFEE501200E8BC39
:104C600017EF27F0E9CFF6FFF3CFF7FFF86E090053
:104C7000F55012000000000000FF000000000A00D4
:104C800002000000420000000000000000000000E0
:104C900000000000E8AE09D0F3CFEAFFE4CFEEFF5A
:104CA000F4CFEEFFF6CFEEFF1200E8BC25EF27F0C1
:104CB0001200D9CFE5FFE1CFD9FF020EDBCFA9FF6C
:104CC000A69CA69EA680A850E4CFD9FF1200ACA255
:104CD000FED79480AE500000AE50AB98AB88AB8648
:104CE0009D8A9D98120025642000F2CFF6FFF29E67
:104CF000A69EA69CE9CFA9FFF3CFAAFFA680A85045
:104D0000F6BEF28E1200E8AE07D0F3CFEAFFE4CF92
:104D1000EEFFF4CFEEFF1200E8BC21EF27F0120007
:104D2000700ED36E9B8CFF0E9268936894689668A1
:104D3000626AF19E120000C0E5FF2AEC21F0006ECD
:104D4000005001E1FF00E4CF00F012000F01456BBD
:104D5000900E0F01446F030E0F01436F0F01458F3B
:104D60001200E8AE05D0F3CFEAFFE4CFEEFF120069
:104D7000E8BC1FEF27F01200D9CFE5FFE1CFD9FF44
:104D8000020EDBCFECF0E4CFD9FF1200550EA76E78
:104D9000AA0EA76EA682A6B2FED7A94AAA2A010E1B
:104DA0000401376F1C0E03016A6F6B6B120064EC19
:104DB00021F09E96C58AC5889EA6FED712000401E2
:104DC000376B1C0E03016A6F6B6B12000100744C91
:104DD0000000E00000002000000064EC21F0C5822B
:104DE000C5B2FED71200C7A002D0010E01D0E86AFA
:104DF000120018EC23F008EC22F0120064EC21F011
:104E0000C5841200ACA2FED7AD6E120090EC26F065
:104E100012000301775112000301815112000001B9
:104E2000E6511200E8CF7FFF1200C96E120075EF45
:104E300026F0F3EF25F0D7EF24F09CEF24F006EFF7
:0E4E400026F0C9EF25F041EF25F00FEF25F029
:020000040030CA
:010006008574
:00000001FF
