:020000040000FA
:10000000C9EF12F0C96E1200ADEF0FF0C80000008A
:10001000000000FF000000001BEF11F0D9CFE5FF4A
:10002000E1CFD9FF00C0E5FF01C0E5FF02C0E5FF59
:1000300003C0E5FF04C0E5FF05C0E5FF06C0E5FF1E
:1000400007C0E5FF08C0E5FF09C0E5FF0AC0E5FFFE
:100050000BC0E5FF0CC0E5FF0DC0E5FF0EC0E5FFDE
:100060000FC0E5FF10C0E5FF11C0E5FF12C0E5FFBE
:1000700013C0E5FF14C0E5FF15C0E5FF16C0E5FF9E
:1000800017C0E5FF18C0E5FF19C0E5FF1AC0E5FF7E
:100090001BC0E5FF1CC0E5FF1DC0E5FF1EC0E5FF5E
:1000A000020EDBCF00F0030EDBCF01F0040EDBCF3E
:1000B00002F0050EDBCF03F0060EDBCF04F0070ED7
:1000C000DBCF05F0080EDBCF06F0090EDBCF07F023
:1000D0000A0EDBCF08F0096A0A6A02C00DF00D5063
:1000E000800A0DE1025004018F6F01508E6F0050A5
:1000F0008D6F040E016E8D0E006E800E026E03C0B9
:10010000E9FF04C0F3FF055013EC13F00B6E0B5026
:10011000D8B4C4EF03F00B50250A02E0ABEF03F0B4
:100120000C6A0D6A0E6A0F6A106A0A0E116E126A64
:10013000136A146A200E156E1668176A2B0E186E55
:10014000032A02E3044A052A03C0E9FF04C0F3FFBF
:10015000055013EC13F0196E250A13E11950E56EE2
:100160000250E56E0150E56E0050E56EF0EC08F0CF
:10017000040EE126094A0A2A032A02E3044A052A50
:10018000BED71950300A06E1300E156E032A02E37D
:10019000044A052A03C0E9FF04C0F3FF055013EC2D
:1001A00013F02D0A06E1010E146E032A02E3044A3D
:1001B000052A03C0E9FF04C0F3FF055013EC13F058
:1001C000200A08E1010E176E200E186E032A02E3C2
:1001D000044A052A03C0E9FF04C0F3FF055013ECED
:1001E00013F02B0A06E1010E176E032A02E3044AFC
:1001F000052A03C0E9FF04C0F3FF055013EC13F018
:10020000196E310E195C2BE33A0E195C28E203C01B
:1002100019F004C01AF005C01BF019C0E9FF1AC09C
:10022000F3FF1B5013EC13F01C6E300E1C5C11E33B
:100230003A0E1C5C0EE213500A0DF3CF1DF01C5059
:100240001D26D00E1D24136E192A02E31A4A1B2AFA
:10025000E4D719C003F01AC004F01BC005F003C0B6
:10026000E9FF04C0F3FF055013EC13F02E0A2DE153
:10027000032A02E3044A052A166A03C019F004C0DF
:100280001AF005C01BF019C0E9FF1AC0F3FF1B509C
:1002900013EC13F01C6E300E1C5C11E33A0E1C5C68
:1002A0000EE216500A0DF3CF1DF01C501D26D00E85
:1002B0001D24166E192A02E31A4A1B2AE4D719C014
:1002C00003F01AC004F01BC005F003C0E9FF04C02E
:1002D000F3FF055013EC13F0196E6C0A07E1010EE1
:1002E0000C6E032A02E3044A052A09D01950680A51
:1002F00006E1010E0E6E032A02E3044A052A03C03A
:10030000E9FF04C0F3FF055013EC13F0750A06E192
:10031000010E106E032A02E3044A052A03C0E9FF16
:1003200004C0F3FF055013EC13F0196E730A05E1D6
:10033000010E0D6E200E156E3FD01950780A03E1A4
:10034000100E116E39D01950580A05E1100E116EB9
:10035000010E126E31D01950630A02E1116A2CD0DD
:1003600019506F0A03E1080E116E26D01950660A63
:1003700003E1010E0F6E20D01950640A1DE01950E0
:10038000690A1AE0105005E0FF0E03260422052238
:1003900013D01950E56E0250E56E0150E56E005025
:1003A000E56EF0EC08F0040EE126094A0A2A032A59
:1003B00002E3044A052AA3D60D5021E00650030F9C
:1003C0000D6E000E0720196E000E08201A6E0DC06B
:1003D00006F019C007F01AC008F0FD0E0D26FF0E3A
:1003E00019221A220DC0E9FF19C0F3FF1A50DEECE2
:1003F00011F00D6EF3CF19F0F4CF1AF0FDD00F50BD
:100400000DE0000E1A6E080E196E100E0D6E040E21
:100410000626000E072208221668EED016680C5039
:1004200023E00650040F0C6E000E07200F6E000E26
:1004300008201B6E0CC006F00FC007F01BC008F0B0
:10044000FC0E0C26FF0E0F221B220CC0E9FF0FC072
:10045000F3FF1B5064EC11F00C6EF3CF0FF0F4CFF0
:100460001BF0E9CF1CF067D00E502FE00650020FB2
:100470000E6E000E07201D6E000E08201E6E0EC0B0
:1004800006F01DC007F01EC008F0FE0E0E26FF0E7F
:100490001D221E220EC0E9FF1DC0F3FF1E509DEC61
:1004A00012F00E6E0EC00CF00F6A1B6A1C6A11501F
:1004B0000A0A03E11050D8B43ED00C500E6E0EC0A4
:1004C0000CF00F6A1B6A1C6A36D00650020F0E6EC3
:1004D000000E07201D6E000E08201E6E0EC006F0D6
:1004E0001DC007F01EC008F0FE0E0E26FF0E1D22D6
:1004F0001E220EC0E9FF1DC0F3FF1E509DEC12F03E
:100500000E6EF3CF1DF00EC00CF01DC00FF0E86AA8
:100510001DBEFF0E1B6E1C6E11500A0A02E1105028
:100520000AE00C500E6E0F501D6E0EC00CF01DC078
:100530000FF01B6A1C6A040E196E240E0D6E800EDD
:100540001A6E1150D8B440D0105013E01150E56E1F
:10055000040EE56E240EE56E1C50E56E1B50E56E34
:100560000F50E56E0C50E56E2DEC05F0070EE12600
:1005700012D01150E56E040EE56E240EE56E1C508F
:10058000E56E1B50E56E0F50E56E0C50E56E13ECFA
:100590000CF0070EE12617502FE00DC0E9FF19C03F
:1005A000F3FF1A5013EC13F02D0A26E0FF0E0D2670
:1005B00019221A2218C0E5FF0DC0E9FF19C0F3FF88
:1005C0001A5080EC13F018D00CC0E5FF0DC0E9FF05
:1005D00019C0F3FF1A5080EC13F00D50010F0C6E90
:1005E000000E19200E6E000E1A20E56A0CC0E9FFFD
:1005F0000EC0F3FF80EC13F00DC00CF019C00EF02C
:100600001AC00FF013C010F0105010E00CC0E9FF3A
:100610000EC0F3FF0F5013EC13F0176E175006E0E7
:100620000C2A02E30E4A0F2A1006EED710C013F070
:1006300014501EE109C00CF00AC00EF010C00FF0FB
:100640000F5010E01550E56E0250E56E0150E56E5A
:100650000050E56EF0EC08F0040EE1260C4A0E2A7C
:100660000F06EED70CC009F00EC00AF00FC013F051
:1006700016C00CF00DC00DF019C00EF01AC00FF02E
:1006800009C010F00AC015F00DC0E9FF0EC0F3FF5D
:100690000F5013EC13F0166E1650D8B43ED00CC0A9
:1006A00016F0176A161E171E1650171005E00CC01C
:1006B00016F00C06165031E00DC0E9FF0EC0F3FF36
:1006C0000F5013EC13F0116E125010E01150E56E44
:1006D0005AEC12F0166EE652165004E0DF0E1114BA
:1006E000166E02D011C016F016C011F01150E56E52
:1006F0000250E56E0150E56E0050E56EF0EC08F03A
:10070000040EE1260D2A02E30E4A0F2A104A152A8A
:100710001350D8B4B9D71306B7D710C009F015C015
:100720000AF014502BE010C00CF015C00DF013C0EF
:100730000EF00E501FE0200EE56E0250E56E0150E7
:10074000E56E0050E56EF0EC08F0040EE1260C4A70
:100750000D2A0E06EED70B50E56E0250E56E0150E5
:10076000E56E0050E56EF0EC08F0040EE126094A53
:100770000A2A04D00CC009F00DC00AF0032A02E3D3
:10078000044A052A7FEF00F00AC0F3FF0950E4CFC6
:100790001EF0E4CF1DF0E4CF1CF0E4CF1BF0E4CF5B
:1007A0001AF0E4CF19F0E4CF18F0E4CF17F0E4CF5B
:1007B00016F0E4CF15F0E4CF14F0E4CF13F0E4CF5B
:1007C00012F0E4CF11F0E4CF10F0E4CF0FF0E4CF5B
:1007D0000EF0E4CF0DF0E4CF0CF0E4CF0BF0E4CF5B
:1007E0000AF0E4CF09F0E4CF08F0E4CF07F0E4CF5B
:1007F00006F0E4CF05F0E4CF04F0E4CF03F0E4CF5B
:1008000002F0E4CF01F0E4CF00F0E4CFD9FF120012
:100810003C4E4F20464C4F41543E000000C0E5FF87
:1008200001C0E5FF02C0E5FF03C0E5FF0F012B514A
:10083000D8B40AD19DA81DD09EA81BD004013A515E
:100840000F01351905E141EC13F00F01356BFCD0B8
:10085000000E04013A25006E016A040E012200C058
:10086000E9FF01C0EAFFEFCF31FF3A2B31CFADFFF7
:10087000EBD09EAAE9D0ABA205D00F01368141ECA6
:1008800013F0E2D0ABA405D00F01368341EC13F096
:10089000DBD0ABA048D0AECF31FF2CCF00F0016A47
:1008A000008E31CF02F0036A0250001803E10350BA
:1008B000011801E004D00F013689AB96C5D00F01B5
:1008C000315104E031510F012C1929E10F01369902
:1008D000AB960F01315103E00F01369702D00F01A3
:1008E000368731CF3CF433CF3DF40F013351006EE6
:1008F000000404013E6F600E04013D25006E016A94
:10090000000E012200C0E9FF01C0EAFF31CFEFFF76
:100910003D2B3D51800A02E104013D6B95D00F0152
:100920003699AB8691D0AECF31FF0F0136A921D0D9
:100930002CCF00F0016A008E31CF02F0036A025022
:10094000001803E10350011801E011D08B909D9A2B
:10095000AB980F01355104E1AD6A41EC13F007D0BB
:1009600000C4ADFF010E04013A6F9D886DD0AB86C7
:100970006BD00F01315104013C2704013D510401AA
:100980003E191BE104013C510CE13DC433FF0F0152
:1009900036B712D08B909D9AAB98AD6A41EC13F0AC
:1009A0000BD00F01368536B707D08B909D9AAB9848
:1009B000010EAD6E41EC13F047D004013D510F0123
:1009C000341908E10F0134510F01331903E041ECF0
:1009D00013F03AD033CF00F0016A004A012AE56AE9
:1009E000800EE56E0150E56E0050E56EFFEC09F0FB
:1009F000006E040EE12600500F01326F04013D1914
:100A00000FE131CF00F01F0E001404013E6F006EA5
:100A1000020E00243E6F0F01335104013E273E9F1A
:100A20003DC400F004013D2B016A600E0026000E5B
:100A3000012200C0E9FF01C0EAFF31CFEFFF3D51C5
:100A4000800A02E104013D6BE4CF03F0E4CF02F041
:100A5000E4CF01F0E4CF00F01200D9CFE5FFE1CF01
:100A6000D9FF00C0E5FF01C0E5FF02C0E5FF03C0FC
:100A7000E5FF04C0E5FF05C0E5FF06C0E5FF07C0D0
:100A8000E5FF08C0E5FF09C0E5FF0AC0E5FF0BC0B0
:100A9000E5FF0CC0E5FF0DC0E5FF0EC0E5FF0FC090
:100AA000E5FF020EDBCF00F0030EDBCF01F0040EFA
:100AB000DBCF02F0050EDBCF03F0060EDBCF04F038
:100AC000070EDBCF05F0080EDBCF06F0200E076E19
:100AD000086A06C009F00A6A0B6A0C6AE56AE56AE8
:100AE000E56A0950E56E0350E56E0250E56E01506F
:100AF000E56E0050E56E09EC06F00D6E080EE1267D
:100B0000300E0D263A0E0D5C05E30D500E6E270ECD
:100B10000E240D6EFF0E07260822E00E07240E6E2F
:100B2000000E08200F6E0EC0E9FF0FC0EAFF0DC0D7
:100B3000EFFF0C50E56E0B50E56E0A50E56E095064
:100B4000E56E0350E56E0250E56E0150E56E005013
:100B5000E56ED3EC07F0006EF3CF01F0F4CF02F0B6
:100B6000E9CF03F0080EE126005001100210031037
:100B7000D8A4AFD707C000F008C001F004C002F04D
:100B800005C003F000C004F001C005F0004A012ACE
:100B9000E00E0426000E052204C0E9FF05C0EAFFAE
:100BA000EFCF04F002C0E9FF03C0EAFF04C0EFFF8B
:100BB000024A032A000E015C02E1200E005CE2E31F
:100BC00002C0E9FF03C0EAFF000EEF6AE4CF0FF0B6
:100BD000E4CF0EF0E4CF0DF0E4CF0CF0E4CF0BF057
:100BE000E4CF0AF0E4CF09F0E4CF08F0E4CF07F057
:100BF000E4CF06F0E4CF05F0E4CF04F0E4CF03F057
:100C0000E4CF02F0E4CF01F0E4CF00F0E4CFD9FF6D
:100C10001200D9CFE5FFE1CFD9FF00C0E5FF01C049
:100C2000E5FF02C0E5FF03C0E5FF04C0E5FF05C026
:100C3000E5FF06C0E5FF07C0E5FF08C0E5FF09C006
:100C4000E5FF0AC0E5FF020EDBCF00F0030EDBCFAD
:100C500001F0040EDBCF02F0050EDBCF03F0060E31
:100C6000DBCF04F0070EDBCF05F0080EDBCF06F07C
:100C7000090EDBCF07F0086A0450051006100710B4
:100C800005E1E968F468F368E86847D0096A075045
:100C9000800BE8440A6E0A501BE104500426053616
:100CA000063607360750035C08E10650025C05E192
:100CB0000550015C02E10450005C06E2D890073266
:100CC00006320532043204D0092A09C008F0DFD701
:100CD0000750035C08E10650025C05E10550015C29
:100CE00002E10450005C08E30450005E0550015A24
:100CF0000650025A0750035AD8900732063205327E
:100D0000043208C009F008060950E2E103C0E9FF17
:100D100002C0F4FF01C0F3FF0050E4CF0AF0E4CFBB
:100D200009F0E4CF08F0E4CF07F0E4CF06F0E4CF19
:100D300005F0E4CF04F0E4CF03F0E4CF02F0E4CF19
:100D400001F0E4CF00F0E4CFD9FF120000C0E5FFCE
:100D500001C0E5FF02C0E5FF03C0E5FF04C0E5FFF9
:100D60000F0134510F01331901E16AD034CF00F083
:100D70000050016E0128006E009E600E0024016E7E
:100D8000026A000E022201C0E9FF02C0EAFFEFCFB3
:100D900040F41F0E0401401734CF3FF440510401CA
:100DA0003F273F51016E020E01243F6F3F9FA4EC8D
:100DB00010F0016E015003E1016A012A01D0016ABD
:100DC000A4EC10F00401406F40C402F0800E021643
:100DD00040C403F01F0E031603C004F003C040F428
:100DE000045003E133CF34FF3ED001501EE00250E7
:100DF00025E0A4EC10F0006E04014051016E0104E6
:100E0000406F0050420A1AE000504E0A03E1C1EC64
:100E10000DF014D00050460A03E175EC13F00ED02B
:100E20000050490A0BE1FF0009D034CF41F40250D1
:100E300003E082EC0EF002D08BEC13F03FC434FFE1
:100E40000F0128510F01291906E00F01355103E167
:100E50003EEC07F008D08BB006D00F01355103E10E
:100E6000ACB241EC13F0E4CF04F0E4CF03F0E4CFF4
:100E700002F0E4CF01F0E4CF00F0120000C0E5FF83
:100E800001C0E5FF02C0E5FF03C0E5FF04C0E5FFC8
:100E9000ACA27ED084EC11F0006E005005E10F0191
:100EA000296B0F01286B74D029CF01F00050012667
:100EB00084EC11F0026E0050036E0304006E0250C9
:100EC000230A1FE1010E005CD8A060D084EC11F071
:100ED000026E690A03E14AEC10F058D00250720A1F
:100EE00003E141EC13F052D00250730A01E04ED0FE
:100EF0008B80AB869D8A9D98AE50AE50AB98AB88E8
:100F000045D00250430A05E00250420A01E03ED0BB
:100F100006D000C003F0046A038E0350006E00C0C8
:100F200039F400500401006F010E04013A6F0F0103
:100F30002951011814E084EC11F0026E04013927E4
:100F4000000E04013A25006E036A040E032200C05D
:100F5000E9FF03C0EAFF02C0EFFF3A2BE8D7000E1B
:100F600004013A25006E026A040E02220401391DB2
:100F7000036E032A00C0E9FF02C0EAFF03C0EFFFCF
:100F800004013A2B3AC435FF0F012F6B01C029FF32
:100F9000E4CF04F0E4CF03F0E4CF02F0E4CF01F0BB
:100FA000E4CF00F01200D9CFE5FFE1CFD9FF00C0B8
:100FB000E5FF01C0E5FF02C0E5FF03C0E5FF04C097
:100FC000E5FF05C0E5FF06C0E5FF07C0E5FF08C077
:100FD000E5FF09C0E5FF0AC0E5FF0BC0E5FF0CC057
:100FE000E5FF0DC0E5FF020EDBCF00F0030EDBCF07
:100FF00001F0040EDBCF02F0050EDBCF03F0060E8E
:10100000DBCF04F0070EDBCF05F0080EDBCF06F0D8
:10101000090EDBCF07F0086A096A0A6A0B6A200E1C
:101020000C6E0350800BE8440D6E00500026013614
:10103000023603360850082609360A360B360D509C
:10104000D8A4088007500B5C08E106500A5C05E153
:101050000550095C02E10450085C09E30450085E95
:101060000550095A06500A5A07500B5A00800C04C2
:101070000D6E0DC00CF00D50D4E103C0E9FF02C0AD
:10108000F4FF01C0F3FF0050E4CF0DF0E4CF0CF00B
:10109000E4CF0BF0E4CF0AF0E4CF09F0E4CF08F09E
:1010A000E4CF07F0E4CF06F0E4CF05F0E4CF04F09E
:1010B000E4CF03F0E4CF02F0E4CF01F0E4CF00F09E
:1010C000E4CFD9FF120000C0E5FF01C0E5FF03C077
:1010D000E5FF04C0E5FF05C0E5FF06C0E5FF07C06A
:1010E000E5FF08C0E5FF09C0E5FF0AC0E5FF0BC04A
:1010F000E5FF90C400F091C401F00401903F01D0DD
:10110000912B0050E56E33EC13F0E652076E046A43
:10111000056A066A90C400F091C401F00401903F92
:1011200001D0912B0050E56E33EC13F0E6520B6AC0
:101130000A6E086A0850041205120A5006120B5073
:10114000071290C400F091C401F00401903F01D057
:10115000912B0050E56E33EC13F0E652036E006AFB
:1011600003C001F0E86A03BEFF0E086E096E00506E
:10117000041201500512085006120950071290C4BB
:1011800000F091C401F00401903F01D0912B005078
:10119000E56E33EC13F0E652016A041201500512B9
:1011A0000612071207C0E9FF06C0F4FF05C0F3FFEF
:1011B0000450E4CF0BF0E4CF0AF0E4CF09F0E4CF21
:1011C00008F0E4CF07F0E4CF06F0E4CF05F0E4CF79
:1011D00004F0E4CF03F0E4CF01F0E4CF00F012001C
:1011E000D9CFE5FFE1CFD9FF00C0E5FF01C0E5FFA2
:1011F00002C0E5FF03C0E5FF04C0E5FF05C0E5FF51
:1012000006C0E5FF07C0E5FF020EDBCF00F0030ECE
:10121000DBCF01F0040EDBCF02F0050EDBCF03F0D5
:1012200002C006F00650046E800A33E100C0E9FFF8
:1012300001C0F3FF0250DEEC11F0056EF3CF06F0B3
:10124000F4CF07F003C0E5FF05C0E9FF06C0F3FFD8
:10125000075080EC13F000C0E9FF01C0F3FF02501B
:10126000DEEC11F0056EF3CF06F0F4CF07F0052A9F
:1012700002E3064A072A05C0E5FF06C0F4FF07C0DF
:10128000F6FF00C0E9FF01C0F3FF025024EC13F0A9
:1012900020D004C000F000AA1CD0007A0050046ED8
:1012A00004E10350BEEC13F014D00450010A04E131
:1012B000035002EC00F00DD004500F0A04E103507B
:1012C00019EC10F006D004500E0A03E10350CEECE6
:1012D00013F0E4CF07F0E4CF06F0E4CF05F0E4CF5D
:1012E00004F0E4CF03F0E4CF02F0E4CF01F0E4CF68
:1012F00000F0E4CFD9FF1200D9CFE5FFE1CFD9FF4D
:1013000000C0E5FF01C0E5FF02C0E5FF03C0E5FF47
:1013100004C0E5FF05C0E5FF06C0E5FF07C0E5FF27
:10132000020EDBCF00F0030EDBCF01F0040EDBCFAB
:1013300002F0050EDBCF03F029CF2AFF0F01285161
:101340000F012A5F2A51046E04042A6F03C004F0BF
:10135000056A030E0426D8B0052A2ACF06F0076ACC
:101360000750800FF36E0550800FF35C02E10450CC
:10137000065C02E2E86830D0020E035C02E2E86A32
:101380002BD00350046E0404036EE56EFCEC0EF0EB
:10139000E652046A0350045C14E204500024056E13
:1013A000E86A0120066EE86A022005C0E9FF06C06F
:1013B000F3FF13EC13F0042AE56EFCEC0EF0E6529A
:1013C000E9D729CF2AFF0F0128510F012A5F2A519F
:1013D000006E00042A6FE86AE4CF07F0E4CF06F05D
:1013E000E4CF05F0E4CF04F0E4CF03F0E4CF02F063
:1013F000E4CF01F0E4CF00F0E4CFD9FF1200D9CF61
:10140000E5FFE1CFD9FF00C0E5FF01C0E5FF02C065
:10141000E5FF03C0E5FF04C0E5FF05C0E5FF06C02A
:10142000E5FF020EDBCF00F0030EDBCF01F0040E70
:10143000DBCF02F0050EDBCF03F0D88001AED890F1
:10144000046A0436045007E0011C066E001C056E99
:10145000054A062A04D000C005F001C006F0D88075
:1014600003AED89007E3031C016E021C006E004A15
:10147000012A04D002C000F003C001F00150E56E63
:101480000050E56E0650E56E0550E56E76EC0CF00A
:10149000006EF3CF01F0040EE12604500AE0011CB7
:1014A000036E001C026E024A032A03C0F3FF0250BF
:1014B00003D001C0F3FF0050E4CF06F0E4CF05F005
:1014C000E4CF04F0E4CF03F0E4CF02F0E4CF01F086
:1014D000E4CF00F0E4CFD9FF120000C0E5FF01C067
:1014E000E5FF02C0E5FF03C0E5FFA6EC06F07AECDD
:1014F00010F0006EF3CF01F0F4CF02F0E9CF03F06B
:1015000004013051005E3151015A3251025A3351B7
:10151000035A039E3F0E035C08E1FF0E025C05E1E7
:10152000FF0E015C02E1FF0E005CD8B039D07AEC0E
:1015300010F0F3CF01F0F4CF02F0E9CF03F0880F01
:101540000401306F130E0120316F000E0220326F44
:10155000000E0320336F0F012451006E0028246F0A
:101560000F0123510F01245D1BE3246B0F01255153
:10157000006E0028256F006A80B0002A25CF02F097
:10158000E56A0050E56EE56A0250E56E000EE56E14
:10159000170EE56E3C0EE56E03EC0EF0070EE1262D
:1015A000E4CF03F0E4CF02F0E4CF01F0E4CF00F0A9
:1015B0001200D9CFE5FFE1CFD9FF00C0E5FF01C0A0
:1015C000E5FF02C0E5FF03C0E5FF04C0E5FF05C07D
:1015D000E5FF020EDBCF00F0030EDBCF01F0040EBF
:1015E000DBCF02F0050EDBCF03F090C404F091C412
:1015F00005F00401903F01D0912B0350E56E04509B
:10160000E56E40EC11F0E652E65290C404F091C44D
:1016100005F00401903F01D0912B0250056EE56E5C
:101620000450E56E40EC11F0E652E65290C404F02E
:1016300091C405F00401903F01D0912B0150E56E5B
:101640000450E56E40EC11F0E652E65290C404F00E
:1016500091C405F00401903F01D0912B0050E56E3C
:101660000450E56E40EC11F0E652E652E4CF05F08E
:10167000E4CF04F0E4CF03F0E4CF02F0E4CF01F0D4
:10168000E4CF00F0E4CFD9FF120000C0E5FF01C0B5
:10169000E5FF02C0E5FF03C0E5FF04C0E5FFB9ECCC
:1016A00013F094928B927AEC10F0F3CF01F0F4CF18
:1016B00002F0E9CF03F0880F0401306F130E012010
:1016C000316F000E0220326F000E0320336F9280C4
:1016D000800E006E0F0E016E0F0E036E380E002688
:1016E00003500122800E026E0F0E036E800E005E0C
:1016F0000350015A0F0E046E380E022604500322C6
:101700000F0E046E800E025E0450035A02C0E9FF01
:1017100003C0EAFFEFCF02F0029000C0E9FF01C072
:10172000EAFF02C0EFFFE4CF04F0E4CF03F0E4CF20
:1017300002F0E4CF01F0E4CF00F012004348656C02
:101740006C6F212074323D202564204B313D2025D3
:10175000640A0000430025630000D9CFE5FFE1CF14
:10176000D9FF00C0E5FF01C0E5FF02C0E5FF03C0EF
:10177000E5FF04C0E5FF05C0E5FF06C0E5FF020E7A
:10178000DBCF00F0030EDBCF01F0040EDBCF02F065
:101790000401885119E163EC08F0036EF3CF04F003
:1017A000F4CF05F0E9CF06F003C0E5FF04C0F4FF75
:1017B00005C0F6FF06C0F7FF00C0E9FF01C0F3FF58
:1017C000025002EC13F01ED004018851010A1AE104
:1017D00000C0E9FF01C0F3FF025064EC11F0006E9D
:1017E000F3CF01F0F4CF02F0E9CF03F00350E56E40
:1017F0000250E56E0150E56E0050E56ED9EC0AF03E
:10180000040EE126E4CF06F0E4CF05F0E4CF04F0C7
:10181000E4CF03F0E4CF02F0E4CF01F0E4CF00F036
:10182000E4CFD9FF1200D9CFE5FFE1CFD9FF00C047
:10183000E5FF01C0E5FF02C0E5FF03C0E5FF04C00E
:10184000E5FF05C0E5FF06C0E5FF020EDBCF00F0B7
:10185000030EDBCF01F0040EDBCF02F0050EDBCF71
:1018600003F0060EDBCF04F0070EDBCF05F0080E09
:10187000DBCF06F0D88003AED89015E306500A0AF5
:1018800012E104C0E9FF05C0EAFF2D0EEF6E044A25
:10189000052A031E021E011E006C05E1012A03E158
:1018A000022AD8B4032A0650E56E0550E56E0450AE
:1018B000E56E0350E56E0250E56E0150E56E005096
:1018C000E56E2DEC05F0070EE126E4CF06F0E4CF3F
:1018D00005F0E4CF04F0E4CF03F0E4CF02F0E4CF6E
:1018E00001F0E4CF00F0E4CFD9FF1200D9CFE5FF3B
:1018F000E1CFD9FF00C0E5FF01C0E5FF02C0E5FF71
:1019000003C0E5FF04C0E5FF05C0E5FF06C0E5FF35
:10191000020EDBCF00F0030EDBCF01F0040EDBCFB5
:1019200002F0050EDBCF03F0046A056A0350800B5A
:10193000E844066E065011E10250022603360350B9
:10194000015C02E10250005C04E2D89003320232F2
:1019500004D0052A05C004F0E9D70350015C02E178
:101960000250005C04E30250005E0350015AD8901C
:101970000332023204C005F004060550EEE101C056
:10198000F3FF0050E4CF06F0E4CF05F0E4CF04F01D
:10199000E4CF03F0E4CF02F0E4CF01F0E4CF00F0B5
:1019A000E4CFD9FF120000C0E5FF01C0E5FF02C08F
:1019B000E5FF03C0E5FF34CF00F0016A41C402F047
:1019C000036A0250005E0350015AE56A800EE56E1C
:1019D0000150E56E0050E56EFFEC09F0006E040E5C
:1019E000E126000641C401F0430E19EC10F0200E70
:1019F00019EC10F0005020E0600E0124026E036A22
:101A0000000E032202C0E9FF03C0EAFFEFCF02F09D
:101A1000E56A0250E56E000EE56E260EE56E9A0E42
:101A2000E56E03EC0EF0050EE126012A0150800A56
:101A300001E1016A0006DED7E4CF03F0E4CF02F053
:101A4000E4CF01F0E4CF00F01200D9CFE5FFE1CF01
:101A5000D9FF00C0E5FF01C0E5FF02C0E5FF03C0FC
:101A6000E5FF04C0E5FF020EDBCF00F0030EDBCF85
:101A700001F0040EDBCF02F00401885111E1E5EC26
:101A80000FF0036EF3CF04F003C0E5FF04C0F4FFD2
:101A900000C0E9FF01C0F3FF02505DEC13F016D067
:101AA00004018851010A12E100C0E9FF01C0F3FFFF
:101AB00002509DEC12F0006EF3CF01F00150E56E84
:101AC0000050E56EBFEC0EF0E652E652E4CF04F0B3
:101AD000E4CF03F0E4CF02F0E4CF01F0E4CF00F074
:101AE000E4CFD9FF1200580EF66E270EF76E000EE7
:101AF000F86E0900F550056E0900F550066E04E118
:101B0000056702D0C0EF0DF00900F550006E090026
:101B1000F550016E0900F550026E09000900F550FC
:101B2000E96E0900F550EA6E090009000900F55058
:101B3000036E0900F550046E09000900F6CF07F0A6
:101B4000F7CF08F0F8CF09F000C0F6FF01C0F7FFAB
:101B500002C0F8FF035002E1045007E00900F5500D
:101B6000EE6E0306F8E20406F9D707C0F6FF08C0D8
:101B7000F7FF09C0F8FF050601E206067FEF0DF04A
:101B8000120000C0E5FF01C0E5FF02C0E5FFA4ECC4
:101B900010F0006EA4EC10F0016E0050026ED00E3A
:101BA0000224006E0A0E005C05E30050026EF90E7E
:101BB0000224006E0150026ED00E0224016E0A0E45
:101BC000015C05E30150026EF90E0224016E080E5D
:101BD000005C12E2100E015CD8B00ED00038F00BA1
:101BE0000124006E73EC0FF0016E015005E100500E
:101BF000E56E13EC12F0E652E4CF02F0E4CF01F010
:101C0000E4CF00F01200D9CFE5FFE1CFD9FF00C04B
:101C1000E5FF01C0E5FF02C0E5FF020ED924006E1A
:101C2000000EDA20016E800E026E030E0026000EFA
:101C3000012202220250E56E0150E56E0050E56E71
:101C4000040EDBCFE5FF030EDBCFE5FF020EDBCF9B
:101C5000E5FF04018751E56E8651E56E8551E56E1D
:101C60000EEC00F0006EF3CF01F0090EE12601C08A
:101C7000F3FF0050E4CF02F0E4CF01F0E4CF00F036
:101C8000E4CFD9FF1200D9CFE5FFE1CFD9FF00C0E3
:101C9000E5FF01C0E5FF02C0E5FF03C0E5FF020E5E
:101CA000DBCF00F0030EDBCF01F0040EDBCF02F040
:101CB000040188510DE171EC12F0036E03C0E5FFE1
:101CC00000C0E9FF01C0F3FF025080EC13F00FD019
:101CD00004018851010A0BE100C0E9FF01C0F3FFD4
:101CE000025013EC13F0E56EF5EC10F0E652E4CF81
:101CF00003F0E4CF02F0E4CF01F0E4CF00F0E4CF52
:101D0000D9FF120000C0E5FF01C0E5FFA4EC10F010
:101D1000006E4C0A08E1A4EC10F0300A02E08B825D
:101D200029D08B9227D00050450A24E1000EE56EA1
:101D3000170EE56E540EE56E03EC0EF0030EE12671
:101D4000C8EC13F0006E00C001F0000601500FE077
:101D5000A4EC10F0E56AE56E000EE56E170EE56E78
:101D6000560EE56E03EC0EF0050EE126ECD70A0EDA
:101D700019EC10F0E4CF01F0E4CF00F01200D9CF5D
:101D8000E5FFE1CFD9FF00C0E5FF01C0E5FF02C0DC
:101D9000E5FF03C0E5FF020EDBCF00F0030EDBCF53
:101DA00001F090C402F091C403F00401903F01D00F
:101DB000912B0150E56E0250E56E40EC11F0E652B9
:101DC000E65290C402F091C403F00401903F01D0A8
:101DD000912B0050E56E0250E56E40EC11F0E6529A
:101DE000E652E4CF03F0E4CF02F0E4CF01F0E4CF19
:101DF00000F0E4CFD9FF1200D9CFE5FFE1CFD9FF42
:101E000000C0E5FF01C0E5FF02C0E5FF03C0E5FF3C
:101E100004C0E5FF020EDBCF00F028CF01F0026A1C
:101E2000014A022A29CF03F0046A0150031803E192
:101E30000250041801E001D00ED0000E0F01282539
:101E4000016E026A010E022201C0E9FF02C0EAFF30
:101E500000C0EFFF282BE4CF04F0E4CF03F0E4CF81
:101E600002F0E4CF01F0E4CF00F0E4CFD9FF12009C
:101E7000D9CFE5FFE1CFD9FF00C0E5FF01C0E5FF05
:101E800002C0E5FF03C0E5FF020EDBCF00F0016AF0
:101E900041C402F0036A0250002603500122E56AA1
:101EA000800EE56E0150E56E0050E56EFFEC09F026
:101EB000006EF3CF01F0040EE126600E0026000E46
:101EC000012200C0E9FF01C0EAFFEFCF00F000509F
:101ED000E4CF03F0E4CF02F0E4CF01F0E4CF00F070
:101EE000E4CFD9FF120000C0E5FF01C0E5FF02C04A
:101EF000E5FF010E006EA4EC10F0016E01C002F0CF
:101F0000015023E00050E56E33EC13F0016EE65211
:101F1000015010E10A0E005C0BE20A0E006EE56E45
:101F200033EC13F0016EE652015004E1E8680ED084
:101F3000E8680CD00150021802E0E86807D0002AD7
:101F40001B0E005CD8E3E86801D0E86AE4CF02F039
:101F5000E4CF01F0E4CF00F01200F3CFE5FFF4CFBF
:101F6000E5FFE9CFE5FFEACFE5FFFACFE5FFFBCFDD
:101F7000E5FF0F0126510401366F0F0127510401BF
:101F8000376FD650346FD750356FF2A411D00F0190
:101F9000263F01D0272BF2940F0126510401366F02
:101FA0000F0127510401376FD650346FD750356F6A
:101FB000E4CFFBFFE4CFFAFFE4CFEAFFE4CFE9FF91
:101FC000E4CFF4FFE4CFF3FF110000C0E5FF01C050
:101FD000E5FF02C0E5FF03C0E5FF90C400F091C437
:101FE00001F00401903F01D0912B0050E56E33ECDD
:101FF00013F0E652036E026A90C400F091C401F03F
:102000000401903F01D0912B0050E56E33EC13F0AA
:10201000E652016A02120150031203C0F3FF02509C
:10202000E4CF03F0E4CF02F0E4CF01F0E4CF00F01E
:10203000120000C0E5FF01C0E5FF02C0E5FF006E31
:10204000000E0F012D25016E026A0F0E022201C043
:10205000E9FF02C0EAFF00C0EFFF220E2D5D01E2A2
:102060002D2B00500A0A0FE10F012D51E56E800E55
:10207000E56E0F0EE56E000EE56E7CEC09F0040EC9
:10208000E1260F012D6BE4CF02F0E4CF01F0E4CFA5
:1020900000F012000F01286B0F01296B0F012A6954
:1020A0008B809490B06A3F0EAF6EB886AC8AAC84D9
:1020B000AC8CAC90AB8CAB8E0F01366B0F01306BE0
:1020C0000F01336B0F01346B0F01356B000EE56AA6
:1020D00033EC13F00F012C6FE6529F989F9A010E7C
:1020E0000F012B6F0401856B866B2F0E876F41EC00
:1020F00013F012000F0126510401836F0F012751C5
:102100000401846FD650816FD750826F83510F01C5
:10211000261905E1040184510F0127190CE00F0174
:1021200026510401836F0F0127510401846FD6509B
:10213000816FD750826F84C4E9FF83C4F4FF82C4E7
:10214000F3FF04018151120000C0E5FF01C0E5FF6B
:102150000F01345104013F1905E00F0134510F0103
:10216000331902E1E86A15D034CF00F00F01342BA7
:10217000016A600E0026000E012200C0E9FF01C0C6
:10218000EAFFEFCF00F03451800A02E10F01346B17
:102190000050E4CF01F0E4CF00F0120000C0E5FFF2
:1021A000C2EC13F00401896B806B8983006A89B3E8
:1021B000002A0050010BE844F46E8051FD0BF4102E
:1021C000806FD58ED59CD59AD588D596D594D58255
:1021D000D580F28AF184D08EF28EF28CBA80FF0E16
:1021E000BB68BA84E4CF00F01200D9CFE5FFE1CF9D
:1021F000D9FF00C0E5FF01C0E5FF02C0E5FF020E08
:10220000DBCF00F090C401F091C402F00401903FD4
:1022100001D0912B0050E56E0150E56E40EC11F0BD
:10222000E652E652E4CF02F0E4CF01F0E4CF00F052
:10223000E4CFD9FF1200D8CFE5FFE0CFE5FFE56E90
:10224000F3CFE5FFF4CFE5FFE9CFE5FFEACFE5FF08
:10225000FACFE5FFFBCFE5FF0EEC04F0E4CFFBFF88
:10226000E4CFFAFFE4CFEAFFE4CFE9FFE4CFF4FFE5
:10227000E4CFF3FFE450E4CFE0FFE4CFD8FF100059
:10228000D9CFE5FFE1CFD9FF00C0E5FF020EDBCFDC
:1022900000F0030EDBCFA8FF00C0A9FFA69EA69CFE
:1022A000A684F29EF29C550EA76EAA0EA76EA68279
:1022B000A6A202D00000FCD7A694F28EF28CE4CF46
:1022C00000F0E4CFD9FF1200E8AE0AD0F3CFEAFF66
:1022D000EE50EECFF3FFEECFF4FFEECFE9FF1200AA
:1022E000E8BCD5EF13F0E9CFF6FFF3CFF7FFF86EB8
:1022F0000900F5500900F5CFF3FF0900F5CFF4FF11
:102300000900F5CFE9FF120000C0E5FF01C0E5FFBD
:102310000F0128510F01291902E1E86A0FD0000EC0
:102320000F012925006E016A010E012200C0E9FF9C
:1023300001C0EAFFEFCF00F0292B0050E4CF01F0FD
:10234000E4CF00F01200F2CFEAFFF29EA69EA69C18
:10235000A684E9CFA9FFF3CFAAFFE4CFA8FF94ECAE
:1023600013F0F4CFA8FF94EC13F0F6CFA8FF94EC91
:1023700013F0F7CFA8FF94EC13F0A694EABEF28E08
:102380001200F2CFF6FFF29EA69EA69CE9CFA9FF0F
:10239000F3CFAAFFA680A850A94AAA2AA680A8CF50
:1023A000F3FFA94AAA2AA680A8CFF4FFA94AAA2A1D
:1023B000A680A8CFEAFFF6BEF28E1200E8AE08D0E3
:1023C000F3CFEAFFEE50EECFF3FFEECFF4FF1200B3
:1023D000E8BCDDEF13F0E9CFF6FFF3CFF7FFF86EBF
:1023E0000900F5500900F5CFF3FF0900F5CFF4FF20
:1023F0001200F2CFEAFFF29EA69EA69CA684E9CF29
:10240000A9FFF3CFAAFFE4CFA8FF94EC13F0F4CF19
:10241000A8FF94EC13F0F6CFA8FF94EC13F0A69469
:10242000EABEF28E1200D9CFE5FFE1CFD9FF00C09E
:10243000E5FF020EDBCF00F000C02CFF0050E56E80
:10244000000EE56A40EC11F0E652E652E4CF00F0EF
:10245000E4CFD9FF1200F2CFF6FFF29EA69EA69C13
:10246000E9CFA9FFF3CFAAFFA680A850A94AAA2ABC
:10247000A680A8CFF3FFA94AAA2AA680A8CFF4FF76
:10248000F6BEF28E120000C0E5FF01C0E5FF600E4F
:102490000F013425006E016A000E012200C0E9FF21
:1024A00001C0EAFFEFCF00F00050E4CF01F0E4CF2D
:1024B00000F01200D9CFE5FFE1CFD9FF00C0E5FF62
:1024C000020EDBCF00F0610E005C05E37B0E005CCA
:1024D00002E2010E01D0E86AE4CF00F0E4CFD9FFB8
:1024E000120000C0E5FF01C0E5FF90C400F091C4F8
:1024F00001F00401903F01D0912B0050E56E33ECC8
:1025000013F0E652E4CF01F0E4CF00F01200D9CF8F
:10251000E5FFE1CFD9FF00C0E5FF020EDBCF00F001
:1025200000C02BFF005004E141EC13F09D9A9D98F0
:10253000E4CF00F0E4CFD9FF1200E8AE06D0F3CF2D
:10254000EAFFEE50EECFF3FF1200E8BCD3EF13F03A
:10255000E9CFF6FFF3CFF7FFF86E0900F550090059
:10256000F5CFF3FF1200F2CFEAFFF29EA69EA69CE3
:10257000A684E9CFA9FFF3CFAAFFE4CFA8FF94EC8C
:1025800013F0F4CFA8FF94EC13F0A694EABEF28EF9
:10259000120012EEFFF022EEFFF0F86AA68EA69C63
:1025A000E9680E0EEA6E0068000EED6A0050FDE16B
:1025B00073EC0DF0B3EC13F0FFD7F2CFF6FFF29E01
:1025C000A69EA69CE9CFA9FFF3CFAAFFA680A8509C
:1025D000A94AAA2AA680A8CFF3FFF6BEF28E12005F
:1025E000F2CFEAFFF29EA69EA69CA684E9CFA9FFA1
:1025F000F3CFAAFFE4CFA8FF94EC13F0A694EABEB1
:10260000F28E1200E8AE0BD0F3CFEAFFE4CFEEFF7C
:10261000F4CFEEFFF6CFEEFFF7CFEEFF1200E8BCEF
:10262000D7EF13F01200E8AE04D0F3CFEAFFEE507C
:102630001200E8BCD1EF13F0E9CFF6FFF3CFF7FFBC
:10264000F86E0900F5501200E8AE09D0F3CFEAFFAA
:10265000E4CFEEFFF4CFEEFFF6CFEEFF1200E8BCC2
:10266000DFEF13F01200D9CFE5FFE1CFD9FF020E63
:10267000DBCFA9FFA69CA69EA680A850E4CFD9FFD9
:102680001200ACA2FED78B80AE500000AE50AB98CB
:10269000AB88AB869D8A9D98120025642000F2CFFE
:1026A000F6FFF29EA69EA69CE9CFA9FFF3CFAAFF54
:1026B000A680A850F6BEF28E1200E8AE07D0F3CF87
:1026C000EAFFE4CFEEFFF4CFEEFF1200E8BCDBEF51
:1026D00013F01200700ED36E9B8CFF0E92689368FD
:1026E00094689668626AF19E120000C0E5FF73EC80
:1026F0000FF0006E005001E1FF00E4CF00F0120087
:10270000E8AE05D0F3CFEAFFE4CFEEFF1200E8BC5D
:10271000D9EF13F01200A4EC10F0010A04E1A4ECCC
:1027200010F00F01236F1200550EA76EAA0EA76EB0
:10273000A682A6B2FED7A94AAA2A010E0401886F72
:102740001C0E0401906F916B12000401886B1C0E2B
:102750000401906F916B120001000C000000230F28
:1027600000000C00000045EC0BF06DEC0AF0FDD70A
:102770001200CEEC10F04AEC10F01200ACA2FED722
:10278000AD6E12006AEC13F012000F01345112000A
:102790000401405112000F012B511200E8CF7FFFBE
:1027A00012004FEF13F0DDEF12F0C1EF11F0A3EFC5
:1027B00011F0F0EF12F0B3EF12F02BEF12F0F9EF8F
:0227C00011F016
:020000040030CA
:010006008574
:00000001FF
