:020000040000FA
:1000000065EF1FF0C96E1200DDEF1BF08EEC0DF0F6
:1000100097EC17F0FDD712009AEF1DF0D9CFE5FF4E
:10002000E1CFD9FF00C0E5FF01C0E5FF02C0E5FF59
:1000300003C0E5FF04C0E5FF05C0E5FF06C0E5FF1E
:1000400007C0E5FF08C0E5FF09C0E5FF0AC0E5FFFE
:100050000BC0E5FF0CC0E5FF0DC0E5FF0EC0E5FFDE
:100060000FC0E5FF10C0E5FF11C0E5FF12C0E5FFBE
:1000700013C0E5FF14C0E5FF15C0E5FF16C0E5FF9E
:1000800017C0E5FF18C0E5FF19C0E5FF1AC0E5FF7E
:100090001BC0E5FF1CC0E5FF1DC0E5FF1EC0E5FF5E
:1000A000020EDBCF00F0030EDBCF01F0040EDBCF3E
:1000B00002F0050EDBCF03F0060EDBCF04F0070ED7
:1000C000DBCF05F0080EDBCF06F0090EDBCF07F023
:1000D0000A0EDBCF08F0096A0A6A02C00DF00D5063
:1000E000800A0DE102500301586F0150576F005014
:1000F000566F030E016E560E006E800E026E03C028
:10010000E9FF04C0F3FF0550AFEC1FF00B6E0B507E
:10011000D8B4C4EF03F00B50250A02E0ABEF03F0B4
:100120000C6A0D6A0E6A0F6A106A0A0E116E126A64
:10013000136A146A200E156E1668176A2B0E186E55
:10014000032A02E3044A052A03C0E9FF04C0F3FFBF
:100150000550AFEC1FF0196E250A13E11950E56E3A
:100160000250E56E0150E56E0050E56EBFEC10F0F8
:10017000040EE126094A0A2A032A02E3044A052A50
:10018000BED71950300A06E1300E156E032A02E37D
:10019000044A052A03C0E9FF04C0F3FF0550AFEC91
:1001A0001FF02D0A06E1010E146E032A02E3044A31
:1001B000052A03C0E9FF04C0F3FF0550AFEC1FF0B0
:1001C000200A08E1010E176E200E186E032A02E3C2
:1001D000044A052A03C0E9FF04C0F3FF0550AFEC51
:1001E0001FF02B0A06E1010E176E032A02E3044AF0
:1001F000052A03C0E9FF04C0F3FF0550AFEC1FF070
:10020000196E310E195C2BE33A0E195C28E203C01B
:1002100019F004C01AF005C01BF019C0E9FF1AC09C
:10022000F3FF1B50AFEC1FF01C6E300E1C5C11E393
:100230003A0E1C5C0EE213500A0DF3CF1DF01C5059
:100240001D26D00E1D24136E192A02E31A4A1B2AFA
:10025000E4D719C003F01AC004F01BC005F003C0B6
:10026000E9FF04C0F3FF0550AFEC1FF02E0A2DE1AB
:10027000032A02E3044A052A166A03C019F004C0DF
:100280001AF005C01BF019C0E9FF1AC0F3FF1B509C
:10029000AFEC1FF01C6E300E1C5C11E33A0E1C5CC0
:1002A0000EE216500A0DF3CF1DF01C501D26D00E85
:1002B0001D24166E192A02E31A4A1B2AE4D719C014
:1002C00003F01AC004F01BC005F003C0E9FF04C02E
:1002D000F3FF0550AFEC1FF0196E6C0A07E1010E39
:1002E0000C6E032A02E3044A052A09D01950680A51
:1002F00006E1010E0E6E032A02E3044A052A03C03A
:10030000E9FF04C0F3FF0550AFEC1FF0750A06E1EA
:10031000010E106E032A02E3044A052A03C0E9FF16
:1003200004C0F3FF0550AFEC1FF0196E730A05E12E
:10033000010E0D6E200E156E3FD01950780A03E1A4
:10034000100E116E39D01950580A05E1100E116EB9
:10035000010E126E31D01950630A02E1116A2CD0DD
:1003600019506F0A03E1080E116E26D01950660A63
:1003700003E1010E0F6E20D01950640A1DE01950E0
:10038000690A1AE0105005E0FF0E03260422052238
:1003900013D01950E56E0250E56E0150E56E005025
:1003A000E56EBFEC10F0040EE126094A0A2A032A82
:1003B00002E3044A052AA3D60D5021E00650030F9C
:1003C0000D6E000E0720196E000E08201A6E0DC06B
:1003D00006F019C007F01AC008F0FD0E0D26FF0E3A
:1003E00019221A220DC0E9FF19C0F3FF1A507AEC46
:1003F0001EF00D6EF3CF19F0F4CF1AF0FDD00F50B0
:100400000DE0000E1A6E080E196E100E0D6E040E21
:100410000626000E072208221668EED016680C5039
:1004200023E00650040F0C6E000E07200F6E000E26
:1004300008201B6E0CC006F00FC007F01BC008F0B0
:10044000FC0E0C26FF0E0F221B220CC0E9FF0FC072
:10045000F3FF1B50E3EC1DF00C6EF3CF0FF0F4CF65
:100460001BF0E9CF1CF067D00E502FE00650020FB2
:100470000E6E000E07201D6E000E08201E6E0EC0B0
:1004800006F01DC007F01EC008F0FE0E0E26FF0E7F
:100490001D221E220EC0E9FF1DC0F3FF1E5039ECC5
:1004A0001FF00E6E0EC00CF00F6A1B6A1C6A115012
:1004B0000A0A03E11050D8B43ED00C500E6E0EC0A4
:1004C0000CF00F6A1B6A1C6A36D00650020F0E6EC3
:1004D000000E07201D6E000E08201E6E0EC006F0D6
:1004E0001DC007F01EC008F0FE0E0E26FF0E1D22D6
:1004F0001E220EC0E9FF1DC0F3FF1E5039EC1FF095
:100500000E6EF3CF1DF00EC00CF01DC00FF0E86AA8
:100510001DBEFF0E1B6E1C6E11500A0A02E1105028
:100520000AE00C500E6E0F501D6E0EC00CF01DC078
:100530000FF01B6A1C6A040E196EF40E0D6E800E0D
:100540001A6E1150D8B440D0105013E01150E56E1F
:10055000040EE56EF40EE56E1C50E56E1B50E56E64
:100560000F50E56E0C50E56EB2EC0CF0070EE12674
:1005700012D01150E56E040EE56EF40EE56E1C50BF
:10058000E56E1B50E56E0F50E56E0C50E56E85EC88
:1005900016F0070EE12617502FE00DC0E9FF19C035
:1005A000F3FF1A50AFEC1FF02D0A26E0FF0E0D26C8
:1005B00019221A2218C0E5FF0DC0E9FF19C0F3FF88
:1005C0001A5037EC20F018D00CC0E5FF0DC0E9FF41
:1005D00019C0F3FF1A5037EC20F00D50010F0C6ECC
:1005E000000E19200E6E000E1A20E56A0CC0E9FFFD
:1005F0000EC0F3FF37EC20F00DC00CF019C00EF068
:100600001AC00FF013C010F0105010E00CC0E9FF3A
:100610000EC0F3FF0F50AFEC1FF0176E175006E03F
:100620000C2A02E30E4A0F2A1006EED710C013F070
:1006300014501EE109C00CF00AC00EF010C00FF0FB
:100640000F5010E01550E56E0250E56E0150E56E5A
:100650000050E56EBFEC10F0040EE1260C4A0E2AA5
:100660000F06EED70CC009F00EC00AF00FC013F051
:1006700016C00CF00DC00DF019C00EF01AC00FF02E
:1006800009C010F00AC015F00DC0E9FF0EC0F3FF5D
:100690000F50AFEC1FF0166E1650D8B43ED00CC001
:1006A00016F0176A161E171E1650171005E00CC01C
:1006B00016F00C06165031E00DC0E9FF0EC0F3FF36
:1006C0000F50AFEC1FF0116E125010E01150E56E9C
:1006D000F6EC1EF0166EE652165004E0DF0E111412
:1006E000166E02D011C016F016C011F01150E56E52
:1006F0000250E56E0150E56E0050E56EBFEC10F063
:10070000040EE1260D2A02E30E4A0F2A104A152A8A
:100710001350D8B4B9D71306B7D710C009F015C015
:100720000AF014502BE010C00CF015C00DF013C0EF
:100730000EF00E501FE0200EE56E0250E56E0150E7
:10074000E56E0050E56EBFEC10F0040EE1260C4A99
:100750000D2A0E06EED70B50E56E0250E56E0150E5
:10076000E56E0050E56EBFEC10F0040EE126094A7C
:100770000A2A04D00CC009F00DC00AF0032A02E3D3
:10078000044A052A7FEF00F00AC0F3FF0950E4CFC6
:100790001EF0E4CF1DF0E4CF1CF0E4CF1BF0E4CF5B
:1007A0001AF0E4CF19F0E4CF18F0E4CF17F0E4CF5B
:1007B00016F0E4CF15F0E4CF14F0E4CF13F0E4CF5B
:1007C00012F0E4CF11F0E4CF10F0E4CF0FF0E4CF5B
:1007D0000EF0E4CF0DF0E4CF0CF0E4CF0BF0E4CF5B
:1007E0000AF0E4CF09F0E4CF08F0E4CF07F0E4CF5B
:1007F00006F0E4CF05F0E4CF04F0E4CF03F0E4CF5B
:1008000002F0E4CF01F0E4CF00F0E4CFD9FF120012
:100810003C4E4F20464C4F41543E000000C0E5FF87
:1008200001C0E5FF02C0E5FF03C0E5FF04C0E5FF2E
:1008300005C0E5FF06C0E5FF07C0E5FF08C0E5FF0E
:1008400009C0E5FF0AC0E5FF0BC0E5FF0CC0E5FFEE
:10085000006A016A026A040E025CD8B0E8D101C0E5
:1008600003F0012A100E035CD8B0E1D103012F2B55
:10087000100E2F5D01E32F6B03012F39E8441F0B8E
:10088000036E046A5B0E0326030E042203C0E9FF15
:1008900004C0EAFFEFCF03F0070E2F15046E010E20
:1008A000056E000E066E045006E0E86CD890053622
:1008B0000636010FFCE3076A0350051607500616BB
:1008C00005500610D880E866D890056A05360550B0
:1008D000D8A4C1D703012F51020DF450046EF3CFF9
:1008E00003F0E00E0324056E000E0420066E05C022
:1008F000E9FF06C0EAFFEECF05F0EFCF06F00301F7
:100900002CA19DD0930E0324076E040E0420086EC4
:1009100007C0E9FF08C0EAFFEECF07F0EFCF08F00D
:100920000650800FF36E0850800FF35C02E1075011
:10093000055C03E2056A066A60D0B30E0326040E66
:10094000042203C0E9FF04C0EAFFEECF03F0EFCFBB
:1009500004F00450800FF36E0650800FF35C02E148
:100960000550035C04E205683F0E066E46D0075052
:10097000055C096E085006580A6EE86A0ABEFF0E4A
:100980000B6EE56E0B50E56E0A50E56E0950E56E94
:10099000E56AE56A400EE56E000EE56ABFEC09F017
:1009A000096EF3CF0AF0F4CF0BF0E9CF0CF0080E8C
:1009B000E1260750035C076E08500458086EE86A89
:1009C00008BEFF0E036EE56E0350E56E0850E56E3F
:1009D0000750E56E0C50E56E0B50E56E0A50E56E63
:1009E0000950E56EA2EC0FF0036EF3CF04F0080E91
:1009F000E1260350056E0450066E03012B51800F53
:100A0000F36E0650800FF35C02E105502A5D03E3AC
:100A1000056A066A14D003012A51FF08036E3F0ECF
:100A20002B55046E0650800FF36E0450800FF35C5C
:100A300002E10350055C03E305683F0E066E030107
:100A40002F51020DF450046EF3CF03F0590E03261C
:100A5000040E042203C0E9FF04C0EAFFEECF03F056
:100A6000EFCF04F00350055C036E04500658046E8B
:100A7000D88004AED89004E3041E036CD8B4042AD2
:100A8000022A03012B51800FF36E0450800FF35C98
:100A900002E103502A5DD8B0DED603012F51020DCA
:100AA000F450086EF3CF07F0590E0726040E082203
:100AB00007C0E9FF08C0EAFF05C0EEFF06C0EFFF70
:100AC00003012CA55AD003012F51020DF450086EDA
:100AD000F3CF07F0D30E0724096E040E08200A6E28
:100AE00009C0E9FF0AC0EAFFEECF0BF0EFCF0CF030
:100AF0000B500C10D8B441D0390E0726040E082232
:100B000007C0E9FF08C0EAFFEECF07F0EFCF08F01B
:100B10000750055C036E08500658046E03101CE075
:100B20000450800F800F02E1010E035C076A073654
:100B30000C50800F800F02E1010E0B5C0B6A0B362C
:100B400007500B1809E109C0E9FF0AC0EAFF03C01A
:100B5000EEFF04C0EFFF7FD603012F51020DF450CA
:100B6000046EF3CF03F0D30E0326040E042203C059
:100B7000E9FF04C0EAFFEE6AEF6A03012CA343D049
:100B800000500EE100C003F0002A046A300E032674
:100B9000030E042203C0E9FF04C0EAFF420EEF6E19
:100BA00000C003F0002A046A300E0326030E04225C
:100BB000640E03012F25076E03C0E9FF04C0EAFF9E
:100BC00007C0EFFF00C003F0002A046A300E0326BE
:100BD000030E04220650076E03C0E9FF04C0EAFFBB
:100BE00007C0EFFF00C003F0002A046A300E03269E
:100BF000030E04220550076E03C0E9FF04C0EAFF9C
:100C000007C0EFFF28D62FC303F00650E56E05504E
:100C1000E56EE56A0350E56E000EE56E270EE56EA3
:100C2000D20EE56E70EC1AF0070EE12614D602C063
:100C300001F000501DE003012CA31AD000C002F007
:100C4000002A036A300E0226030E032202C0E9FFC7
:100C500003C0EAFF0A0EEF6E0050E56E800EE56EEF
:100C6000030EE56E300EE56EEFEC13F0040EE12698
:100C70000150E4CF0CF0E4CF0BF0E4CF0AF0E4CF66
:100C800009F0E4CF08F0E4CF07F0E4CF06F0E4CFBA
:100C900005F0E4CF04F0E4CF03F0E4CF02F0E4CFBA
:100CA00001F0E4CF00F0120000C0E5FF01C0E5FF55
:100CB00002C0E5FF03C0E5FF04C0E5FF05C0E5FF96
:100CC00006C0E5FF07C0E5FF08C0E5FF09C0E5FF76
:100CD0000AC0E5FFC2A204D003012D5167EF08F05E
:100CE00003012E51D8B41BD103012D51020DF45034
:100CF000016EF3CF00F0E00E0026000E012200C0CE
:100D0000E9FF01C0EAFFEECF00F0EFCF01F0230EC4
:100D10002D25026E036A040E032202C0E9FF03C000
:100D2000EAFFEFCF02F00250FF0A01E152D0023891
:100D30000F0B036E920E0324046E056A0F0E05223C
:100D4000066A920E03260F0E062203C0E9FF06C0B4
:100D5000EAFFEFCF03F0070E0214066E010E076ED6
:100D6000065005E0E86CD8900736010FFDE3071C3C
:100D7000066E031604C0E9FF05C0EAFF03C0EFFFDB
:100D800002380F0B036E890E0324046E056A0F0EE2
:100D90000522066A890E03260F0E062203C0E9FF0C
:100DA00006C0EAFFEFCF03F0070E0214066E010E35
:100DB000076E065005E0E86CD8900736010FFDE39A
:100DC000071C066E031604C0E9FF05C0EAFF03C056
:100DD000EFFF03012D51020DF450046EF3CF03F029
:100DE000E00E0326000E042201340130066E0030AE
:100DF000056E0634063205320634063205320550D9
:100E0000005C056E06500158066EC3CF07F0086AF5
:100E10000750052608500622C4CF07F0086A07507D
:100E20000A6E096A095005260A50062203C0E9FF26
:100E300004C0EAFF05C0EEFF06C0EFFF0301295121
:100E4000010A01E06AD003012D51020DF450046E35
:100E5000F3CF03F0E00E0324056E000E0420066EAF
:100E600005C0E9FF06C0EAFFEECF00F0EFCF01F0CA
:100E7000930E0326040E042203C0E9FF04C0EAFF18
:100E8000EECF05F0EFCF06F09C0E0526D8A00606A3
:100E90000150800FF36E0650800FF35C02E10550A5
:100EA000005C0EE20050640F056E000E0120066E1D
:100EB00003C0E9FF04C0EAFF05C0EEFF06C0EFFF74
:100EC00003012D51020DF450046EF3CF03F0B30E65
:100ED0000326040E042203C0E9FF04C0EAFFEECF9C
:100EE00005F0EFCF06F0640E0526D8B0062A0650AE
:100EF000800FF36E0150800FF35C02E10050055C3F
:100F00000CE29C0E0026D8A0010603C0E9FF04C035
:100F1000EAFF00C0EEFF01C0EFFF03012E6B0301EB
:100F20002D2B100E2D5D01E32D6B03012D39E844AF
:100F30001F0B006E016A5B0E0026030E012200C02B
:100F4000E9FF01C0EAFFEFCF00F0070E2D15016E9B
:100F5000010E036E000E046E015006E0E86CD8909E
:100F600003360436010FFCE3056A005003160550F2
:100F7000041603500410D880E866D890036A03363C
:100F80000350D8A4A2D0230E03012D25006E016AC0
:100F90000F0E012200C0E9FF01C0EAFFEFCF00F011
:100FA0000044E844FC0B016E0128C26E230E2D257F
:100FB000006E016A040E012200C0E9FF01C0EAFFD1
:100FC000EFCF02F00250FF0A01E17BD002380F0B95
:100FD000006E920E0024016E036A0F0E0322046A53
:100FE000920E00260F0E042200C0E9FF04C0EAFFA3
:100FF000EFCF00F0070E0214046E010E056E0450D0
:1010000005E0E86CD8900536010FFDE305500012AD
:1010100001C0E9FF03C0EAFF00C0EFFF380E006E19
:101020000F0E016E02380F0B036E046A0350002688
:1010300004500122380E056E0F0E066E0550032671
:101040000650042203C0E9FF04C0EAFFEFCF03F01B
:10105000070E0216010E046E025005E0E86CD890EF
:101060000436010FFDE30450031200C0E9FF01C084
:10107000EAFF03C0EFFF0F01458300000000459326
:101080000F0144930BC0E5FFF2CF0BF0F29E4481B9
:101090000000000000000000000000000000000050
:1010A0000000000000000000000000000000000040
:1010B000000000000000000044910BBEF28EE4CF5F
:1010C0000BF0C282010E03012E6F03012D51E4CFFC
:1010D0000AF0E4CF09F0E4CF08F0E4CF07F0E4CF62
:1010E00006F0E4CF05F0E4CF04F0E4CF03F0E4CF62
:1010F00002F0E4CF01F0E4CF00F01200800EE56EC4
:10110000040EE56EB30EE56EE8EC17F0030EE12673
:10111000800EE56E040EE56E930EE56EE8EC17F0BA
:10112000030EE126800EE56E040EE56EB50EE56E4B
:10113000E8EC17F0030EE126800EE56E040EE56E76
:10114000950EE56EE8EC17F0030EE126800EE56ED5
:10115000040EE56EB70EE56EE8EC17F0030EE1261F
:10116000800EE56E040EE56E970EE56EE8EC17F066
:10117000030EE126800EE56E040EE56EB90EE56EF7
:10118000E8EC17F0030EE126800EE56E040EE56E26
:10119000990EE56EE8EC17F0030EE126800EE56E81
:1011A000040EE56EBB0EE56EE8EC17F0030EE126CB
:1011B000800EE56E040EE56E9B0EE56EE8EC17F012
:1011C000030EE126800EE56E040EE56EBD0EE56EA3
:1011D000E8EC17F0030EE126800EE56E040EE56ED6
:1011E0009D0EE56EE8EC17F0030EE126800EE56E2D
:1011F000040EE56EBF0EE56EE8EC17F0030EE12677
:10120000800EE56E040EE56E9F0EE56EE8EC17F0BD
:10121000030EE126800EE56E040EE56EC10EE56E4E
:10122000E8EC17F0030EE126800EE56E040EE56E85
:10123000A10EE56EE8EC17F0030EE126800EE56ED8
:10124000040EE56EC30EE56EE8EC17F0030EE12622
:10125000800EE56E040EE56EA30EE56EE8EC17F069
:10126000030EE126800EE56E040EE56EC50EE56EFA
:10127000E8EC17F0030EE126800EE56E040EE56E35
:10128000A50EE56EE8EC17F0030EE126800EE56E84
:10129000040EE56EC70EE56EE8EC17F0030EE126CE
:1012A000800EE56E040EE56EA70EE56EE8EC17F015
:1012B000030EE126800EE56E040EE56EC90EE56EA6
:1012C000E8EC17F0030EE126800EE56E040EE56EE5
:1012D000A90EE56EE8EC17F0030EE126800EE56E30
:1012E000040EE56ECB0EE56EE8EC17F0030EE1267A
:1012F000800EE56E040EE56EAB0EE56EE8EC17F0C1
:10130000030EE126800EE56E040EE56ECD0EE56E51
:10131000E8EC17F0030EE126800EE56E040EE56E94
:10132000AD0EE56EE8EC17F0030EE126800EE56EDB
:10133000040EE56ECF0EE56EE8EC17F0030EE12625
:10134000800EE56E040EE56EAF0EE56EE8EC17F06C
:10135000030EE126800EE56E040EE56ED10EE56EFD
:10136000E8EC17F0030EE126800EE56E040EE56E44
:10137000B10EE56EE8EC17F0030EE1261200D9CFAE
:10138000E5FFE1CFD9FF00C0E5FF01C0E5FF02C0E6
:10139000E5FF03C0E5FF04C0E5FF05C0E5FF06C0AB
:1013A000E5FF07C0E5FF020EDBCF00F0030EDBCF49
:1013B00001F0040EDBCF02F0050EDBCF03F0060ECA
:1013C000DBCF04F0070EDBCF05F0080EDBCF06F015
:1013D000090EDBCF07F000500401816F0150826FCE
:1013E0000250836F0350846F04500401856F0550D1
:1013F000866F0650876F0750886F04018151040182
:101400008703F4CF01F0F3CF00F0005004018C6F9C
:1014100001508D6F0401815104018503F4CF01F067
:10142000F3CF00F0005004018A6F01508B6F04016C
:10143000845104018503F3CF00F004018D5100268F
:1014400000508D6F0401835104018603F3CF01F036
:1014500001500026005004018D6F040183510401E6
:101460008503F4CF01F0F3CF00F004018C51002686
:101470008D51012200508C6F01508D6F04018251FB
:1014800004018603F4CF03F0F3CF02F002500026EC
:1014900003500122005004018C6F01508D6F040134
:1014A000825104018703F3CF00F000500401916FD3
:1014B0000401825104018503F4CF01F0F3CF00F061
:1014C000005004018F6F0150906F0401815104019D
:1014D0008803F3CF00F000500301526F04018151E3
:1014E00004018603F4CF01F0F3CF00F000500301B4
:1014F000506F0150516F04018E6B03014F6B04015B
:101500008E5104018A25006E04018F5104018B2144
:10151000016E0401905104018C21026E040191516D
:1015200004018D21036E00508A6F01508B6F0250B1
:101530008C6F03508D6F03014F5104018A25006E9B
:101540000301505104018B21016E0301515104012B
:101550008C21026E0301525104018D21036E03C0E0
:10156000E9FF02C0F4FF01C0F3FF0050E4CF07F031
:10157000E4CF06F0E4CF05F0E4CF04F0E4CF03F0CD
:10158000E4CF02F0E4CF01F0E4CF00F0E4CFD9FFE4
:10159000120000C0E5FF01C0E5FF03012651D8B4E9
:1015A000F5D09DA81DD09EA81BD003016A51030150
:1015B000671905E1EDEC1FF00301676BE7D0000E42
:1015C00003016A25006E016A040E012200C0E9FFD2
:1015D00001C0EAFFEFCF63F36A2B63C3ADFFD6D040
:1015E0009EAAD4D0ABA205D003016881EDEC1FF018
:1015F000CDD0ABA405D003016883EDEC1FF0C6D0BD
:10160000ABA03ED0AECF63F3800E030127110301E0
:10161000631904E103016889AB96B8D003016351F3
:1016200004E063510301271927E103016899AB9690
:101630000301635103E00301689702D00301688747
:1016400063C36CF365C36DF30301650503016E6F3E
:10165000600E03016D25006E016A000E012200C0BC
:10166000E9FF01C0EAFF63C3EFFF6D2B6D51800AF4
:1016700002E103016D6B8AD003016899AB8686D0C5
:10168000AECF63F3030168A919D0800E03012711BF
:101690000301631911E194909D9AAB98030167517E
:1016A00004E1AD6AEDEC1FF007D000C4ADFF010E00
:1016B00003016A6F9D886AD0AB8668D003016351CD
:1016C00003016C2703016D5103016E191BE1030136
:1016D0006C510CE16DC365F3030168B712D09490AF
:1016E0009D9AAB98AD6AEDEC1FF00BD003016885B5
:1016F00068B707D094909D9AAB98010EAD6EEDEC53
:101700001FF044D003016D510301661908E1030184
:1017100066510301651903E0EDEC1FF037D065C396
:1017200000F0016A004A012AE56A800EE56E015068
:10173000E56E0050E56EE1EC14F0006E040EE1265B
:1017400000500301646F03016D190CE11F0E0301CA
:10175000631503016E6F6E2B6E2B03016551030140
:101760006E276E9F6DC300F003016D2B016A600E42
:101770000026000E012200C0E9FF01C0EAFF63C39A
:10178000EFFF6D51800A02E103016D6BE4CF01F0C0
:10179000E4CF00F0120000C0E5FF01C0E5FF02C089
:1017A000E5FF03C0E5FF04C0E5FF05C0E5FF06C097
:1017B000E5FF07C0E5FF08C0E5FF09C0E5FF0AC077
:1017C000E5FF006A016A040E015CD8B0B3D03F0E99
:1017D00003013D25026E036A030E032202C0E9FFE6
:1017E00003C0EAFFEFCF02F00250FF0A01E19BD0F5
:1017F00003013D39E8441F0B026E5F0E0224036EA5
:10180000046A030E042203C0E9FF04C0EAFFEFCF1D
:1018100003F0070E3D15046E010E056E000E066EF8
:10182000045006E0E86CD89005360636010FFCE35C
:10183000076A055003160650071603500710D88094
:10184000E866D890036A03360350D880E866D890DB
:10185000036A0336076A5D0E0226030E072202C0E2
:10186000E9FF07C0EAFFEFCF08F008C009F00A6AF5
:10187000095005160A50061605500610D880E8666D
:10188000D890056A05360550D880E866D890056A74
:1018900005360350051801E146D0035012E0010E51
:1018A000056E045005E0E86CD8900536010FFDE3A5
:1018B0000550081202C0E9FF07C0EAFF08C0EFFFA9
:1018C00017D002C0E9FF07C0EAFFEFCF05F0010E15
:1018D000066E045005E0E86CD8900636010FFDE373
:1018E000061C051602C0E9FF07C0EAFF05C0EFFFAE
:1018F000035003E1036A032A01D0036A3DC304F0E5
:10190000E56A0350E56EE56A0450E56E000EE56E8B
:10191000330EE56E480EE56E70EC1AF0070EE12608
:10192000012A01C000F003013D2B100E3D5DD8A03F
:101930004AD73D6B0050E4CF0AF0E4CF09F0E4CF82
:1019400008F0E4CF07F0E4CF06F0E4CF05F0E4CFF1
:1019500004F0E4CF03F0E4CF02F0E4CF01F0E4CFF1
:1019600000F01200D9CFE5FFE1CFD9FF00C0E5FFBD
:1019700001C0E5FF02C0E5FF03C0E5FF04C0E5FFCD
:1019800005C0E5FF06C0E5FF07C0E5FF08C0E5FFAD
:1019900009C0E5FF0AC0E5FF0BC0E5FF0CC0E5FF8D
:1019A0000DC0E5FF0EC0E5FF0FC0E5FF020EDBCF67
:1019B00000F0030EDBCF01F0040EDBCF02F0050ECA
:1019C000DBCF03F0060EDBCF04F0070EDBCF05F014
:1019D000080EDBCF06F0200E076E086A06C009F07D
:1019E0000A6A0B6A0C6AE56AE56AE56A0950E56EFF
:1019F0000350E56E0250E56E0150E56E0050E56E55
:101A000005EC0FF00D6E080EE126300E0D263A0E95
:101A10000D5C05E30D500E6E270E0E240D6EFF0EAD
:101A200007260822000E07240E6E030E08200F6EF4
:101A30000EC0E9FF0FC0EAFF0DC0EFFF0C50E56ECE
:101A40000B50E56E0A50E56E0950E56E0350E56EE9
:101A50000250E56E0150E56E0050E56EA2EC0FF00D
:101A6000006EF3CF01F0F4CF02F0E9CF03F0080EDF
:101A7000E1260050011002100310D8A4AFD707C010
:101A800000F008C001F004C002F005C003F000C07F
:101A900004F001C005F0004A012A000E0426030EDE
:101AA000052204C0E9FF05C0EAFFEFCF04F002C041
:101AB000E9FF03C0EAFF04C0EFFF024A032A000E59
:101AC000015C02E1200E005CE2E302C0E9FF03C01A
:101AD000EAFF000EEF6AE4CF0FF0E4CF0EF0E4CFA0
:101AE0000DF0E4CF0CF0E4CF0BF0E4CF0AF0E4CF3C
:101AF00009F0E4CF08F0E4CF07F0E4CF06F0E4CF3C
:101B000005F0E4CF04F0E4CF03F0E4CF02F0E4CF3B
:101B100001F0E4CF00F0E4CFD9FF120000C0E5FFF0
:101B200001C0E5FF02C0E5FF03C0E5FF04C0E5FF1B
:101B30006BEC20F09492939EABEC1CF0F3CF01F091
:101B4000F4CF02F0E9CF03F0880F0401336F130ED6
:101B50000120346F000E0220356F000E0320366F17
:101B60006CEC13F09280800E006E0F0E016E0F0E63
:101B7000036E380E002603500122800E026E0F0EF7
:101B8000036E800E005E0350015A0F0E046E380E75
:101B90000226045003220F0E046E800E025E0450D3
:101BA000035A02C0E9FF03C0EAFFEFCF02F0028050
:101BB00000C0E9FF01C0EAFF02C0EFFF000EE56AC6
:101BC000E56A22EC16F0E652E6529282800E006E32
:101BD0000F0E016E0F0E036E380E00260350012209
:101BE000800E026E0F0E036E800E005E0350015ACF
:101BF0000F0E046E380E0226045003220F0E046EE0
:101C0000800E025E0450035A02C0E9FF03C0EAFFDF
:101C1000EFCF02F0028200C0E9FF01C0EAFF02C07C
:101C2000EFFF010EE56EE56E22EC16F0E652E6528D
:101C300063EC19F0F19E938C810E006E0F0E016E15
:101C40000F0E036E380E0026035001220F0E036E96
:101C5000800E005E0350015A810E026E0F0E036E5D
:101C60000F0E046E380E0226045003220F0E046E6F
:101C7000800E025E0450035A02C0E9FF03C0EAFF6F
:101C8000EFCF02F0029C00C0E9FF01C0EAFF02C0F2
:101C9000EFFF060EE56E800EE56E0F0EE56E810E0F
:101CA000E56E000EE56AAAEC19F0050EE126E4CF18
:101CB00004F0E4CF03F0E4CF02F0E4CF01F0E4CF8E
:101CC00000F0120043002563000000C0E5FF01C0E2
:101CD000E5FF02C0E5FF03C0E5FF04C0E5FF05C066
:101CE000E5FF006A3F0E0024016E026A030E022225
:101CF00001C0E9FF02C0EAFFEFCF01F00150FF0A87
:101D000001E171D001380F0B026E036A800E0226CA
:101D10000F0E032202C0E9FF03C0EAFFEFCF02F07B
:101D2000070E0116010E036E000E046E015006E050
:101D3000E86CD89003360436010FFCE3056A0250C4
:101D400003160550041603500410D880E866D89096
:101D5000036A0336035024E10038E8441F0B016E88
:101D6000026A5F0E0126030E022201C0E9FF02C0D3
:101D7000EAFFEFCF03F0070E0014046E010E056EAC
:101D8000045005E0E86CD8900536010FFDE30550DE
:101D9000031201C0E9FF02C0EAFF03C0EFFF23D036
:101DA0000038E8441F0B016E026A5F0E0126030E25
:101DB000022201C0E9FF02C0EAFFEFCF03F0070EE5
:101DC0000014046E010E056E045005E0E86CD89016
:101DD0000536010FFDE3051C031601C0E9FF02C033
:101DE000EAFF03C0EFFF002A100E005CD8A07AD7EC
:101DF000E4CF05F0E4CF04F0E4CF03F0E4CF02F049
:101E0000E4CF01F0E4CF00F01200D9CFE5FFE1CF3D
:101E1000D9FF00C0E5FF01C0E5FF02C0E5FF03C038
:101E2000E5FF04C0E5FF05C0E5FF06C0E5FF07C00C
:101E3000E5FF08C0E5FF09C0E5FF0AC0E5FF020EA7
:101E4000DBCF00F0030EDBCF01F0040EDBCF02F09E
:101E5000050EDBCF03F0060EDBCF04F0070EDBCF61
:101E600005F0080EDBCF06F0090EDBCF07F0086A9D
:101E7000045005100610071005E1E968F468F368DE
:101E8000E86847D0096A0750800BE8440A6E0A5098
:101E90001BE1045004260536063607360750035C5E
:101EA00008E10650025C05E10550015C02E10450C6
:101EB000005C06E2D890073206320532043204D0C4
:101EC000092A09C008F0DFD70750035C08E1065073
:101ED000025C05E10550015C02E10450005C08E38E
:101EE0000450005E0550015A0650025A0750035A2A
:101EF000D890073206320532043208C009F00806CD
:101F00000950E2E103C0E9FF02C0F4FF01C0F3FFA2
:101F10000050E4CF0AF0E4CF09F0E4CF08F0E4CFBA
:101F200007F0E4CF06F0E4CF05F0E4CF04F0E4CF0F
:101F300003F0E4CF02F0E4CF01F0E4CF00F0E4CF0F
:101F4000D9FF1200D9CFE5FFE1CFD9FF00C0E5FFEF
:101F500001C0E5FF02C0E5FF03C0E5FF04C0E5FFE7
:101F600005C0E5FF06C0E5FF07C0E5FF08C0E5FFC7
:101F700009C0E5FF0AC0E5FF0BC0E5FF0CC0E5FFA7
:101F80000DC0E5FF020EDBCF00F0030EDBCF01F04A
:101F9000040EDBCF02F0050EDBCF03F0060EDBCF25
:101FA00004F0070EDBCF05F0080EDBCF06F0090EBC
:101FB000DBCF07F0086A096A0A6A0B6A200E0C6E0A
:101FC0000350800BE8440D6E0050002601360236A7
:101FD00003360850082609360A360B360D50D8A4A9
:101FE000088007500B5C08E106500A5C05E10550CB
:101FF000095C02E10450085C09E30450085E0550E6
:10200000095A06500A5A07500B5A00800C040D6EEC
:102010000DC00CF00D50D4E103C0E9FF02C0F4FF85
:1020200001C0F3FF0050E4CF0DF0E4CF0CF0E4CF9B
:102030000BF0E4CF0AF0E4CF09F0E4CF08F0E4CFEE
:1020400007F0E4CF06F0E4CF05F0E4CF04F0E4CFEE
:1020500003F0E4CF02F0E4CF01F0E4CF00F0E4CFEE
:10206000D9FF120000C0E5FF01C0E5FF03C0E5FF96
:1020700004C0E5FF05C0E5FF06C0E5FF07C0E5FFBA
:1020800008C0E5FF09C0E5FF0AC0E5FF0BC0E5FF9A
:1020900059C300F05AC301F00301593F01D05A2B34
:1020A0000050E56EDFEC1FF0E652076E046A056A29
:1020B000066A59C300F05AC301F00301593F01D029
:1020C0005A2B0050E56EDFEC1FF0E6520B6A0A6EE9
:1020D000086A0850041205120A5006120B50071223
:1020E00059C300F05AC301F00301593F01D05A2BE4
:1020F0000050E56EDFEC1FF0E652036E006A03C08D
:1021000001F0E86A03BEFF0E086E096E005004126B
:1021100001500512085006120950071259C300F069
:102120005AC301F00301593F01D05A2B0050E56E0C
:10213000DFEC1FF0E652016A04120150051206128C
:10214000071207C0E9FF06C0F4FF05C0F3FF045003
:10215000E4CF0BF0E4CF0AF0E4CF09F0E4CF08F0CD
:10216000E4CF07F0E4CF06F0E4CF05F0E4CF04F0CD
:10217000E4CF03F0E4CF01F0E4CF00F01200D9CFB8
:10218000E5FFE1CFD9FF00C0E5FF01C0E5FF02C0D8
:10219000E5FF03C0E5FF04C0E5FF05C0E5FF06C09D
:1021A000E5FF07C0E5FF020EDBCF00F0030EDBCF3B
:1021B00001F0040EDBCF02F0050EDBCF03F002C00E
:1021C00006F00650046E800A33E100C0E9FF01C04A
:1021D000F3FF02507AEC1EF0056EF3CF06F0F4CF59
:1021E00007F003C0E5FF05C0E9FF06C0F3FF075095
:1021F00037EC20F000C0E9FF01C0F3FF02507AEC99
:102200001EF0056EF3CF06F0F4CF07F0052A02E3C7
:10221000064A072A05C0E5FF06C0F4FF07C0F6FF1F
:1022200000C0E9FF01C0F3FF0250D0EC1FF020D046
:1022300004C000F000AA1CD0007A0050046E04E133
:10224000035070EC20F014D00450010A04E1035054
:1022500002EC00F00DD004500F0A04E1035049ECE9
:102260001CF006D004500E0A03E1035080EC20F06D
:10227000E4CF07F0E4CF06F0E4CF05F0E4CF04F0BC
:10228000E4CF03F0E4CF02F0E4CF01F0E4CF00F0BC
:10229000E4CFD9FF120000C0E5FF01C0E5FF02C096
:1022A000E5FF03C0E5FF04C0E5FF0301665103013C
:1022B000651901E15CD066C300F0002A009E600E43
:1022C0000024016E026A000E022201C0E9FF02C072
:1022D000EAFFEFCF70F31F0E0301701766C36FF3B1
:1022E000705103016F276F2B6F2B6F9FD5EC1CF084
:1022F000016E015003E1016A012A01D0016AD5ECA7
:102300001CF00301706F800E7015026E1F0E7015A9
:10231000036E03C004F003C070F3045003E165C30F
:1023200066F338D001501BE002501FE0D5EC1CF0E2
:10233000006E030170070050420A17E000504E0A79
:1023400003E1EEEC19F011D00050460A03E121EC54
:1023500020F00BD00050490A08E1FF0006D066C308
:1023600071F30250D8A41BEC19F06FC366F303019C
:1023700023510301241906E00301675103E15FECD7
:1023800012F008D094B006D00301675103E1ACB25B
:10239000EDEC1FF0E4CF04F0E4CF03F0E4CF02F063
:1023A000E4CF01F0E4CF00F01200D9CFE5FFE1CF98
:1023B000D9FF00C0E5FF01C0E5FF02C0E5FF03C093
:1023C000E5FF04C0E5FF05C0E5FF06C0E5FF07C067
:1023D000E5FF08C0E5FF09C0E5FF0AC0E5FF020E02
:1023E000DBCF00F0030EDBCF01F0040EDBCF02F0F9
:1023F000050EDBCF03F0060EDBCF04F0070EDBCFBC
:1024000005F00038E8441F0B066E076A5B0E0626CF
:10241000030E072206C0E9FF07C0EAFFEFCF08F06E
:10242000070E0014096E010E0A6E095005E0E86CF3
:10243000D8900A36010FFDE30A50081206C0E9FFE2
:1024400007C0EAFF08C0EFFF230E0024066E076AEC
:102450000F0E072206C0E9FF07C0EAFF01C0EFFF29
:10246000016A230E0026040E0122800E025E070E72
:1024700002160238F00B036E070E051605500326F0
:1024800000C0E9FF01C0EAFF03C0EFFFE4CF0AF09C
:10249000E4CF09F0E4CF08F0E4CF07F0E4CF06F092
:1024A000E4CF05F0E4CF04F0E4CF03F0E4CF02F092
:1024B000E4CF01F0E4CF00F0E4CFD9FF120000C078
:1024C000E5FF01C0E5FF02C0E5FF03C0E5FFACA2E8
:1024D00076D003EC1EF0006E005005E10301246B82
:1024E0000301236B6CD024C301F00050012603ECE0
:1024F0001EF0026E00060250230A1FE1010E005C6E
:10250000D8A05BD003EC1EF0026E690A03E17AECFE
:102510001CF053D00250720A03E1EDEC1FF04DD0D5
:102520000250730A01E049D09480AB869D8A9D9841
:10253000AE50AE50AB98AB8840D00250430A05E095
:102540000250420A01E039D001D0008E00C069F388
:1025500000500401006F010E03016A6F0301245152
:10256000011814E003EC1EF0026E03016927000E4F
:1025700003016A25006E036A040E032200C0E9FF0E
:1025800003C0EAFF02C0EFFF6A2BE8D7000E030189
:102590006A25006E026A040E02220301691D036EA1
:1025A000032A00C0E9FF02C0EAFF03C0EFFF0301F6
:1025B0006A2B6AC367F30301616B01C024F3E4CFA4
:1025C00003F0E4CF02F0E4CF01F0E4CF00F012001A
:1025D000D9CFE5FFE1CFD9FF00C0E5FF01C0E5FF9E
:1025E00002C0E5FF03C0E5FF04C0E5FF05C0E5FF4D
:1025F00006C0E5FF020EDBCF00F0030EDBCF01F0DB
:10260000040EDBCF02F0050EDBCF03F003C004F0B5
:10261000056A0350D8B44FD000C0E9FF01C0F3FFF2
:102620000250AFEC1FF0066E430A03E1010E056E87
:10263000038E0406002A02E3014A022A94909D9A1E
:10264000AB989D989EA8FED7AC80AD6A00009EA86E
:10265000FED7AC9003C0ADFF00009EA8FED705508A
:1026600004E0420EAD6E032604D0620EAD6E620E23
:102670000326045015E000009EA8FED700C0E9FF25
:1026800001C0F3FF0250AFEC1FF0056E05C0ADFFB7
:10269000055003260406002A02E3014A022AE9D76C
:1026A00000009EA8FED7031CAD6EAD2A00009EA8B8
:1026B000FED7EDEC1FF0E4CF06F0E4CF05F0E4CF59
:1026C00004F0E4CF03F0E4CF02F0E4CF01F0E4CF74
:1026D00000F0E4CFD9FF120000C0E5FF01C0E5FF24
:1026E00002C0E5FF03C0E5FF04C0E5FF006A5B0E22
:1026F0000024016E026A030E022201C0E9FF02C03B
:10270000EAFFEF6A002A020E005CF1E3006A005063
:10271000020DF450026EF3CF01F0E00E0124036EBF
:10272000000E0220046E03C0E9FF04C0EAFFEE6A57
:10273000EF6A390E0124036E040E0220046E03C0FA
:10274000E9FF04C0EAFFEE6AEF6A590E0124036E46
:10275000040E0220046E03C0E9FF04C0EAFFEE6A23
:10276000EF6A930E0124036E040E0220046E03C070
:10277000E9FF04C0EAFFEE6AEF6AB30E0126040E19
:10278000022201C0E9FF02C0EAFFEE687F0EEF6E91
:10279000230E0024016E026A040E022201C0E9FF2A
:1027A00002C0EAFFEF68002A100E005CD8A0AFD785
:1027B000AF0EC06EC16A010EC26EC282E4CF04F0D9
:1027C000E4CF03F0E4CF02F0E4CF01F0E4CF00F077
:1027D00012004320412025642025640A0000D9CF3F
:1027E000E5FFE1CFD9FF00C0E5FF01C0E5FF02C072
:1027F000E5FF03C0E5FF04C0E5FF05C0E5FF06C037
:10280000E5FF07C0E5FF020EDBCF00F0030EDBCFD4
:1028100001F0040EDBCF02F0050EDBCF03F024C382
:1028200025F3030123510301255F250703C004F0AD
:10283000056A030E0426D8B0052A25C306F0076AE8
:102840000750800FF36E0550800FF35C02E10450D7
:10285000065C02E2E8682BD0020E035C02E2E86A42
:1028600026D003060350E56E2CEC1BF0E652046AFA
:102870000350045C14E204500024056EE86A012051
:10288000066EE86A022005C0E9FF06C0F3FFAFEC60
:102890001FF0042AE56E2CEC1BF0E652E9D724C3A6
:1028A00025F3030123510301255F2507E86AE4CFDF
:1028B00007F0E4CF06F0E4CF05F0E4CF04F0E4CF76
:1028C00003F0E4CF02F0E4CF01F0E4CF00F0E4CF76
:1028D000D9FF1200D9CFE5FFE1CFD9FF00C0E5FF56
:1028E00001C0E5FF02C0E5FF03C0E5FF04C0E5FF4E
:1028F00005C0E5FF020EDBCF00F0030EDBCF01F0D9
:10290000040EDBCF02F00050020DF450036EF3CF43
:1029100000F0390E0024046E040E0320056E04C07E
:10292000E9FF05C0EAFF01C0EEFF02C0EFFF590E4C
:102930000024046E040E0320056E04C0E9FF05C0E8
:10294000EAFFEECF04F0EFCF05F00150045C016E1A
:1029500002500558026ED30E0026040E032200C05A
:10296000E9FF03C0EAFF01C0EEFF02C0EFFFD8801D
:1029700002AED89004E3021E016CD8B4022A0250C1
:10298000800F800F02E1030E015C02E2016A026A1D
:102990000150021007E100C0E9FF03C0EAFF000E8A
:1029A000EE6AEF6AE4CF05F0E4CF04F0E4CF03F081
:1029B000E4CF02F0E4CF01F0E4CF00F0E4CFD9FFA0
:1029C0001200D9CFE5FFE1CFD9FF00C0E5FF01C07C
:1029D000E5FF02C0E5FF03C0E5FF04C0E5FF05C059
:1029E000E5FF06C0E5FF020EDBCF00F0030EDBCFF4
:1029F00001F0040EDBCF02F0050EDBCF03F0D88030
:102A000001AED890046A0436045007E0011C066E3B
:102A1000001C056E054A062A04D000C005F001C05E
:102A200006F0D88003AED89007E3031C016E021CA9
:102A3000006E004A012A04D002C000F003C001F079
:102A40000150E56E0050E56E0650E56E0550E56EEE
:102A5000E8EC16F0006EF3CF01F0040EE12604500E
:102A60000AE0011C036E001C026E024A032A03C026
:102A7000F3FF025003D001C0F3FF0050E4CF06F093
:102A8000E4CF05F0E4CF04F0E4CF03F0E4CF02F0AC
:102A9000E4CF01F0E4CF00F0E4CFD9FF1200D9CFAA
:102AA000E5FFE1CFD9FF00C0E5FF01C0E5FF02C0AF
:102AB000E5FF03C0E5FF04C0E5FF05C0E5FF020E2A
:102AC000DBCF00F0030EDBCF01F0040EDBCF02F012
:102AD000050EDBCF03F059C304F05AC305F0030120
:102AE000593F01D05A2B0350E56E0450E56EBFEC00
:102AF0001DF0E652E65259C304F05AC305F0030133
:102B0000593F01D05A2B0250056EE56E0450E56E18
:102B1000BFEC1DF0E652E65259C304F05AC305F06B
:102B20000301593F01D05A2B0150056EE56E045048
:102B3000E56EBFEC1DF0E652E65259C304F05AC3ED
:102B400005F00301593F01D05A2B0050E56E0450A7
:102B5000E56EBFEC1DF0E652E652E4CF05F0E4CF9F
:102B600004F0E4CF03F0E4CF02F0E4CF01F0E4CFCF
:102B700000F0E4CFD9FF1200D9CFE5FFE1CFD9FFB4
:102B800000C0E5FF01C0E5FF02C0E5FF03C0E5FFAF
:102B900004C0E5FF05C0E5FF06C0E5FF020EDBCF80
:102BA00000F0030EDBCF01F0040EDBCF02F00401D6
:102BB000375119E132EC10F0036EF3CF04F0F4CF8B
:102BC00005F0E9CF06F003C0E5FF04C0F4FF05C03F
:102BD000F6FF06C0F7FF00C0E9FF01C0F3FF025097
:102BE0009EEC1FF01ED004013751010A1AE100C00B
:102BF000E9FF01C0F3FF0250E3EC1DF0006EF3CFDC
:102C000001F0F4CF02F0E9CF03F00350E56E02507B
:102C1000E56E0150E56E0050E56E4FEC15F0040EC8
:102C2000E126E4CF06F0E4CF05F0E4CF04F0E4CFF2
:102C300003F0E4CF02F0E4CF01F0E4CF00F0E4CF02
:102C4000D9FF1200D9CFE5FFE1CFD9FF00C0E5FFE2
:102C500001C0E5FF02C0E5FF03C0E5FF04C0E5FFDA
:102C600005C0E5FF06C0E5FF020EDBCF00F0030E56
:102C7000DBCF01F00038E8441F0B026E036A5B0EE5
:102C80000226030E032202C0E9FF03C0EAFFEFCFD2
:102C900004F0070E0014056E010E066E055005E0E7
:102CA000E86CD8900636010FFDE30650041202C00E
:102CB000E9FF03C0EAFF04C0EFFF230E0024026E09
:102CC000036A0F0E032202C0E9FF03C0EAFF01C03E
:102CD000EFFF016A230E0026040E012200C0E9FF67
:102CE00001C0EAFFFF0EEF68E4CF06F0E4CF05F085
:102CF000E4CF04F0E4CF03F0E4CF02F0E4CF01F03E
:102D0000E4CF00F0E4CFD9FF1200D9CFE5FFE1CF47
:102D1000D9FF00C0E5FF01C0E5FF02C0E5FF03C029
:102D2000E5FF04C0E5FF05C0E5FF06C0E5FF020EB4
:102D3000DBCF00F0030EDBCF01F0040EDBCF02F09F
:102D4000050EDBCF03F0060EDBCF04F0070EDBCF62
:102D500005F0080EDBCF06F0D88003AED89015E35F
:102D600006500A0A12E104C0E9FF05C0EAFF2D0E71
:102D7000EF6E044A052A031E021E011E006C05E1C7
:102D8000012A03E1022AD8B4032A0650E56E055051
:102D9000E56E0450E56E0350E56E0250E56E01509D
:102DA000E56E0050E56EB2EC0CF0070EE126E4CFC4
:102DB00006F0E4CF05F0E4CF04F0E4CF03F0E4CF75
:102DC00002F0E4CF01F0E4CF00F0E4CFD9FF12002D
:102DD000D9CFE5FFE1CFD9FF00C0E5FF01C0E5FF96
:102DE00002C0E5FF03C0E5FF04C0E5FF05C0E5FF45
:102DF00006C0E5FF020EDBCF00F0030EDBCF01F0D3
:102E0000040EDBCF02F0050EDBCF03F0046A056A87
:102E10000350800BE844066E065011E10250022672
:102E200003360350015C02E10250005C04E2D890DA
:102E30000332023204D0052A05C004F0E9D703505A
:102E4000015C02E10250005C04E30250005E0350AA
:102E5000015AD8900332023204C005F0040605502E
:102E6000EEE101C0F3FF0050E4CF06F0E4CF05F03F
:102E7000E4CF04F0E4CF03F0E4CF02F0E4CF01F0BC
:102E8000E4CF00F0E4CFD9FF120000C0E5FF01C09D
:102E9000E5FF02C0E5FF03C0E5FF66C300F0016A7D
:102EA00071C302F0036A0250005E0350015AE56AE2
:102EB000800EE56E0150E56E0050E56EE1EC14F019
:102EC000006E040EE126000671C301F0430E49ECCA
:102ED0001CF0200E49EC1CF0005020E0600E012494
:102EE000026E036A000E032202C0E9FF03C0EAFF7C
:102EF000EFCF02F0E56A0250E56E000EE56E3F0E80
:102F0000E56EF20EE56E70EC1AF0050EE126012A70
:102F10000150800A01E1016A0006DED7E4CF03F028
:102F2000E4CF02F0E4CF01F0E4CF00F0120000C0E3
:102F3000E5FF01C0E5FF02C0E5FF03C0E5FF4BEC84
:102F400011F054EC06F065EC0EF0ABEC1CF0006EEA
:102F5000F3CF01F0F4CF02F0E9CF03F004013351D5
:102F6000005E3451015A3551025A3651035A039EBC
:102F70003F0E035C08E1FF0E025C05E1FF0E015C01
:102F800002E1FF0E005C1BE2ABEC1CF0F3CF01F0A2
:102F9000F4CF02F0E9CF03F0100F0401336F270ED6
:102FA0000120346F000E0220356F000E0320366FB3
:102FB000CBEC0BF0006E0050D8B40EEC04F0E4CF74
:102FC00003F0E4CF02F0E4CF01F0E4CF00F0120010
:102FD000D9CFE5FFE1CFD9FF00C0E5FF01C0E5FF94
:102FE00002C0E5FF03C0E5FF04C0E5FF020EDBCF32
:102FF00000F0030EDBCF01F0040EDBCF02F0040182
:10300000375111E115EC1CF0036EF3CF04F003C04F
:10301000E5FF04C0F4FF00C0E9FF01C0F3FF025068
:1030200009EC20F016D004013751010A12E100C06A
:10303000E9FF01C0F3FF025039EC1FF0006EF3CF3F
:1030400001F00150E56E0050E56EEFEC1AF0E6522B
:10305000E652E4CF04F0E4CF03F0E4CF02F0E4CF93
:1030600001F0E4CF00F0E4CFD9FF1200D9CFE5FFA3
:10307000E1CFD9FF00C0E5FF01C0E5FF02C0E5FFD9
:1030800003C0E5FF04C0E5FF020EDBCF00F000380F
:10309000E8441F0B016E026A5F0E0126030E022236
:1030A00001C0E9FF02C0EAFFEFCF01F0070E0016F2
:1030B000010E026E000E036E005006E0E86CD89020
:1030C00002360336010FFCE3046A01500216045075
:1030D000031602500310D880E866D890026A0236C0
:1030E0000250D880E866D890026A02360250E4CFD7
:1030F00004F0E4CF03F0E4CF02F0E4CF01F0E4CF3A
:1031000000F0E4CFD9FF1200C80EF66E400EF76E45
:10311000000EF86E0900F550056E0900F550066EB8
:1031200004E1056702D0D1EF18F00900F550006EF8
:103130000900F550016E0900F550026E0900090002
:10314000F550E96E0900F550EA6E09000900090022
:10315000F550036E0900F550046E09000900F6CF22
:1031600007F0F7CF08F0F8CF09F000C0F6FF01C074
:10317000F7FF02C0F8FF035002E1045007E0090026
:10318000F550EE6E0306F8E20406F9D707C0F6FF25
:1031900008C0F7FF09C0F8FF050601E2060690EF38
:1031A00018F01200D9CFE5FFE1CFD9FF00C0E5FF4D
:1031B00001C0E5FF02C0E5FF03C0E5FF04C0E5FF75
:1031C00005C0E5FF020EDBCF00F00050010A22E14E
:1031D000016A0150020DF450036EF3CF02F0930E1A
:1031E0000224046E040E0320056E04C0E9FF05C02E
:1031F000EAFFEE687F0EEF6EB30E0226040E032286
:1032000002C0E9FF03C0EAFFEE6AEF6A012A100E6E
:10321000015CDFE300C029F3E4CF05F0E4CF04F064
:10322000E4CF03F0E4CF02F0E4CF01F0E4CF00F00C
:10323000E4CFD9FF120000C0E5FF01C0E5FFD5ECE7
:103240001CF0006E4C0A08E1D5EC1CF0006E300A50
:1032500002E08B8201D08B920050530A08E1D5EC3A
:103260001CF0300A02E08A8E29D08A9E27D00050B6
:10327000450A24E1000EE56E1C0EE56EC40EE56EF7
:1032800070EC1AF0030EE1267AEC20F0006E00C01C
:1032900001F0000601500FE0D5EC1CF0E56AE56E88
:1032A000000EE56E1C0EE56EC60EE56E70EC1AF0B3
:1032B000050EE126ECD70A0E49EC1CF0E4CF01F034
:1032C000E4CF00F0120000C0E5FF01C0E5FF02C03E
:1032D000E5FF03C0E5FF04C0E5FF006A5D0E0024C2
:1032E000016E026A030E02225F0E0024036E046A5E
:1032F000030E042203C0E9FF04C0EAFF010EEF6ED3
:1033000001C0E9FF02C0EAFFEF6E002A020E005C76
:10331000E5E3006A3F0E0024016E026A030E0222FA
:1033200001C0E9FF02C0EAFFEF68002A100E005C4E
:10333000F1E3E4CF04F0E4CF03F0E4CF02F0E4CF14
:1033400001F0E4CF00F01200432073202564202513
:10335000640A0000D9CFE5FFE1CFD9FF00C0E5FF47
:1033600001C0E5FF02C0E5FF03C0E5FF04C0E5FFC3
:1033700005C0E5FF020EDBCF00F0030EDBCF01F04E
:10338000040EDBCF02F0050EDBCF03F0060EDBCF21
:1033900004F0056A3F0E0026030E0522800E015E32
:1033A000070E01160138F00B026E070E04160450CA
:1033B000022600C0E9FF05C0EAFF02C0EFFFE4CF2C
:1033C00005F0E4CF04F0E4CF03F0E4CF02F0E4CF63
:1033D00001F0E4CF00F0E4CFD9FF120000C0E5FF18
:1033E00001C0E5FF02C0E5FFD5EC1CF0006ED5EC96
:1033F0001CF0016E0050026ED00E0224006E0A0E08
:10340000005C05E30050026EF90E0224006E0150CC
:10341000026ED00E0224016E0A0E015C05E301501B
:10342000026EF90E0224016E080E005C12E2100E0C
:10343000015CD8B00ED00038F00B0124006EA3EC74
:103440001BF0016E015005E10050E56EAFEC1EF07F
:10345000E652E4CF02F0E4CF01F0E4CF00F0120036
:10346000D9CFE5FFE1CFD9FF00C0E5FF01C0E5FFFF
:1034700002C0E5FF03C0E5FF04C0E5FF020EDBCF9D
:1034800000F00038E8441F0B016E026A5B0E012653
:10349000030E022201C0E9FF02C0EAFFEFCF03F0F2
:1034A000070E0016010E046E005005E0E86CD8907F
:1034B0000436010FFDE3041C031601C0E9FF02C03E
:1034C000EAFF03C0EFFFE4CF04F0E4CF03F0E4CF62
:1034D00002F0E4CF01F0E4CF00F0E4CFD9FF120016
:1034E000D9CFE5FFE1CFD9FF00C0E5FF01C0E5FF7F
:1034F00002C0E5FF020ED924006E000EDA20016E34
:10350000800E026E030E0026000E012202220250DF
:10351000E56E0150E56E0050E56E040EDBCFE5FF71
:10352000030EDBCFE5FF020EDBCFE5FF04017F5189
:10353000E56E7E51E56E7D51E56E0EEC00F0006E9D
:10354000F3CF01F0090EE12601C0F3FF0050E4CFF4
:1035500002F0E4CF01F0E4CF00F0E4CFD9FF120095
:10356000D9CFE5FFE1CFD9FF00C0E5FF01C0E5FFFE
:1035700002C0E5FF03C0E5FF020EDBCF00F0030E43
:10358000DBCF01F0040EDBCF02F0040137510DE177
:103590000DEC1FF0036E03C0E5FF00C0E9FF01C0A2
:1035A000F3FF025037EC20F00FD004013751010A2D
:1035B0000BE100C0E9FF01C0F3FF0250AFEC1FF0C8
:1035C000E56E74EC1DF0E652E4CF03F0E4CF02F0B8
:1035D000E4CF01F0E4CF00F0E4CFD9FF1200D9CF5F
:1035E000E5FFE1CFD9FF00C0E5FF01C0E5FF02C064
:1035F000E5FF03C0E5FF020EDBCF00F0030EDBCFDB
:1036000001F059C302F05AC303F00301593F01D03E
:103610005A2B0150E56E0250E56EBFEC1DF0E652EC
:10362000E65259C302F05AC303F00301593F01D0D7
:103630005A2B0050E56E0250E56EBFEC1DF0E652CD
:10364000E652E4CF03F0E4CF02F0E4CF01F0E4CFA0
:1036500000F0E4CFD9FF1200D9CFE5FFE1CFD9FFC9
:1036600000C0E5FF01C0E5FF02C0E5FF03C0E5FFC4
:1036700004C0E5FF020EDBCF00F023C301F0026AB5
:10368000014A022A24C303F0046A0150031803E12B
:103690000250041801E001D00ED0000E03012325D2
:1036A000016E026A010E022201C0E9FF02C0EAFFB8
:1036B00000C0EFFF232BE4CF04F0E4CF03F0E4CF0E
:1036C00002F0E4CF01F0E4CF00F0E4CFD9FF120024
:1036D000D9CFE5FFE1CFD9FF00C0E5FF01C0E5FF8D
:1036E00002C0E5FF03C0E5FF020EDBCF00F0016A78
:1036F00071C302F0036A0250002603500122E56AFA
:10370000800EE56E0150E56E0050E56EE1EC14F0C0
:10371000006EF3CF01F0040EE126600E0026000ECD
:10372000012200C0E9FF01C0EAFFEFCF00F0005026
:10373000E4CF03F0E4CF02F0E4CF01F0E4CF00F0F7
:10374000E4CFD9FF120000C0E5FF01C0E5FF02C0D1
:10375000E5FF010E006ED5EC1CF0016E01C002F019
:10376000015023E00050E56EDFEC1FF0016EE652E1
:10377000015010E10A0E005C0BE20A0E006EE56ECD
:10378000DFEC1FF0016EE652015004E1E8680ED054
:10379000E8680CD00150021802E0E86807D0002A5F
:1037A0001B0E005CD8E3E86801D0E86AE4CF02F0C1
:1037B000E4CF01F0E4CF00F01200F3CFE5FFF4CF47
:1037C000E5FFE9CFE5FFEACFE5FFFACFE5FFFBCF65
:1037D000E5FF030121510F01356F030122510F0154
:1037E000366FD650336FD750346FF2A411D0030127
:1037F000213F01D0222BF294030121510F01356F9B
:10380000030122510F01366FD650336FD750346FFA
:10381000E4CFFBFFE4CFFAFFE4CFEAFFE4CFE9FF18
:10382000E4CFF4FFE4CFF3FF110000C0E5FF01C0D7
:10383000E5FF02C0E5FF03C0E5FF59C300F05AC32E
:1038400001F00301593F01D05A2B0050E56EDFEC27
:103850001FF0E652036E026A59C300F05AC301F02A
:103860000301593F01D05A2B0050E56EDFEC1FF0E9
:10387000E652016A02120150031203C0F3FF025024
:10388000E4CF03F0E4CF02F0E4CF01F0E4CF00F0A6
:10389000120000C0E5FF01C0E5FF02C0E5FF006EB9
:1038A000000E03012825016E026A0F0E022201C0DC
:1038B000E9FF02C0EAFF00C0EFFF220E285D01E22F
:1038C000282B00500A0A0FE103012851E56E800EF3
:1038D000E56E0F0EE56E000EE56EEFEC13F0040ED4
:1038E000E1260301286BE4CF02F0E4CF01F0E4CF3E
:1038F00000F012000301236B0301246B030125690F
:1039000094808B909480B06A3F0EAF6EB886AC8A7C
:10391000AC84AC8CAC90AB8CAB8E0301686B0301B8
:10392000626B0301656B0301666B0301676B000E3D
:10393000E56ADFEC1FF00301276FE6529F989F9A1C
:10394000010E0301266F04017D6B7E6B2F0E7F6FCE
:10395000EDEC1FF012000301215104017B6F030104
:10396000225104017C6FD650796FD7507A6F7B510A
:103970000301211905E104017C51030122190CE026
:103980000301215104017B6F0301225104017C6F6B
:10399000D650796FD7507A6F7CC4E9FF7BC4F4FFAF
:1039A0007AC4F3FF04017951120000C0E5FF01C0A1
:1039B000E5FF0301665103016F1905E0030166513C
:1039C0000301651902E1E86A15D066C300F003013E
:1039D000662B016A600E0026000E012200C0E9FF7E
:1039E00001C0EAFFEFCF00F06651800A02E1030157
:1039F000666B0050E4CF01F0E4CF00F0120000C08D
:103A0000E5FF74EC20F00401896B806B8983006A08
:103A100089B3002A0050010BE844F46E8051FD0B7D
:103A2000F410806FD58ED59CD59AD588D596D5942F
:103A3000D582D580F28AF184D08EF28EF28CBA8053
:103A4000FF0EBB68BA84E4CF00F01200D9CFE5FFC7
:103A5000E1CFD9FF00C0E5FF01C0E5FF020EDBCFDB
:103A600000F00050020DF450016EF3CF00F0D30EC1
:103A70000026040E012200C0E9FF01C0EAFFEECFDC
:103A800000F0EFCF01F001C0F3FF0050E4CF01F0F0
:103A9000E4CF00F0E4CFD9FF1200D9CFE5FFE1CFAA
:103AA000D9FF00C0E5FF01C0E5FF020EDBCF00F04B
:103AB0000050020DF450016EF3CF00F0E00E00262E
:103AC000000E012200C0E9FF01C0EAFFEECF00F0C6
:103AD000EFCF01F001C0F3FF0050E4CF01F0E4CFDD
:103AE00000F0E4CFD9FF1200D9CFE5FFE1CFD9FF35
:103AF00000C0E5FF01C0E5FF02C0E5FF020EDBCF1D
:103B000000F059C301F05AC302F00301593F01D03C
:103B10005A2B0050E56E0150E56EBFEC1DF0E652E9
:103B2000E652E4CF02F0E4CF01F0E4CF00F0E4CFBE
:103B3000D9FF1200D8CFE5FFE0CFE5FFE56EF3CF68
:103B4000E5FFF4CFE5FFE9CFE5FFEACFE5FFFACFE8
:103B5000E5FFFBCFE5FFC9EC0AF0E4CFFBFFE4CFC4
:103B6000FAFFE4CFEAFFE4CFE9FFE4CFF4FFE4CFCC
:103B7000F3FFE450E4CFE0FFE4CFD8FF1000D9CF4B
:103B8000E5FFE1CFD9FF00C0E5FF020EDBCF00F07B
:103B9000030EDBCFA8FF00C0A9FFA69EA69CA684AB
:103BA000F29EF29C550EA76EAA0EA76EA682A6A242
:103BB00002D00000FCD7A694F28EF28CE4CF00F085
:103BC000E4CFD9FF1200E8AE0AD0F3CFEAFFEE50FF
:103BD000EECFF3FFEECFF4FFEECFE9FF1200E8BC2B
:103BE00087EF20F0E9CFF6FFF3CFF7FFF86E09007B
:103BF000F5500900F5CFF3FF0900F5CFF4FF0900F8
:103C0000F5CFE9FF120000C0E5FF01C0E5FF0301A9
:103C100023510301241902E1E86A0FD0000E0301C9
:103C20002425006E016A010E012200C0E9FF01C0D7
:103C3000EAFFEFCF00F0242B0050E4CF01F0E4CFF7
:103C400000F01200F2CFEAFFF29EA69EA69CA68488
:103C5000E9CFA9FFF3CFAAFFE4CFA8FF4CEC20F0F7
:103C6000F4CFA8FF4CEC20F0F6CFA8FF4CEC20F0EE
:103C7000F7CFA8FF4CEC20F0A694EABEF28E12001B
:103C8000D9CFE5FFE1CFD9FF00C0E5FF01C0E5FFD7
:103C9000020EDBCF00F0016A3F0E0026030E012268
:103CA00000C0E9FF01C0EAFFFF0EEF68E4CF01F0BA
:103CB000E4CF00F0E4CFD9FF1200F2CFF6FFF29E7E
:103CC000A69EA69CE9CFA9FFF3CFAAFFA680A85085
:103CD000A94AAA2AA680A8CFF3FFA94AAA2AA680A1
:103CE000A8CFF4FFA94AAA2AA680A8CFEAFFF6BE69
:103CF000F28E1200E8AE08D0F3CFEAFFEE50EECF1E
:103D0000F3FFEECFF4FF1200E8BC8FEF20F0E9CF15
:103D1000F6FFF3CFF7FFF86E0900F5500900F5CF75
:103D2000F3FF0900F5CFF4FF1200F2CFEAFFF29E95
:103D3000A69EA69CA684E9CFA9FFF3CFAAFFE4CF55
:103D4000A8FF4CEC20F0F4CFA8FF4CEC20F0F6CF0D
:103D5000A8FF4CEC20F0A694EABEF28E1200D9CF58
:103D6000E5FFE1CFD9FF00C0E5FF020EDBCF00F099
:103D700000C027F30050E56E000EE56ABFEC1DF0B1
:103D8000E652E652E4CF00F0E4CFD9FF1200F2CFC2
:103D9000F6FFF29EA69EA69CE9CFA9FFF3CFAAFF4D
:103DA000A680A850A94AAA2AA680A8CFF3FFA94AAC
:103DB000AA2AA680A8CFF4FFF6BEF28E120000C099
:103DC000E5FF01C0E5FF600E03016625006E016A94
:103DD000000E012200C0E9FF01C0EAFFEFCF00F0B2
:103DE0000050E4CF01F0E4CF00F01200D9CFE5FF9E
:103DF000E1CFD9FF00C0E5FF020EDBCF00F0610E7E
:103E0000005C05E37B0E005C02E2010E01D0E86A73
:103E1000E4CF00F0E4CFD9FF120000C0E5FF01C0FD
:103E2000E5FF59C300F05AC301F00301593F01D027
:103E30005A2B0050E56EDFEC1FF0E652E4CF01F0A4
:103E4000E4CF00F01200D9CFE5FFE1CFD9FF00C0E9
:103E5000E5FF020EDBCF00F000C026F3005004E1C6
:103E6000EDEC1FF09D9A9D98E4CF00F0E4CFD9FFD0
:103E70001200E8AE06D0F3CFEAFFEE50EECFF3FF2C
:103E80001200E8BC85EF20F0E9CFF6FFF3CFF7FF93
:103E9000F86E0900F5500900F5CFF3FF1200F2CFDC
:103EA000EAFFF29EA69EA69CA684E9CFA9FFF3CFC7
:103EB000AAFFE4CFA8FF4CEC20F0F4CFA8FF4CEC15
:103EC00020F0A694EABEF28E120012EEFFF022EE6F
:103ED000FFF0F86AA68EA69CE9680E0EEA6E0068EE
:103EE000000EED6A0050FDE184EC18F006EC00F0E5
:103EF000FFD7F2CFF6FFF29EA69EA69CE9CFA9FFC0
:103F0000F3CFAAFFA680A850A94AAA2AA680A8CFC4
:103F1000F3FFF6BEF28E1200F2CFEAFFF29EA69EEB
:103F2000A69CA684E9CFA9FFF3CFAAFFE4CFA8FF00
:103F30004CEC20F0A694EABEF28E1200E8AE0BD054
:103F4000F3CFEAFFE4CFEEFFF4CFEEFFF6CFEEFFC4
:103F5000F7CFEEFF1200E8BC89EF20F01200E8AEC8
:103F600004D0F3CFEAFFEE501200E8BC83EF20F05C
:103F7000E9CFF6FFF3CFF7FFF86E0900F550120016
:103F80000000000000FF000000000A000200000026
:103F900042000000000000000000000000000000DF
:103FA000E8AE09D0F3CFEAFFE4CFEEFFF4CFEEFFA7
:103FB000F6CFEEFF1200E8BC91EF20F01200D9CF4F
:103FC000E5FFE1CFD9FF020EDBCFA9FFA69CA69E9D
:103FD000A680A850E4CFD9FF1200ACA2FED79480EF
:103FE000AE500000AE50AB98AB88AB869D8A9D98D2
:103FF000120025642000F2CFF6FFF29EA69EA69C3A
:10400000E9CFA9FFF3CFAAFFA680A850F6BEF28E93
:104010001200E8AE07D0F3CFEAFFE4CFEEFFF4CF13
:10402000EEFF1200E8BC8DEF20F01200700ED36E90
:104030009B8CFF0E9268936894689668626AF19E02
:10404000120000C0E5FFA3EC1BF0006E005001E180
:10405000FF00E4CF00F012000F01456B900E0F013E
:10406000446F030E0F01436F0F01458F1200E8AE3E
:1040700005D0F3CFEAFFE4CFEEFF1200E8BC8BEFF0
:1040800020F01200D9CFE5FFE1CFD9FF020EDBCF40
:104090002CF3E4CFD9FF1200550EA76EAA0EA76E1F
:1040A000A682A6B2FED7A94AAA2A010E0401376F3A
:1040B0001C0E0301596F5A6B12000401376B1C0E62
:1040C0000301596F5A6B12000100803F000020036A
:1040D00000001F000000FFEC1CF07AEC1CF0120046
:1040E000ACA2FED7AD6E120016EC20F01200030158
:1040F0006651120003017051120003012651120093
:10410000E8CF7FFF1200FBEF1FF079EF1FF05DEFAC
:104110001EF022EF1EF08CEF1FF04FEF1FF0C7EFE5
:064120001EF095EF1EF0F9
:020000040030CA
:010006008574
:00000001FF
